:020000040800F2
:100000002099002095450008D1430008D3430008FB
:10001000D5430008D7430008D9430008000000007A
:10002000000000000000000000000000DB430008AA
:10003000DD43000800000000DF430008E143000842
:10004000D5450008D9450008DD450008E145000810
:10005000E5450008E9450008474400082B4400082E
:10006000F5450008F9450008FD450008014600086F
:1000700005460008094600080D460008114600081C
:1000800015460008194600081D46000821460008CC
:1000900025460008294600082D460008314600087C
:1000A00035460008394600083D460008414600082C
:1000B0005F440008494600084D46000851460008C4
:1000C00055460008594600085D460008614600088C
:1000D00065460008694600086D460008714600083C
:1000E00075460008794600087D46000881460008EC
:1000F00085460008894600088D460008914600089C
:1001000095460008994600089D460008A14600084B
:10011000A5460008A9460008AD460008B1460008FB
:10012000B5460008B9460008BD460008C1460008AB
:10013000C5460008C9460008CD460008D14600085B
:10014000D5460008D9460008DD460008634400088B
:10015000E5460008E9460008ED460008F1460008BB
:10016000F5460008F9460008FD460008014700086A
:1001700005470008094700080D4700081147000817
:10018000154700081947000803E011F8013B00F883
:10019000013B13465A1E002BF7D1704701E000F8CF
:1001A000011B13465A1E002BF9D17047F8B50446BF
:1001B0000D46E66AAE4220D02079A8B100F01FF8C3
:1001C000002801D00120F2BD2071206AA169081821
:1001D000864209D2E77804E0A069861900F00FF89A
:1001E0007F1EFFB2022FF7D2002D06D001232A4630
:1001F00000F038FC0028E5D1E5620020F2BD0123C3
:10020000324604F13001607801F02CB938B504466B
:100210000021FFF7CBFF050057D1207803284DD1EF
:10022000607900284AD00020E0624FF4007200217B
:1002300004F13000FFF7B2FF552084F82E02AA2007
:1002400084F82F02522084F8300084F831006120B5
:1002500084F83200412084F83300722084F81402BC
:1002600084F81502412084F81602612084F81702F0
:10027000206984F8180220690004000E84F819022D
:100280002069000C84F81A022069000E84F81B0211
:10029000E06884F81C02E0680004000E84F81D0287
:1002A000E068000C84F81E02E068000E84F81F026B
:1002B00001236269FFF7A5FF002060710022002181
:1002C000607801F005F900B10125284632BD2DE91D
:1002D000F04104460D46022D02D3E069854201D368
:1002E00001206FE0266AAFB22078012804D067D3DE
:1002F000032839D01FD363E005EB550700F064F8FD
:1003000000285DD16089401E3840001990F8308087
:100310007F1C00F059F8002852D16089401E3840F7
:10032000001990F8300048EA0021E8075ABF080594
:10033000000D080946E060894008B5FBF0F000F0C8
:1003400046F800283CD16189491E11EA4701091984
:1003500091F831106289521E12EA4700001990F894
:10036000300040EA01202DE060898008B5FBF0F004
:1003700000F02DF820BB6189491E11EA8701091997
:1003800091F833106289521E12EA8702121992F80C
:100390003220120442EA01616289521E12EA870287
:1003A000121992F8312041EA02216289521E12EAA2
:1003B0008700001990F8300008430001000901E0AF
:1003C0004FF0FF30BDE8F0816089B7FBF0F0811994
:1003D0002046EBE62DE9F843044688461646B8F178
:1003E000020F02D3E069804501D3022086E0276A2C
:1003F0003004050E1FFA88F92078012804D07AD33A
:10040000032851D039D376E008EB58056089B5FB55
:10041000F0F0C119FFF7DCFF00286DD16089401EA4
:100420002840001900F230015FEAC87043BF087825
:1004300000F00F0040EA0610304608706D1C0120E5
:1004400020716089B5FBF0F0C119FFF7C1FF0028EA
:1004500052D16189491E2940091901F230015FEA30
:10046000C87248BF320906D40A7802F0F002330A93
:1004700003F00F031A430A703EE060894008B8FB9E
:10048000F0F0C119FFF7A4FFB0BB6289521E12EA57
:100490004902121982F830606289521E12EA49013B
:1004A000091981F8315027E060898008B8FBF0F025
:1004B000C119FFF78DFFF8B96289521E12EA89024D
:1004C000121982F830606289521E12EA89021219EA
:1004D00082F831506289521E12EA89021219330CD5
:1004E00082F832306289521E12EA89010919320EED
:1004F00081F8332000E0022001212171BDE8F28360
:10050000F8B504460D46022D02D3E069854201D3B9
:1005100002261EE0002629462046FFF7D8FE0700E7
:1005200017D0012FF4D017F1010F08BF012610D00A
:10053000002200F010F806000BD1206910F1010F25
:1005400003D0401C2061012060713D46E069854276
:10055000E1D33046F2BD294620463BE72DE9F04184
:1005600004460D00D4F81C8005D1E7680FB147455B
:100570000AD3012708E0FFF7AAFE022838BF0120AE
:1005800025D3404523D32F463E46761C464504D30B
:100590000226022F01D2002019E031462046FFF743
:1005A00096FEB0B96FF070423146FFF7D5FFC0B983
:1005B0001DB13246FFF7CFFF98B9E660206910F110
:1005C000010F03D0401E2061012060713046BDE85C
:1005D000F08110F1010F18BF0128F8D0BE42D4D12C
:1005E000D9E74FF0FF30F2E7891EC269921E9142AF
:1005F00001D3002070478278806A02FB01007047B7
:1006000070B504460D46E580A168012903D0206835
:10061000C269914201D3022070BD19B90178032942
:1006200001D1416A59B90021E16001898D42F2D2BC
:10063000416A4089400995FBF0F0401822E0428968
:100640005209807810FB02F6B6B206E00229E2D326
:100650002068C0698142DED2AD1B2068ADB2B542D0
:1006600007DBFFF734FE014611F1010FEED1012047
:1006700070BDE160FFF7B8FF21684989490995FB22
:10068000F1F10818206120684189490995FBF1F2D0
:1006900001FB125100EB411000F2300060610020BC
:1006A00070BDF8B504460F46E088451CADB2002D7C
:1006B00002D02169002901D10420F2BD20684289BD
:1006C000520995FBF2F302FB1352002A5AD1491C3E
:1006D0002161E16819B90089854253DBECE7428961
:1006E000520995FBF2F283785B1E1A424AD1FFF75A
:1006F000EEFD0646022E01D20220F2BD16F1010FD8
:1007000001D10120F2BD2068C1698E4234D3002F8F
:10071000D2D0E168FFF722FF060001D10720F2BD29
:10072000012EE9D016F1010FEBD0002100F061F8A5
:100730000028E6D12068428900213030FFF72EFDE5
:1007400031462068FFF750FF2168C86200270BE0A0
:1007500001210171002100F04CF80028D1D120685E
:10076000C16A491CC1627F1C20688178FFB28F4238
:10077000EED3C16AC91BC162E66031462068FFF74B
:1007800033FF2061E58020684189490995FBF1F23A
:1007900001FB125100EB411000F2300060610020BB
:1007A000F2BD70B504460021FFF72AFF002815D0DE
:1007B00070BDCA7A12070DD40B22A3690025164614
:1007C000721E2EB111F8015B13F8016BAD1BF6D050
:1007D000002DEDD000F02BF80028E9D100F008F84A
:1007E0000028E5D161690A78002AE2D1042070BDB1
:1007F00021692068DAE410B504460420216991B12A
:10080000FFF7F7FF78B961690A780AB904200BE0AD
:10081000E52A04D02E2A02D0C97A090706D500F0AD
:1008200006F80028EAD008B10021216110BD00219E
:10083000204636E770B504460021FFF7E1FE0500CB
:100840000FD1FFF7D5FF05000BD160690078E528CF
:1008500018BF002806D001212046FFF722FF05001F
:10086000EFD0A5B9FFF7C4FF050010D166692022BB
:1008700000F0B4FD0B22A1693046FFF785FCA069AA
:10088000C07A00F0180030732068012101712846F9
:1008900070BD10B50446E188FFF7B2FE40B9FFF71E
:1008A000A7FF28B96169E5220A70216801220A714F
:1008B00010BD2DE9F047884685690B222021284686
:1008C000FFF76CFC0022002081460821D8F800A028
:1008D0000FF6D41C0FF6DC1E02E008200B21224686
:1008E00019F80A3009F101099400212B03DB2F2BA1
:1008F00001D05C2B07D1D144C8F80090212BB4BFA4
:10090000042300232AE02E2B01D0884205DB08298E
:1009100001D12E2BE1D0062038E0802BA4BF7344F8
:1009200013F8803C664600E0761C3778002F18BF2D
:100930009F42F9D1002FEED1A3F141041A2C38BF08
:1009400042F0020207D3A3F161041A2C03D242F051
:100950000102203BDBB24355401CC1E70028DAD03E
:100960002878E52804BF05202870082908BF2246FA
:1009700002F00300012808BF43F0100302F00C004E
:10098000042808BF43F00803EB720020BDE8F0879D
:1009900013B5044601E0401C01900198007820281E
:1009A0000198F8D000782F2801D05C2802D1019856
:1009B000401C01900020A06001980078202806D2F9
:1009C00000F06EFC0021616116BD00F05DFC01A924
:1009D0002046FFF76EFF002813D12046FFF7E1FE07
:1009E000A169C97A01F0040120B1042809D10029C4
:1009F00007D105E0002904D16069C17AC906E4D4B1
:100A0000052016BD10B5044601230A4600F02AF859
:100A1000002801D0032010BD94F82F0294F82E1264
:100A200041EA00204AF65521884201D0022010BD3B
:100A300004F26601C9488A784B781B0243EA0242F5
:100A400094F866301A43824201D1002010BD8A7F9B
:100A50004B7F1B0243EA0242097F11438142F4D0DB
:100A6000012010BD04F13001607800F0D4BCF8B56D
:100A7000164602681378303B0A2B08D254783A2C79
:100A800005D1921C0260002B01D00B20F2BDB44CAA
:100A900065680D60002D01D10C20F2BD287868B189
:100AA000687800F0B1FC0746C00707D4002E00F0BC
:100AB0002D81780740F12A810A20F2BD002028709C
:100AC000687000F095FC0746C00701D50320F2BD11
:100AD00005F10A020221687800F0FAFC002804D12E
:100AE000688940F20141884201D30D20F2BD002EF9
:100AF00001D07807E0D4002600212846FFF782FFC6
:100B00000746012F14D105F2EE1001790029ECD02F
:100B1000C17A827A120442EA0161427A41EA0221F0
:100B2000007A40EA010631462846FFF76BFF074688
:100B3000032F01D10120F2BD002FD6D1688995F88D
:100B40003C1095F83B2042EA01218142CDD195F835
:100B5000471095F8462052EA01210DD195F857101B
:100B600095F85620120442EA016195F8552041EAB1
:100B7000022195F854201143A96195F84020EA70AC
:100B8000514395F83F2095F83E3043EA022216FA89
:100B900082F22A6295F83D20AA7095F8423095F8C5
:100BA000417047EA03232B8195F8447095F843C0C0
:100BB0005CEA07270FD195F8537095F852C04FEAB9
:100BC0000C4C4CEA076795F851C047EA0C2795F89A
:100BD00050C04CEA0707400993FBF0F095F83F300E
:100BE00095F83EC04CEA0323FB1A5B1A1B1AB3FBB1
:100BF000F2F2921CEA61012740F6F7739A4228BF8D
:100C000002274FF6F7739A420FD3032795F85F2018
:100C100095F85E301B0443EA026295F85D3042EAC3
:100C2000032295F85C301A4301E02A6A8A186A6246
:100C30002A6A89184018A8624FF0FF302861002006
:100C40002871032F5BD1687195F8610095F86010E9
:100C500041EA002016FA80F26A61012305F13001B1
:100C6000687800F0D8FB002849D195F82F0295F854
:100C70002E1241EA00204AF6552188423FD195F8CC
:100C8000330095F83210090441EA006095F83110FC
:100C900040EA012095F830100843324988422ED1AD
:100CA00095F8170295F81612090441EA006095F8C4
:100CB000151240EA012095F8141208432A49884287
:100CC0001DD195F81F0295F81E12090441EA006033
:100CD00095F81D1240EA012095F81C120843E860BF
:100CE00095F81B0295F81A12090441EA006095F87C
:100CF000191240EA012095F81812084328612F7054
:100D00000020E8622088401C2080E8800020F2BD9E
:100D100080B5002805D00278002A02D0C2888A4215
:100D200001D0092002BD407800F06EFBC00701D55C
:100D3000032002BD002002BD002801D00B20704717
:100D4000074842680AB10023137000291CBF002223
:100D50000A704160002070470000000046415400C6
:100D60000895002052526141727241612DE9F241B1
:100D70008BB004460020206002F01F0505F01E0223
:100D800000A90BA8FFF773FE00281BD100F02AFB77
:100D90001C210D4256D050B1042813D100A8FFF7F2
:100DA00049FD00280ED145F00805059E35E068078D
:100DB00048BF08207AD4059E1EB1F07A112108425E
:100DC00001D0072072E0280748D5707D317D41EAC7
:100DD0000020F17EB27E42EA012141EA0047002074
:100DE00030757075B076F07630777077B077F077D1
:100DF0000098012101710098D0F82C803FB139464C
:100E0000FFF77EFB002851D10098791EC160414652
:100E10000098FFF7CBF9002848D128071ED50020FD
:100E2000F07200F07BFB0146B1730004000EF0731A
:100E3000080C3074080E707400980121017145F09F
:100E400020050BE090BB059E16B1F07AC10601D5D6
:100E500004202BE0A90701D5C007B2D40098C06ACE
:100E6000E06105982062A571707D317D41EA002026
:100E7000F17EB27E42EA012141EA00402061F07F2A
:100E8000B17F090441EA0060717F40EA0120317FAF
:100E90000843E0600020A060FF20E0710020A06116
:100EA000009820600098C088A08000200CB0BDE8A9
:100EB000F0812DE9F843054691461E4688460020FC
:100EC0003060A9882868FFF723FF002803D1A8799C
:100ED000010601D502209FE0C00758BF0720FAD5C0
:100EE000E868A968401A48453BD8814639E0A979A5
:100EF00049060BD50123AA6905F1240100F068F920
:100F000000284ED1A87900F0BF00A871A869A042BE
:100F100008D00123224605F12401286800F055F984
:100F200000283ED1AC61E879401CE87100F044F93A
:100F30004C46914588BF144649892246B0FBF1F3DF
:100F400001FB1300401900F124014046FFF71CF992
:100F5000A044A8682018A860306820183060A9EB69
:100F60000409B9F1000F56D0A96828684289B1FB7D
:100F7000F2F302FB1312002AD8D1EA7983789A425D
:100F800018D300290EBF28696969FFF7A0F9022864
:100F900004D2A87940F08000A8719BE710F1010FFE
:100FA00005D1A87940F08000A871012034E0686183
:100FB0000020E87169692868FFF716FB0028E8D06F
:100FC000E9790C1828684389B9FBF3F7002F8ED014
:100FD00083787A18934238BF5F1AFBB222464146A3
:100FE00000F0F3F80028DCD1A87940060BD5A869F9
:100FF000001BB84207D22B685A8905F1240102FB75
:101000000080FFF7C1F8E8793818E871286840894E
:1010100007FB00F49CE70020BDE8F2832DE9F843CC
:1010200005461646994688460020C9F80000A9885A
:101030002868FFF76DFEB8B9A879010601D502202E
:1010400012E0800758BF07200ED5E86831188142AA
:101050003ED2E868A968884238BF0846E860A879A7
:1010600040F02000A8710020BDE8F283A969A142E8
:101070000BD0A968EA68914207D20123224605F104
:10108000240100F0A2F8002849D1AC61E879401CA5
:10109000E87100F091F83446964288BF14464B89B7
:1010A00022464146B0FBF3FC03FB1C0040192430F0
:1010B000FFF76AF8A87940F04000A871A044A8683A
:1010C0002018A860D9F800002018C9F80000361BC5
:1010D000002EBED0A96828684289B1FBF2F302FB5A
:1010E0001312002AD5D1EA7983789A4220D331B9F4
:1010F000296941B9FFF732FA0146296103E06969BC
:10110000FFF72CFA01460029A3D0012904D1A879C0
:1011100040F08000A87192E711F1010F05D1A87984
:1011200040F08000A87101209EE769610020E8710D
:10113000A87940060CD50123AA6905F12401286885
:1011400000F046F80028EAD1A87900F0BF00A871A5
:1011500069692868FFF748FA0028D8D0E9790C189F
:1011600028684389B6FBF3F7002F3FF47FAF8378FD
:101170007A18934238BF5F1AFBB22246414600F00C
:1011800027F80028CBD1A869001BB8420CD22968E7
:101190004A89114601FB008105F12400FEF7F4FFA6
:1011A000A87900F0BF00A871E8793818E8712868BC
:1011B000408907FB00F481E7A86829684A89131A67
:1011C000B0FBF2FC02FB0C327047407800F023B910
:1011D000407800F047B938B500F0ACF800284AD1A3
:1011E000A1798A0647D548060ED50123A26904F1E4
:1011F00024012068FFF7ECFF002801D0012032BD58
:10120000A07900F0BF00A071E169FFF7F2FA0028B1
:1012100031D1256AE87A40F02000E872E06828774A
:10122000E0680004000E6877E068000CA877E068CA
:10123000000EE8772069A87620690004000EE876A1
:101240002069000C28752069000C000A687500F000
:1012500065F9A8750104090EE975010C2976000EDF
:101260006876A07900F0DF00A0712068012101718B
:101270002068FEF7CBFF32BD10B50446FFF7ABFF89
:1012800008B90021216010BD417D027D42EA0121A3
:10129000C27E807E40EA022040EA0140A0607047A2
:1012A00000212046FFF7ACB920222A2B2C5B3D5DA4
:1012B0007C7F0000808182838485868788898A8BF1
:1012C0008C8D8E8F90919293949596979899AD9BD3
:1012D0008C9DAE9FA021A2A3A4A5A6A7A8A9AAAB56
:1012E000ACADAEAFB0B1B2B3B4B5B6B7B8B9BABBC6
:1012F000BCBDBEBFC0C1C2C3C4C5C6C7C8C9CACBB6
:10130000CCCDCECFD0D1D2D3D4D5D6D7D8D9DADBA5
:10131000DCDDDEDFC0C1C2C3C4C5C6C7C8C9CACB15
:10132000CCCDCECFD0D1D2D3D4D5D6F7D8D9DADB65
:10133000DCDDDE9F0446A1882068FFF7E9BC11B51B
:1013400091B0012200A911A8FFF791FB08B112B0DA
:1013500010BD07A80690119900A8FFF719FB0028F7
:10136000F5D1059808B90620F1E7C17ACA0701D579
:101370000720ECE7427D037D43EA0222C37E807EA4
:1013800040EA032040EA0244C80616D5022C38BFC2
:101390000220DCD31C2200A90AA8FEF7F5FE0C945B
:1013A00002210AA8FFF72CF90028D0D10AA8FFF7DC
:1013B00022FA0028DCD00428C9D100A8FFF769FA76
:1013C0000028C4D12CB121460098FFF799F80028D5
:1013D000BDD10098FEF71AFFB9E7428900213046D7
:1013E000FEF7DCBE07A806900B9900A8FFF7D0BA5D
:1013F00010B5464C464800F0C8F818B1207800F007
:10140000FE002070207810BD002801D00120704718
:101410003E48007870472DE9F0410C4615461E46BF
:1014200000B90EB904201BE038480078C00748BF57
:10143000032015D400F042F888B173022A462146F1
:10144000404600F02BFA00F03EF8404600F09DF8D0
:1014500008B9012004E0032FEFD0002FF9D10020BC
:10146000BDE8F0812DE9F0410C4615461E4600B955
:101470000EB9042020E025480178C90748BF0320A1
:101480001AD40078400748BF022015D400F016F89F
:1014900088B173022A462146404600F0B6F900F0B2
:1014A00012F8404600F071F808B9012004E0032F5B
:1014B000EFD0002FF9D10020BDE8F081DFF8508097
:1014C000404600F062B807461249404600F066BA4E
:1014D000002819D101200D4B1B78DB0701D5032013
:1014E00070474FF4007300290AD0022907D002D3B5
:1014F000032907D008E008480068106000E0138066
:101500000020704713607047042070479800002047
:10151000A480002054850020F8940020002070470B
:1015200010B504460020C4F81002002304EB80022A
:10153000C2F81432C2F85032021982F88C32401CC0
:101540000F28F3DB0820A4F8B202204600F0AEFB1F
:10155000204600F070FC204600F006FC01212046E9
:1015600000F0A0FC204600F0C1FC204600F05EFC2C
:10157000002010BDD0F8CC000068C0F34140704797
:1015800080B500F040FD002002BDD0F81002704789
:101590004069806880B27047081890F89B027047D5
:1015A00000EB8100D0F8500270470A18002382F83F
:1015B0009B3200EB4112C2F8C03200F0ACBD10B457
:1015C00050F8041B81B102681218001D50F8043B4A
:1015D000DC0744BFA9F10104E31852F8044B43F8B7
:1015E000044B091FF9D1EBE710BC704738B500F088
:1015F000C3F8002833D0DFF86403C178012902D092
:1016000002291CD02BE0DFF8581300228A600A73ED
:1016100006228A73DFF84C2382603F228281847025
:10162000102200255318DD73521EFBD1CD7301210A
:10163000017107210170C4730221C1700FE0C17BE9
:1016400019B90121C170002409E0012904BFC1704A
:10165000012404D0022902D10121C17002242046B4
:1016600032BD38B500F088F800283FD0BE49BB48ED
:10167000C278012A02D0022A1AD037E0B84A0823D9
:101680009360802313730A23937381600421817014
:10169000102100258B18DD73491EFBD12521D17344
:1016A0000121017107210170C4730221C1701DE085
:1016B000C27B82B9AD4A0B78D3704B7893708B782C
:1016C0005370CB7813708B795372C97911720121E1
:1016D000C17000240AE0012A02BF0121C170012467
:1016E00004D0022A02D10121C1700224204632BD59
:1016F00038B500F041F800283CD09B499748C278A3
:10170000012A02D0022A1DD034E0954A3F2393607B
:10171000802313730A239373816005218170102144
:1017200000258B18DD73491EFBD11A21D1733F218F
:101730005174D1740121017107210170C473022118
:10174000C17017E0C27B52B9897811F0800118BFCF
:101750000121864A11730121C17000240AE0012A87
:1017600002BF0121C170012404D0022A02D101214B
:10177000C1700224204632BD0324FFF706BF38B5EE
:10178000FFF7FAFF00283ED0774A7448C178012954
:1017900002D002291ED036E071493F238B6080239E
:1017A0000B730A238B7382608278427006228270E8
:1017B000102200255318DD73521EFBD1CC730D741B
:1017C0003F22CA740121017107210170C4730221F3
:1017D000C17018E0C17B61B964491378CB7153784B
:1017E0008B7193784B71D2780A710121C1700024FA
:1017F00009E0012904BFC170012404D0022902D1EB
:101800000121C1700224204632BD76B50E461D4628
:10181000FFF7B2FF00283FD05048C178012902D01D
:1018200002292CD038E04E498D6000220A730A222A
:101830008A738660102200265318DE73521EFBD175
:101840002A22CA739DF807204A749DF806208A74DC
:101850009DF80520CA749DF804200A756A0AADF83F
:1018600000209DF801208A759DF80020CA7501218D
:10187000017107210170C4730221C1700CE0C17BAA
:1018800019B90121C170002406E00129F5D002290F
:1018900002D10121C1700224204676BD2DE9F64116
:1018A00080460F461D46324C032020704046FFF70D
:1018B0006CFE00284FD0294EF078012802D0022873
:1018C0002ED048E026488560802101730A2181736B
:1018D000B760102100230A18D373491EFBD12821B9
:1018E000C1739DF8071041749DF8061081749DF82E
:1018F0000510C1749DF804100175690AADF8001057
:101900009DF8011081759DF80010C175012030719E
:10191000072030700320F0730220F070032019E0DC
:10192000F07B38B94046FFF730FE18B10120F07067
:1019300000200FE0F07B012806D14046FFF725FE8E
:1019400010B10120F07006E0F07B022803D10120E5
:10195000F070022020702078BDE8F681A894002065
:10196000D8940020B89400205C920020F8940020C5
:101970009900002010B5A04CFFF707FE40B19F482A
:101980009F4901609F494160002141730120E0703F
:10199000002060629C480021017010BD2DE9F041DB
:1019A00005468846FFF7F1FD002815D0934F974E66
:1019B000914C2079401E07280ED8DFE800F0040E75
:1019C000316291A8BFCE73781F22394600F0D6F855
:1019D0000120607102202071CAE000F0CBF80128DC
:1019E00013D10020606202206071387B00F080001B
:1019F000B96841B1A162A168E162802808BF0320F3
:101A0000E9D00420E7E70520E5E7022808BF607970
:101A1000E1D00428E0D1012084F820000820DAE792
:101A2000317800F0A8F8012802D0617903291ED08E
:101A30000020606203206071E16AA26A412A0CD32F
:101A400033784022284600F09AFCA06A4038A06211
:101A5000E06A00F24000E0628AE0002AD3D03378E6
:101A600092B2284600F08BFC0020A06280E004289F
:101A7000FCD1002084F8200007202071052060712F
:101A800076E000F077F8E16A01281AD10020606260
:101A900004206071A26A412A0AD37378402200F0C0
:101AA0006DF8E06A00F24000E062A06A4038DCE7CE
:101AB0000AB905208FE7737892B200F05FF8002032
:101AC000D3E7022805D173784022403900F056F858
:101AD0004EE004284CD1012084F820000820CCE7F7
:101AE0000520607104F11000A0603F20A0810D204E
:101AF00004F1100100224254401EFCD122743378BC
:101B00003F22A168284600F03AFC062063E73178BE
:101B100000F031F801280AD10020606205206071D0
:101B2000A07820704146284600F043F81FE00428C2
:101B30001ED1002084F8200007204CE700224146F7
:101B4000284600F01EF838B994F82000022808BF93
:101B5000082000D060793EE706E001224146284691
:101B600000F00FF80028F5D0042801D10220E0731E
:101B7000BDE8F08171782846FFF70EBD284600F0D9
:101B8000F3BB10B50123214C12B1012A03D007E0A9
:101B90002378E27801E06378A27800F089FC0346BC
:101BA0001548416A491C4162052928BF042318468B
:101BB00010BD70B5064601250F4CFFF7E6FCC0B11D
:101BC000124801783046FFF7EBFC0D2810D1206950
:101BD0000F4988420CD1606908494968884208D198
:101BE000207F08B9002504E0012802D0022800D196
:101BF0000225E573284670BDA8940020D8940020E3
:101C00005553424350403020169500205C940020EC
:101C10005553425370B582B0044600200090DFF85F
:101C200060562E46032000F0B7FDE0680169009180
:101C3000761E12D000990029F4D5009941F00101D7
:101C4000009100990161016900916D1E02D0009917
:101C5000C907F8D4032000F09FFD002076BD30B501
:101C6000C4787CB9DB1C5D1003EB957300EB82003C
:101C7000D0F8D00003E051F8042B0260641CB4EBF0
:101C8000A30FF8D3002030BD10B50023D21C541090
:101C900002EB9472D0F8D00003E0046841F8044BE2
:101CA0005B1CB3EBA20FF8D3084610BD30B5002281
:101CB000C270012383704023838001290CD14FF02F
:101CC000A042C17208210170042141704FF4A0713B
:101CD000C180022101720AE049B9DFF8A825C1726A
:101CE0000C210170062141704FF4A061C180C260D7
:101CF00002F50061016100210AE000EB810302EBC3
:101D0000411404F510659D6104F530645C65491C5F
:101D100043789942F1D302F58061416102F588610F
:101D2000C0F8CC10002108E000EB810302EB411465
:101D300004F5A064C3F89040491C03789942F3D39A
:101D4000002108E000EB810302EB013404F580542C
:101D5000C3F8D040491C03789942F3D302F560617F
:101D6000C0F80C11002030BD38B50446E068217A77
:101D7000012918D1816B21F48031627A0AB141F4D2
:101D800080118163C168DFF80025114041F0100126
:101D9000C1602046FFF73EFFE07801283AD1E068B5
:101DA0002A21816036E0C16841F04001C1602046CF
:101DB000FFF730FF4FF48031207A032808BF4FF43B
:101DC000403141F43011607A08B141F48011E0688B
:101DD0008163142000F0E2FCE068C168227A032AE3
:101DE00008BF41F48031C160217A032912D1016B0F
:101DF000DFF898241140DFF8982442EA01050563D2
:101E0000C82000F0CBFCE06845F400010163C82065
:101E100000F0C4FCE078012806D1E068816821F078
:101E20001E0141F02A018160002032BDC068816836
:101E300041F0010103E0C068816849084900816000
:101E40000020704780B500220092009A42F02002E4
:101E50000092009A61F38A12009200F01DF8026964
:101E60000092491E02D0009A9206F8D40FE080B585
:101E700000210091009941F01001009100F00CF850
:101E800002690092491E02D0009AD206F8D40320BB
:101E900000F082FC002002BDC06800990161DFF8FB
:101EA000E013704780B5C068C26822F0C0420129C3
:101EB00008BF42F0005202D009B942F08042C2602D
:101EC000322000F06BFC002002BDC068406900F0C9
:101ED0000100704780B5FFF7F8FF012818BF002008
:101EE00002BDC068416980690840704738B5044642
:101EF000002500F035FCD4F80C01056001212046D6
:101F000000F06FF860690068616920F00400086003
:101F1000E07A01280BD1E06880214162E068DFF8B7
:101F200074138162E068DFF87013C0F800111021AB
:101F30002046FFF787FF2046FFF799FF4FF0FF325B
:101F400009E004EB8500D0F890108A60D0F890008A
:101F50000021C1606D1C20788542F2D3012120460A
:101F600000F00CF8204600F027F8002032BD406950
:101F7000806800F0010080F00100704738B5044629
:101F80000D4600F0E5FB204600F034F8C10406D40D
:101F9000012D04D140F48050D4F8CC100860C10465
:101FA00005D525B9D4F8CC1020F480500860C8209D
:101FB000BDE8324000F0F2BB0021C26891614FF0F1
:101FC000FF33536153605361B44B9361C07800B9E0
:101FD0001021B34801439069884308439061002071
:101FE000704740690268920801F0030151EA8201DA
:101FF00001607047D0F8CC00006820F02E007047D8
:1020000040694069704738B50446FFF7F3FF4FF465
:10201000807141EA0005D4F8CC0005600A2000F088
:10202000BDFBD4F8CC0025F480710160142000F0D1
:10203000B5FB012032BD70B5002300EB8102D2F860
:1020400090504FF0FF36AE60C578012D08BF0423D5
:1020500000EB411505F2AC2466792EB1022E03D0B7
:1020600017D3032E0FD01CE040F299463343A678D5
:1020700016B14FF4807613E043F04003267986B121
:1020800043F020030DE040F299663343A67846B151
:10209000EFE740F221263343A67816B14FF4C0761D
:1020A0003343D2F89060F36043699B69012606FAD6
:1020B00001F1194343699961C168896941F000716F
:1020C000C068816195F8AC02800500F0FE5061782F
:1020D000C90201F4F0410843A178C90301F40041A9
:1020E0000843E17802290CBF0121002140EA414068
:1020F0006179890401F440210843E188490550EAE7
:1021000051506179032908BF40F00050D2F8901077
:102110000860002070BD2DE9F04704460D4604EB31
:10212000451808F2B82708F2AE26796871B1B2886E
:1021300011FA82F1491EB1FBF2F189B2B1F5807F4B
:1021400005DD4FF4807112027A6000E0012198F8F9
:10215000AE2212B1B2884A437A6004EB85097868EE
:102160004003504A02EAC14151EA5030B17949076F
:1021700001F0C0410843D9F890100861E0780128C7
:1021800004D1D9F89000D8F8B8124161D9F890007C
:10219000006820F0005A2046FFF7E9FE4AEA407046
:1021A00020F0804040F00040D9F890100860E078BE
:1021B00048BB98F8AE0230BB786820B3F07828B1FD
:1021C000022803D00CD303280AD014E0E068C06AC8
:1021D00000F01CF80FD2E068806940F0200008E0B1
:1021E0006069006900F012F805D2E068806940F08B
:1021F0008060E16888617B689BB22A46D8F8B81293
:102200002046FFF72CFD0020BDE8F0877968C91C47
:10221000890380B2B0EB114F704730B500EB8101FC
:10222000D1F89020126842F04042930C54006408A8
:1022300003252B4203D003F00303022B02D1C06815
:10224000C06A01E0406900690002000E08BF224632
:10225000D1F890000260002030BD00EB8100D0F882
:102260009010114A0A61D0F89010096821F080415D
:1022700041F00041D0F8900001600020704700005C
:10228000410D03000000044037FFB5FFFFFF00F3DE
:1022900000002D1480006000E00060000008008055
:1022A000080020230000F81F0000088070B50C46CD
:1022B00015461E466179FFF76FF901460120E27865
:1022C000012A02D0022A0AD070BD2178617009214A
:1022D0002170A560A68120770221E17070BD0129DF
:1022E00002D1E070002070BD032902D1E07002200D
:1022F00070BD042904BFE070032070BD10B500EB71
:102300004213002483F8AE42032483F8B442C3F896
:10231000B8120821C3F8BC121146FFF746F9C0B243
:1023200010BD38B500EB4314002584F8AE52C4F854
:10233000B81204F2B8214A600AB901224A7304F2C1
:10234000AE22497B01B1022191712DE038B500EB3D
:102350004314012584F8AE52022584F8B452C4F81F
:10236000B812C4F8BC221FE038B500EB43140025B6
:1023700000F010F8497B01B10221917114E038B5E9
:1023800000EB4314012500F005F8097B01B102219F
:10239000917109E084F8AE52C4F8B81204F2B82181
:1023A0004A6004F2AE2270471946FFF7FEF800209B
:1023B00032BDF0B583B000F026F84FF480730022F0
:1023C00000F04EF8070005D12A46314604F12200FC
:1023D00000F084F83846FEBDF0B583B000F013F885
:1023E0004FF40073002200F03BF8070009D100957C
:1023F000334604F1500204F13E0104F1340000F0D0
:102400009DF83846FEBD0C46154600F210160195A3
:10241000009670477CB51D46069C00F21016A4B2CB
:10242000019400964FF440731343002200F018F813
:10243000010014D17178032911D131788A1E944298
:10244000A4BF8C1EA4B2B61C002104E08A5D05F86E
:10245000012B891C89B2A142F8DB0021297076BDCD
:1024600038B5049D059C42F080020A7506224A7523
:10247000CB8203F47F424FF440739A420CBF40F288
:10248000094200220A834C83A3B22A46FFF70EFFBB
:1024900032BD00230B75052302E000230B750923D1
:1024A0004B75CA8200220A834A830023FFF7FEBECF
:1024B00010B502240C7501244C750024CC820A83CB
:1024C0004C8300EB4313120622464CBF83F8C42210
:1024D00083F8C5220023FFF7E9FE10BD10B50B7885
:1024E00003704B7843708B78CC78240254FA83F3D2
:1024F00043800B7903714B7943718B798371CB796D
:10250000C371092A19D30A7A4B7A1B0253FA82F251
:1025100002818A7ACB7A1B0253FA82F242810A7BC9
:102520004B7B1B0253FA82F282818A7B8273CA7BC5
:10253000C2730A7C0274497C417410BDF0B5059CDD
:102540001D7805705D7845709D78DE78360256FA04
:1025500085F545801D7905715D7945719D79857198
:10256000DD79C5711D7A0572A4B20A2C54D30479A1
:10257000032C51D200242CE01F78FB185F78052F24
:1025800021D176B202EBC60793F800C087F800C0ED
:1025900093F801C087F801C093F802C087F802C021
:1025A00093F803C087F803C093F804C093F805E0DC
:1025B0004FEA0E2E5EFA8CFCA7F804C093F806C012
:1025C00087F806C0761C77B295F804C06745D3DB60
:1025D000641C65B20679B5421EDA1D78EB185D7889
:1025E000042DF6D164B204EBC4056D181E782E706C
:1025F0005E786E709E78AE70DE78EE701F792F7107
:102600005E796E719E79AE71DE79EE711E7A2E72F0
:102610000026032FDCD2D6E7F0BD50F8041B61B1D1
:1026200050F8042BD30744BFA9F101039A180023E3
:1026300042F8043B091FFAD1EFE7704780B500214B
:10264000002000F04BF9002000F00AF9012000F012
:1026500007F9022000F004F90320BDE8024000F071
:10266000FFB810B584B00121012000F0A9F94FF4A2
:10267000D050019003208DF8090002208DF8080049
:102680000020ADF80A006B4C00F037F80A2209214F
:1026900000F037F80A220B2100F033F80A220C214F
:1026A00000F02FF84FF48060019001208DF80A00AF
:1026B0008DF80B0003208DF8090000F01EF80A22A7
:1026C000114600F01EF801214FF4804000F093F90C
:1026D0000121802000F07DF900214FF0006000F022
:1026E000CCF94FF4A06000F097F91C2000F024F81A
:1026F0000121084600F076F91FBD01A9204600F02F
:10270000D1B9204600F012BA80B54FF4C06000F095
:1027100083F9432000F010F817208DF80000012005
:102720008DF8010002208DF8020001208DF80300D1
:1027300000A800F076F901BD8DF8000001208DF8A9
:1027400001008DF802008DF8030000A800F069B9BF
:10275000394811B9012100F0E5B9012100F0E4B9CF
:102760001CB50121042000F02BF90120009003206A
:102770008DF8050001208DF804000020ADF806005A
:102780002D4C00A9FFF7BAFF0121204600F0CAF93D
:10279000C82000F003F813BD022117E0012115E065
:1027A00080B501214FF0804000F02EFA00280CD0B7
:1027B00000F04BF82148016819B10168491E016019
:1027C00001BD4FF0804000F0FFF901BD3EB50D4660
:1027D0001A4C206000F03EF8002200F031F8022D83
:1027E00008BF0B2003D0012D02D142F6DF6001901B
:1027F0000520ADF800000020ADF80800ADF802009B
:1028000000A94FF0804000F0A3F900F01EF801216C
:102810004FF0804000F0CEF9012200F011F80121C4
:102820004FF0804000F0D0F920680028FCD100F083
:1028300011F837BD0000024000080240109500204A
:1028400001214FF0804000F0D7B901214FF08040C6
:1028500000F0E4B900214FF0804000F0B5B900006D
:102860001CB5044601210FF2301050F8240000F08E
:10287000A7F80FF21C1030F81400009001208DF81A
:10288000040000208DF8060001208DF807000220CA
:102890008DF8050000A93C4850F8240000F002F92A
:1028A00013BD394951F820100FF2E40232F810003C
:1028B00008837047344951F820100FF2D40232F8DF
:1028C000100048837047304951F820104A690FF2D0
:1028D000C00333F8100050404861704730B585B0F0
:1028E00004460D4601210FF2C40050F8240000F008
:1028F00067F801214FF4804000F07DF800208DF84A
:1029000010008DF813000FF2A00030F814000390AF
:1029100003A91E4850F8240000F0C4F8012D28D166
:102920000FF29400215C0FF28C00205C00F07AF929
:102930000FF27C0030F81400019000208DF80800A0
:1029400008208DF8090001208DF80A0001A800F088
:102950007DF90FF26800205C8DF800000F208DF8E3
:1029600001008DF8020001208DF8030000A800F09E
:1029700058F805B030BD0FF2300131F81010034A9D
:1029800052F8200000F0C6B85C000020940000203F
:102990000010002000400080080000000800000037
:1029A0000800000008000000010000000100000015
:1029B0000100000000000000000000000600000010
:1029C000114A0029116814BF084321EA0000106071
:1029D00070470E4A0029116814BF084321EA00001D
:1029E000106070470A4A0029116814BF084321EAA1
:1029F000000010607047074A0029116814BF08439F
:102A000021EA00001060704730380240343802403C
:102A100040380240443802401B4908431B490860C3
:102A2000704770B503781A460121C478ECB1174B92
:102A30001B6803F4E063C3F5E0631B0A4478C3F149
:102A40000405AC4085780F2646FA03F32B40234358
:102A50001B010F4C1355007842110E4B00F01F0064
:102A600001FA00F043F8220070BD50110A4A03F049
:102A70001F03994042F8201070BD084A11400843D6
:102A800007490860704700000000FA050CED00E0FF
:102A900000E400E000E100E080E100E080FFFF1FD3
:102AA00008ED00E0F0B50022012393400C681C40C3
:102AB0009C422BD154000325A540ED4306682E40CF
:102AC000066006680F79A7403E4306600E79012E26
:102AD00001D0022E11D186682E40866086684F791B
:102AE000A7403E438660466826EA03034360436886
:102AF0008E799640B6B233434360C3682B40C360BF
:102B0000C368CD7905FA04F42343C360521C102A2C
:102B1000CAD3F0BD0022006980B2084218BF01226A
:102B200010467047018370474183704710B5CB1042
:102B300000EB830001F007018900036A0F248C4039
:102B4000A3430362036A02FA01F11943016210BD53
:102B500030B50488274A214B98420DD090420BD0C3
:102B6000B0F1804F08D01E4DA84205D01D4DA8429F
:102B700002D01D4DA84204D14FF68F752C404D88D0
:102B80002C431A4DA84207D0194DA84204D04FF645
:102B9000FF452C400D892C4304804C68C4620C888E
:102BA0000485984201D0904201D1897A01860121A1
:102BB000818230BD0029018812BF41F080014FF6AB
:102BC0007F721140018070470029018812BF41F0D7
:102BD00001014FF6FE721140018070470000014074
:102BE0000004004000080040000C004000100040BD
:102BF0000014004000040140002A828914BF1143E0
:102C000022EA0101818170470022038A80890840FD
:102C10000B4201D000B1012210467047C943018226
:102C20007047000030B501F00302920021F003016B
:102C3000054BCC580F259540AC43CC50CC58904018
:102C40002043C85030BD00000838014030B501684D
:102C5000CB4321498279002A27D00A4614682340B1
:102C6000136053680468A3435360037951FA83F4F3
:102C7000236805682B43236093680468A34393602B
:102C8000D3680468A343D36043790568102B07D148
:102C9000916829439160D16800680843D06030BDD5
:102CA00051FA83F42068284304E0007951FA80F453
:102CB00020681840206030BD0021074A1368034097
:102CC0005269024201D003B101210846704703490D
:102CD0000860704700000000003C0140143C0140C7
:102CE0002DE9F84304460025FFF7F4F8002868D0E2
:102CF0002046FFF7F6F8060063D0300703D5E068FA
:102D0000082141610125F00603D5204600F01CFB97
:102D10000543B00603D5204600F056F80543700180
:102D200003D5204600F0A3F80543B00123D54FF0AA
:102D3000000900272046FFF763F9804604E000F011
:102D400065F9074309F101092078814512D2012074
:102D500000FA09F01FFA88F10142F3D004EB890070
:102D6000D0F890000068000449462046E7D500F0FE
:102D7000FEF9E6E73D43F00103D5204600F0F5F803
:102D80000543B0000DD50020C4F810022046D4F849
:102D9000AC1409688847E0684FF00051416145F084
:102DA0000105B0020DD5D4F890000068D4F8901059
:102DB00040F040400860E0684FF40011416145F088
:102DC00001052846BDE8F283F8B50446E068C56A07
:102DD000C5F3417004EB4010D0F8BC02C01C87085A
:102DE00036E000F0A1F804D200F094F821F02001C0
:102DF000816100F0A4F8C5F3417004EB4010C5F305
:102E0000417104EB4111D1F8B8127118C0F8B81231
:102E1000C5F3417004EB401000F2B820C5F34171D6
:102E200004EB411101F2B8214968891B4160C5F3E7
:102E3000417004EB401000F2B820C5F3417104EB7F
:102E4000411101F2B821896871188160E068C56A92
:102E5000BFB2A8B2874208D2C5F3417004EB40105C
:102E600000F2B82040680028BBD10120F2BDF8B5BF
:102E7000044660690569C5F3417004EB4010D0F861
:102E8000BC02C01C870836E000F04EF804D200F007
:102E900041F821F08061816100F051F8C5F3417083
:102EA00004EB4010C5F3417104EB4111D1F8B812A5
:102EB0007118C0F8B812C5F3417004EB401000F26D
:102EC000B820C5F3417104EB411101F2B821496802
:102ED000891B4160C5F3417004EB401000F2B8203B
:102EE000C5F3417104EB411101F2B82189687118F1
:102EF000816060690569BFB2A8B2874208D2C5F394
:102F0000417004EB401000F2B82040680028BBD1AB
:102F10000120F2BDC5F3417004EB401000F2B8206F
:102F20008688E06881697047AE00B6B2C5F341702B
:102F300004EB401000F2B8204068B0427047C5F37F
:102F4000417004EB401000F2B8204068C01C8708B4
:102F50003346680F00F00302C5F3417004EB4010E4
:102F6000D0F8B8122046FEF77ABEF8B50446002025
:102F70000026D4F8CC100D68096821F02E07A907A7
:102F800008D52046D4F8AC144968884747F00207B2
:102F90000120012629072BD547F00807690727D507
:102FA0000121C4F81012690C01F00302022A01D0B9
:102FB000012A1CD16269136801F0030102290BD1B7
:102FC00041F27071516003F00301022910D0E07AE0
:102FD00001280CD1022107E04BF68031516003F04B
:102FE0000301012904D001212046FEF7FAFF012048
:102FF000A90644BF47F02007012610B12046FFF77D
:1030000002F8D4F8CC0007603046F2BDF8B500EB0A
:103010008104D4F89050AA68EB6813402A685E07D0
:103020000AD50420A860D4F89000C068D4F89010A5
:1030300040F00200C86083E09E0648BF202026D4EE
:103040000E18DF0706D500F084F80120A86086F886
:103050008C0275E01F0705D50822AA6000F07CF8F5
:103060000520F4E7DF0605D500F073F81020A8600E
:103070000320ECE71F060BD500F064F8D4F8140227
:10308000401CC4F81402062086F88C02802056E00A
:103090005F0605D500F05DF84020A8600420D6E763
:1030A0005F0509D500F04EF81020A860082086F8CA
:1030B0008C024FF4806042E09B0741D5EB6823F01F
:1030C0000203EB6000EB411396F88C72012F0ED1D6
:1030D000012086F89B02900C00F0030002282DD1FD
:1030E00003F2B020417D81F00101417526E096F8A0
:1030F0008C22032A03D1022086F89B021EE096F858
:103100008C22042A07D193F8B022012AF3D1C9B244
:10311000FFF7A3F8EFE796F88C02052808BF042014
:10312000EAD096F88C02062808D1D4F814020328B5
:1031300004D186F89B020020C4F814020220A86083
:103140000120F2BDEA6842F00202EA60C9B2FFF76C
:1031500064B80022C4F81422D4F89020D268D4F8BD
:10316000903042F00202DA60C9B2FFF756B82DE99A
:10317000F84F80460D4608EB850BDBF89070B86879
:10318000F96801EA0004D7F8009005EB080A600727
:103190000AD50420B860DBF89000C068DBF8901016
:1031A00040F00200C86025E0A00648BF202020D4DF
:1031B00020070FD5F86840F00200F86005208AF873
:1031C0008C021020B8600820B86024F0100400F0D1
:1031D000ABF80FE060050DD5F86840F00200F8602C
:1031E00000F0A2F81020B86008208AF88C024FF492
:1031F0008060B860A00505D500F09AF84FF4007023
:10320000B8608EE008EB451000F2BC264FEA994109
:1032100001F00301E2072CD598F80320012A09D117
:10322000DBF890201269D0F8BC025203B0EB5230A8
:10323000CBF8500201208AF88C020020CBF814024F
:103240000120B86009B1022908D100F071F81020FE
:10325000B860307A80F00100307262E0032960D1FA
:10326000DBF8900049F00051016001208AF89B02D0
:1032700057E0A00729D5DBF89000C068DBF8902064
:1032800020F00200D0609AF88C02012802D18AF85E
:103290009B0218E09AF88C02052808BF0420F6D09B
:1032A0009AF88C02062803D09AF88C02082804D1D8
:1032B0000020CBF814020320E9E7032903D1307A78
:1032C00080F00100307202209AE7200613D5DBF867
:1032D0009000C068DBF8901040F00200C860DBF896
:1032E0001402401CCBF8140206208AF88C0200F06D
:1032F0001BF8802084E7E00613D5032904D100F0F1
:1033000017F81020B86009E009B1022906D129F0A8
:10331000804040F00040DBF89010086003208AF8FD
:103320008C020120BDE8F28FE9B24046FEF775BF7E
:10333000DBF89000C068DBF8901040F00200C86035
:10334000E9B24046FEF769BF70B582B0044600207E
:103350008DF80000E068816921F010018161E0686A
:10336000056A05F00F008DF800009DF8000004EBE1
:103370008000D0F890000668C5F34340022846D18B
:103380002809400543D09DF8000004EB4010D0F818
:10339000B80200283BD0C5F30A129DF8000004EBE8
:1033A0004010D0F8B8122046FEF76EFC05F00F0072
:1033B00004EB4010C5F30A11D0F8B8228A18C0F8FF
:1033C000B82200F2B8208268891881609DF8000058
:1033D0009DF8001004EB810104EB4010D0F8C0020E
:1033E000C1F850029DF8000004EB8000D0F8900076
:1033F0000069C00C80050AD09DF8000004EB800035
:10340000D0F8900026F0804141F000410160E06872
:10341000806940F01000E1688861012076BD0000FD
:10342000D0F8AC1401220A72D0F8AC0400218172E9
:103430007047D0F8AC1401224A72D0F8AC040021D5
:10344000C17270472DE9F0410446884616461F4672
:10345000069DFFF706F90020FFF782F93146204666
:1034600000F019F8F767C6F88050DFF84C05C4F88B
:10347000AC0400210172D4F8AC04417241462046EC
:10348000FEF74EF8D6F88000006880472046BDE879
:10349000F041FFF739B938B504460D4600202870D1
:1034A0006870A8700120E87028774020A87100207B
:1034B00085F82000012085F821002979204600F0B8
:1034C000E6FA6979204600F0E2FA002032BD0000F9
:1034D00030B583B004460D4602208DF800002878F0
:1034E0000C280ED8DFE800F00E0718949494516B66
:1034F0007D855D948A002046FEF742F8002800D1C1
:10350000287085E02046FEF740F80028F9D02046D4
:1035100000F0C9FA0220F3E7D5F880008068804700
:10352000D4F8AC0400214172D4F8AC0401218172BA
:103530000021204600F091FA68718021204600F0B9
:103540008CFA28712046FEF71BF8002860D1D5F8C8
:103550008000C06880472046FEF70CF885F82100FF
:103560000620287095F82100D5F8801089698847D1
:1035700000F06FF82979204600F031FA00F069F880
:103580006979204600F02BFA42E02946204600F0F7
:103590007FF800283CD1D5F88000406B80470A2096
:1035A000AEE7D5F88000806B8047012830D12946EE
:1035B0002046EA6F1268904750BB0720A0E72946D3
:1035C0002046EA6F926890478DF800009DF8000051
:1035D00008B9082094E79DF80010284600F042F84A
:1035E00016E029462046EA6FD26890478DF8000021
:1035F000F1E72946204600F017F909E02946204660
:10360000FFF749FFD5F880004068804700F01BF8BD
:103610002046FDF7BAFFA8B9D4F8AC04C07A88B93F
:10362000D5F8800000698047D4F8AC040121C1724C
:1036300029462046FFF72FFFD5F8800040688047D5
:1036400000F001F837BD05F120012046EA6F52680D
:103650001047A87901900020009095F8213095F846
:103660002020704710B50446052901D0042906D151
:10367000D4F88000406C80470C20207010BD0629D3
:1036800005D10C202070D4F880000068804710BD60
:10369000F0B593B004460D46012605F22901AF1C92
:1036A000C4A0AA78092A28D8DFE802F005283856ED
:1036B0005F728597A9B2082229462046FEF779FE57
:1036C00000281AD195F8290038712046FDF758FFD7
:1036D000AE70387901900020009000230246F978FE
:1036E000204600F0A2F938790190002000900346AE
:1036F0000246B978204600F098F98AE0122229465D
:103700002046FEF756FE0028F7D105F12200D5F835
:103710008010C96988470220A8707AE001222946F2
:103720002046FEF7B6FE002873D1BE77D5F880009C
:10373000006A80470320A8700020019000900023B9
:10374000BA7FB978204600F070F90020019000900F
:103750000346BA7FF978CDE7092229462046FEF7CD
:103760003BFE002855D10420D6E7EA8E29462046A4
:10377000FEF732FE00284CD105F1500205F13E0162
:1037800005F13400D5F880305B6A98470520C3E71F
:10379000CA7952B100F040F800283AD102A8D5F811
:1037A0008010896A88470620B6E7D5F88010896AB4
:1037B00088470620B0E70A7A4AB100F02DF840BBEE
:1037C00002A8D5F88010C96A88470720A4E7D5F871
:1037D0008010C96A884707209EE74A7A4AB100F0FC
:1037E0001BF8B0B902A8D5F88010096B88470820EB
:1037F00092E7D5F88010096B884708208CE795F888
:10380000392029462046FEF748FE10B9092083E7F3
:103810000026304613B0F0BDFF20009002AB2946D1
:103820002046FEF7F7BD00002DE9F04180460D4629
:103830000024AC74614E287F401E0A280FD8DFE8B0
:1038400000F0060F323B555F6E76949DA8006A79B2
:1038500005F114014046FEF751FD02202877A5E04E
:1038600000F0B9F8012817D1287D00F08000698B9D
:1038700031B141F28831802814BF0520032004E0D3
:10388000322180280CBF092007202877318040464C
:10389000FDF77EFE288289E00328FCD10B202877E3
:1038A0000520A87482E02B79AA89D2B2A968404683
:1038B000FEF74CFD0420D1E729794046FDF76CFE68
:1038C00001280BD1092028774046FDF761FE318899
:1038D0002A8A801A814269D20B20BFE7042802D1CC
:1038E0006878287062E00328EED1F5E700F068F808
:1038F000AA89D2B2A9684046FEF713FD0620ADE7BB
:1039000000F069F8012808BF0720A7D00428E7D0F5
:10391000022808BF0520A1D0032847D1DCE72B7976
:10392000002211464046FEF711FD082096E729794E
:103930004046FDF731FE0746012FD1D0032F08BFC7
:103940000B208BD04046FDF723FE31882A8A801A4F
:1039500081423CBF0B20287728D3042F26D16878DA
:1039600028700420A874032420E000F029F8002225
:1039700011464046FEF7D5FC0A206FE700F02BF811
:103980000128ADD0022808BF0920F6D003280DD1A8
:10399000A2E7A87B401CA873C0B2032838BF01204F
:1039A000EBD30820A8746878287002242046BDE86C
:1039B000F08100004E2F4100880000201495002067
:1039C000687908EB401090F8C51281F0010180F889
:1039D000C5126B79704769794046FDF7DDBDF8B5D2
:1039E000069D079C00EB411707F2AC2600EB410C4B
:1039F0009CF88CE40EF07F0E86F801E0BCF88CC4D5
:103A00004FEA0C6C4FEADC7C86F802C087F8AC22E7
:103A10007571F480F3700022327672760BB9012250
:103A20003271FEF708FB0020F2BD38B5059C00EBB3
:103A300041150AB185F8AC2205F2AC22D588A4B2B2
:103A4000A54201D004B1D480D4789C4201D003B106
:103A5000D370FEF7F0FA002032BD002200EB4203E3
:103A6000B3F88C341B040BD44FF6FF739A4205D085
:103A700000EB420041F40041A0F88C14D0B2704732
:103A8000521CD2B2082AE9D34FF6FF72F6E7082992
:103A900007D200EB4100B0F88C144904490CA0F89F
:103AA0008C14002070470221002300EB4102A2F891
:103AB0008C34491C0829F8D300207047F0B583B036
:103AC00004460D4605F2540095F84310082938D1F4
:103AD00005F243018A78502A33D1894ECA7B1206F7
:103AE000C97B42BFF170B5F85410B18003D4B170F6
:103AF000B5F85410F18081790906817942BFF170DF
:103B00000089B08002D4B1700089F080B17820467D
:103B1000FFF7A3FF7070F1782046FFF79EFF30702B
:103B200005F12007F08800F011F871782046FFF7C2
:103B300056FFB08800F00AF831782046FFF74FFFB3
:103B400002E0C06A006C80470020FEBD01900220A8
:103B500000907B7895F82020704738B50446684D72
:103B6000697839B1FEF759FB69782046FFF78FFF76
:103B700000206870297841B12046FEF74EFB297875
:103B80002046FFF784FF0020287031BD5D480021EA
:103B900001700020704700002DE9F84381460E4671
:103BA0000124FDF7F2FC002812D0DFF85481564FB3
:103BB000544D28780A280BD8DFE800F0060B24566D
:103BC000636A71797E498A004846FDF7D3FE2C70FE
:103BD0007FE021203075FF2070750020F082308357
:103BE00070830023024631464846FEF75FFB04001F
:103BF00004BF02202870032C6BD1022068700920BA
:103C0000287066E0A1203075FE2070750020F082DB
:103C100030837483012308F1080231464846FEF7D9
:103C200045FB04000FD198F8080088F8480040B11F
:103C3000787830B901207870D6F88000006C804721
:103C400047E003202870032C43D10320D6E7737983
:103C5000002231464846FEF72BFC040039D10020F3
:103C600088F848006878CBE74846FDF7BFFC28B9DC
:103C7000042028700020387000242AE000F02CF87E
:103C800027E04846FDF7EDFC0028F7D10520F0E7D6
:103C90004846FDF72DFD08B90820EAE7EEE748465B
:103CA000FDF76DFD0028E9D168782870E4E731461A
:103CB0004846FDF773FE0CE0D6F88000C06B8047E5
:103CC000C0B208B908209BE7012802D1062400E011
:103CD00004242046BDE8F2830A4901280BD10A4892
:103CE0000278521C0270D2B20A2A06D2062008704C
:103CF0000120C8707047022801D10A20087070475F
:103D00005C940020A894002016950020FEB56A4817
:103D100001900020009000F0EFF800284AD10FF247
:103D2000B8173846FDF70BFB4FF40044634D2846A7
:103D3000FDF72BFC012842D1614E0A22394630465C
:103D4000FDF714F800283AD100F068F85D4F2846D6
:103D5000FDF71BFC01281FD1002007E00098019906
:103D60004A1C01920978C1550098401C00900098A7
:103D7000B0F5004F04D200980019B0F5801FEDD1C6
:103D800002AB4FF4004239463046FDF747F9009840
:103D90000419B4F5801FDAD10320FEF78BFD002053
:103DA000FEF77FFD3046FDF767FA00210020FCF7A3
:103DB000C3FFF7BD0120FEF774FD00F0D6F9F7BD93
:103DC00010B5414C01220FF220112046FCF7CEFF26
:103DD00000BBE068B0F5801F02D900F01FF819E0C1
:103DE00000F01CF8344800F090F830B100F016F8FC
:103DF0000120FEF756FD00F0B8F900F01EF8032090
:103E0000FEF758FD0120FEF74CFD2046BDE81040AE
:103E1000FDF732BABDE8104000F0A7B90320FEF765
:103E200040BDBFF34F8F2948016801F4E061284A83
:103E300011430160BFF34F8FFEE72DE9FC410020E5
:103E400000900127234C1F4D65601B48A0601E4E4B
:103E5000DFF868804046FDF798FB012829D101ABC7
:103E60004FF4004229463046FDF723F8BDF8040020
:103E70002060B0F5004F12D2002710E00098616872
:103E8000DDF800C0A1EB0C015158181A101800F011
:103E9000B5F8082818BF00F068F90098001F0090D6
:103EA000A368226800980028E8D1D018A060012FEC
:103EB000D0D0BDE8F381000000800008A48000207D
:103EC000148A00209C000020388E00200CED00E0B9
:103ED0000400FA057C000020303A55504C4F414414
:103EE0002E42494E00000000303A696D6167652E30
:103EF00042494E0000F060B910B5002400F0BCF952
:103F0000012808BF0124204610BD38B50024A0F1C7
:103F10000061B1F5804F40D32B490918B1F5804FAE
:103F200038BF082439D329490918B1F5804F38BF63
:103F3000102432D326490918B1F5804F38BF182410
:103F40002BD324490918B1F5803F38BF202424D34E
:103F5000214900F04FF838BF28241ED31F4900F034
:103F600049F838BF302418D31D4900F043F838BF52
:103F7000382412D31B4900F03DF838BF40240CD33D
:103F8000194900F037F838BF482406D317490818F4
:103F9000B0F5003F34BF50245824154D2846FDF796
:103FA000F4FA01280CD10221204600F00EF9083461
:103FB000082801D1592CF1D3602C01D1082801D057
:103FC000012032BD002032BD00C0FFF70080FFF7A6
:103FD0000040FFF70000FFF70000FEF70000FCF7CD
:103FE0000000FAF70000F8F70000F6F70000F4F719
:103FF000A48000200918B1F5003F704700F018B9FF
:1040000080B56648017889B9012101700120FEF769
:1040100027FC0020FEF724FC0220FEF721FC0320F1
:10402000FEF71EFC00210846FEF758FC5C480068BD
:104030004FF47A71B0FBF1F0B0F1807F0CD25949A6
:104040000002000A401E48605748F022027000201B
:1040500088600720086001BDFEE7704785E084E0C6
:104060007047012800D1704780B5022818BF00F0C2
:104070007CF801BD704770477047704770477047C4
:10408000704772E00120704770471CB5474C20789C
:1040900010B1012816D062E004F10C01FCF74CFECF
:1040A00020B100F062F84FF0FF3016BD4048007BB1
:1040B000012804D10320FEF7F4FB00F056F801209C
:1040C00020704CE04FF4967060600120A0600121E8
:1040D0000020FEF703FC0120009000208DF8040072
:1040E0000C208DF8050001208DF8060000A8FEF7D1
:1040F000ADFDFFF765FE00210846FEF7EFFB6068A7
:1041000028B9A068012802D1FFF700FE05E00120D0
:10411000FEF7D0FB0020FEF7C4FB0020A060254C7A
:104120000020FEF728FC012804D12046FDF72DFAD7
:104130000128F5D00020FEF71EFC20B92046FDF72F
:1041400024FA0128F6D00020FEF715FC012804D13E
:104150002046FDF71AFA0128F5D0FFF762FE00208D
:1041600016BD124800210170704780B50220FEF78D
:10417000AAFB322000F001F8F8E701B40B480099DF
:10418000416041680029FCD101B07047074841688F
:1041900011B14168491E4160704700001995002027
:1041A0005800002010E000E023ED00E0D88500205A
:1041B000F8940020A48000203F48C168002903D55E
:1041C0003E4901603E490160704770B504460026D3
:1041D00051B1012908BF4FF4807605D002290CBFE8
:1041E0004FF400764FF4407600F072F808281ED1A4
:1041F000344D286820F440702860286830432860D7
:10420000286820F0F8002860286844F0020108437C
:104210002860286840F48030286000F059F8296848
:1042200021F002012960296821F0F801296070BDA0
:1042300070B500F017F808280CD100F016F84FF40C
:10424000007100F008F8256000F042F83168490874
:104250004900316070BD08433060306840F00100B3
:104260003060704704460D4632E0164E306820F448
:104270004070306030687047002013490978AA29DF
:1042800018BF01207047082010490A68D20301D5E1
:10429000012070470A68D20601D5052070470A68D8
:1042A00012F0EF0201D0062070470968890748BF65
:1042B0000720704700000000043C024023016745CE
:1042C000AB89EFCD103C0240153C02400C3C024053
:1042D00080B508208DF80000FFF7D5FF8DF80000AD
:1042E0009DF800000128F7D09DF8000002BD0000F5
:1042F00082B03048016841F0010101600021816015
:1043000001682D4A114001602C494160016821F487
:10431000802101600021C16001910091016841F498
:1043200080310160016801F4003100910199491C5C
:104330000191009919B90199B1F5A06FF2D1016805
:10434000490C01F001010091009901292CD1016C67
:1043500041F0805101641A490A6842F480420A60BF
:1043600081688160816841F400418160816841F425
:10437000A051816013494160016841F08071016082
:1043800001688901FCD5104940F205620A60816824
:10439000890889008160816841F00201816081683B
:1043A00001F00C010829FAD108484FF000610160C2
:1043B00002B0704700380240FFFFF6FE10300024C4
:1043C0000070004008544007003C024008ED00E047
:1043D0007047FEE7FEE7FEE7FEE77047704770476D
:1043E00038B5214C2068E8B1204D0020FEF7C3FA13
:1043F0000128286811D118B12868401E286031BDF5
:104400001B4C2078642803D22078401C207031BDDA
:104410000320FEF758FA0020F8E7002804D0002017
:10442000206031BDFFF7B2FE31BD80B50220FEF73E
:1044300043FC38B10F48D0F8800040698047022023
:10444000FEF745FC01BD80B50120FEF735FC28B123
:104450000320FEF726FA0120FEF739FC01BDFEF726
:104460009FB90548FEF73CBCE0850020DC850020B4
:104470001895002054850020A480002038B5FEF750
:10448000DDF8FFF737FD124C0020FEF774FA70B923
:1044900010480168104A1140B1F1005F07D141682E
:1044A00061602160006880F308880846804704F254
:1044B000B8450A4800900A4B2A46012104F1080039
:1044C000FEF7C0FF294604F10800FFF701F8F9E7FD
:1044D0009C800020008000080000FE2F00000020CB
:1044E0006C00002010B5084979441C31074C7C440D
:1044F0001A34A14206D0081D0A685118884701469F
:10450000A142F8D110BD00BF080000002800000043
:104510000BE1FFFF809400009C00002000000000E1
:104520009FD0FFFF9C000000F4010000000000206D
:10453000000000004EF68851CEF20001086840F4F9
:10454000700008604FF00070E1EE100A7047000044
:1045500000F009F8002801D0FFF7C4FF0020FFF7A2
:104560008DFF00F002F80120704780B500F002F8DE
:1045700000BF00000746384600F002F8FBE70000E5
:1045800080B5C046C046024A11001820ABBEFBE70A
:10459000260002000148804701480047F142000818
:1045A000A5450008C046C046FFF7C4FFFFF7D0FF8F
:1045B000FFF70EBFFFF70DBFFFF70CBFFFF70BBFF5
:1045C000FFF70ABFFFF709BFFFF708BFFFF707BFF5
:1045D000FFF706BFFFF7FEBFFFF7FEBFFFF7FEBF07
:1045E000FFF7FEBFFFF7FEBFFFF7FEBFFFF72BBFD2
:1045F000FFF71BBFFFF7FEBFFFF7FEBFFFF7FEBFD2
:10460000FFF7FEBFFFF7FEBFFFF7FEBFFFF7FEBFDE
:10461000FFF7FEBFFFF7FEBFFFF7FEBFFFF7FEBFCE
:10462000FFF7FEBFFFF7FEBFFFF7FEBFFFF7FEBFBE
:10463000FFF7FEBFFFF7FEBFFFF7FEBFFFF7FEBFAE
:10464000FFF7FEBFFFF70BBFFFF7FEBFFFF7FEBF91
:10465000FFF7FEBFFFF7FEBFFFF7FEBFFFF7FEBF8E
:10466000FFF7FEBFFFF7FEBFFFF7FEBFFFF7FEBF7E
:10467000FFF7FEBFFFF7FEBFFFF7FEBFFFF7FEBF6E
:10468000FFF7FEBFFFF7FEBFFFF7FEBFFFF7FEBF5E
:10469000FFF7FEBFFFF7FEBFFFF7FEBFFFF7FEBF4E
:1046A000FFF7FEBFFFF7FEBFFFF7FEBFFFF7FEBF3E
:1046B000FFF7FEBFFFF7FEBFFFF7FEBFFFF7FEBF2E
:1046C000FFF7FEBFFFF7FEBFFFF7FEBFFFF7FEBF1E
:1046D000FFF7FEBFFFF7FEBFFFF7FEBFFFF7FEBF0E
:1046E000FFF7BFBEFFF7FEBFFFF7FEBFFFF7FEBF3E
:1046F000FFF7FEBFFFF7FEBFFFF7FEBFFFF7FEBFEE
:10470000FFF7FEBFFFF7FEBFFFF7FEBFFFF7FEBFDD
:10471000FFF7FEBFFFF7FEBFFFF7FEBF0140000837
:10472000634100085B400008614000085F400008EA
:104730008940000863400008754000087740000881
:10474000794000087B4000087D4000087F40000859
:1047500081400008854000088B4000088340000825
:104760005D4000080000000000000000010203049A
:1047700006070809007A030A000C0240000C0240F8
:10478000000C0240000C0240BD3A00085B3B0008F0
:104790008D3B0008993B000800000000000000006D
:1047A00000800008333400082134000800000000B5
:0847B0000000024001030000BB
:04000005080045A505
:00000001FF
