:020000040800F2
:10000000A0470020ED6C00086D6600086F660008D0
:10001000716600087366000875660008000000003D
:1000200000000000000000000000000077660008EB
:1000300079660008000000007B6600087D66000805
:100040002D6D0008316D0008356D0008396D000810
:100050003D6D0008416D0008816700089566000845
:100060004D6D0008516D0008556D0008592F0008AE
:100070005D6D0008616D0008656D0008696D000820
:100080006D6D0008716D0008756D0008796D0008D0
:100090007D6D0008816D0008856D0008896D000880
:1000A0008D6D0008916D0008956D0008996D000830
:1000B000BB670008A16D0008BD660008A96D0008B7
:1000C000AD6D0008B16D0008B56D0008B96D000890
:1000D000FD540008C16D0008C56D0008C96D000819
:1000E000CD6D0008D16D0008D56D0008D96D0008F0
:1000F000DD6D0008E16D0008E56D0008572F000870
:10010000ED6D0008F16D0008F56D00085B2F00082B
:10011000FD6D0008016E0008056E0008096E0008FC
:100120000D6E0008116E0008156E0008196E0008AB
:100130001D6E0008216E0008256E0008296E00085B
:100140002D6E0008316E0008356E0008BF6700088C
:100150003D6E0008416E0008456E0008496E0008BB
:100160004D6E0008516E0008556E0008596E00086B
:100170005D6E0008616E0008656E0008696E00081B
:100180006D6E0008716E000803E011F8013B00F885
:10019000013B13465A1E002BF7D1704701E000F8CF
:1001A000011B13465A1E002BF9D17047F8B50446BF
:1001B0000D46E66AAE4220D02079A8B100F01FF8C3
:1001C000002801D00120F2BD2071206AA169081821
:1001D000864209D2E77804E0A069861900F00FF89A
:1001E0007F1EFFB2022FF7D2002D06D001232A4630
:1001F00000F038FC0028E5D1E5620020F2BD0123C3
:10020000324604F13001607801F0FEB938B5044699
:100210000021FFF7CBFF050057D1207803284DD1EF
:10022000607900284AD00020E0624FF4007200217B
:1002300004F13000FFF7B2FF552084F82E02AA2007
:1002400084F82F02522084F8300084F831006120B5
:1002500084F83200412084F83300722084F81402BC
:1002600084F81502412084F81602612084F81702F0
:10027000206984F8180220690004000E84F819022D
:100280002069000C84F81A022069000E84F81B0211
:10029000E06884F81C02E0680004000E84F81D0287
:1002A000E068000C84F81E02E068000E84F81F026B
:1002B00001236269FFF7A5FF002060710022002181
:1002C000607801F0D7F900B10125284632BD2DE94B
:1002D000F04104460D46022D02D3E069854201D368
:1002E00001206FE0266AAFB22078012804D067D3DE
:1002F000032839D01FD363E005EB550700F064F8FD
:1003000000285DD16089401E3840001990F8308087
:100310007F1C00F059F8002852D16089401E3840F7
:10032000001990F8300048EA0021E8075ABF080594
:10033000000D080946E060894008B5FBF0F000F0C8
:1003400046F800283CD16189491E11EA4701091984
:1003500091F831106289521E12EA4700001990F894
:10036000300040EA01202DE060898008B5FBF0F004
:1003700000F02DF820BB6189491E11EA8701091997
:1003800091F833106289521E12EA8702121992F80C
:100390003220120442EA01616289521E12EA870287
:1003A000121992F8312041EA02216289521E12EAA2
:1003B0008700001990F8300008430001000901E0AF
:1003C0004FF0FF30BDE8F0816089B7FBF0F0811994
:1003D0002046EBE62DE9F843044688461646B8F178
:1003E000020F02D3E069804501D3022086E0276A2C
:1003F0003004050E1FFA88F92078012804D07AD33A
:10040000032851D039D376E008EB58056089B5FB55
:10041000F0F0C119FFF7DCFF00286DD16089401EA4
:100420002840001900F230015FEAC87043BF087825
:1004300000F00F0040EA0610304608706D1C0120E5
:1004400020716089B5FBF0F0C119FFF7C1FF0028EA
:1004500052D16189491E2940091901F230015FEA30
:10046000C87248BF320906D40A7802F0F002330A93
:1004700003F00F031A430A703EE060894008B8FB9E
:10048000F0F0C119FFF7A4FFB0BB6289521E12EA57
:100490004902121982F830606289521E12EA49013B
:1004A000091981F8315027E060898008B8FBF0F025
:1004B000C119FFF78DFFF8B96289521E12EA89024D
:1004C000121982F830606289521E12EA89021219EA
:1004D00082F831506289521E12EA89021219330CD5
:1004E00082F832306289521E12EA89010919320EED
:1004F00081F8332000E0022001212171BDE8F28360
:10050000F8B504460D46022D02D3E069854201D3B9
:1005100002261EE0002629462046FFF7D8FE0700E7
:1005200017D0012FF4D017F1010F08BF012610D00A
:10053000002200F010F806000BD1206910F1010F25
:1005400003D0401C2061012060713D46E069854276
:10055000E1D33046F2BD294620463BE72DE9F04184
:1005600004460D00D4F81C8005D1E7680FB147455B
:100570000AD3012708E0FFF7AAFE022838BF0120AE
:1005800025D3404523D32F463E46761C464504D30B
:100590000226022F01D2002019E031462046FFF743
:1005A00096FEB0B96FF070423146FFF7D5FFC0B983
:1005B0001DB13246FFF7CFFF98B9E660206910F110
:1005C000010F03D0401E2061012060713046BDE85C
:1005D000F08110F1010F18BF0128F8D0BE42D4D12C
:1005E000D9E74FF0FF30F2E7891EC269921E9142AF
:1005F00001D3002070478278806A02FB01007047B7
:1006000070B504460D46E580A168012903D0206835
:10061000C269914201D3022070BD19B90178032942
:1006200001D1416A59B90021E16001898D42F2D2BC
:10063000416A4089400995FBF0F0401822E0428968
:100640005209807810FB02F6B6B206E00229E2D326
:100650002068C0698142DED2AD1B2068ADB2B542D0
:1006600007DBFFF734FE014611F1010FEED1012047
:1006700070BDE160FFF7B8FF21684989490995FB22
:10068000F1F10818206120684189490995FBF1F2D0
:1006900001FB125100EB411000F2300060610020BC
:1006A00070BDF8B504460F46E088451CADB2002D7C
:1006B00002D02169002901D10420F2BD20684289BD
:1006C000520995FBF2F302FB1352002A5AD1491C3E
:1006D0002161E16819B90089854253DBECE7428961
:1006E000520995FBF2F283785B1E1A424AD1FFF75A
:1006F000EEFD0646022E01D20220F2BD16F1010FD8
:1007000001D10120F2BD2068C1698E4234D3002F8F
:10071000D2D0E168FFF722FF060001D10720F2BD29
:10072000012EE9D016F1010FEBD0002100F061F8A5
:100730000028E6D12068428900213030FFF72EFDE5
:1007400031462068FFF750FF2168C86200270BE0A0
:1007500001210171002100F04CF80028D1D120685E
:10076000C16A491CC1627F1C20688178FFB28F4238
:10077000EED3C16AC91BC162E66031462068FFF74B
:1007800033FF2061E58020684189490995FBF1F23A
:1007900001FB125100EB411000F2300060610020BB
:1007A000F2BD70B504460021FFF72AFF002815D0DE
:1007B00070BDCA7A12070DD40B22A3690025164614
:1007C000721E2EB111F8015B13F8016BAD1BF6D050
:1007D000002DEDD000F02BF80028E9D100F008F84A
:1007E0000028E5D161690A78002AE2D1042070BDB1
:1007F00021692068DAE410B504460420216991B12A
:10080000FFF7F7FF78B961690A780AB904200BE0AD
:10081000E52A04D02E2A02D0C97A090706D500F0AD
:1008200006F80028EAD008B10021216110BD00219E
:10083000204636E770B504460021FFF7E1FE0500CB
:100840000FD1FFF7D5FF05000BD160690078E528CF
:1008500018BF002806D001212046FFF722FF05001F
:10086000EFD0A5B9FFF7C4FF050010D166692022BB
:1008700000F086FE0B22A1693046FFF785FCA069D7
:10088000C07A00F0180030732068012101712846F9
:1008900070BD10B50446E188FFF7B2FE40B9FFF71E
:1008A000A7FF28B96169E5220A70216801220A714F
:1008B00010BD2DE9F047884685690B222021284686
:1008C000FFF76CFC0022002081460821D8F800A028
:1008D0000FF6783C0FF6803E02E008200B212246FE
:1008E00019F80A3009F101099400212B03DB2F2BA1
:1008F00001D05C2B07D1D144C8F80090212BB4BFA4
:10090000042300232AE02E2B01D0884205DB08298E
:1009100001D12E2BE1D0062038E0802BA4BF7344F8
:1009200013F8803C664600E0761C3778002F18BF2D
:100930009F42F9D1002FEED1A3F141041A2C38BF08
:1009400042F0020207D3A3F161041A2C03D242F051
:100950000102203BDBB24355401CC1E70028DAD03E
:100960002878E52804BF05202870082908BF2246FA
:1009700002F00300012808BF43F0100302F00C004E
:10098000042808BF43F00803EB720020BDE8F0879D
:1009900013B5044601E0401C01900198007820281E
:1009A0000198F8D000782F2801D05C2802D1019856
:1009B000401C01900020A06001980078202806D2F9
:1009C00000F03AFD0021616116BD00F029FD01A98A
:1009D0002046FFF76EFF002813D12046FFF7E1FE07
:1009E000A169C97A01F0040120B1042809D10029C4
:1009F00007D105E0002904D16069C17AC906E4D4B1
:100A0000052016BD10B5044601230A4600F02AF859
:100A1000002801D0032010BD94F82F0294F82E1264
:100A200041EA00204AF65521884201D0022010BD3B
:100A300004F26601C9488A784B781B0243EA0242F5
:100A400094F866301A43824201D1002010BD8A7F9B
:100A50004B7F1B0243EA0242097F11438142F4D0DB
:100A6000012010BD04F13001607800F0A6BDF8B59A
:100A7000164602681378303B0A2B08D254783A2C79
:100A800005D1921C0260002B01D00B20F2BDB44CAA
:100A900065680D60002D01D10C20F2BD287868B189
:100AA000687800F083FD0746C00707D4002E00F0E9
:100AB0002D81780740F12A810A20F2BD002028709C
:100AC000687000F067FD0746C00701D50320F2BD3E
:100AD00005F10A020221687800F0CCFD002804D15B
:100AE000688940F20141884201D30D20F2BD002EF9
:100AF00001D07807E0D4002600212846FFF782FFC6
:100B00000746012F14D105F2EE1001790029ECD02F
:100B1000C17A827A120442EA0161427A41EA0221F0
:100B2000007A40EA010631462846FFF76BFF074688
:100B3000032F01D10120F2BD002FD6D1688995F88D
:100B40003C1095F83B2042EA01218142CDD195F835
:100B5000471095F8462052EA01210DD195F857101B
:100B600095F85620120442EA016195F8552041EAB1
:100B7000022195F854201143A96195F84020EA70AC
:100B8000514395F83F2095F83E3043EA022216FA89
:100B900082F22A6295F83D20AA7095F8423095F8C5
:100BA000417047EA03232B8195F8447095F843C0C0
:100BB0005CEA07270FD195F8537095F852C04FEAB9
:100BC0000C4C4CEA076795F851C047EA0C2795F89A
:100BD00050C04CEA0707400993FBF0F095F83F300E
:100BE00095F83EC04CEA0323FB1A5B1A1B1AB3FBB1
:100BF000F2F2921CEA61012740F6F7739A4228BF8D
:100C000002274FF6F7739A420FD3032795F85F2018
:100C100095F85E301B0443EA026295F85D3042EAC3
:100C2000032295F85C301A4301E02A6A8A186A6246
:100C30002A6A89184018A8624FF0FF302861002006
:100C40002871032F5BD1687195F8610095F86010E9
:100C500041EA002016FA80F26A61012305F13001B1
:100C6000687800F0AAFC002849D195F82F0295F881
:100C70002E1241EA00204AF6552188423FD195F8CC
:100C8000330095F83210090441EA006095F83110FC
:100C900040EA012095F830100843324988422ED1AD
:100CA00095F8170295F81612090441EA006095F8C4
:100CB000151240EA012095F8141208432A49884287
:100CC0001DD195F81F0295F81E12090441EA006033
:100CD00095F81D1240EA012095F81C120843E860BF
:100CE00095F81B0295F81A12090441EA006095F87C
:100CF000191240EA012095F81812084328612F7054
:100D00000020E8622088401C2080E8800020F2BD9E
:100D100080B5002805D00278002A02D0C2888A4215
:100D200001D0092002BD407800F040FCC00701D589
:100D3000032002BD002002BD002801D00B20704717
:100D4000074842680AB10023137000291CBF002223
:100D50000A704160002070470000000046415400C6
:100D60007843002052526141727241612DE9F24193
:100D70008BB004460020206002F01F0505F01E0223
:100D800000A90BA8FFF773FE00281BD100F0FCFBA5
:100D90001C210D4256D050B1042813D100A8FFF7F2
:100DA00049FD00280ED145F00805059E35E068078D
:100DB00048BF08207AD4059E1EB1F07A112108425E
:100DC00001D0072072E0280748D5707D317D41EAC7
:100DD0000020F17EB27E42EA012141EA0047002074
:100DE00030757075B076F07630777077B077F077D1
:100DF0000098012101710098D0F82C803FB139464C
:100E0000FFF77EFB002851D10098791EC160414652
:100E10000098FFF7CBF9002848D128071ED50020FD
:100E2000F07200F04DFC0146B1730004000EF07347
:100E3000080C3074080E707400980121017145F09F
:100E400020050BE090BB059E16B1F07AC10601D5D6
:100E500004202BE0A90701D5C007B2D40098C06ACE
:100E6000E06105982062A571707D317D41EA002026
:100E7000F17EB27E42EA012141EA00402061F07F2A
:100E8000B17F090441EA0060717F40EA0120317FAF
:100E90000843E0600020A060FF20E0710020A06116
:100EA000009820600098C088A08000200CB0BDE8A9
:100EB000F0812DE9F843054691461E4688460020FC
:100EC0003060A9882868FFF723FF002803D1A8799C
:100ED000010601D502209FE0C00758BF0720FAD5C0
:100EE000E868A968401A48453BD8814639E0A979A5
:100EF00049060BD50123AA6905F1240100F068F920
:100F000000284ED1A87900F0BF00A871A869A042BE
:100F100008D00123224605F12401286800F055F984
:100F200000283ED1AC61E879401CE87100F044F93A
:100F30004C46914588BF144649892246B0FBF1F3DF
:100F400001FB1300401900F124014046FFF71CF992
:100F5000A044A8682018A860306820183060A9EB69
:100F60000409B9F1000F56D0A96828684289B1FB7D
:100F7000F2F302FB1312002AD8D1EA7983789A425D
:100F800018D300290EBF28696969FFF7A0F9022864
:100F900004D2A87940F08000A8719BE710F1010FFE
:100FA00005D1A87940F08000A871012034E0686183
:100FB0000020E87169692868FFF716FB0028E8D06F
:100FC000E9790C1828684389B9FBF3F7002F8ED014
:100FD00083787A18934238BF5F1AFBB222464146A3
:100FE00000F0F3F80028DCD1A87940060BD5A869F9
:100FF000001BB84207D22B685A8905F1240102FB75
:101000000080FFF7C1F8E8793818E871286840894E
:1010100007FB00F49CE70020BDE8F2832DE9F843CC
:1010200005461646994688460020C9F80000A9885A
:101030002868FFF76DFEB8B9A879010601D502202E
:1010400012E0800758BF07200ED5E86831188142AA
:101050003ED2E868A968884238BF0846E860A879A7
:1010600040F02000A8710020BDE8F283A969A142E8
:101070000BD0A968EA68914207D20123224605F104
:10108000240100F0A2F8002849D1AC61E879401CA5
:10109000E87100F091F83446964288BF14464B89B7
:1010A00022464146B0FBF3FC03FB1C0040192430F0
:1010B000FFF76AF8A87940F04000A871A044A8683A
:1010C0002018A860D9F800002018C9F80000361BC5
:1010D000002EBED0A96828684289B1FBF2F302FB5A
:1010E0001312002AD5D1EA7983789A4220D331B9F4
:1010F000296941B9FFF732FA0146296103E06969BC
:10110000FFF72CFA01460029A3D0012904D1A879C0
:1011100040F08000A87192E711F1010F05D1A87984
:1011200040F08000A87101209EE769610020E8710D
:10113000A87940060CD50123AA6905F12401286885
:1011400000F046F80028EAD1A87900F0BF00A871A5
:1011500069692868FFF748FA0028D8D0E9790C189F
:1011600028684389B6FBF3F7002F3FF47FAF8378FD
:101170007A18934238BF5F1AFBB22246414600F00C
:1011800027F80028CBD1A869001BB8420CD22968E7
:101190004A89114601FB008105F12400FEF7F4FFA6
:1011A000A87900F0BF00A871E8793818E8712868BC
:1011B000408907FB00F481E7A86829684A89131A67
:1011C000B0FBF2FC02FB0C327047407800F0F5B93E
:1011D000407800F019BA38B500F07EF900284AD1FD
:1011E000A1798A0647D548060ED50123A26904F1E4
:1011F00024012068FFF7ECFF002801D0012032BD58
:10120000A07900F0BF00A071E169FFF7F2FA0028B1
:1012100031D1256AE87A40F02000E872E06828774A
:10122000E0680004000E6877E068000CA877E068CA
:10123000000EE8772069A87620690004000EE876A1
:101240002069000C28752069000C000A687500F000
:1012500037FAA8750104090EE975010C2976000E0C
:101260006876A07900F0DF00A0712068012101718B
:101270002068FEF7CBFF32BD10B50446FFF7ABFF89
:1012800008B90021216010BD2DE9F04100F0D8F827
:101290005FEA000802D04046BDE8F081A07901066F
:1012A00001D50220F8E7E168A94202D2800758BFC1
:1012B0000D46A1680027A760FF20E071002D60D0D7
:1012C00020688278438903FB02F671B1491EB1FBA5
:1012D000F6F26B1EB3FBF6F3934206D3701E21EABF
:1012E0000000A0602D1A616916E0216999B9FFF725
:1012F00035F90146012904D1A07940F08000A071A0
:10130000CFE711F1010F05D1A07940F08000A07165
:101310000120C1E72161616189B932E0FEF7D7FFA1
:10132000014611F1010FEFD00229E5D32068C06911
:101330008142E1D26161A0683018A060AD1BAE426D
:1013400008D22068A2799207E8D5FFF707F90100D3
:10135000E7D13546A0682818A06020684289B5FB0F
:10136000F2F2E2714289B5FBF2F302FB135242B191
:10137000FFF73AF90700BFD0E07957FA80F7401C31
:10138000E071A06825686989B0FBF1F201FB1200E9
:10139000D8B1A269974218D0A07940060BD5012395
:1013A00004F12401687800F02FF90028ACD1A0796D
:1013B00000F0BF00A07101233A4604F12401206827
:1013C000FFF703FF00289FD1A761A068E168814271
:1013D00004D2E060A07940F02000A0715BE712B574
:1013E00083B004460022214603A8FFF740FBA8B9BA
:1013F00000A8A06103992046FFF7CAFA58B96069AE
:1014000020B1C17AC90608D500F00AF82068C08862
:10141000A08000F011F8042800D1052004B010BD10
:10142000417D027D42EA0121C27E807E40EA0220A7
:1014300040EA0140A060704700212046FFF7E0B875
:1014400004460D46A188206862E4000020222A2B71
:101450002C5B3D5D7C7F0000808182838485868754
:1014600088898A8B8C8D8E8F909192939495969784
:101470009899AD9B8C9DAE9FA021A2A3A4A5A6A7E1
:10148000A8A9AAABACADAEAFB0B1B2B3B4B5B6B764
:10149000B8B9BABBBCBDBEBFC0C1C2C3C4C5C6C754
:1014A000C8C9CACBCCCDCECFD0D1D2D3D4D5D6D744
:1014B000D8D9DADBDCDDDEDFC0C1C2C3C4C5C6C734
:1014C000C8C9CACBCCCDCECFD0D1D2D3D4D5D6F704
:1014D000D8D9DADBDCDDDE9F0446A1882068FFF77F
:1014E00017BC11B591B0012200A911A8FFF7BFFAEE
:1014F00008B112B010BD07A80690119900A8FFF717
:1015000047FA0028F5D1059808B90620F1E7C17A15
:10151000CA0701D50720ECE7427D037D43EA02229A
:10152000C37E807E40EA032040EA0244C80616D506
:10153000022C38BF0220DCD31C2200A90AA8FEF727
:1015400023FE0C9402210AA8FFF75AF80028D0D1F4
:101550000AA8FFF750F90028DCD00428C9D100A858
:10156000FFF797F90028C4D12CB121460098FEF767
:10157000C7FF0028BDD10098FEF748FEB9E74289B1
:1015800000213046FEF70ABE07A806900B9900A876
:10159000FFF7FEB910B5464C464800F0C8F818B140
:1015A000207800F0FE002070207810BD002801D0C7
:1015B000012070473E48007870472DE9F0410C4605
:1015C00015461E4600B90EB904201BE038480078C5
:1015D000C00748BF032015D400F042F888B1730259
:1015E0002A462146404600F025FA00F03EF84046E3
:1015F00000F09DF808B9012004E0032FEFD0002F80
:10160000F9D10020BDE8F0812DE9F0410C461546E6
:101610001E4600B90EB9042020E025480178C9070C
:1016200048BF03201AD40078400748BF022015D4D1
:1016300000F016F888B173022A462146404600F0B1
:10164000B0F900F012F8404600F071F808B9012036
:1016500004E0032FEFD0002FF9D10020BDE8F08186
:10166000DFF85080404600F062B807461249404615
:1016700000F060BA002819D101200D4B1B78DB0760
:1016800001D5032070474FF4007300290AD00229C6
:1016900007D002D3032907D008E00848006810608B
:1016A00000E01380002070471360704704207047EB
:1016B000A41400207C2E00202C330020684300203E
:1016C0000020704710B504460020C4F81002002323
:1016D00004EB8002C2F81432C2F85032021982F8C8
:1016E0008C32401C0F28F3DB0820A4F8B2022046FD
:1016F00000F0A8FB204600F06AFC204600F000FC49
:101700000121204600F09AFC204600F0BBFC204658
:1017100000F058FC002010BDD0F8CC000068C0F3E9
:101720004140704780B500F03AFD002002BDD0F87E
:10173000100270474069806880B27047081890F8BE
:101740009B02704700EB8100D0F8500270470A18E6
:10175000002382F89B3200EB4112C2F8C03200F045
:10176000A6BD50F8041B61B150F8042BD30744BF49
:10177000A9F101039A18002342F8043B091FFAD18A
:10178000EFE7704738B500F0C3F8002833D0DFF832
:101790006403C178012902D002291CD02BE0DFF8B4
:1017A000581300228A600A7306228A73DFF84C23DA
:1017B00082603F2282818470102200255318DD73DD
:1017C000521EFBD1CD730121017107210170C47339
:1017D0000221C1700FE0C17B19B90121C170002441
:1017E00009E0012904BFC170012404D0022902D1FB
:1017F0000121C1700224204632BD38B500F088F8BE
:1018000000283FD0BE49BB48C278012A02D0022A34
:101810001AD037E0B84A08239360802313730A2351
:101820009373816004218170102100258B18DD7372
:10183000491EFBD12521D1730121017107210170BE
:10184000C4730221C1701DE0C27B82B9AD4A0B781E
:10185000D3704B7893708B785370CB7813708B79EF
:101860005372C97911720121C17000240AE0012A62
:1018700002BF0121C170012404D0022A02D101213A
:10188000C1700224204632BD38B500F041F800286E
:101890003CD09B499748C278012A02D0022A1DD029
:1018A00034E0954A3F239360802313730A23937394
:1018B000816005218170102100258B18DD73491E80
:1018C000FBD11A21D1733F215174D17401210171CF
:1018D00007210170C4730221C17017E0C27B52B9A5
:1018E000897811F0800118BF0121864A1173012106
:1018F000C17000240AE0012A02BF0121C170012445
:1019000004D0022A02D10121C1700224204632BD36
:101910000324FFF70CBF38B5FFF7FAFF00283ED0CD
:10192000774A7448C178012902D002291ED036E0D6
:1019300071493F238B6080230B730A238B73826072
:101940008278427006228270102200255318DD73BF
:10195000521EFBD1CC730D743F22CA740121017158
:1019600007210170C4730221C17018E0C17B61B905
:1019700064491378CB7153788B7193784B71D2781B
:101980000A710121C170002409E0012904BFC1705E
:10199000012404D0022902D10121C1700224204671
:1019A00032BD76B50E461D46FFF7B2FF00283FD088
:1019B0005048C178012902D002292CD038E04E4984
:1019C0008D6000220A730A228A7386601022002624
:1019D0005318DE73521EFBD12A22CA739DF80720CA
:1019E0004A749DF806208A749DF80520CA749DF8F3
:1019F00004200A756A0AADF800209DF801208A7556
:101A00009DF80020CA750121017107210170C4737E
:101A10000221C1700CE0C17B19B90121C170002401
:101A200006E00129F5D0022902D10121C17002246A
:101A3000204676BD2DE9F64180460F461D46324CC4
:101A4000032020704046FFF772FE00284FD0294E39
:101A5000F078012802D002282ED048E02648856080
:101A6000802101730A218173B760102100230A18B5
:101A7000D373491EFBD12821C1739DF8071041740F
:101A80009DF8061081749DF80510C1749DF804102E
:101A90000175690AADF800109DF8011081759DF877
:101AA0000010C17501203071072030700320F073E1
:101AB0000220F070032019E0F07B38B94046FFF7B0
:101AC00036FE18B10120F07000200FE0F07B0128F5
:101AD00006D14046FFF72BFE10B10120F07006E062
:101AE000F07B022803D10120F070022020702078C2
:101AF000BDE8F681FC4200202C4300200C4300206E
:101B00002C40002068430020A514002010B5A04CF4
:101B1000FFF70DFE40B19F489F4901609F4941601A
:101B2000002141730120E070002060629C48002188
:101B3000017010BD2DE9F04105468846FFF7F7FD1D
:101B4000002815D0934F974E914C2079401E0728BE
:101B50000ED8DFE800F0040E316291A8BFCE737892
:101B60001F22394600F0D6F8012060710220207152
:101B7000CAE000F0CBF8012813D1002060620220F7
:101B80006071387B00F08000B96841B1A162A16842
:101B9000E162802808BF0320E9D00420E7E70520A0
:101BA000E5E7022808BF6079E1D00428E0D10120F0
:101BB00084F820000820DAE7317800F0A8F801283E
:101BC00002D0617903291ED0002060620320607179
:101BD000E16AA26A412A0CD333784022284600F0F9
:101BE0009AFCA06A4038A062E06A00F24000E0621D
:101BF0008AE0002AD3D0337892B2284600F08BFCDA
:101C00000020A06280E00428FCD1002084F820009D
:101C1000072020710520607176E000F077F8E16A16
:101C200001281AD10020606204206071A26A412A52
:101C30000AD37378402200F06DF8E06A00F24000A9
:101C4000E062A06A4038DCE70AB905208FE77378C4
:101C500092B200F05FF80020D3E7022805D1737834
:101C60004022403900F056F84EE004284CD10120C3
:101C700084F820000820CCE70520607104F11000F2
:101C8000A0603F20A0810D2004F1100100224254E9
:101C9000401EFCD1227433783F22A168284600F010
:101CA0003AFC062063E7317800F031F801280AD1C8
:101CB0000020606205206071A078207041462846AF
:101CC00000F043F81FE004281ED1002084F8200013
:101CD00007204CE700224146284600F01EF838B99C
:101CE00094F82000022808BF082000D060793EE761
:101CF00006E001224146284600F00FF80028F5D002
:101D0000042801D10220E073BDE8F08171782846F3
:101D1000FFF714BD284600F0F3BB10B50123214C9A
:101D200012B1012A03D007E02378E27801E063785A
:101D3000A27800F089FC03461548416A491C4162BB
:101D4000052928BF0423184610BD70B50646012595
:101D50000F4CFFF7ECFCC0B1124801783046FFF79A
:101D6000F1FC0D2810D120690F4988420CD160691F
:101D700008494968884208D1207F08B9002504E055
:101D8000012802D0022800D10225E573284670BD43
:101D9000FC4200202C430020555342435040302049
:101DA00098430020B04200205553425370B582B092
:101DB000044600200090DFF860562E46032000F015
:101DC00097FDE06801690091761E12D00099002904
:101DD000F4D5009941F00101009100990161016978
:101DE00000916D1E02D00099C907F8D4032000F0BD
:101DF0007FFD002076BD30B5C4787CB9DB1C5D105A
:101E000003EB957300EB8200D0F8D00003E051F8AB
:101E1000042B0260641CB4EBA30FF8D3002030BD88
:101E200010B50023D21C541002EB9472D0F8D000ED
:101E300003E0046841F8044B5B1CB3EBA20FF8D33A
:101E4000084610BD30B50022C270012383704023C4
:101E5000838001290CD14FF0A042C172082101708A
:101E6000042141704FF4A071C180022101720AE087
:101E700049B9DFF8A825C1720C2101700621417013
:101E80004FF4A061C180C26002F5006101610021D0
:101E90000AE000EB810302EB411404F510659D613B
:101EA00004F530645C65491C43789942F1D302F52E
:101EB0008061416102F58861C0F8CC10002108E022
:101EC00000EB810302EB411404F5A064C3F89040D9
:101ED000491C03789942F3D3002108E000EB810309
:101EE00002EB013404F58054C3F8D040491C037858
:101EF0009942F3D302F56061C0F80C11002030BDA7
:101F000038B50446E068217A012918D1816B21F4A3
:101F10008031627A0AB141F480118163C168DFF8CF
:101F20000025114041F01001C1602046FFF73EFF3F
:101F3000E07801283AD1E0682A21816036E0C16862
:101F400041F04001C1602046FFF730FF4FF480317F
:101F5000207A032808BF4FF4403141F43011607AF1
:101F600008B141F48011E0688163142000F0C2FCE4
:101F7000E068C168227A032A08BF41F48031C16059
:101F8000217A032912D1016BDFF898241140DFF880
:101F9000982442EA01050563C82000F0ABFCE06824
:101FA00045F400010163C82000F0A4FCE07801289A
:101FB00006D1E068816821F01E0141F02A018160AC
:101FC000002032BDC068816841F0010103E0C068B3
:101FD00081684908490081600020704780B500226F
:101FE0000092009A42F020020092009A61F38A1255
:101FF000009200F01DF802690092491E02D0009A7A
:102000009206F8D40FE080B500210091009941F0CC
:102010001001009100F00CF802690092491E02D0F4
:10202000009AD206F8D4032000F062FC002002BD22
:10203000C06800990161DFF8E013704780B5C0689F
:10204000C26822F0C042012908BF42F0005202D00B
:1020500009B942F08042C260322000F04BFC0020FF
:1020600002BDC068406900F00100704780B5FFF70D
:10207000F8FF012818BF002002BDC06841698069CF
:102080000840704738B50446002500F015FCD4F828
:102090000C0105600121204600F06FF860690068BE
:1020A000616920F004000860E07A01280BD1E06843
:1020B00080214162E068DFF874138162E068DFF834
:1020C0007013C0F8001110212046FFF787FF20464B
:1020D000FFF799FF4FF0FF3209E004EB8500D0F8DD
:1020E00090108A60D0F890000021C1606D1C2078AB
:1020F0008542F2D30121204600F00CF8204600F082
:1021000027F8002032BD4069806800F0010080F0AF
:102110000100704738B504460D4600F0C5FB204667
:1021200000F034F8C10406D4012D04D140F48050ED
:10213000D4F8CC100860C10405D525B9D4F8CC106A
:1021400020F480500860C820BDE8324000F0D2BBC7
:102150000021C26891614FF0FF33536153605361B6
:10216000B44B9361C07800B91021B3480143906922
:1021700088430843906100207047406902689208D4
:1021800001F0030151EA820101607047D0F8CC00F0
:10219000006820F02E00704740694069704738B5EC
:1021A0000446FFF7F3FF4FF4807141EA0005D4F8CD
:1021B000CC0005600A2000F09DFBD4F8CC0025F48B
:1021C00080710160142000F095FB012032BD70B5D4
:1021D000002300EB8102D2F890504FF0FF36AE6042
:1021E000C578012D08BF042300EB411505F2AC248E
:1021F00066792EB1022E03D017D3032E0FD01CE028
:1022000040F299463343A67816B14FF4807613E036
:1022100043F04003267986B143F020030DE040F2FD
:1022200099663343A67846B1EFE740F2212633435F
:10223000A67816B14FF4C0763343D2F89060F360BD
:1022400043699B69012606FA01F1194343699961C3
:10225000C168896941F00071C068816195F8AC027C
:10226000800500F0FE506178C90201F4F041084396
:10227000A178C90301F400410843E17802290CBFA9
:102280000121002140EA41406179890401F44021A3
:102290000843E188490550EA51506179032908BF94
:1022A00040F00050D2F890100860002070BD2DE979
:1022B000F04704460D4604EB451808F2B82708F22B
:1022C000AE26796871B1B28811FA82F1491EB1FB6C
:1022D000F2F189B2B1F5807F05DD4FF48071120211
:1022E0007A6000E0012198F8AE2212B1B2884A4328
:1022F0007A6004EB850978684003504A02EAC141DC
:1023000051EA5030B179490701F0C0410843D9F88A
:1023100090100861E078012804D1D9F89000D8F82D
:10232000B8124161D9F89000006820F0005A2046A8
:10233000FFF7E9FE4AEA407020F0804040F000409C
:10234000D9F890100860E07848BB98F8AE0230BB2E
:10235000786820B3F07828B1022803D00CD3032882
:102360000AD014E0E068C06A00F01CF80FD2E06800
:10237000806940F0200008E06069006900F012F810
:1023800005D2E068806940F08060E16888617B6820
:102390009BB22A46D8F8B8122046FFF72CFD002041
:1023A000BDE8F0877968C91C890380B2B0EB114F92
:1023B000704730B500EB8101D1F89020126842F0EF
:1023C0004042930C5400640803252B4203D003F0D1
:1023D0000303022B02D1C068C06A01E040690069B2
:1023E0000002000E08BF2246D1F8900002600020D3
:1023F00030BD00EB8100D0F89010114A0A61D0F88E
:102400009010096821F0804141F00041D0F890001F
:102410000160002070470000410D030000000440EF
:1024200037FFB5FFFFFF00F300002D1480006000B0
:10243000E000600000080080080020230000F81F72
:102440000000088070B50C4615461E466179FFF7FE
:1024500075F901460120E278012A02D0022A0AD049
:1024600070BD2178617009212170A560A681207757
:102470000221E17070BD012902D1E070002070BD21
:10248000032902D1E070022070BD042904BFE0706E
:10249000032070BD10B500EB4213002483F8AE4258
:1024A000032483F8B442C3F8B8120821C3F8BC125D
:1024B0001146FFF74CF9C0B210BD38B500EB43141C
:1024C000002584F8AE52C4F8B81204F2B8214A606C
:1024D0000AB901224A7304F2AE22497B01B10221FA
:1024E00091712DE038B500EB4314012584F8AE520C
:1024F000022584F8B452C4F8B812C4F8BC221FE014
:1025000038B500EB4314002500F010F8497B01B109
:102510000221917114E038B500EB4314012500F05D
:1025200005F8097B01B10221917109E084F8AE52EE
:10253000C4F8B81204F2B8214A6004F2AE2270471F
:102540001946FFF704F9002032BDF0B583B000F062
:1025500026F84FF48073002200F04EF8070005D1F2
:102560002A46314604F1220000F084F83846FEBDC8
:10257000F0B583B000F013F84FF40073002200F0C0
:102580003BF8070009D10095334604F1500204F1ED
:102590003E0104F1340000F09DF83846FEBD0C46C3
:1025A000154600F210160195009670477CB51D4641
:1025B000069C00F21016A4B2019400964FF44073EA
:1025C0001343002200F018F8010014D17178032998
:1025D00011D131788A1E9442A4BF8C1EA4B2B61CBD
:1025E000002104E08A5D05F8012B891C89B2A14213
:1025F000F8DB0021297076BD38B5049D059C42F0BA
:1026000080020A7506224A75CB8203F47F424FF49A
:1026100040739A420CBF40F2094200220A834C8365
:10262000A3B22A46FFF70EFF32BD00230B75052328
:1026300002E000230B7509234B75CA8200220A832E
:102640004A830023FFF7FEBE10B502240C75012457
:102650004C750024CC820A834C8300EB4313120692
:1026600022464CBF83F8C42283F8C5220023FFF71B
:10267000E9FE10BD10B50B7803704B7843708B7872
:10268000CC78240254FA83F343800B7903714B799D
:1026900043718B798371CB79C371092A19D30A7A73
:1026A0004B7A1B0253FA82F202818A7ACB7A1B029E
:1026B00053FA82F242810A7B4B7B1B0253FA82F26D
:1026C00082818A7B8273CA7BC2730A7C0274497CD2
:1026D000417410BDF0B5059C1D7805705D7845709E
:1026E0009D78DE78360256FA85F545801D790571AC
:1026F0005D7945719D798571DD79C5711D7A0572A8
:10270000A4B20A2C54D30479032C51D200242CE017
:102710001F78FB185F78052F21D176B202EBC60730
:1027200093F800C087F800C093F801C087F801C093
:1027300093F802C087F802C093F803C087F803C07B
:1027400093F804C093F805E04FEA0E2E5EFA8CFC75
:10275000A7F804C093F806C087F806C0761C77B2C5
:1027600095F804C06745D3DB641C65B20679B542B1
:102770001EDA1D78EB185D78042DF6D164B204EBF7
:10278000C4056D181E782E705E786E709E78AE70DF
:10279000DE78EE701F792F715E796E719E79AE7161
:1027A000DE79EE711E7A2E720026032FDCD2D6E778
:1027B000F0BD000010B584B00121012000F036F911
:1027C0004FF4D050019003208DF8090002208DF8BD
:1027D00008000020ADF80A006A4C00F03DF80A221B
:1027E000092100F03DF80A220B2100F039F80A22F5
:1027F0000C2100F035F84FF48060019001208DF835
:102800000A008DF80B0003208DF8090000F024F871
:102810000A22114600F024F801214FF4804000F014
:1028200020F90121802000F00AF900214FF000601A
:1028300000F077F94FF4A06000F042F91C208DF809
:10284000000000208DF80100012000F00CF80121AB
:10285000084600F0FDF81FBD01A9204600F076B93A
:10286000204600F0B4B98DF802008DF8030000A8EE
:1028700000F02BB980B54FF4C06000F021F943207F
:1028800000F00CF8FFF7EFFF172000F007F8022028
:102890008DF802000120FFF7E8FF01BD8DF8000070
:1028A00001208DF801007047374811B9012100F06F
:1028B00085B9012100F084B91CB50121042000F084
:1028C000B5F80120009002208DF8050001208DF858
:1028D00004000020ADF806002B4C00A9FFF7BDFF57
:1028E0000121204600F06AF9C82000F003F813BD6A
:1028F000022115E0012113E080B501214FF0804055
:1029000000F011FA00280AD000F047F81F480168CB
:1029100019B10168491E016001BD00F044F801BD14
:102920003EB50D46194C206000F03CF8002200F046
:102930002FF8022D08BF0B2003D0012D02D142F643
:10294000DF6001900520ADF800000020ADF8080020
:10295000ADF8020000A94FF0804000F04BF900F004
:102960001CF801214FF0804000F076F9012200F0C0
:102970000FF8012100F017F820680028FCD100F0C2
:1029800011F837BD00000240000802408C430020CF
:1029900001214FF0804000F0BEB901214FF080408E
:1029A00000F0CBB900214FF0804000F05FB900008B
:1029B00030B539494A68394B394C02F00C02042AC7
:1029C00002D0082A02D016E0234614E00A680D68F7
:1029D00005F03F0552024CBFB4FBF5F2B3FBF5F234
:1029E0000B68C3F388135A430B68C3F301435B1CA2
:1029F0005B00B2FBF3F303604B682A4A0468C3F33D
:102A000003139B5C24FA03F343604B684468C3F3ED
:102A100082239B5C24FA03F3836049684368C1F313
:102A20004231895C23FA01F1C16030BD1E4A0029A0
:102A3000116814BF084321EA0000106070471B4A68
:102A40000029116814BF084321EA00001060704794
:102A5000174A0029116814BF084321EA00001060DA
:102A60007047144A0029116814BF084321EA000086
:102A700010607047104A0029116814BF084321EA0A
:102A80000000106070470D4A0029116814BF084308
:102A900021EA000010607047043802400024F4006E
:102AA00000127A00681400203038024034380240A6
:102AB0004038024044380240203802402438024066
:102AC0001B4908431B490860704770B503781A46D4
:102AD0000121C478ECB1174B1B6803F4E063C3F524
:102AE000E0631B0A4478C3F10405AC4085780F26E7
:102AF00046FA03F32B4023431B010F4C1355007878
:102B000042110E4B00F01F0001FA00F043F82200C2
:102B100070BD50110A4A03F01F03994042F820107B
:102B200070BD084A1140084307490860704700001B
:102B30000000FA050CED00E000E400E000E100E038
:102B400080E100E080FFFF1F08ED00E0F0B500220B
:102B5000012393400C681C409C422BD15400032558
:102B6000A540ED4306682E40066006680F79A74031
:102B70003E4306600E79012E01D0022E11D18668E7
:102B80002E40866086684F79A7403E43866046683F
:102B900026EA0303436043688E799640B6B2334316
:102BA0004360C3682B40C360C368CD7905FA04F461
:102BB0002343C360521C102ACAD3F0BD018370475F
:102BC00041837047002A14BF01834183704710B5C9
:102BD000CB1000EB830001F007018900036A0F248A
:102BE0008C40A3430362036A02FA01F119430162B4
:102BF00010BD000030B50488404A3A4B98420DD0D1
:102C000090420BD0B0F1804F08D0374DA84205D08C
:102C1000364DA84202D0364DA84204D14FF68F75EA
:102C20002C404D882C43334DA84207D0324DA8424A
:102C300004D04FF6FF452C400D892C4304804C688E
:102C4000C4620C880485984201D0904201D1897AEF
:102C500001860121818230BD0029018812BF41F027
:102C600080014FF67F721140018070470029018872
:102C700012BF41F001014FF6FE7211400180704712
:102C800030B5028C4FF6FE731A400284048C8288A1
:102C9000038B4FF68C752B400D882B434FF6FD753B
:102CA0002C408D892C434D882C430E4DA84202D0D8
:102CB000124DA84210D14FF6F7752C40CD892C4308
:102CC0004FF6FB752C408D882C434FF6FF452A406C
:102CD0000D8A2A434D8A2A4382800383896841638F
:102CE000048430BD000001400004004000080040A2
:102CF000000C00400010004000140040000401409F
:102D000041637047028B4FF6F7731A4011430183FA
:102D10007047406B7047002A828914BF114322EA32
:102D20000101818170470022038A808908400B429B
:102D300001D000B1012210467047C943018270479B
:102D4000DFF85818C8644FF40012CB6C012B19D16E
:102D50000A65DFF84C084865DFF8480888650020F8
:102D6000C8652F2008664FF0205048664FF010507D
:102D700088664FF00150C8664FF0085008674FF062
:102D800004501AE0022819D10A65DFF81C084865CA
:102D9000DFF8180888650020C8650B200866DFF892
:102DA00010084866DFF80C088866DFF80C08C8666B
:102DB000DFF808080867DFF808084867704780B53B
:102DC00065292FBF6421C1EB0121642391FBF3F13D
:102DD000C9B200F0DCF8002801D0012002BD00F0EB
:102DE0004CFB002002BD70B50400DFF8B05705D1E0
:102DF000012000F076F90646012109E0002000F0EC
:102E000070F906462978042000F093F986199E216E
:102E100000F057F9801901D0012070BDDFF8AC67D0
:102E20004CB900220221304600F0BEFC0021686D42
:102E300000F072FD0FE001220221304600F0B4FCE8
:102E40000121686D00F068FDB08B400503D40121BD
:102E5000304600F09BFC002070BD10B582B00446E7
:102E6000012000F03EF9022C04D19F2100F029F945
:102E700004460DE09F2100F024F9044640F6FF705F
:102E800000F04FF900221021DFF84407FFF79AFE07
:102E9000002C01D0012016BDDFF8004700F057F8E4
:102EA000606EA16E0843E16E0843216F014300F09C
:102EB0004BF80021DFF8140700F068FC206C606418
:102EC000002016BD38B5DFF8D446616E606D00F0A5
:102ED00030FD002836D0606C60B3606D00F025FDD9
:102EE0000028FAD100F02FF8A06CE060606C4FF67B
:102EF000FF75B0F5803F28BF28466061211D606DD9
:102F000000F0E2FC0121606D00F006FD606CB0F5A0
:102F1000803F34BF01462946A26C02EB4101A16407
:102F200038BF0546401B60640121606DBDE8344038
:102F300000F0F2BC00F00BF800F005F80021A06CE6
:102F400000F04DFE31BD616E606D00F003BD0021EB
:102F5000606D00F0E1BCB5E7B4E710B5DFF86C4692
:102F60000221204600F035FC80B1DFF83006C06C4D
:102F7000022805D100F043FE0146042000F0FDFFC9
:102F800000F03DFE0146204600F00CFC10BD2DE98E
:102F9000F04385B00C46904600F0F9F900F0ACF82B
:102FA00001214FF40010FFF753FDDFF8286630468B
:102FB00000F0F4FF0020ADF804004BF6FF70ADF810
:102FC00006003320ADF808004FF48060ADF80A0029
:102FD0004FF48040ADF80C00DFF8FC0500900121B3
:102FE000304601F065F800A9304600F0FEFF00F021
:102FF00067F80746AF21042000F09BF80546DFF88C
:103000009C65AF2030708121052000F092F8E9190D
:1030100047180421062000F08CF8C719204600F05C
:1030200052F8F06C02281BD10121082000F081F831
:1030300004460121092000F07CF80546C0210E203D
:1030400000F077F881460021142000F072F8291969
:10305000494444180021152000F06BF80019C719E5
:103060009E2100F02EF8044600210A2000F061F8AD
:103070000019C719F06C022804D004210E2000F0BA
:1030800058F8C7190021272000F053F806460F21F1
:103090001F2000F04EF805460A211A2000F049F8DA
:1030A00081460A211B2000F044F80446404600F007
:1030B0003DF9F01928184844201805B0BDE8F08300
:1030C0000121022035E038B500F11904E1B22020D9
:1030D00000F02FF80546E1B2212000F02AF840194F
:1030E00032BD80B501280EBFFF21DFF8B0040178A2
:1030F000042000F01EF802BD10B582B0DFF8D04405
:10310000002210212046FFF75DFD44F6FF7000F01D
:1031100008F801221021204602B0BDE81040FFF758
:1031200051BD01E00098401E009000980028F9D1A0
:1031300070472DE9F84304468946DFF8A0644FF450
:1031400096173760DFF88C844FF40031404600F06A
:10315000F3FF28B100F054F8F6D100F052FD4DE035
:103160000121404600F0AEFF4FF480553560DFF896
:103170007014404600F0D3FF18B900F041F8F6D1C2
:10318000EBE700229421404600F0B2FF3560DFF803
:103190005414404600F0C3FF18B900F031F8F6D1DE
:1031A000DBE72146404600F0B5FF3560DFF8381414
:1031B000404600F0B4FF18B900F022F8F6D1CCE791
:1031C0004946404600F0A6FF376005E03068411EE2
:1031D000316008B900F015FDDFF81014404600F02A
:1031E000ABFF0028F2D00121404600F076FF2046D8
:1031F00000F00BF848450CBF00200120BDE8F28329
:103200003068411E3160002870472DE9F04180464A
:10321000DFF8C8434FF496102060DFF8B8534FF43E
:10322000003100F080F828B100F078F8F7D100F014
:10323000E8FC6DE00121284600F044FF4FF4805681
:103240002660DFF89C7300F065F818B900F066F8A6
:10325000F9D1ECE700229421284600F049FF2660CE
:10326000E04900F058F818B900F058F8F8D1DEE756
:103270004146284600F04EFF2660DC4900F053F836
:1032800018B900F04BF8F8D1D1E70121284600F039
:1032900019FF266000F03EF818B900F03FF8F9D1A8
:1032A000C5E701229421284600F022FF2660D0497C
:1032B00000F039F818B900F031F8F8D1B7E700217B
:1032C000284600F01DFF288B0121284600F005FF4D
:1032D0002660C84900F027F828B900F01FF8F8D197
:1032E00000F08FFC14E0284600F016FF0746266029
:1032F0002888800503D500F011F8F9D197E701215E
:10330000284600F0FDFEBC49284600F02FFF384655
:10331000BDE8F0813946284600F001BF2068411E13
:10332000216000287047284600F006BF30B589B0FC
:10333000054601214FF40040FFF78AFBA34C2046CD
:1033400000F070F902950020ADF80200ADF804001D
:10335000ADF80C004FF40070ADF80000ADF80600B9
:1033600000A9204600F0A4F98C48C06C02280CD1BA
:1033700000F052F9002004900590079004A900F095
:10338000DDFD0121002000F0ECFD09B030BD30B5BD
:1033900083B001210820FFF749FB10200090012095
:1033A0008DF8040002208DF805000020ADF806001D
:1033B00000A98748FFF7CAFB01210720FFF736FB6A
:1033C0004FF41070009002208DF804008DF8050075
:1033D00001208DF8060000208DF80700874C00F0D2
:1033E00039F80422062100F045F80422092100F0F2
:1033F00041F84FF4A05000F031F8724C00F02AF878
:10340000714D062204212846FFF7E1FB06220A211E
:1034100000F030F86148C06C02280AD010200090FB
:1034200000A92846FFF792FB06220C2100F022F8A3
:1034300008E001210120FFF7F9FA00F0E3F828463F
:10344000FFF784FB802000F009F800F003F800F09B
:103450000FF837BD00A92046FFF778BB0090022087
:103460008DF804008DF805000020ADF806007047C7
:10347000062207212046FFF7AABB38B5474CE06C6F
:10348000012834D10121206DFFF7D0FAFFF75FFD4D
:10349000606D00F0B9F9E06D6060A06DA060002083
:1034A000E060402020614FF6FE7060610020A06166
:1034B0004FF48060E0614FF4006020624FF40050F0
:1034C00060620020A0624FF40030E06200202063C0
:1034D0006063A063E063211D606D00F0F5F90122D7
:1034E0001021606D00F042FA206E00F015F8374DA3
:1034F000E06C012805D101220221284600F054F990
:1035000031BD00F030F801227121284600F054F955
:10351000332000F001F831BD8DF8000000208DF857
:1035200001008DF8020001208DF8030000A8FFF7CC
:10353000CCBA10B5194C626DE36C012BE06006BF8C
:10354000480860616161211D104600F0BDF901214C
:10355000606D00F0E1F91D48818B49055CBF0121D8
:1035600000F014F910BD00B587B001212448FFF721
:103570005DFA00F051F800F045F81348FFF7E6FA5D
:10358000002002900390059002A900F0D7FC0121D1
:10359000002000F0E6FC07B000BD0000381300205A
:1035A000B86002400C3C0040106002400C740040C7
:1035B0002000001010000010010080100800001012
:1035C000040080100008024000000240003C00405F
:1035D000000C024000540040A08601009814002016
:1035E00001000300820007008000070004000010B3
:1035F000020000104000001000040010000402400F
:10360000010020001020009003208DF8040000200D
:103610008DF8070000A9704701214FF00050FFF717
:1036200017BA000080B54E4988420BD101214FF4F2
:103630008050FFF728FA00214FF48050BDE8044085
:10364000FFF721BA4749884208D101214FF4804051
:10365000FFF710FA00214FF480400AE04249884207
:1036600009D101214FF40040FFF704FA00214FF483
:103670000040FFF7FFF901BD028802F441520B88B8
:103680001A434B881A438B881A43CB881A430B89F9
:103690001A434B891A438B891A43CB891A430280F8
:1036A000828B4FF2FF731A408283098A018270472E
:1036B000F0B50123828B4FF2400422408283022224
:1036C0000284828B8C68022C08BF002332D08C8845
:1036D00004B10223254C65682D0203D5656825F4E5
:1036E00000056560224D2E682D682468214F04F086
:1036F0003F04B7FBF4F4C6F388167443C5F30275B0
:10370000B4FBF5F58C68CE884FF40077BE420EBF4F
:103710002B0A5B01B5FBF3F30A256B43B3FBF4F310
:103720005B1D9BB2B3FBF5F303F001055B1B5C086B
:10373000A4B22B02A51EFE2D24BF02240023234386
:10374000CC88234303840B881A434B881A438B8805
:103750001A438989114341F400618183F0BD00005F
:103760000030014000380040003C00400438024076
:103770008438024000127A000029018812BF41F00B
:1037800040014FF6BF721140018070470029818BC4
:1037900012BF41F480614FF6FF32114081837047C0
:1037A0008089704781817047002A828814BF114345
:1037B00022EA0101818070470123090903FA01F11E
:1037C00089B2002A828814BF114322EA0101818054
:1037D000704700220089084218BF01221046704736
:1037E00030B50022012384880D0903FA05F52C4029
:1037F000008901F00F0103FA01F1084201D004B180
:103800000122104630BD0000F0B5016849084900AA
:1038100001600021016041608160C160016121217E
:1038200041615D495D4A904202D13D200860F0BD92
:103830004FF474625A4B984201D10A60F0BD4FF4C4
:103840007413584CA04201D10B60F0BD4FF074646A
:10385000554DA84201D10C60F0BD544D544EB042BC
:1038600001D14D60F0BD534E534FB84201D14E606F
:10387000F0BD524FDFF848C1604501D14F60F0BD47
:103880004FF03D5CDFF83CE170451AD04E49DFF85F
:103890003CE17045C9D0DFF838E17045CDD04D4AE4
:1038A0009042D1D04C4A9042D5D04C4A9042D8D088
:1038B0004B4A9042DBD04B4A9042DFD04A4A90427A
:1038C00001D1C1F804C0F0BD10B50268474B1A40E1
:1038D0000B681A43CB681A434B691A438B691A4326
:1038E000CB691A430B6A1A434B6A1A438B6A1A4311
:1038F0004B6B1A438B6B1A4302604269D2080B6B05
:10390000CC6A234353EAC20242610A6942604A68B0
:1039100082608968C16010BD0029016812BF41F052
:1039200001014908490001607047006800F001008A
:1039300070470022254B984234BF2D482D488B00FC
:103940004CBF4068006808402B49084218BF01225C
:10395000104670471D4A904234BF25482548264AE4
:103960000A4089004CBFC260826070470B0607D5D1
:10397000002A436914BF43F0800323F080034361AE
:10398000802908D001F01E01002A026814BF1143EB
:1039900022EA0101016070470860024010600240A5
:1039A0002860024040600240586002403D00002014
:1039B00070600240400F00208860024000003D20FF
:1039C000A0600240B86002400864024010640240F7
:1039D000286402404064024058640240706402401F
:1039E00088640240A0640240B86402403F801CF03A
:1039F00000600240006402407D0F7D0F2DE9F84F0A
:103A0000DFF8CC440121A170DFF8C85400212970EF
:103A100000F07EF8DFF8C00400210160DFF8BC94FC
:103A2000616A4846FDF730FC00F069F804F6340A94
:103A300000F05DF804F234084FF480614046FFF76F
:103A400078FD0120607000202062DFF89464062079
:103A50003070DFF8907401203870DFF88C0400219A
:103A60000170DFF888B406E04046FFF762FD00F021
:103A70003EF801206070A06A68B15846FDF757FE15
:103A800048B1DFF86C040078A8B10220FFF7E5F92F
:103A90000020A06228700720307000202870A070DD
:103AA0000220BDE8F24FFFF7D8B930703878FFF741
:103AB0009AF902203870206A58B95846FDF737FE47
:103AC00038B138780028F0D038780128F3D10620B2
:103AD000EBE700202062607800284FF48061C3D0BB
:103AE0005046FFF726FD00F00AF80020C2E704F177
:103AF00030034FF4806251464846FDF7DAB904F1CD
:103B000030034FF4806204F134014846FDF7D1B927
:103B10001FB5044600208DF8000040208DF80800F5
:103B200000208DF8090007208DF80A0000208DF88C
:103B30000B008DF80C0002A800F01CFB40208DF853
:103B4000040010208DF8050020208DF8060001A843
:103B500000F025FB3F2000F03AF8222100F03BF86E
:103B6000502000F034F8382100F035F8AA2000F099
:103B70002EF83B2100F02FF80A2000F028F83C2115
:103B800000F029F84C2000F022F8302100F023F852
:103B9000032000F01CF83D2100F01DF800F016F89D
:103BA0003E2100F018F800F011F83F2100F013F862
:103BB00000F051F90120FFF7C3F82246CD48017803
:103BC0000420FFF7FCF8002004B010BD7F208DF822
:103BD00000000122704700A800F0FDBAFEE7BC48D3
:103BE00001210162816A19B1816AA1F58061816256
:103BF000816AB1F5806F3CBF00218162704700206F
:103C000070470020704701B4BB480099016001680B
:103C10000029FCD101B07047B748016811B10168B3
:103C2000491E0160704738B500A80FF2F4210A68F8
:103C30000260A74C0120607000A9B048FDF7CFFBDF
:103C400030B1022000F0EDFB0A20FFF7DCFFF8E7BF
:103C5000AB48007801280CBF0FF2C8210FF2D02129
:103C60009E4D01222846FDF781F830B1022000F078
:103C7000C6FB9F480121017031BD04F130034FF4B0
:103C8000806204F134012846FDF713F904F12C0099
:103C900000F037F82070207828B9A069A062E068A9
:103CA000FFF7ACFE31BD022000F0BBFB0A20FFF79E
:103CB000AAFFF8E780B58748002101708448817029
:103CC000874907220A70874901220A700021816210
:103CD000854801700120FFF7C0F8012000F098FB33
:103CE000002000F095FB032000F092FB002202214F
:103CF0008448FFF710F800210846BDE80440FDF7AE
:103D00001BB838B50025724C01230422002100F0B5
:103D10008DF87D49884201D0012032BD0023042264
:103D2000114600F083F8606001230422082100F0AE
:103D30007DF87649884201D0022032BD0123042259
:103D40000C2100F073F87249884201D0032032BD83
:103D500000230422102100F069F8102818BF012563
:103D600000230222142100F061F82081208901281B
:103D700001D0042032BD00230222162100F056F8A3
:103D8000608100230422182100F050F8E060002335
:103D900004221C2100F04AF8206100230222202185
:103DA00000F044F8A08200230222222100F03EF815
:103DB000E082E08A102801D0072032BD2420E06193
:103DC000DDB100230222242100F030F8002801D0C8
:103DD000092032BD01230422262100F027F84D4995
:103DE000884201D00A2032BD002304222A2100F09B
:103DF0001DF8E1690A304018E061012300F013F872
:103E0000E169091DE1614449884201D0082032BDC1
:103E1000002300F008F8A061E069001DE061E0699E
:103E20006062002032BD0422E169C9B204F13400AD
:103E3000FFE7F0B50025002406E055FA81F6365C70
:103E4000EF00BE4034436D1C9542F6D3012B08BFF2
:103E500024BA2046F0BD00B585B001211020FEF740
:103E6000E5FD01214FF48040FEF7FBFD00208DF8B9
:103E700010008DF813000320039003A92748FEF7D4
:103E800065FE0121042000F041FB0220019000208A
:103E90008DF8080008208DF8090001208DF80A002F
:103EA00001A800F047FB4FF48060FEF709FE0720F1
:103EB0008DF8000000208DF801008DF8020001202F
:103EC0008DF8030000A8FEF700FE05B000BD00005D
:103ED00000000020682E00207C130020083C0020F9
:103EE00088430020A2140020A31400207C2E002070
:103EF0009A430020A6140020904300204C43002049
:103F0000A816002000080040464649524556415731
:103F100020746D66746361666174616400100240B0
:103F2000303A2F00303A7265632E776176000000D8
:103F3000303A617564696F2E7761760030B5164A44
:103F4000136840F6FE748440A3430C684D682C430C
:103F50008D682C43C968214301FA00F018431060B2
:103F600030BD012202FA00F00B4A0029116814BF8B
:103F7000084321EA00001060704781B000220092DF
:103F8000054A0092009A0830FFE7801800900098D8
:103F9000016001B0704700000074004080B53F49E7
:103FA000884208D101214FF40010FEF763FD002183
:103FB0004FF4001016E03A49884208D101214FF42D
:103FC0008000FEF757FD00214FF480000AE03549DC
:103FD000884209D101214FF40000FEF74BFD00217A
:103FE0004FF40000FEF746FD01BD7FB504460D46C7
:103FF000A68800A8FEF7DCFC02992B48B1FBF0F084
:104000004FF6C07232400243A28022884FF6FE7300
:104010001A4022802A68254B9A4208D25200B1FBEE
:10402000F2F18AB2042A38BF042189B220E0EB8879
:104030004BF6FF76B34204BF02EB4202B1FBF2F152
:1040400006D019235A43B1FBF2F141F4804189B201
:104050000A0504BF41F0010189B241F4004189B26F
:1040600080B24FF4967250434FF47A7290FBF2F0A4
:10407000401C2084A183208840F0010020802088FB
:104080004FF6F5310840A988084369890843208024
:10409000A8892989084320817FBD00000054004081
:1040A00000580040005C004040420F00A186010023
:1040B0000029018812BF41F001014FF6FE72114044
:1040C000018070470029018819BF4FF480721143A5
:1040D0004FF6FF621140018070470029018819BF27
:1040E0004FF4007211434FF6FF52114001807047A8
:1040F000002A14BF41F0010101F0FE010182704766
:104100000029018812BF41F480614FF6FF3211404F
:104110000180704701827047008AC0B27047002258
:10412000838A008B43EA004008400002000A88426C
:1041300008BF01221046704782B00246002001905D
:10414000009000920A0F01920902090A019A12B125
:10415000009A143202E0090C009A18320092009A78
:1041600012680A4218BF012002B07047FFE7C94336
:104170008182704710B582B000F00CF800F065F84D
:10418000607821780843E178084321790843A178D1
:10419000084318E0044600208DF80000704710B571
:1041A00082B0FFF7F7FF0122382100A800F02AF8BB
:1041B000207861780843A17808438DF80000012237
:1041C000382104E020438DF800000122202100A8BE
:1041D00000F001F813BDF8B504460D461646022E50
:1041E00028BF45F0400500F02BF8284600F0B3F852
:1041F00004E014F8010B00F0AEF8761EB6B2002E03
:10420000F7D117E0F8B504461546022D2CBF41F052
:10421000C00641F0800600F013F8304600F09BF82D
:1042200005E0002000F097F804F8010B6D1EADB218
:10423000002DF6D108213846BDE8F440FEF7BEBC9B
:104240005A4F08213846FEF7BBBC10B588B0012193
:104250004FF48050FEF705FC01210120FEF7E6FB3C
:1042600000F070F800F06EF800F06CF8504C052289
:1042700011462046FEF7ABFC052206212046FEF73C
:10428000A6FC052207212046FEF7A1FC022000F033
:1042900052F88DF807008DF80500202000F056F840
:1042A000802000F053F8402000F050F8414C2046A8
:1042B000FFF7B8F90020ADF808000390ADF8100042
:1042C0004FF40070ADF812000820ADF81400002083
:1042D000ADF816000720ADF818004FF48270ADF865
:1042E0000A0002A92046FFF7C7F901212046FFF77F
:1042F00043FA08200090012000F01DF88DF8050019
:104300002A4C00F024F808212046FEF757FC012033
:10431000009000208DF804008DF8060002208DF832
:10432000050000208DF8070000F011F8022000F0D1
:104330000DF808B010BD8DF8040000208DF80600BF
:104340000220704701211020FEF770BB009000A9E9
:104350002046FEF7FBBBF8B50446174D4FF48056D8
:104360002E60144F02213846FFF733FA38B9286817
:10437000411E29600028F5D1FFF730FC12E02146EC
:104380003846FFF70FFA2E6001213846FFF721FA71
:1043900028B92868411E29600028F5D1ECE7384685
:1043A000FFF7FEF9C0B2F2BD0000000000100240AD
:1043B00000000240003001409C1400201CB504465F
:1043C00001210FF2201050F82400FEF72FFB0FF20E
:1043D0000C1030F81400009001208DF8040000202B
:1043E0008DF8060001208DF8070002208DF80500E9
:1043F00000A9384850F82400FEF7A8FB13BD354942
:1044000051F820100FF2D40232F8100008837047E0
:10441000304951F820100FF2C40232F810004883DE
:1044200070472C4951F820104A690FF2B00333F855
:10443000100050404861704730B585B004460D46C5
:1044400001210FF2B40050F82400FEF7EFFA012129
:104450004FF48040FEF705FB00208DF810008DF82A
:1044600013000FF2900030F81400039003A91A48CB
:1044700050F82400FEF76AFB012D28D10FF28400CA
:10448000215C0FF27C00205C00F040F80FF26C0021
:1044900030F81400019000208DF8080008208DF8F5
:1044A000090001208DF80A0001A800F043F80FF27E
:1044B0005800205C8DF800000F208DF801008DF869
:1044C000020001208DF8030000A8FEF7FEFA05B0F7
:1044D00030BD00005814002094140020001000206B
:1044E00000400080080000000800000008000000F4
:1044F00008000000010000000100000001000000B1
:1045000000000000000000000600000030B501F0CF
:104510000302920021F00301054BCC580F25954072
:10452000AC43CC50CC5890402043C85030BD000024
:104530000838014030B50168CB4321498279002A0F
:1045400027D00A4614682340136053680468A343C5
:104550005360037951FA83F4236805682B43236081
:1045600093680468A3439360D3680468A343D3604B
:1045700043790568102B07D1916829439160D16870
:1045800000680843D06030BD51FA83F420682843A6
:1045900004E0007951FA80F420681840206030BDB2
:1045A0000021074A136803405269024201D003B157
:1045B0000121084670470349086070470000000069
:1045C000003C0140143C01402DE9F843044600251D
:1045D000FDF74CFD002868D02046FDF74EFD060093
:1045E00063D0300703D5E068082141610125F0065A
:1045F00003D5204600F01CFB0543B00603D520463A
:1046000000F056F80543700103D5204600F0A3F8EA
:104610000543B00123D54FF0000900272046FDF7E0
:10462000BBFD804604E000F065F9074309F101098C
:104630002078814512D2012000FA09F01FFA88F192
:104640000142F3D004EB8900D0F890000068000428
:1046500049462046E7D500F0FEF9E6E73D43F00184
:1046600003D5204600F0F5F80543B0000DD5002035
:10467000C4F810022046D4F8AC1409688847E068F2
:104680004FF00051416145F00105B0020DD5D4F85D
:1046900090000068D4F8901040F040400860E06856
:1046A0004FF40011416145F001052846BDE8F28351
:1046B000F8B50446E068C56AC5F3417004EB4010E4
:1046C000D0F8BC02C01C870836E000F0A1F804D284
:1046D00000F094F821F02001816100F0A4F8C5F306
:1046E000417004EB4010C5F3417104EB4111D1F866
:1046F000B8127118C0F8B812C5F3417004EB40103D
:1047000000F2B820C5F3417104EB411101F2B82168
:104710004968891B4160C5F3417004EB401000F209
:10472000B820C5F3417104EB411101F2B821896849
:1047300071188160E068C56ABFB2A8B2874208D22A
:10474000C5F3417004EB401000F2B8204068002827
:10475000BBD10120F2BDF8B5044660690569C5F317
:10476000417004EB4010D0F8BC02C01C870836E052
:1047700000F04EF804D200F041F821F08061816130
:1047800000F051F8C5F3417004EB4010C5F34171DE
:1047900004EB4111D1F8B8127118C0F8B812C5F382
:1047A000417004EB401000F2B820C5F3417104EBF6
:1047B000411101F2B8214968891B4160C5F341707C
:1047C00004EB401000F2B820C5F3417104EB411135
:1047D00001F2B82189687118816060690569BFB20A
:1047E000A8B2874208D2C5F3417004EB401000F232
:1047F000B82040680028BBD10120F2BDC5F341704C
:1048000004EB401000F2B8208688E06881697047A8
:10481000AE00B6B2C5F3417004EB401000F2B82010
:104820004068B0427047C5F3417004EB401000F29D
:10483000B8204068C01C87083346680F00F00302A8
:10484000C5F3417004EB4010D0F8B8122046FDF7D4
:10485000D2BAF8B5044600200026D4F8CC100D6872
:10486000096821F02E07A90708D52046D4F8AC1412
:104870004968884747F002070120012629072BD500
:1048800047F00807690727D50121C4F81012690C01
:1048900001F00302022A01D0012A1CD162691368C7
:1048A00001F0030102290BD141F27071516003F054
:1048B0000301022910D0E07A01280CD1022107E07F
:1048C0004BF68031516003F00301012904D001212E
:1048D0002046FDF752FC0120A90644BF47F02007FF
:1048E000012610B12046FDF75AFCD4F8CC00076031
:1048F0003046F2BDF8B500EB8104D4F89050AA68B8
:10490000EB6813402A685E070AD50420A860D4F833
:104910009000C068D4F8901040F00200C86083E0B6
:104920009E0648BF202026D40E18DF0706D500F0CB
:1049300084F80120A86086F88C0275E01F0705D571
:104940000822AA6000F07CF80520F4E7DF0605D510
:1049500000F073F81020A8600320ECE71F060BD5C9
:1049600000F064F8D4F81402401CC4F814020620C5
:1049700086F88C02802056E05F0605D500F05DF8D1
:104980004020A8600420D6E75F0509D500F04EF866
:104990001020A860082086F88C024FF4806042E066
:1049A0009B0741D5EB6823F00203EB6000EB41135A
:1049B00096F88C72012F0ED1012086F89B02900C84
:1049C00000F0030002282DD103F2B020417D81F0D8
:1049D0000101417526E096F88C22032A03D10220BA
:1049E00086F89B021EE096F88C22042A07D193F8E1
:1049F000B022012AF3D1C9B2FDF7FBFCEFE796F82C
:104A00008C02052808BF0420EAD096F88C020628FC
:104A100008D1D4F81402032804D186F89B020020A0
:104A2000C4F814020220A8600120F2BDEA6842F036
:104A30000202EA60C9B2FDF7BCBC0022C4F814222D
:104A4000D4F89020D268D4F8903042F00202DA60B4
:104A5000C9B2FDF7AEBC2DE9F84F80460D4608EB14
:104A6000850BDBF89070B868F96801EA0004D7F8A4
:104A7000009005EB080A60070AD50420B860DBF84F
:104A80009000C068DBF8901040F00200C86025E09C
:104A9000A00648BF202020D420070FD5F86840F09A
:104AA0000200F86005208AF88C021020B860082007
:104AB000B86024F0100400F0ABF80FE060050DD5ED
:104AC000F86840F00200F86000F0A2F81020B8602A
:104AD00008208AF88C024FF48060B860A00505D5E4
:104AE00000F09AF84FF40070B8608EE008EB4510C3
:104AF00000F2BC264FEA994101F00301E2072CD5F0
:104B000098F80320012A09D1DBF890201269D0F827
:104B1000BC025203B0EB5230CBF8500201208AF8AD
:104B20008C020020CBF814020120B86009B10229E0
:104B300008D100F071F81020B860307A80F00100E0
:104B4000307262E0032960D1DBF8900049F0005137
:104B5000016001208AF89B0257E0A00729D5DBF805
:104B60009000C068DBF8902020F00200D0609AF836
:104B70008C02012802D18AF89B0218E09AF88C0274
:104B8000052808BF0420F6D09AF88C02062803D026
:104B90009AF88C02082804D10020CBF814020320D4
:104BA000E9E7032903D1307A80F001003072022056
:104BB0009AE7200613D5DBF89000C068DBF8901068
:104BC00040F00200C860DBF81402401CCBF814026D
:104BD00006208AF88C0200F01BF8802084E7E006AB
:104BE00013D5032904D100F017F81020B86009E0AC
:104BF00009B1022906D129F0804040F00040DBF8DD
:104C00009010086003208AF88C020120BDE8F28F22
:104C1000E9B24046FDF7CDBBDBF89000C068DBF899
:104C2000901040F00200C860E9B24046FDF7C1BBF9
:104C300070B582B0044600208DF80000E0688169FC
:104C400021F010018161E068056A05F00F008DF820
:104C500000009DF8000004EB8000D0F8900006688A
:104C6000C5F34340022846D12809400543D09DF8AA
:104C7000000004EB4010D0F8B80200283BD0C5F388
:104C80000A129DF8000004EB4010D0F8B81220463C
:104C9000FDF7C6F805F00F0004EB4010C5F30A114C
:104CA000D0F8B8228A18C0F8B82200F2B82082687A
:104CB000891881609DF800009DF8001004EB8101C7
:104CC00004EB4010D0F8C002C1F850029DF800007B
:104CD00004EB8000D0F890000069C00C80050AD079
:104CE0009DF8000004EB8000D0F8900026F0804191
:104CF00041F000410160E068806940F01000E16827
:104D00008861012076BD0000D0F8AC1401220A723F
:104D1000D0F8AC04002181727047D0F8AC140122A5
:104D20004A72D0F8AC040021C17270472DE9F041FD
:104D30000446884616461F46069DFDF73BFD0020AB
:104D4000FDF7BAFD3146204600F019F8F767C6F8BE
:104D50008050DFF84C05C4F8AC0400210172D4F88F
:104D6000AC04417241462046FCF7ACFCD6F880000A
:104D7000006880472046BDE8F041FDF77BBD38B5AF
:104D800004460D46002028706870A8700120E87065
:104D900028774020A871002085F82000012085F8A0
:104DA00021002979204600F0E6FA6979204600F0D2
:104DB000E2FA002032BD000030B583B004460D4653
:104DC00002208DF8000028780C280ED8DFE800F0CB
:104DD0000E0718949494516B7D855D948A0020464B
:104DE000FCF7A0FC002800D1287085E02046FCF7E5
:104DF0009EFC0028F9D0204600F0C9FA0220F3E713
:104E0000D5F8800080688047D4F8AC040021417256
:104E1000D4F8AC04012181720021204600F091FAFF
:104E200068718021204600F08CFA28712046FCF73A
:104E300079FC002860D1D5F88000C0688047204602
:104E4000FCF76AFC85F821000620287095F82100FF
:104E5000D5F880108969884700F06FF829792046D5
:104E600000F031FA00F069F86979204600F02BFA79
:104E700042E02946204600F07FF800283CD1D5F8D2
:104E80008000406B80470A20AEE7D5F88000806B39
:104E90008047012830D129462046EA6F12689047A2
:104EA00050BB0720A0E729462046EA6F926890474A
:104EB0008DF800009DF8000008B9082094E79DF8DF
:104EC0000010284600F042F816E029462046EA6F16
:104ED000D26890478DF80000F1E72946204600F09F
:104EE00017F909E029462046FFF749FFD5F8800069
:104EF0004068804700F01BF82046FCF718FCA8B972
:104F0000D4F8AC04C07A88B9D5F88000006980472D
:104F1000D4F8AC040121C17229462046FFF72FFFC7
:104F2000D5F880004068804700F001F837BD05F1F2
:104F300020012046EA6F52681047A87901900020AE
:104F4000009095F8213095F82020704710B5044660
:104F5000052901D0042906D1D4F88000406C80478F
:104F60000C20207010BD062905D10C202070D4F82B
:104F700080000068804710BDF0B593B004460D4630
:104F8000012605F22901AF1CC4A0AA78092A28D855
:104F9000DFE802F0052838565F728597A9B208222B
:104FA00029462046FDF7D1FA00281AD195F82900A4
:104FB00038712046FCF7B6FBAE70387901900020BE
:104FC000009000230246F978204600F0A2F93879D3
:104FD00001900020009003460246B978204600F078
:104FE00098F98AE0122229462046FDF7AEFA0028F9
:104FF000F7D105F12200D5F88010C9698847022051
:10500000A8707AE0012229462046FDF70EFB002811
:1050100073D1BE77D5F88000006A80470320A8705E
:105020000020019000900023BA7FB978204600F05C
:1050300070F90020019000900346BA7FF978CDE71F
:10504000092229462046FDF793FA002855D104206D
:10505000D6E7EA8E29462046FDF78AFA00284CD189
:1050600005F1500205F13E0105F13400D5F880301C
:105070005B6A98470520C3E7CA7952B100F040F84F
:1050800000283AD102A8D5F88010896A88470620FE
:10509000B6E7D5F88010896A88470620B0E70A7A13
:1050A0004AB100F02DF840BB02A8D5F88010C96ABB
:1050B00088470720A4E7D5F88010C96A88470720E9
:1050C0009EE74A7A4AB100F01BF8B0B902A8D5F8B9
:1050D0008010096B8847082092E7D5F88010096B8B
:1050E000884708208CE795F8392029462046FDF7A7
:1050F000A0FA10B9092083E70026304613B0F0BDAE
:10510000FF20009002AB29462046FDF74FBA000071
:105110002DE9F04180460D460024AC74614E287F95
:10512000401E0A280FD8DFE800F0060F323B555F1B
:105130006E76949DA8006A7905F114014046FDF74A
:10514000A9F902202877A5E000F0B9F8012817D1C5
:10515000287D00F08000698B31B141F288318028D0
:1051600014BF0520032004E0322180280CBF092051
:105170000720287731804046FCF7DCFA288289E056
:105180000328FCD10B2028770520A87482E02B7916
:10519000AA89D2B2A9684046FDF7A4F90420D1E754
:1051A00029794046FCF7CAFA01280BD10920287753
:1051B0004046FCF7BFFA31882A8A801A814269D2B8
:1051C0000B20BFE7042802D16878287062E003282A
:1051D000EED1F5E700F068F8AA89D2B2A968404696
:1051E000FDF76BF90620ADE700F069F8012808BF6C
:1051F0000720A7D00428E7D0022808BF0520A1D0A7
:10520000032847D1DCE72B79002211464046FDF701
:1052100069F9082096E729794046FCF78FFA074696
:10522000012FD1D0032F08BF0B208BD04046FCF7B5
:1052300081FA31882A8A801A81423CBF0B20287764
:1052400028D3042F26D1687828700420A87403245A
:1052500020E000F029F8002211464046FDF72DF924
:105260000A206FE700F02BF80128ADD0022808BF14
:105270000920F6D003280DD1A2E7A87B401CA87313
:10528000C0B2032838BF0120EBD30820A874687887
:10529000287002242046BDE8F08100004E2F410016
:1052A0008814002096430020687908EB401090F89D
:1052B000C51281F0010180F8C5126B7970476979D8
:1052C0004046FCF73BBAF8B5069D079C00EB41173A
:1052D00007F2AC2600EB410C9CF88CE40EF07F0E3C
:1052E00086F801E0BCF88CC44FEA0C6C4FEADC7C19
:1052F00086F802C087F8AC227571F480F370002242
:10530000327672760BB901223271FCF760FF002011
:10531000F2BD38B5059C00EB41150AB185F8AC2209
:1053200005F2AC22D588A4B2A54201D004B1D48044
:10533000D4789C4201D003B1D370FCF748FF002021
:1053400032BD002200EB4203B3F88C341B040BD4B3
:105350004FF6FF739A4205D000EB420041F4004142
:10536000A0F88C14D0B27047521CD2B2082AE9D3EC
:105370004FF6FF72F6E7082907D200EB4100B0F8BC
:105380008C144904490CA0F88C14002070470221A9
:10539000002300EB4102A2F88C34491C0829F8D301
:1053A00000207047F0B587B00C461546DFF8606402
:1053B000706B00287DD1DFF85C04016841F48051F6
:1053C0000160DFF854047060DFF85004B0604FF4FF
:1053D0007A5030800120F081B081304600F03CFAF4
:1053E00001210620FDF722FB01210620FDF71EFB0F
:1053F00002208DF808000020ADF80A0002208DF888
:1054000009004FF480600190DFF8147401A9384658
:10541000FDF79CFB05220A213846FDF7D8FB082042
:105420000190DFF8007401A93846FDF78FFB0522D3
:1054300003213846FDF7CBFB4FF48060FDF740FBBE
:1054400024208DF8000001208DF8010000208DF847
:10545000020001208DF8030000A8FDF736FB0121B2
:105460004FF48040FDF7F4FADFF8BC733846FEF7DE
:10547000D9F84FF4FA4005902020ADF80E00002036
:10548000ADF810000820ADF818004FF44070ADF8EA
:105490000C000020ADF8120003A93846FEF708F909
:1054A000012260213846FEF787F9B4633564012094
:1054B0007063002007B0F0BD10B5D54A536B002BC8
:1054C0000DD050649164D84C012260212046FEF733
:1054D00073F901212046FEF759F9002010BD012083
:1054E00010BD80B5CA48406B002805D00021CE48C9
:1054F000FEF74CF9002002BD012002BD10B5CA4CD8
:1055000060212046FEF76CF9E0B12046FEF748F92D
:105510000146C648D0F880200B12DBB243EA0121D5
:1055200020F81210511CC0F8801040290AD3002125
:10553000C0F88010B64C23463222616C00F006FAA7
:105540000120E06310BD00B5522101704921417076
:1055500046218170C17000210171E2214171042155
:1055600081710021C171572101724121417256217F
:1055700081724521C172662101736D2141737421CD
:1055800081732021C1731021017400214174817441
:10559000C17401210175002141750221817500212D
:1055A000C175402101761F21417600218176C176A7
:1055B000402101771F21417700218177C1770221A6
:1055C00080F82010002180F82110102180F822108E
:1055D000002180F82310642180F82410612180F8D4
:1055E0002510742180F82610612180F827100021F1
:1055F00080F82810E22180F82910042180F82A1070
:10560000002180F82B1080224FF4EA712C3000F03A
:1056100023FB002000BD2DE9F04F83B001221021B3
:105620004FF4FA40FFF7BEFE814C00202060814D10
:10563000072028700FF214273846FBF752FF00F0BE
:10564000E4F8012807D1DFF8F0810A223946404604
:10565000FBF78CFB18B10220FEF7E3FEFBE7774F68
:10566000012087F800023846FFF76DFF07F5C850A4
:105670007C300090034600F0C2F8206800F2002061
:10568000206007F5CC5001901021FFF715FF6C4802
:105690000021018007F200267170DFF8A89140F226
:1056A000DC5ADFF86CB100F0B0F8002876D064481E
:1056B000008840F6B931884266D2DBF83C0018B960
:1056C00000F0A3F80028F8D10020CBF83C0007F543
:1056D000CD507178012905D10199226820322260CC
:1056E000002205E001460198226820322260012252
:1056F00041F67813D851CBF8441072700020F08036
:1057000003202870F288B088718841F67813DB593D
:10571000514511D207EB410C33F81220ACF80822A6
:10572000491C718050451DD10020B080009B40F67F
:10573000B83207F55C6112E0504513D207EB400C1C
:1057400033F81220ACF8C02D401CB080514509D16F
:1057500000207080009B40F6B83207F208214046D6
:10576000FBF75CFCF088401CF08080B21028C7D3A7
:1057700099F80000012896D0FFF7B3FE002089F8C1
:1057800000000620287009E0FFF7ABFE0420287017
:10579000022089F800000020CBF83C0000214046A0
:1057A000FBF772FD20683871381D216801F2002175
:1057B000090A4170216801F20021090C81702168F9
:1057C00001F20021090EC170206887F8280007F255
:1057D00028002168090A41702168090C817021683C
:1057E000090EC170009B00F00AF84046FBF744FD2B
:1057F0000021002003B0BDE8F04FFBF79DBA4FF445
:10580000007239464046FBF709BC0F48FBF78FBFD3
:10581000B0130020303802400000FA45000020415B
:105820000004024000080240003800402C420020E2
:105830002400002088430020E4370020A814002022
:10584000944300209A4300207C2E0020303A726559
:10585000632E7761760000002DE9F04F0646DFF8F1
:10586000DC03DFF8DC130160DFF8D813006888423E
:1058700036D1DFF8D403016006F110070020F8608C
:10588000B86078603860B8617861386174682046C3
:10589000002100F015FA24D04FF08740214600F097
:1058A0001DFA00F025FA05468946204600F020FA48
:1058B00004468846308800F04DFADFF89023DFF880
:1058C000903300F055FA2246434600F075FB02463D
:1058D0000B462846494600F04BFA00F0E1FB01E098
:1058E000FEE70020B883B4682046002100F0E8F904
:1058F00022D03588280200F023FA82468B462046C3
:1059000000F0F6F902460B46DFF84003DFF84013DB
:1059100000F0F2FB04468846284600F01BFA2246B7
:10592000434600F049FB02460B465046594600F0FC
:105930001FFA00F0B5FB00E00020F88330884FF438
:105940007A7190FBF1F03884BDE8F08F2DE9FE4FBD
:1059500096B0DFF8F4120968DFF8E822914200D02F
:10596000FEE71946103100910969009A52690792C1
:10597000009A92690392009AD2F8009052680692B7
:10598000009A9268009BDB68189CA4890194009C93
:10599000A48B0594009CE48B089400244FF480753C
:1059A000059EAD1B0D95019DC5EBC5050C95019D93
:1059B00005EB450675000B95019D05EB85050A95E0
:1059C000019D05EB45050995009D2D8C012DC0F22B
:1059D0001D810578DFF87062AD19069E95F8047296
:1059E000BE190E9695F8046109EB46072D79019EC4
:1059F000365CDFF854C2664496F804C267440297E6
:105A00000F9796F8047105EB47053679019F10F85A
:105A10001770DFF834C2674497F804C265441095E4
:105A200097F804C106EB4C063F79DDF824C01CF85A
:105A300000C0DFF814E2E6449EF804C26644119602
:105A40009EF804C107EB4C079EF804E0DDF804C0A3
:105A500010F82CC0DFF8F081E04498F804C26744E5
:105A6000129798F804C10EEB4C0C98F80480DDF8FE
:105A700028E01EF800E0DFF8D091F14499F804E244
:105A8000E644CDF84CE099F804C108EB4C0C99F8C9
:105A900004A0DDF82C8018F80080DFF8AC91C14438
:105AA00099F80482E044CDF8508099F804C10AEBDB
:105AB0004C0A99F80490DDF830C01CF800C0DFF8FB
:105AC00088B1E344CDF810B09BF804C2E244CDF8AD
:105AD00054A0DDF810C09CF804C109EB4C09CDF8C6
:105AE0001890DDF810C09CF80490DDF838C0CCEBBD
:105AF000CC0B03EB8B03DDF808C04FF0150B0BFB51
:105B00000C33C5EB051C634406EB860C03EB4C031E
:105B100007EB470C03EB4C030EEB4E0C634408EB16
:105B2000030C0E9B03EBC30302EB8302029B4FF0BB
:105B30002A0B0BFB03222E2303FB0522BB1903EBCD
:105B4000430302EB03122E2303FB0E220BFB08225E
:105B50000AEBCA0302EB8303029A05EB4505AA1878
:105B600006EB460502EB450207EB870502EB450213
:105B7000CEEB0E15AA18152505FB0822CAEBCA059F
:105B800002EB8502ACF50035089E56B1089E6918F7
:105B9000079FC91B7143CE1101EB166109120795CE
:105BA0000D46059E66B10D9E039FDDF814C005FBF2
:105BB0000CF507FB0655EE1105EB16652D12039546
:105BC000BDF85C607543012DACBF0835083DEE1093
:105BD00005EB16752D11DFF87C60B542B8BF354670
:105BE00005DB47F6BD76B542A8BF47F6BC75189EE3
:105BF000F6896643169F27F81650019D00EBC500F5
:105C0000641C009D2D8CAC42FFF6E3AE0098C0F8FA
:105C100000900098069C4460009882600098C360E1
:105C2000009801610098079941610098039981618A
:105C30000098008C19B0BDE8F08F000000300240E1
:105C4000C2A507F4CDB5E8B5341000201F85EB518F
:105C5000B81E19404480FFFF62F30F2262F31F4217
:105C6000401810F0030308D0C91A1FD3DB0748BF40
:105C700000F8012D28BF20F8022D130030B414467F
:105C80001546103928BF20E93C00FAD8490728BF3B
:105C900020E90C0048BF40F8042D890028BF20F8F7
:105CA000022D48BF00F8012D30BC7047C91818BF3D
:105CB00000F8012DCB0728BF00F8012D7047000028
:105CC00040EA010C5FEA4C0C07D0884205D14FEA4C
:105CD000400C1CF1807F98BF8042704700EE100A94
:105CE00000EE901A20EE200A10EE100A7047000015
:105CF0005FF0FF0C1CEAD05114BF614506E0C110F3
:105D0000400721F0E04101F16051704779B900F09E
:105D1000004100020AD0B0FA80FC00FA0CF001F158
:105D20006051A1EB0C5101EBD021400570474102BD
:105D30000CBF40F4E0016FF000010020704700004C
:105D4000010040F10880F446404200F004F851F0B0
:105D500000416047010009D0B0FA80F18840C91CB9
:105D6000C1F58461090501EBD021400570470000B1
:105D7000F0B540F2FF7581EA030C0CF0004C15EA17
:105D800011541DBF15EA1357AC42AF42E5E0BC41C8
:105D9000C1F31301C3F31303801A994143F4801331
:105DA00004D2641E4000494180185941C90241EAA9
:105DB0005051B1FBF3F603FB1611A2FB0675D7EBAE
:105DC000C020A94102D2761E80185941C90241EA79
:105DD0005051B1FBF3FE03FB1E11A2FB0E75D7EB76
:105DE000C020A94103D2AEF1010E801859418902A9
:105DF00041EA9051760546EA8E2EB1FBF3F603FB9D
:105E00001611A2FB0675D7EB8020A94102D2761E9F
:105E100080185941C90241EA50514EEA060EB1FBC1
:105E2000F3F603FB1611A2FB0675D7EBC020A941C0
:105E300002D2761E80185941C90241EA5051B1FB85
:105E4000F3F703FB1711A2FB0735D3EBC020A941E1
:105E500067F100070CBF004247F0010766F3D52742
:105E60004FEA1E31B80814F5806412DDBD0775F1E4
:105E7000004250EB0E5051EB045111F5801F5CBFF6
:105E800041EA0C01F0BD4CF07F6141F0E04100209F
:105E9000F0BDBD076D0840EA0E5041F48011D4F109
:105EA0000104B4F120060ADAC4F120060200E04041
:105EB00001FA06F3E1401843B24015430EE0342CDA
:105EC00013DCC6F1200445EA40056D0820FA06F20D
:105ED000154321FA06F0A1400D43002175F100425F
:105EE00050F1000051EB0C01F0BD00205FEA0C0105
:105EF000F0BDCFB992185B41B3FA83F704BFB2FA91
:105F000082F6BF190B3FB7F120062FBF02FA06F346
:105F1000BB40C7F1200622FA06F638BF3343BA4029
:105F20001CB1E419641E33E77F4231F00041B1FA3D
:105F300081F404BFB0FA80F6A4190B3CB4F120063A
:105F40002FBF00FA06F1A140C4F1200620FA06F6A0
:105F500038BF3143A0403C1B1AE7AC421ABF05EAE8
:105F60001357AF4212E050EA41061CBF52EA430603
:105F7000BFE750EA4107304661461CBF41EA055180
:105F8000F0BD52EA430C08BFC143F0BD00204FF4FE
:105F9000001616EB410F98BF16EB430F08BF16EB28
:105FA000410F24BFC14305E016EB430F0CBF614610
:105FB0004CEA0551F0BD000070B44FF0004591EA85
:105FC000030C44BF6B4000F072B9841A71EB0306F6
:105FD00003D2001BB141121973414FF4001C1CEB9A
:105FE000410F34BF7CEB430443E00C0DA4EB13568C
:105FF000352E50DC45EAC323DB0A45EAC121C9122C
:10600000B6F120050DDD63FA05F6EB4086EA0305DF
:10601000124218BF45F00105C01851F100010CD221
:1060200013E062FA06F5F2405540F3415A40B3409E
:10603000F3405A408018594107D349085FEA3000BD
:106040005FEA350528BF45F0010501F580114208DA
:1060500075F1004250F1000041EB045170BC4FF467
:10606000001C1CEB410F38BF70470020090D0905CB
:1060700070471CEB410F10D252EA43060BD0BCEB29
:10608000410F05D80C0DAB43661E342EB5DD02E082
:10609000AB438018594170BC704770BC704700001A
:1060A000F446400D40EAC120490006D200F013F842
:1060B000004248BF6FF00040604700F00CF84FF01E
:1060C000004188428CBF084640426047400D40EA8C
:1060D000C12049000CD240F00040490DA1F580617B
:1060E000491C05D4D1F11F0154BFC840C0177047E7
:1060F0004FF0000070470000B0B581EA030C0CF0CF
:10610000004C40F2FF7515EA11541DBF15EA1357F4
:10611000AC42AF4239E0E41923EA455343F480131B
:10612000C90241F0004141EA505EC7021100A7FBDD
:10613000020200284FF00000EEFB01204FF00001AA
:10614000E3FB072118BF42F001024018002149413A
:10615000E3FB0E01A4F580640F0302D2520040411C
:10616000494154F101046CDD470872F1004250F1DD
:10617000000051EB0451A1F580115CBF41EA0C0114
:10618000B0BD4CEA05510020B0BD05EA1357AC4242
:1061900014BFAF4241E050EA410E1CBF52EA430E29
:1061A00002E061460020B0BD24423C441BD15FEABE
:1061B000070EF6D0090302BF01460020AEF1140E0F
:1061C000B1FA81F7AEEB070401FA07FE0C37C7F10D
:1061D000200100FA07F7C8404EEA000E23EA4553B3
:1061E00043F48013A2E733F00043B3FA83F704BF0C
:1061F000B2FA82FE77440B3FE41BB7F1200E2FBFAB
:1062000002FA0EF3BB40C7F1200E22FA0EFE38BF91
:1062100043EA0E03BA40641C82E750EA410E14BF01
:1062200052EA430E6FF000014FF4001717EB430FD3
:106230008ABF194617EB410FB5E74CEA055100201C
:10624000B0BDD4F10104B4F120070FDAC4F1200786
:10625000520828BF42F0010210FA07F501FA07F7C9
:10626000E1BF2A43E0403843E1400FE0352C98DCA1
:10627000C7F1200452EA400220FA07F218BF42F0A8
:10628000010231FA07F0A1400A43002172F10042F5
:1062900050F1000051EB0C01B0BD000070B44FF0A4
:1062A000004591EA030F44BF6B40FFF78EBE841A8E
:1062B00071EB030604D26E40001BB1411219734109
:1062C0004FF4001C1CEB410F34BF7CEB430684E011
:1062D0000C0DA4EB1356362E7DDC012E43DC45EA73
:1062E000C32343EA525312BFD20292025B08240531
:1062F00045EAC12141EA5051D2EBC020994125D451
:1063000007D1B0FA80F610FA06F164D000202036EA
:1063100008E0B1FA81F6B140C6F1200220FA02F29B
:106320001143B0404FEAF474B4EB465434F0010624
:106330004FEA74040AD8D6F50016760D04F000442E
:10634000F04061FA06F25040F1404840C00A40EA8D
:10635000415021F0004128BF5FEA500550F1000094
:1063600044EBD12137E045EAC323DB0A45EAC121EA
:10637000C90AB6F120050EDD42EA0242120CC5F14F
:10638000200603FA06F6EB4042EA06056D42984104
:1063900061F100010DE062FA06F5F240554063FA42
:1063A00006FC82EA0C02F3405A406D42904161EBD8
:1063B000030111F4801F05D1641E620502D06D0037
:1063C0004041494121F48011430875F1004350F1E7
:1063D000000041EB045170BC70471CEB410F15D21B
:1063E00023F0004352EA43060BD04FEA4C0CBCEBBF
:1063F000410F04D80C0D661E342EB7DDEBE7801A72
:10640000994150EA410608BF0021E4E708BF1CEBB0
:10641000430F28BF6FF00001DDE70000F0B583B047
:1064200004460D4605F2540095F84310082938D16A
:1064300005F243018A78502A33D1894ECA7B12066D
:10644000C97B42BFF170B5F85410B18003D4B1706C
:10645000B5F85410F18081790906817942BFF17055
:106460000089B08002D4B1700089F080B1782046F4
:10647000FEF767FF7070F1782046FEF762FF30701C
:1064800005F12007F08800F011F871782046FEF73A
:106490001AFFB08800F00AF831782046FEF713FFA3
:1064A00002E0C06A006C80470020FEBD019002201F
:1064B00000907B7895F82020704738B50446684DE9
:1064C000697839B1FBF775FF69782046FEF753FF0D
:1064D00000206870297841B12046FBF76AFF2978CF
:1064E0002046FEF748FF0020287031BD5D4800219E
:1064F00001700020704700002DE9F84381460E46E8
:106500000124FBF714F9002812D0DFF85481564F0C
:10651000544D28780A280BD8DFE800F0060B2456E3
:10652000636A71797E498A004846FBF7EFFA2C705E
:106530007FE021203075FF2070750020F0823083CD
:1065400070830023024631464846FBF77BFF040078
:1065500004BF02202870032C6BD102206870092030
:10656000287066E0A1203075FE2070750020F08252
:1065700030837483012308F1080231464846FBF753
:1065800061FF04000FD198F8080088F8480040B176
:10659000787830B901207870D6F88000006C804798
:1065A00047E003202870032C43D10320D6E77379FA
:1065B000002231464846FCF747F8040039D1002054
:1065C00088F848006878CBE74846FBF7DBF828B93D
:1065D000042028700020387000242AE000F02CF8F5
:1065E00027E04846FBF709F90028F7D10520F0E736
:1065F0004846FBF749F908B90820EAE7EEE74846BC
:10660000FBF789F90028E9D168782870E4E731467A
:106610004846FBF78FFA0CE0D6F88000C06B804745
:10662000C0B208B908209BE7012802D1062400E087
:1066300004242046BDE8F2830A4901280BD10A4808
:106640000278521C0270D2B20A2A06D206200870C2
:106650000120C8707047022801D10A2008707047D5
:10666000B0420020FC420020984300207047FEE723
:10667000FEE7FEE7FEE770477047704780B5FDF71D
:10668000CBFA50480078012803D14F480188491CB3
:10669000018001BD80B50220FDF782FF68B14B4843
:1066A0004178012904BF0170002102D0002101704E
:1066B000012141700220FDF77EFF01BD38B50020A9
:1066C0008DF800004248007848B10122392100A825
:1066D000FDF798FD062227213E48FDF793FD3E4C2D
:1066E00002212046FCF71FFB002848D0022120464B
:1066F000FCF723FB394D2878032807D10120FDF74B
:1067000090FE0320FDF784FE00202AE0287804286C
:1067100007D10020FDF785FE0320FDF779FE01205B
:106720001FE02878062809D10120FDF771FE00201E
:10673000FDF76EFE0320FDF774FE14E0287818B90B
:106740000320FDF75CFE0EE0287807280BD101201E
:10675000FDF75EFE0020FDF75BFE0220FDF758FE10
:106760000320FDF755FE2046FCF7D3FA68806888C1
:106770001B49098811FA80F12046FCF7C1FA31BDA6
:1067800080B50120FDF70CFF90B10E48017801297A
:1067900004D1144900220A70027009E0017800292E
:1067A000F7D101210170104801600220FCF755FB70
:1067B0000120BDE80240FDF7FEBEFCF79DB80B4886
:1067C000FDF702BF9A43002094430020A21400204A
:1067D0000200002080430020000800408843002081
:1067E000A0140020682E0020200000207C2E002015
:1067F00038B50120FDF7E2FD0020FDF7DFFD0220A6
:10680000FDF7DCFD0320FDF7D9FD0020FDF7F7FDC6
:10681000454C201DFCF7CCF8A0686421B0FBF1F0DA
:10682000B0F1807F0BD241490002000A401E48604F
:106830003F48F0220270002088600720086000F0C6
:106840001AF8002020703B48072101700121002028
:10685000FDF7F2FD04F2C44537480090374B2A4655
:10686000012104F11400FEF761FA294604F1140035
:10687000FEF7A2FAF9E710B58AB001210420FCF76F
:10688000E7F84FF4A060FCF71BF91E208DF800001C
:1068900000208DF801008DF8020001208DF8030022
:1068A00000A8FCF712F90120FDF788FD0020FDF794
:1068B00085FD0320FDF782FD4FF6FF700290204911
:1068C0000968204AB1FBF2F14018ADF8040000203D
:1068D000ADF80C00ADF806001B4C01A92046FCF7F2
:1068E00089F901212046FCF7B7F90020ADF8100026
:1068F0000120ADF812001548008806900020ADF880
:106900001C0004A92046FCF7BBF900212046FCF737
:10691000F9F9012202212046FCF7FDF90121204668
:10692000FCF7A4F90AB010BD682E002010E000E0CA
:1069300023ED00E088430020FC13002078140020A1
:10694000541400207064080000080040A0140020C7
:10695000704780B54148002101704148072101700E
:106960000220FDF755FD0020FDF749FD012202211F
:106970003C48BDE80840FCF7CEB9704710B502208E
:10698000FDF73DFD002202213648FCF7C4F9364CE4
:106990003648006830B12078012803D0FDF78AF925
:1069A00000202070207801280CD1FEF79AFD0120EC
:1069B000FDF72EFD012020702D4800210180284880
:1069C0000721017010BD70477047704770477047CE
:1069D00070477047704780B54FF4FA70FBF78AFF35
:1069E000BDE8014003E0704701207047704710B5D3
:1069F000204C207810B1012812D015E0211DFAF7A3
:106A00009BF9002802D04FF0FF3010BD1A48007BE0
:106A1000012803D10220FDF7F2FCFBE7012002E090
:106A200000F004F800202070002010BD80B50B4855
:106A30000D49097811B1012907D001BD007800285E
:106A400007D1BDE80140FDF7EEB800210170FEF767
:106A5000E2FD01BD0748002101707047682E00204B
:106A600088430020000800409A43002028000020AE
:106A700094430020B03300206843002082B03A489D
:106A8000016841F4700101603848016841F001017A
:106A90000160002181600168354A1140016035497B
:106AA0004160016821F4802101600021C1600191F1
:106AB0000091016841F480310160016801F4003106
:106AC00000910199491C0191009919B90199B1F5F9
:106AD000A06FF2D10168490C01F001010091009909
:106AE00001292CD1016C41F08051016422490A68CE
:106AF00042F480420A6081688160816841F400410B
:106B00008160816841F4A05181601C494160016845
:106B100041F08071016001688901FCD5184940F29B
:106B200005620A608168890889008160816841F096
:106B300002018160816801F00C010829FAD18168A5
:106B400021F4000181600F490F4A0A60016841F099
:106B50008061016001680901FCD50C484FF00061BB
:106B6000016002B07047000088ED00E0003802408C
:106B7000FFFFF6FE1030002400700040085440076C
:106B8000003C0240843802408040003008ED00E0C4
:106B90002DE9F04100F10801026801EB820243682F
:106BA0005808400002EB80000024002526460127FB
:106BB0000CE014F8018BF44506D00CF8018B761C20
:106BC00036B2002EF7D40127F44513D1824201D109
:106BD000BDE8F08152F804CB5FEAC37E48BFCC44E5
:106BE00052F804EBE644EFE70C686418091D51F80D
:106BF000045B2D19AC42F7D05FB114F9016B00278B
:106C000005E00C686418091D51F8045B2D19AC42AD
:106C1000F7D0002ECDD436B2002ED4D4F44518BF10
:106C2000AC421EBF14F8018B0CF8018B761EF2D11A
:106C3000CAE7000010B5084979441C31074C7C4470
:106C40001A34A14206D0081D0A6851188847014627
:106C5000A142F8D110BD00BF0800000030000000C4
:106C600003ABFFFFF42E0000A8140020000000007A
:106C700021FFFFFF0200000002000000F8010000F9
:106C80002004000000000020A71400004EF68851E8
:106C9000CEF20001086840F4700008604FF0007008
:106CA000E1EE100A7047000000F009F8002801D05A
:106CB000FFF7C0FF0020FFF79BFD00F002F8012066
:106CC000704780B500F002F800BF00000746384664
:106CD00000F002F8FBE7000080B5C046C046024A5B
:106CE00011001820ABBEFBE72600020001488047D8
:106CF000014800477D6A0008FD6C0008C046C04698
:106D0000FFF7C4FFFFF7D0FFFFF7B0BCFFF7AFBC42
:106D1000FFF7AEBCFFF7ADBCFFF7ACBCFFF7ABBCF9
:106D2000FFF7AABCFFF7A9BCFFF7A8BCFFF7FEBF9F
:106D3000FFF7FEBFFFF7FEBFFFF7FEBFFFF7FEBF87
:106D4000FFF7FEBFFFF71CBDFFF7A4BCFFF7FEBFB8
:106D5000FFF7FEBFFFF7FEBFFCF7FEB8FFF7FEBF71
:106D6000FFF7FEBFFFF7FEBFFFF7FEBFFFF7FEBF57
:106D7000FFF7FEBFFFF7FEBFFFF7FEBFFFF7FEBF47
:106D8000FFF7FEBFFFF7FEBFFFF7FEBFFFF7FEBF37
:106D9000FFF7FEBFFFF7FEBFFFF7FEBFFFF70DBD1A
:106DA000FFF7FEBFFFF78ABCFFF7FEBFFFF7FEBF8E
:106DB000FFF7FEBFFFF7FEBFFFF7FEBFFEF79EBB6C
:106DC000FFF7FEBFFFF7FEBFFFF7FEBFFFF7FEBFF7
:106DD000FFF7FEBFFFF7FEBFFFF7FEBFFFF7FEBFE7
:106DE000FFF7FEBFFFF7FEBFFCF7B5B8FFF7FEBF2A
:106DF000FFF7FEBFFFF7FEBFFCF7AFB8FFF7FEBF20
:106E0000FFF7FEBFFFF7FEBFFFF7FEBFFFF7FEBFB6
:106E1000FFF7FEBFFFF7FEBFFFF7FEBFFFF7FEBFA6
:106E2000FFF7FEBFFFF7FEBFFFF7FEBFFFF7FEBF96
:106E3000FFF7FEBFFFF7FEBFFFF7C1BCFFF7FEBFC6
:106E4000FFF7FEBFFFF7FEBFFFF7FEBFFFF7FEBF76
:106E5000FFF7FEBFFFF7FEBFFFF7FEBFFFF7FEBF66
:106E6000FFF7FEBFFFF7FEBFFFF7FEBFFFF7FEBF56
:106E7000FFF7FEBF010101810081008100810081D7
:106E800000810081008100810081008100810081FA
:106E900000810081008100810081008100810081EA
:106EA00000810081008100810081008100810081DA
:106EB00000810081008100A9007E1C15310F2B2468
:106EC000400A261F3B19352E4A06221B3715312A48
:106ED00046102C25411F3B3450031F1834122E2717
:106EE000430D29223E1C38314D09251E3A18342DF8
:106EF00049132F2844223E3753011D1632102C25EA
:106F0000410B27203C1A362F4B07231C3816322BF7
:106F100047112D2642203C355104201935132F28C6
:106F2000440E2A233F1D39324E0A261F3B19352EA7
:106F30004A14302945233F38547E001C15310F2B4D
:106F400024400A261F3B19352E4A06221B371531CD
:106F50002A46102C25411F3B3450031F1834122E93
:106F600027430D29223E1C38314D09251E3A18347D
:106F70002D49132F2844223E3753011D1632102C61
:106F800025410B27203C1A362F4B07231C3816327D
:106F90002B47112D2642203C355104201935132F43
:106FA00028440E2A233F1D39324E0A261F3B19352D
:106FB0002E4A14302945233F387E540012152717D6
:106FC000292C3E182A2D3F2F414456182A2D3F2F99
:106FD0004144563042455747595C6E17292C3E2E86
:106FE0004043552F41445646585B6D2F4144564609
:106FF000585B6D47595C6E5E70738515272A3C2C73
:107000003E41532D3F42544456596B2D3F42544408
:1070100056596B45575A6C5C6E71832C3E415343F5
:1070200055586A4456596B5B6D70824456596B5B78
:107030006D70825C6E718373857E889A1224273905
:10704000293B3E502A3C3F51415356682A3C3F5110
:107050004153566842545769596B6E80293B3E50E4
:107060004052556741535668586A6D7F4153566880
:10707000586A6D7F596B6E807082859727393C4EB8
:107080003E5053653F51546656686B7D3F51546680
:1070900056686B7D57696C7E6E8083953E50536554
:1070A00055676A7C56686B7D6D7F829456686B7DF0
:1070B0006D7F82946E8083958510979AAC00000155
:1070C0000103030404060607070909FC0A1B0B0B4E
:1070D0000D0D0E0E10101111131314140F0F1010AC
:1070E00012121313151516161818FC191B1A1A1C50
:1070F0001C1D1D1F1F2020222223231515161618C4
:107100001819191B1B1C1C1E1EFC1F1B20202222D1
:107110002323252526262828292924242525272711
:1071200028282A2A2B2B2D2DFC2E1B2F2F313132D4
:107130003234343535373738381C1C1D1D1F1F209D
:1071400020222223232525FC261B272729292A2A1A
:107150002C2C2D2D2F2F30302B2B2C2C2E2E2F2F57
:10716000313132323434FC351B3636383839393B1C
:107170003B3C3C3E3E3F3F31313232343435353793
:107180003738383A3AFC3B1B3C3C3E3E3F3F41419E
:1071900042424444454540404141434344444646BD
:1071A00047474949FC4A0D4B4B4D4D4E4E505051AF
:1071B0005153535454C00005FFFF0000FFFFFA0075
:1071C0000001FB00092000B86002400C3C0040FCBC
:1071D00000002FFA000028FD00042400004020FDDC
:1071E000000022FD000021C8000010F9000001F598
:1071F000004751690008556A000853690008C769CB
:1072000000087D690008ED690008C9690008CB69BC
:107210000008CD690008CF690008D1690008D3696A
:107220000008D5690008D7690008E9690008EF6916
:107230000008E76900087B690008F8001B010203E9
:107240000406070809007A030A000C0240000C0239
:1072500040000C0240000C0240FC00230102030429
:1072600001020304060708091D640008BB64000846
:10727000ED640008F96400081B4D0008094D000882
:10728000FA0010024000C0120000100000BA4102D3
:0472900000010346B0
:0400000508006CFD86
:00000001FF
