:020000040800F2
:10000000E0040020796F0F08A16C0F08A36C0F08A3
:10001000A56C0F08A76C0F08A96C0F080000000062
:10002000000000000000000000000000AB6C0F08A2
:10003000AD6C0F0800000000AF6C0F08B16C0F082A
:10004000B96F0F08BD6F0F08C16F0F08C56F0F089C
:10005000C96F0F08CD6F0F08D16F0F08B56C0F086F
:10006000D96F0F08DD6F0F08E16F0F08AD530F0850
:10007000E96F0F08ED6F0F08F16F0F08F56F0F08AC
:10008000F96F0F08FD6F0F0801700F0805700F085A
:1000900009700F080D700F0811700F0815700F0808
:1000A00019700F081D700F0821700F0825700F08B8
:1000B00029700F082D700F08E16C0F0835700F08BC
:1000C00039700F083D700F0841700F0845700F0818
:1000D00049700F084D700F0851700F0855700F08C8
:1000E00059700F085D700F0861700F0865700F0878
:1000F00069700F086D700F0871700F081B530F089F
:1001000079700F087D700F0881700F083F540F0839
:1001100089700F088D700F0891700F0895700F0887
:1001200099700F089D700F08A1700F08A5700F0837
:10013000A9700F08AD700F08B1700F08B5700F08E7
:10014000B9700F08BD700F08C1700F08C5700F0897
:10015000C9700F08CD700F08D1700F08D5700F0847
:10016000D9700F08DD700F08E1700F08E5700F08F7
:10017000E9700F08ED700F08F1700F08F5700F08A7
:10018000F9700F08FD700F08524946466E4F0F0078
:1001900057415645666D74201200000001000200B0
:1001A00080BB000000EE0200040010000000666149
:1001B000637404000000CFD30300646174613C4F9A
:1001C0000F00000000000000000000000000000020
:1001D000000000000000000000000000000000001F
:1001E000000000000000000000000000000000000F
:1001F00000000000000000000000000000000000FF
:1002000000000000000000000000000000000000EE
:10633000000000000100000001000000010000005A
:106340000100000001000000010000000100000049
:10635000000000000000000000000000000000003D
:10636000000000000000000000000000000000002D
:106370000100000001000000010001000100010017
:106380000100010001000100010000000000000008
:1063900000000000000000000000000000000000FD
:1063A00000000000000000000000000000000000ED
:1063B00000000000000000000000000000000000DD
:1063C00000000000000000000000000000000000CD
:1063D00000000000000000000000000000000000BD
:1063E00000000000000000000000000000000000AD
:1063F000000000000000000000000000000000009D
:10640000000000000000000000000000000000008C
:10641000000000000000000000000000000000007C
:10642000000000000000000000000000000000006C
:10643000000000000000000000000000000000005C
:10644000000000000000000000000000000000004C
:10645000000000000000000000000000000000003C
:10646000000000000000000000000000000000002C
:10647000000000000000000000000000000000001C
:10648000000000000000000000000000000000000C
:1064900000000000000000000000000000000000FC
:1064A00000000000000000000000000000000000EC
:1064B00000000000000000000000000000000000DC
:1064C00000000000000000000000000000000000CC
:1064D00000000000000000000000000000000000BC
:1064E00000000000000000000000000000000000AC
:1064F000000000000000000000000000000000009C
:10650000000000000000000000000000000000008B
:10651000000000000000000000000000000000007B
:10652000000000000000000000000000010000006A
:106530000100000001000000000000000000000059
:10654000000000000000000000000000000000004B
:10655000000000000000000000000000000000003B
:10656000000000000000000000000000000000002B
:10657000000000000000000000000000000000001B
:10658000000000000000000000000000000000000B
:1065900000000000000000000000000000000000FB
:1065A00000000000000000000000000000000000EB
:1065B00000000000000000000000000000000000DB
:1065C00000000000000000000000000000000000CB
:1065D00000000000000000000000000000000000BB
:1065E00000000000000000000000000000000000AB
:1065F000000000000000000000000000000000009B
:10660000000000000000000000000000000000008A
:10661000000000000000000000000000000000007A
:10662000000000000000000000000000000000006A
:10663000000000000000000000000000000000005A
:10664000000000000000000000000000000000004A
:10665000000000000000000000000000000000003A
:10666000000000000000000000000000000000002A
:106670000000000000000100000001000000010017
:106680000000010000000000000000000000000009
:1066900000000000000000000000000000000000FA
:1066A00000000000000000000000000000000000EA
:1066B00000000000000000000000000000000000DA
:1066C00000000000000000000000000000000000CA
:1066D00000000000000000000000000000000000BA
:1066E00000000000000000000000000000000000AA
:1066F000000000000000000000000000000000009A
:106700000000000000000000000000000000000089
:106710000000000000000000000000000000000079
:106720000000000000000000000000000000000069
:106730000000000000000000000000000000000059
:106740000000000000000000000000000000000049
:106750000000000000000000000000000000000039
:106760000000000000000000000000000000000029
:106770000000000000000000000000000000000019
:106780000000000000000000000000000000000009
:1067900000000000000000000000000000000000F9
:1067A00000000000000000000000000000000000E9
:1067B00000000000000000000000000000000000D9
:1067C00000000000000000000000000000000000C9
:1067D00000000000000000000000000000000000B9
:1067E00000000000000000000000000000000000A9
:1067F0000100000001000000010000000100000095
:106800000100000001000000000000000000000086
:1068100000000000000000000000FFFF0000FFFF7C
:106820000000FFFFFFFFFFFFFFFFFFFFFFFFFFFF76
:10683000FFFF00000000000000000000000000005A
:106840000000000000000100000001000000010045
:106850000000010000000000000000000000000037
:106860000000000000000000000000000000000028
:106870000000000000000000000000000000000018
:106880000000010000000100000001000100010003
:1068900001000100010001000100000000000000F3
:1068A00000000000000000000000000000000000E8
:1068B00000000000000000000000000000000000D8
:1068C00001000000010000000000000000000000C6
:1068D00000000000000000000000000000000000B8
:1068E00000000000000000000000000000000000A8
:1068F0000000000000000000000000000100000097
:106900000100000001000000010000000100000083
:106910000000000000000000000000000000000077
:106920000000000000000000000000000000000067
:106930000000000000000000000000000000000057
:106940000000010001000100010001000100010040
:106950000100010001000100010001000000010030
:106960000000010000000100000001000000000024
:106970000000000000000000000000000000010016
:106980000000010000000100000001000000010003
:1069900001000100010001000100010001000100EF
:1069A000010001000000010000000000FFFF0000E6
:1069B000FFFF0000000000000000FFFFFFFFFFFFDF
:1069C000FFFF0000000000000000000000000000C9
:1069D00000000000000001000100010001000000B3
:1069E0000000000000000000000000000000FFFFA9
:1069F0000000FFFF0000FFFFFFFFFFFFFFFFFFFFA3
:106A0000FFFF0000000000000000FFFF0000FFFF8C
:106A10000000FFFF0000FFFF0000FFFF0000FFFF7E
:106A200000000000000000000000FFFFFFFFFFFF6C
:106A3000FFFFFFFFFFFFFFFF0000FFFF0000FFFF62
:106A40000000FFFF00000000000000000000000048
:106A50000000000000000000000000000000000036
:106A60000100000001000000010001000100010020
:106A70000100010001000100010000000000000011
:106A80000000010001000100010000000000000002
:106A90000000000000000000000000000000FFFFF8
:106AA0000000FFFF0000FFFF0000FFFF0000FEFFEF
:106AB0000000FEFF0000FEFF0000FEFF0000FEFFE2
:106AC0000000FEFF0000FEFF0000FEFF0000FEFFD2
:106AD0000000FEFF0000FEFF0000FFFF0100FFFFBF
:106AE0000100FFFF0000FFFF0000000001000000A8
:106AF0000100000001000000010000000100000092
:106B0000010000000100FFFF0000FFFF0000000087
:106B10000100000001000000000000000000010072
:106B2000010001000100010001000100010001005D
:106B300001000000000000000000FFFF0000FFFF58
:106B40000000FDFFFEFFFDFFFEFFFEFFFFFFFEFF5B
:106B5000FFFFFDFFFEFFFDFFFEFFFDFFFEFFFEFF4F
:106B6000FFFFFEFFFFFFFCFFFDFFFCFFFDFFFEFF41
:106B70000000FEFF0000FDFFFEFFFDFFFEFFFEFF29
:106B8000FFFFFEFFFFFFFFFF0000FFFF0000FFFF12
:106B900000000100020001000200000001000000EE
:106BA0000100FFFF0000FFFF0000000001000000E7
:106BB0000100FFFF0000FFFF0000FFFF00000000DA
:106BC000010000000100FFFF0100FFFF01000100C4
:106BD000020001000200FEFFFFFFFEFFFFFF0100B9
:106BE000020001000200FEFFFFFFFEFFFFFFFEFFAD
:106BF000FFFF01000200010002000100010001008E
:106C00000100020002000200020001000100010078
:106C1000010002000200020002000000000000006B
:106C2000000000000000010001000100010002005E
:106C3000020002000200FEFFFFFFFEFFFFFFFDFF5C
:106C4000FFFFFDFFFFFFFCFFFEFFFCFFFEFFFCFF61
:106C5000FEFFFDFF0000FDFF0000F7FFFAFFF7FF5A
:106C6000FAFFFAFFFDFFFAFFFDFFF6FFF9FFF6FF5F
:106C7000F9FFFAFFFDFFFAFFFDFFF8FFF9FFF8FF4C
:106C8000F9FFF8FFF9FFFDFFFDFFFDFFFDFF00002D
:106C9000FFFF0000FFFF0100FFFF0100FFFF0200F8
:106CA0000000020000000100FEFF0100FEFF0300E3
:106CB00000000300000003000000020000000200CA
:106CC00000000500040005000400010002000100AE
:106CD00002000000030000000300FAFFFEFFFAFFBD
:106CE000FEFFFAFFFEFFFBFF0100FBFF0100FAFFC2
:106CF0000000FAFF0000F7FFFEFFF7FFFEFFFCFFBA
:106D00000200FCFF0200F9FFFEFFF9FFFEFFF8FFA3
:106D1000FDFFF8FFFDFFF8FFFDFFFFFF0200FFFF93
:106D20000200010004000100040006000800060043
:106D3000080002000400020004000500080005002D
:106D4000080005000800FEFF0200FEFF0200FDFF34
:106D50000300FDFF030002000A0002000A00FFFF1B
:106D60000900FFFF0900FDFF0800FDFF0800F9FF13
:106D70000500F9FF0500F9FF0500F7FF0400F7FF24
:106D80000400F5FF0100F5FF0100FBFF0600FBFF1B
:106D90000600F4FFFEFFF4FFFEFFFDFF0600FDFF0F
:106DA0000600FAFF0100FAFF0100FAFF0100FCFFF4
:106DB0000100FCFF0100FDFF0100FDFF0100FCFFE1
:106DC0000000FCFF0000F7FFFBFFF7FFFBFFFAFFEF
:106DD000FFFFFAFFFFFFFAFFFFFFFDFF0200FDFFCD
:106DE0000200FBFF0200FBFF0200FEFF0600FEFFA9
:106DF0000600FEFF0700FEFF0700F9FF0400F9FF91
:106E00000400F5FF0000F5FF0000F5FF00000000A2
:106E10000B0000000B00F4FF0000F4FF0000FCFF7B
:106E20000800FCFF0800FDFF0800FDFF0800FDFF53
:106E30000800FDFF0800F5FF0100F5FF0100F5FF68
:106E40000100FDFF0800FDFF0800F6FF0000F6FF4F
:106E50000000FAFF0400FAFF040004000E00040022
:106E60000E0000000A0000000A0000000A00FBFFFC
:106E70000400FBFF0400FBFF0400FBFF0400000014
:106E8000080000000800F7FFFFFFF7FFFFFFFEFF0D
:106E90000600FEFF0600F5FFFEFFF5FFFEFFF5FF13
:106EA000FEFFFAFF0400FAFF0400F5FF0100F5FF02
:106EB00001000500120005001200FDFF0B00FDFFA0
:106EC0000B000600150006001500F7FF0600F7FF8F
:106ED0000600F7FF0600F9FF0800F9FF08000200AE
:106EE000100002001000F6FF0200F6FF02000C0086
:106EF00014000C001400F9FFFFFFF9FFFFFFF9FF7A
:106F0000FFFF0E0010000E0010000B000A000B0027
:106F10000A000200FEFF0200FEFF0A0003000A0052
:106F200003000300FBFF0300FBFF0400FBFF040062
:106F3000FBFF0400FBFF0600FDFF0600FDFF0A004B
:106F400001000A0001000B0003000B000300FBFF1F
:106F5000F4FFFBFFF4FF12000B0012000B00060011
:106F6000FFFF0600FFFF0600FFFF09000100090008
:106F700001000F0006000F0006000A0000000A00D2
:106F800000000F0003000F0003000300F6FF0300E2
:106F9000F6FF0300F6FF0D0000000D0000000500E5
:106FA000F9FF0500F9FF0F0005000F000500FBFFCA
:106FB000F4FFFBFFF4FF0600020006000200FEFFE4
:106FC000FEFFFEFFFEFFFEFFFEFFF9FFFCFFF9FFE5
:106FD000FCFF010008000100080004000D0004008F
:106FE0000D00090013000900130009001400090036
:106FF00014000A0014000A0014000A001400000023
:107000000800000008000400090004000900060050
:107010000900060009000F000F000F000F00FAFF23
:10702000F8FFFAFFF8FFFAFFF8FF08000400080075
:1070300004000A0006000A000600FBFFF6FFFBFF43
:10704000F6FF05000000050000000400FEFF04003C
:10705000FEFFFDFFF6FFFDFFF6FFFDFFF6FF06005A
:10706000FEFF0600FEFF0A0001000A0001001400F6
:107070000900140009000500F7FF0500F7FF0A00EA
:10708000F9FF0A00F9FF16000300160003001600BE
:1070900003001B0008001B00080020000D0020005A
:1070A0000D00130002001300020011000200110085
:1070B00002000800FDFF0800FDFF0800FDFF0C00B6
:1070C00005000C000500F7FFF4FFF7FFF4FF0B00CD
:1070D0000C000B000C000300080003000800050072
:1070E0000C0005000C001600200016002000160001
:1070F000200013001E0013001E0003000F000300F9
:107100000F0003000F0003000F000C001A000C001A
:107110001A00FEFF0D00FEFF0D000E001F000E0006
:107120001F000E001F00FEFF1200FEFF1200F6FF00
:107130000D00F6FF0D00FDFF1800FDFF1800F0FF29
:107140000E00F0FF0E00F6FF1600F6FF1600F6FF29
:1071500016000800290008002900FFFF1F00FFFF9C
:107160001F00FBFF1800FBFF1800F6FF0F00F6FFE3
:107170000F00FEFF1200FEFF1200FAFF0900FAFFE7
:107180000900FAFF090007001100070011000500BF
:107190000A0005000A0008000A0008000A001100A1
:1071A0001200110012000400050004000500070091
:1071B0000B0007000B0007000B001B0023001B0047
:1071C000230017002100170021000600140006000C
:1071D00014000400140004001400ECFFFDFFECFF99
:1071E000FDFFECFFFDFFFBFF0A00FBFF0A000300B1
:1071F0000F0003000F000B0013000B001300090029
:107200000C0009000C0015001300150013001C00F1
:1072100016001C0016001C00160021001900210099
:107220001900090001000900010010000900100008
:1072300009000E000D000E000D00130018001300D1
:107240001800130018000A0017000A001700F2FFC8
:107250000700F2FF07000300200003002000F1FFF9
:107260001400F1FF1400F8FF2000F8FF2000EFFFEA
:107270001900EFFF1900EFFF19000C0035000C009A
:107280003500F5FF1B00F5FF1B001A003B001A003C
:107290003B00090024000900240007001C0007002F
:1072A0001C000F001F000F001F000F001F00F6FF43
:1072B0000000F6FF00000B0010000B001000F6FFAE
:1072C000F8FFF6FFF8FF0C000D000C000D00F3FFB7
:1072D000F3FFF3FFF3FFF3FFF3FFF1FFF1FFF1FF24
:1072E000F1FFECFFECFFECFFECFFF3FFF4FFF3FF2B
:1072F000F4FF06000700060007000A000B000A0062
:107300000B00F9FFFCFFF9FFFCFFF9FFFCFF0C008D
:107310000F000C000F00FAFFFEFFFAFFFEFF08004F
:107320000D0008000D00FFFF0500FFFF0500F8FF3E
:107330000000F8FF0000FEFF0700FEFF0700FEFF51
:10734000070004000E0004000E00FAFF0500FAFF1B
:107350000500D8FFE3FFD8FFE3FF0C0017000C0087
:107360001700E6FFF0FFE6FFF0FFE6FFF0FF090081
:10737000120009001200110019001100190012007A
:1073800019001200190007000D0007000D0005008C
:107390000A0005000A00F7FFFDFFF7FFFDFFF7FFFA
:1073A000FDFFF4FFFAFFF4FFFAFF24002A00240097
:1073B0002A0016001C0016001C0018001E001800F1
:1073C0001E0016001C0016001C000F0013000F000A
:1073D00013000F00130010001100100011001B001B
:1073E00017001B001700120009001200090011000D
:1073F0000200110002001000FAFF1000FAFF100056
:10740000FAFF2E0013002E001300250006002500B1
:10741000060039001700390017000D00EBFF0D00C2
:10742000EBFF1D00FDFF1D00FDFF27000C002700E6
:107430000C0027000C001000FBFF1000FBFF3300C6
:107440002500330025000B0004000B0004001B0086
:107450001B001B001B0005000B0005000B00F8FFC4
:107460000100F8FF0100F8FF01000600100006000F
:10747000100001000A0001000A00FBFF0000FBFFF2
:107480000000FDFFFEFFFDFFFEFFE9FFE3FFE9FF58
:10749000E3FFE9FFE3FFF6FFEAFFF6FFEAFF010083
:1074A000EFFF0100EFFF1300FBFF1300FBFF2900BC
:1074B0000D0029000D002200030022000300290016
:1074C000070029000700290007002000FDFF200019
:1074D000FDFF0D00E9FF0D00E9FF1C00F7FF1C0098
:1074E000F7FF26000000260000002500FDFF250014
:1074F000FDFF2F0003002F0003002F0003002800D2
:10750000F8FF2800F8FF1900E5FF1900E5FF070064
:10751000CFFF0700CFFF1A00DFFF1A00DFFF0A00CE
:10752000CEFF0A00CEFF0A00CEFF0D00D1FF0D00F6
:10753000D1FFFAFFC1FFFAFFC1FF2100EEFF2100DA
:10754000EEFF0D00E1FF0D00E1FFE5FFC2FFE5FFEB
:10755000C2FFE9FFD1FFE9FFD1FFE9FFD1FFDDFF66
:10756000D0FFDDFFD0FFEFFFEDFFEFFFEDFFD9FF15
:10757000E3FFD9FFE3FFE3FFF6FFE3FFF6FFDCFFE6
:10758000F7FFDCFFF7FFCBFFEDFFCBFFEDFFCBFFFE
:10759000EDFFD8FFFFFFD8FFFFFFEAFF1500EAFF6E
:1075A0001500DDFF0D00DDFF0D00000033000000C1
:1075B0003300F7FF2F00F7FF2F00F7FF2F00EFFF3B
:1075C0002A00EFFF2A00F6FF3700F6FF3700E1FF41
:1075D0002700E1FF2700CFFF1900CFFF1900DBFFD5
:1075E0002900DBFF2900CDFF1E00CDFF1E00CDFFCF
:1075F0001E00CDFF2000CDFF2000D0FF2000D0FFD7
:107600002000BDFF0B00BDFF0B00B9FF0000B9FF5C
:1076100000009FFFDEFF9FFFDEFFDEFF1400DEFFA6
:107620001400DEFF1400D2FFFDFFD2FFFDFFCAFFF2
:10763000E9FFCAFFE9FFC9FFDFFFC9FFDFFFD2FF94
:10764000DEFFD2FFDEFFD2FFD6FFD2FFD6FFD2FF92
:10765000D6FFC2FFC1FFC2FFC1FFCFFFC9FFCFFFEF
:10766000C9FFE2FFDAFFE2FFDAFFEEFFE4FFEEFF21
:10767000E4FFECFFE1FFECFFE1FFFEFFF1FFFEFFA7
:10768000F1FFFEFFF1FFE8FFDAFFE8FFDAFFE1FFBD
:10769000D0FFE1FFD0FFF6FFE0FFF6FFE0FFFBFFCA
:1076A000E1FFFBFFE1FF0B00ECFF0B00ECFF230011
:1076B000000023000000230000001300ECFF130073
:1076C000ECFF1600EEFF1600EEFFF6FFCFFFF6FF11
:1076D000CFFFEDFFC9FFEDFFC9FFEEFFCFFFEEFFCC
:1076E000CFFFEEFFCFFFE5FFCEFFE5FFCEFFE9FFC7
:1076F000DAFFE9FFDAFFE6FFE0FFE6FFE0FFC2FFA7
:10770000C3FFC2FFC3FFE3FFEBFFE3FFEBFFD0FFCD
:10771000DCFFD0FFDCFFD0FFDCFFE0FFECFFE0FF91
:10772000ECFFF9FF0300F9FF0300D2FFD7FFD2FF00
:10773000D7FF0A0007000A000700D1FFC6FFD1FFEC
:10774000C6FFD1FFC6FFF0FFDCFFF0FFDCFF01004A
:10775000E5FF0100E5FF0F00EDFF0F00EDFF1A0050
:10776000F3FF1A00F3FF0400DAFF0400DAFFFCFF66
:10777000D3FFFCFFD3FFFCFFD3FF0200DAFF0200C0
:10778000DAFF0B00E6FF0B00E6FF0200E1FF02005C
:10779000E1FF0200E5FF0200E5FF0E00F4FF0E002E
:1077A000F4FF0600EEFF0600EEFF0600EEFF2800E5
:1077B0001100280011003D0026003D002600FDFFBD
:1077C000E5FFFDFFE5FF1300FAFF1300FAFFFEFFE0
:1077D000E3FFFEFFE3FFFEFFE3FF1600FBFF1600E3
:1077E000FBFF0E00F2FF0E00F2FF3F0023003F0000
:1077F00023000B00EFFF0B00EFFF1D0003001D0037
:107800000300200008002000080020000800D8FF26
:10781000C1FFD8FFC1FF0900F4FF0900F4FFFDFF1D
:10782000E9FFFDFFE9FF0700F4FF0700F4FFE7FFB2
:10783000D4FFE7FFD4FF0C00F8FF0C00F8FF0C00AA
:10784000F8FFF6FFE2FFF6FFE2FF0300EEFF0300A2
:10785000EEFF0300EEFF0300EEFFF7FFE1FFF7FF8F
:10786000E1FF1500FEFF1500FEFF1500FEFF1A00E8
:1078700001001A000100F7FFDCFFF7FFDCFFF8FF53
:10788000DAFFF8FFDAFFD5FFB4FFD5FFB4FFF0FF52
:10789000CAFFF0FFCAFFEFFFC5FFEFFFC5FFEFFF15
:1078A000C5FFE1FFB2FFE1FFB2FFF0FFBDFFF0FF58
:1078B000BDFFCBFF96FFCBFF96FF0500D1FF050074
:1078C000D1FFD1FFA0FFD1FFA0FF1100E6FF110003
:1078D000E6FF1100E6FFFDFFDBFFFDFFDBFF04001D
:1078E000EEFF0400EEFF0800000008000000F0FFBB
:1078F000F4FFF0FFF4FFEBFFFAFFEBFFFAFFEBFF03
:10790000FAFFE2FFFBFFE2FFFBFFE8FF0600E8FFF4
:107910000600BCFFDBFFBCFFDBFFE8FF0400E8FF65
:107920000400DEFFF3FFDEFFF3FFEFFFFAFFEFFFE0
:10793000FAFFEFFFFAFFDAFFDAFFDAFFDAFFE5FF1F
:10794000D9FFE5FFD9FF0400EFFF0400EFFF1100AE
:10795000F5FF1100F5FF0600E8FF0600E8FF0A004A
:10796000EDFF0A00EDFF0A00EDFF0F00F6FF0F002C
:10797000F6FF1500030015000300EFFFE5FFEFFF22
:10798000E5FFD4FFD3FFD4FFD3FFE2FFE6FFE2FF22
:10799000E6FFE2FFE6FFDCFFE4FFDCFFE4FF0C00B4
:1079A00012000C0012001400160014001600F4FF60
:1079B000EFFFF4FFEFFF0200F4FF0200F4FF1800F6
:1079C000000018000000180000000600E5FF060097
:1079D000E5FF1900F1FF1900F1FF1000E4FF1000AE
:1079E000E4FF1300E9FF1300E9FF0500DEFF0500D7
:1079F000DEFFFCFFDDFFFCFFDDFFFCFFDDFFF6FF30
:107A0000E2FFF6FFE2FF0800FEFF0800FEFF19009C
:107A10001A0019001A00F0FFFBFFF0FFFBFFEDFF5B
:107A20000000EDFF0000EDFF0000F4FF0C00F4FF8C
:107A30000C00CFFFEAFFCFFFEAFFF1FF0E00F1FFDE
:107A40000E00EBFF0900EBFF0900E3FF0200E3FF7C
:107A50000200FAFF1B00FAFF1B00FAFF1B00D0FF19
:107A6000F4FFD0FFF4FFDCFF0500DCFF0500FBFFA7
:107A70002900FBFF29000E0041000E004100E0FF3D
:107A80001800E0FF180001003D0001003D0001006A
:107A90003D00E1FF1D00E1FF1D00D5FF0F00D5FFF8
:107AA0000F00DFFF1300DFFF1300D9FF0400D9FF31
:107AB0000400E1FF0100E1FF0100E1FF0100EDFF33
:107AC0000100EDFF01001800200018002000150043
:107AD0001200150012002A001E002A001E00FBFFE3
:107AE000E9FFFBFFE9FF1000FAFF1000FAFF1000AA
:107AF000FAFF29001100290011001E0006001E00D7
:107B000006001200FAFF1200FAFF0000E8FF000072
:107B1000E8FF1500FBFF1500FBFF0300E7FF030074
:107B2000E7FF0300E7FFF2FFD2FFF2FFD2FF2900D9
:107B3000040029000400F9FFD0FFF9FFD0FFFAFF8D
:107B4000CDFFFAFFCDFF1B00ECFF1B00ECFF1B007D
:107B5000ECFF1100E3FF1100E3FFFEFFD5FFFEFF86
:107B6000D5FF0300E3FF0300E3FF1600000016004B
:107B700000000F0006000F0006001B001F001B0086
:107B80001F001B001F000F001E000F001E000F0033
:107B900028000F002800DBFFF8FFDBFFF8FF0B00D9
:107BA0002A000B002A00E1FFFCFFE1FFFCFFF2FFCF
:107BB0000700F2FF0700F2FF070003000F000300B9
:107BC0000F000C000C000C000C000800FEFF080069
:107BD000FEFFF2FFDEFFF2FFDEFF0D00F2FF0D0001
:107BE000F2FF0D00F2FF0B00EBFF0B00EBFF30008C
:107BF0000D0030000D00FEFFD9FFFEFFD9FF380059
:107C00001200380012002300FCFF2300FCFF0800D4
:107C1000DFFF0800DFFF0800DFFF2300F5FF230080
:107C2000F5FF2600F1FF2600F1FF2900EBFF2900F8
:107C3000EBFF1600CEFF1600CEFF2300CFFF230080
:107C4000CFFF2300CFFF2F00D2FF2F00D2FF110064
:107C5000ACFF1100ACFF6A0002006A0002004000A5
:107C6000D9FF4000D9FF4600E3FF4600E3FF540080
:107C7000FAFF5400FAFF5400FAFF1D00CFFF1D0069
:107C8000CFFF5100110051001100F2FFC0FFF2FFC1
:107C9000C0FF2200FCFF2200FCFF1300F8FF1300CE
:107CA000F8FF3600210036002100360021003100A7
:107CB0001F0031001F001900070019000700110004
:107CC000FBFF1100FBFF1300F8FF1300F8FF150086
:107CD000F3FF1500F3FF1500F3FF0D00E5FF0D00A6
:107CE000E5FF2D00FFFF2D00FFFF1000DEFF10005D
:107CF000DEFF1500E1FF1500E1FF2D00F9FF2D006B
:107D0000F9FF5800250058002500580025001400F0
:107D1000E4FF1400E4FF33000800330008001B00F8
:107D2000F5FF1B00F5FF0400E5FF0400E5FF0C0074
:107D3000F2FF0C00F2FF2E001A002E001A002E0097
:107D40001A000B00FDFF0B00FDFF0B0001000B00F4
:107D500001002D0028002D002800F1FFEFFFF1FFAA
:107D6000EFFF0500050005000500050005000F00F8
:107D70000E000F000E0024002000240020001E0032
:107D800017001E00170028001A0028001A001F0004
:107D90000B001F000B000000E5FF0000E5FF0000E6
:107DA000E5FFF8FFD7FFF8FFD7FF0C00E9FF0C0055
:107DB000E9FFF8FFD3FFF8FFD3FF1000EFFF10003B
:107DC000EFFFFEFFE4FFFEFFE4FFF1FFE3FFF1FF43
:107DD000E3FFF1FFE3FF0000FFFF0000FFFFD9FF1B
:107DE000E8FFD9FFE8FFD8FFF8FFD8FFF8FFE9FF69
:107DF0001800E9FF1800DAFF1600DAFF1600DAFFB4
:107E00001600F3FF3600F3FF3600EFFF3600EFFFFA
:107E10003600C0FF0500C0FF0500DCFF1D00DCFFD1
:107E20001D00F2FF2B00F2FF2B00030033000300C4
:107E30003300030033002C0053002C00530041009A
:107E40006200410062002700450027004500F8FF5E
:107E50001700F8FF1700FDFF2100FDFF21001500AE
:107E600042001500420015004200DCFF1300DCFF59
:107E70001300F5FF3700F5FF3700DEFF2B00DEFFB4
:107E80002B00F2FF4600F2FF4600F1FF4A00F1FF2F
:107E90004A00F1FF4A0003005D0003005D00EDFFB2
:107EA0004400EDFF4400FAFF4B00FAFF4B00EDFFEA
:107EB0003600EDFF3600F1FF3200F1FF32000D0019
:107EC00045000D0045000D004500F5FF2700F5FFBA
:107ED00027003A0066003A006600CAFFF2FFCAFFB8
:107EE000F2FFF9FF1F00F9FF1F00D4FFF6FFD4FFD8
:107EF000F6FFE4FF0300E4FF0300E4FF0300BCFF20
:107F0000D5FFBCFFD5FFC7FFD6FFC7FFD6FFD0FF09
:107F1000D4FFD0FFD4FFE0FFD6FFE0FFD6FF020082
:107F2000E7FF0200E7FF0200E7FF6300370063009E
:107F300037000B01CE000B01CE004E0102014E01B5
:107F400002010A02B1010A02B1013702D40137026B
:107F5000D401B7024C02B7024C02B7024C02F9023C
:107F60008702F9028702B0033903B00339032604FC
:107F7000A7032604A703A5041D04A5041D04ED04FE
:107F80005904ED0459042D058A042D058A042D0594
:107F90008A045705A2045705A2048D05C7048D0560
:107FA000C704C705F104C705F104320652053206BD
:107FB00052053C0658053C0658053C0658052A065D
:107FC0004D052A064D0546067A0546067A058705BB
:107FD000D9048705D904DC045704DC045704900352
:107FE0003D0390033D03E602CB02E602CB02E6022C
:107FF000CB028E01AE018E01AE018700E100870049
:10800000E1000EFF9DFF0EFF9DFFE8FDA3FEE8FDD2
:10801000A3FEA1FC7FFDA1FC7FFDF0FBE6FCF0FBD5
:10802000E6FCF0FBE6FC70FB74FC70FB74FCE0FA11
:10803000E9FBE0FAE9FBB8FABFFBB8FABFFB2FFA9D
:1080400033FB2FFA33FB26FA25FB26FA25FB26FA0B
:1080500025FB9AF998FA9AF998FA1CFA1DFB1CFA72
:108060001DFB10FA19FB10FA19FB3BFA52FB3BFA05
:1080700052FBF9F922FBF9F922FBC1F900FBC1F926
:1080800000FBC1F900FB79F9CDFA79F9CDFA2CF9A9
:1080900095FA2CF995FA6EF8E8F96EF8E8F9E9F72F
:1080A00070F9E9F770F9E8F676F8E8F676F899F5F8
:1080B0002AF799F52AF799F52AF7C3F453F6C3F48A
:1080C00053F60FF49BF50FF49BF55EF4E4F55EF4C4
:1080D000E4F578F4FAF578F4FAF5E5F466F6E5F403
:1080E00066F6E5F466F608F58CF608F58CF662F5AA
:1080F000EDF662F5EDF657F5EFF657F5EFF665F5A7
:108100000EF765F50EF7C5F482F6C5F482F671F444
:1081100045F671F445F671F445F6A2F38EF5A2F337
:108120008EF5FCF2FEF4FCF2FEF4F0F107F4F0F14F
:1081300007F432F158F332F158F35EF18FF35EF148
:108140008FF35EF18FF3AAF1E0F3AAF1E0F330F2DE
:1081500064F430F264F451F27DF451F27DF4B8F23B
:10816000D7F4B8F2D7F46AF279F46AF279F488F2C3
:1081700084F488F284F488F284F414F2FEF314F2A6
:10818000FEF315F2EFF315F2EFF39DF16BF39DF1B2
:108190006BF39AF162F39AF162F31EF1E7F21EF1CA
:1081A000E7F2E6F0B7F2E6F0B7F2E6F0B7F220F168
:1081B00000F320F100F314F109F314F109F31EF1B7
:1081C0002CF31EF12CF3BCF0E5F2BCF0E5F2B8F0B4
:1081D000FDF2B8F0FDF2B8F0FDF27FF0DDF27FF0D5
:1081E000DDF240F0B3F240F0B3F26EEFF2F16EEF79
:1081F000F2F115EFA4F115EFA4F1A7EE3CF1A7EE13
:108200003CF1EDED85F0EDED85F0EDED85F037ED30
:10821000D0EF37EDD0EFBEEC58EFBEEC58EF72EC7C
:108220000EEF72EC0EEF60EC01EF60EC01EF2CEC66
:10823000D4EE2CECD4EE87EC39EF87EC39EF87ECF9
:1082400039EF22ECDEEE22ECDEEE8FEC54EF8FEC19
:1082500054EF8FEC5AEF8FEC5AEFA7EC73EFA7ECCB
:1082600073EF40ED04F040ED04F040ED04F081EDDB
:1082700037F081ED37F095ED34F095ED34F04AEDBF
:10828000CDEF4AEDCDEFF9ED5DF0F9ED5DF014EED7
:1082900058F014EE58F006EF2DF106EF2DF106EF31
:1082A0002DF114EF24F114EF24F163F064F263F084
:1082B00064F2C7F0C4F2C7F0C4F24CF14DF34CF1D4
:1082C0004DF384F192F384F192F340F160F340F1C5
:1082D00060F340F160F301F134F301F134F352F053
:1082E00096F252F096F27EF0CFF27EF0CFF20CF0E2
:1082F00060F20CF060F21EF06CF21EF06CF21EF0F8
:108300006CF28AEFCAF18AEFCAF101F029F201F0AA
:1083100029F245F050F245F050F223F10FF323F12A
:108320000FF344F113F344F113F392F148F392F194
:1083300048F392F148F394F137F394F137F395F160
:108340002EF395F12EF3C7F15EF3C7F15EF354F10E
:10835000EEF254F1EEF205F1A8F205F1A8F261F0A7
:108360000DF261F00DF261F00DF2D5F08AF2D5F068
:108370008AF268F023F268F023F226F0E2F126F0A8
:10838000E2F194F04DF294F04DF21AF1CDF21AF1BF
:10839000CDF21AF1CDF2D2F07EF2D2F07EF2F9F007
:1083A0009EF2F9F09EF281F122F381F122F347F17E
:1083B000E8F247F1E8F297F03BF297F03BF226F053
:1083C000D1F126F0D1F126F0D1F1EAF09DF2EAF0F8
:1083D0009DF2ABF062F2ABF062F27CF031F27CF035
:1083E00031F24AF2F3F34AF2F3F3DFF36FF5DFF31E
:1083F0006FF5E0F549F7E0F549F7E0F549F7B1F732
:10840000E5F8B1F7E5F857F948FA57F948FAEEF9FF
:1084100093FAEEF993FA88FBDAFB88FBDAFBD1FDDD
:10842000CEFDD1FDCEFDD1FDCEFD9DFF49FF9DFFCF
:1084300049FF4E02AE014E02AE010A0426030A04B1
:1084400026035A0638055A0638054507EC05450740
:10845000EC05DF085207DF085207DF085207AE09B4
:10846000EE07AE09EE07730C7D0A730C7D0A7D0FD3
:108470004A0D7D0F4A0D5B11E70E5B11E70EAF123F
:10848000F40FAF12F40FA810A40DA810A40DA8109B
:10849000A40D3311E90D3311E90D8713FF0F871375
:1084A000FF0FA916F212A916F212C016ED12C0168D
:1084B000ED12E6150E12E6150E12E6150E12E11576
:1084C0001D12E1151D12F3145A11F3145A117014F0
:1084D0001511701415114413331044133310621224
:1084E000A10F6212A10F9512211095122110951261
:1084F0002110E413B011E413B0119A1396119A13DA
:108500009611C612DE10C612DE108712A510871251
:10851000A5103511460F3511460F27121D102712D1
:108520001D1027121D10D612A810D612A81007135E
:10853000B4100713B410E2147012E214701218157C
:108540009212181592123C14B0113C14B0113C1444
:10855000B0115F13DC105F13DC105413E8105413D8
:10856000E8102211D60E2211D60EEC0FC60DEC0F1C
:10857000C60DE00FDF0DE00FDF0DA50CC40AA50C42
:10858000C40AA50CC40A370C6C0A370C6C0A7A0BA7
:10859000BA097A0BBA09570B9709570B97090A0CB6
:1085A000400A0A0C400AB90AE108B90AE108BF0BFF
:1085B000D909BF0BD909BF0BD9096D0A7D086D0A0E
:1085C0007D088E0A9F088E0A9F0865098407650941
:1085D00084078B07C6058B07C605D2053604D2056E
:1085E0003604D20536043702D1003702D1004602E4
:1085F0001D0146021D0120FF37FE20FF37FE08FE49
:108600005FFD08FE5FFD3DFDCCFC3DFDCCFCCCFAE2
:108610008DFACCFA8DFACCFA8DFA71FA57FA71FA12
:1086200057FA74F976F974F976F92DFA41FA2DFAB8
:1086300041FA98FAB8FA98FAB8FAB3FAD9FAB3FA4A
:10864000D9FAB3FAD9FAE1F90CFAE1F90CFA0BF814
:108650003CF80BF83CF852F78BF752F78BF7CBF559
:108660000EF6CBF50EF633F582F533F582F52BF4E5
:1086700088F42BF488F42BF488F49FF209F39FF22A
:1086800009F345F2B8F245F2B8F238F1B1F138F138
:10869000B1F1F5F06FF1F5F06FF1C2F036F1C2F023
:1086A00036F1C6F032F1C6F032F1C6F032F15AF0CE
:1086B000B9F05AF0B9F020F071F020F071F04CF1FF
:1086C0008FF14CF18FF116F14CF116F14CF182F073
:1086D000ADF082F0ADF082F0ADF006F127F106F1D9
:1086E00027F15AF072F05AF072F0EBF0FCF0EBF078
:1086F000FCF0C8F0D1F0C8F0D1F087F185F187F136
:1087000085F1D4F1C4F1D4F1C4F1D4F1C4F1D6F1BE
:10871000B4F1D6F1B4F140F305F340F305F34BF3B4
:10872000F5F24BF3F5F26CF5F6F46CF5F6F424F68D
:108730008AF524F68AF505F947F805F947F805F9A9
:1087400047F8DBFAF7F9DBFAF7F9F2FBE8FAF2FBA4
:10875000E8FA46FE16FD46FE16FD62FF0EFE62FFBB
:108760000EFE8E0114008E0114008E011400A10271
:108770000301A102030132046C0232046C02F7050A
:108780000A04F7050A04FF06E804FF06E804800966
:108790003F0780093F07FE0B9209FE0B9209FE0B73
:1087A0009209CD0D370BCD0D370B0410450D04107C
:1087B000450DB012CB0FB012CB0FC015B912C015BA
:1087C000B9129B1777149B1777143A1AFE163A1AA8
:1087D000FE163A1AFE162C1DDC192C1DDC19D81EAB
:1087E0007A1BD81E7A1BBC20521DBC20521DFC22B5
:1087F000891FFC22891F6323E91F6323E91F632369
:10880000E91F3625B8213625B82192251222922556
:108810001222F3267423F3267423E6246A21E62425
:108820006A211C23A91F1C23A91F1423AF1F142373
:10883000AF1F1423AF1FD21F821CD21F821CE21F46
:10884000AE1CE21FAE1C6F1D5E1A6F1D5E1AA51EC8
:10885000BD1BA51EBD1B401D851A401D851A031D8D
:10886000771A031D771A031D771AFC1C9F1AFC1C2C
:108870009F1A221BF218221BF218BE1BB819BE1B2E
:10888000B819FD1B1B1AFD1B1B1A151E501C151EAB
:10889000501C151E501CF71C4A1BF71C4A1B151CAC
:1088A000791A151C791A521BC219521BC219831945
:1088B000FC178319FC172218A2162218A216D71625
:1088C0005E15D7165E15D7165E15B3164315B3168B
:1088D0004315C8156314C8156314A4134E12A413CA
:1088E0004E12B4126F11B4126F111110E30E111069
:1088F000E30EE20FCC0EE20FCC0EE20FCC0E131003
:10890000190F1310190FC811EB10C811EB104411F7
:108910008510441185106C10CB0F6C10CB0F3F10DD
:10892000BD0F3F10BD0F3F10BD0FFA0E950EFA0E92
:10893000950E600D180D600D180D8A0C5E0C8A0CDA
:108940005E0CD40DC30DD40DC30D310C3A0C310C9B
:108950003A0C1B0B3E0B1B0B3E0B1B0B3E0B340749
:108960007007340770079005E5059005E5052C01B3
:1089700099012C019901AD003301AD003301D3FE03
:1089800073FFD3FE73FFD3FC8CFDD3FC8CFDD3FCB3
:108990008CFD22FAF4FA22FAF4FA42F72DF842F7A3
:1089A0002DF866F768F866F768F8DBF3F3F4DBF3A5
:1089B000F3F473F59DF673F59DF673F59DF654F497
:1089C0008DF554F48DF577F5B9F677F5B9F6DAF15A
:1089D00020F3DAF120F311F055F111F055F1E1EE49
:1089E0001CF0E1EE1CF052EC81ED52EC81ED52EC0A
:1089F00081ED76EC94ED76EC94ED79EA85EB79EA0D
:108A000085EB57EA50EB57EA50EBF1E9DBEAF1E985
:108A1000DBEA03EBE0EB03EBE0EBCEECA3EDCEEC1B
:108A2000A3EDCEECA3ED56EC2BED56EC2BED66EC66
:108A300040ED66EC40ED6FED54EE6FED54EE66EEFA
:108A40005BEF66EE5BEFFCEF04F1FCEF04F1FCEF93
:108A500004F173F091F173F091F184F1B8F284F1C3
:108A6000B8F253F09CF153F09CF1C5F021F2C5F03F
:108A700021F2C2F030F2C2F030F2D5F152F3D5F16A
:108A800052F3D5F152F3E6F170F3E6F170F303F42B
:108A900099F503F499F55FF402F65FF402F6DDF25E
:108AA0008CF4DDF28CF4A1F15EF3A1F15EF3B9F187
:108AB00084F3B9F184F3B9F184F3A1F37CF5A1F364
:108AC0007CF5DDF2C8F4DDF2C8F43BF436F63BF495
:108AD00036F6E3F3EDF5E3F3EDF586F69EF886F66C
:108AE0009EF886F69EF81DF540F71DF540F77AF4DE
:108AF000A7F67AF4A7F618F34CF518F34CF528F31B
:108B000062F528F362F516F657F816F657F88AF666
:108B1000D1F88AF6D1F88AF6D1F8D4F323F6D4F353
:108B200023F6EDF045F3EDF045F34BF0ADF24BF0ED
:108B3000ADF280F1EDF380F1EDF34EF1C8F34EF1BB
:108B4000C8F34EF1C8F34BF0D1F24BF0D1F240F143
:108B5000D0F340F1D0F352EEEBF052EEEBF035EF04
:108B6000D4F135EFD4F119EDBEEF19EDBEEFC6EE3D
:108B70006EF1C6EE6EF1C6EE6EF164F00FF364F0C6
:108B80000FF300F3AEF500F3AEF515F3C8F515F3EA
:108B9000C8F5FFEFB9F2FFEFB9F240EF04F240EF92
:108BA00004F21FF0EFF21FF0EFF21FF0EFF2C3F24A
:108BB000A3F5C3F2A3F59BF18BF49BF18BF477F152
:108BC0007AF477F17AF4DDEFF1F2DDEFF1F28EEE87
:108BD000B1F18EEEB1F18EEEB1F115ED45F015ED7E
:108BE00045F0BDECF7EFBDECF7EF8EEACFED8EEA86
:108BF000CFEDB0EBF5EEB0EBF5EE1EED65F01EED52
:108C000065F082EFCAF282EFCAF282EFCAF286EC16
:108C1000D0EF86ECD0EF81EBCDEE81EBCDEE27ED02
:108C200076F027ED76F02CED7FF02CED7FF009F15A
:108C30005EF409F15EF4A7EFFEF2A7EFFEF2A7EFF4
:108C4000FEF2C0F116F5C0F116F567F2B7F567F25E
:108C5000B7F50FF354F60FF354F67BF2B0F57BF251
:108C6000B0F591F1B1F491F1B1F491F1B1F4A0F357
:108C7000A7F6A0F3A7F69BF387F69BF387F64DF4D0
:108C80001DF74DF41DF7A4F25AF5A4F25AF5F1EFD1
:108C900090F2F1EF90F2D9EE67F1D9EE67F1D9EEEB
:108CA00067F131EDB1EF31EDB1EF8DED04F08DED08
:108CB00004F037EAA7EC37EAA7EC6DEBD6ED6DEBE5
:108CC000D6EDFDEC5CEFFDEC5CEF5EEDAFEF5EED45
:108CD000AFEF5EEDAFEF7CEBB8ED7CEBB8ED3DE7D1
:108CE0005BE93DE75BE9FFE6F7E8FFE6F7E861E50A
:108CF0002CE761E52CE71BE7B4E81BE7B4E81BE7CA
:108D0000B4E82DE58FE62DE58FE6E1E50DE7E1E539
:108D10000DE7E3E5DCE6E3E5DCE6DDE8A7E9DDE831
:108D2000A7E9D4E775E8D4E775E858E6D5E658E64C
:108D3000D5E658E6D5E617E775E717E775E73BE9A7
:108D40007EE93BE97EE920EE47EE20EE47EE55EF67
:108D50005DEF55EF5DEFB3F197F1B3F197F136F1B8
:108D6000EFF036F1EFF036F1EFF075F4FCF375F457
:108D7000FCF317F663F517F663F553F860F753F84D
:108D800060F722F8ECF622F8ECF684FC0CFB84FC8D
:108D90000CFB84FC0CFB73FFBDFD73FFBDFDDEFE11
:108DA000F2FCDEFEF2FC690152FF690152FFBA01DA
:108DB00084FFBA0184FFB7046E02B7046E028C060A
:108DC0003D048C063D048C063D0467061A046706C4
:108DD0001A041008CC051008CC0595075F05950707
:108DE0005F05500A2808500A28088A0B6F098A0B69
:108DF0006F097E0A6C087E0A6C087E0A6C08440EB5
:108E0000370C440E370C3B0B2F093B0B2F09260C5C
:108E1000180A260C180AB409A107B409A1076908A1
:108E20005306690853066908530674085A067408FD
:108E30005A0687096D0787096D07710D5A0B710D69
:108E40005A0B650D530B650D530BEF0FE50DEF0F2F
:108E5000E50DBC10BB0EBC10BB0EBC10BB0EAD12A2
:108E6000B510AD12B510D013E011D013E011E2131C
:108E7000F811E213F81161157A1361157A13381697
:108E800052143816521484179C1584179C15841795
:108E90009C15CB18E016CB18E01677178A157717B4
:108EA0008A151E1931171E1931170C1B21190C1B9D
:108EB0002119571C721A571C721A571C721A481C17
:108EC0006C1A481C6C1A6E1D9F1B6E1D9F1BED1D9E
:108ED000301CED1D301CB81F0F1EB81F0F1E671E63
:108EE000D41C671ED41CBC1A4019BC1A4019BC1AE9
:108EF00040196017FC156017FC15F417A816F41735
:108F0000A816711B3C1A711B3C1AC217A416C21773
:108F1000A416291924182919241815182917151801
:108F20002917151829179317C0169317C016A316DB
:108F3000EB15A316EB154115A3144115A314F71453
:108F40007514F7147514F0148914F0148914F014BE
:108F50008914E8149A14E8149A140A15D4140A15FA
:108F6000D41441111E1141111E11360C240C360C63
:108F7000240C3A0B340B3A0B340B730A750A730A40
:108F8000750A730A750A8E0A950A8E0A950A7E0674
:108F900087067E068706FE030804FE030804D8FF42
:108FA000E0FFD8FFE0FFAFFEB6FEAFFEB6FEE5FD88
:108FB000E9FDE5FDE9FDE5FDE9FDE9FCECFCE9FC89
:108FC000ECFCFDFCFDFCFDFCFDFC87FE83FE87FE4A
:108FD00083FE25FE1CFE25FE1CFE0DFCFDFB0DFC8C
:108FE000FDFB0DFCFDFB80FB65FB80FB65FB76F963
:108FF0004DF976F94DF958F91CF958F91CF98BFA25
:109000003AFA8BFA3AFA75F90BF975F90BF9EEF7AA
:1090100068F7EEF768F7EEF768F7CAF826F8CAF8C7
:1090200026F85FF89CF75FF89CF72AF846F72AF8CD
:1090300046F7D7F7D4F6D7F7D4F64CFA29F94CFA15
:1090400029F94CFA29F9A5F962F8A5F962F8ADFAFF
:109050004BF9ADFA4BF986FA04F986FA04F9E2F90C
:1090600040F8E2F940F872F9B1F772F9B1F7F9FA9C
:1090700018F9F9FA18F9F9FA18F93EFF3BFD3EFF25
:109080003BFDCEFFA9FDCEFFA9FD1102CBFF1102D2
:10909000CBFF1F03B8001F03B800A6042002A604DC
:1090A000200212066D0312066D0312066D031A07E5
:1090B00059041A0759048C09B2068C09B206B50B7B
:1090C000C308B50BC3083B0C35093B0C3509900DA3
:1090D000780A900D780A900D780A770D500A770D6E
:1090E000500A5B12260F5B12260FF313B310F31313
:1090F000B31076152B1276152B1260180D1560180B
:109100000D15AF195316AF195316AF195316791B16
:109110001718791B17180D1BA6170D1BA617751A04
:109120000A17751A0A174E18E1144E18E114E319BC
:109130007616E3197616EE198216EE198216EE19D6
:109140008216C01B5818C01B58184D19EA154D1926
:10915000EA155A18FF145A18FF140E19BE150E19E5
:10916000BE150617C2130617C2130617C2139B17A4
:1091700066149B17661461173D1461173D1444175C
:109180003414441734140C1710140C17101402164E
:109190001E1302161E13BB16F113BB16F113BB16DA
:1091A000F1135314A4115314A411B0131F11B013CD
:1091B0001F11F5158213F5158213DD148B12DD14C2
:1091C0008B12A9167714A916771440143112401483
:1091D000311240143112DE11F10FDE11F10F401087
:1091E000770E4010770EC70E220DC70E220D970C7A
:1091F000160B970C160BDA0B7E0ADA0B7E0ADA0BCB
:109200007E0A8E0C580B8E0C580B920C810B920C14
:10921000810BAD0BC10AAD0BC10A3C0C760B3C0CAB
:10922000760B480BA80A480BA80AE30B690BE30B63
:10923000690BE30B690B330EDE0D330EDE0D0C0EE6
:10924000DC0D0C0EDC0D480F3C0F480F3C0F4D0B96
:10925000650B4D0B650B3D0C780C3D0C780C750ABD
:10926000D10A750AD10A750AD10AB7083309B708B5
:1092700033091909B4091909B4095F0819095F0804
:1092800019099B0772089B077208C504B905C50434
:10929000B905C504B905DC00EB01DC00EB012DFDCF
:1092A00056FE2DFD56FE19FB5CFC19FB5CFCA7FA73
:1092B00003FCA7FA03FC04FA77FB04FA77FBB5F882
:1092C0003EFAB5F83EFAB5F83EFA06FBA4FC06FBFA
:1092D000A4FC7EF730F97EF730F932F5F6F632F578
:1092E000F6F6B1F385F5B1F385F580F064F280F020
:1092F00064F23DEF2EF13DEF2EF13DEF2EF1E2EE67
:10930000DFF0E2EEDFF026ED2EEF26ED2EEF14ED8E
:1093100025EF14ED25EF13EE2CF013EE2CF09AEE62
:10932000BAF09AEEBAF09AEEBAF0AAECD1EEAAEC44
:10933000D1EEECEA17EDECEA17EDCCEBFCEDCCEB63
:10934000FCEDC3EBF7EDC3EBF7ED3EEE75F03EEE53
:1093500075F0F5EE2EF1F5EE2EF1F5EE2EF108EEAC
:1093600044F008EE44F024EB61ED24EB61ED45E9B7
:1093700083EB45E983EB4EEA8DEC4EEA8DECB5EBE1
:10938000F4EDB5EBF4EDEFEA2EEDEFEA2EEDEFEABA
:109390002EED04ED42EF04ED42EF69ECA7EE69EC2F
:1093A000A7EE09ED45EF09ED45EFBDEEF9F0BDEE95
:1093B000F9F05EEE99F05EEE99F05EEE99F043ED15
:1093C0007EEF43ED7EEF57EC92EE57EC92EEB2EE6D
:1093D000EEF0B2EEEEF037ED74EF37ED74EF08ED2E
:1093E00046EF08ED46EFBCEBFCEDBCEBFCEDBCEB57
:1093F000FCED08EC4BEE08EC4BEEB5EDFBEFB5EDFC
:10940000FBEFA0EEEAF0A0EEEAF0F9EE47F1F9EE9C
:1094100047F1EEED41F0EEED41F09FECF6EE9FEC02
:10942000F6EE9FECF6EEA5EC01EFA5EC01EF7BEA82
:10943000DCEC7BEADCEC45EBACED45EBACED61EC58
:10944000CFEE61ECCFEE8FED03F08FED03F08FEDFB
:1094500003F066EDE0EF66EDE0EF03EC84EE03EC85
:1094600084EE81ED09F081ED09F0CAEC59EFCAEC08
:1094700059EFF0EF86F2F0EF86F278EF15F278EF21
:1094800015F278EF15F2CEF072F3CEF072F31EEF14
:10949000C9F11EEFC9F14EF0FFF24EF0FFF2FDEF01
:1094A000B5F2FDEFB5F217F0D5F217F0D5F2AFF344
:1094B00073F6AFF373F6AFF373F6CEF197F4CEF124
:1094C00097F419F5E7F719F5E7F745F518F845F5B5
:1094D00018F822F5FAF722F5FAF745F420F745F4E3
:1094E00020F745F420F7FFF2DEF5FFF2DEF56CF32E
:1094F0004DF66CF34DF6FEF4E2F7FEF4E2F71EF8DB
:1095000003FB1EF803FB40F927FC40F927FCD5F8C4
:10951000BCFBD5F8BCFBD5F8BCFB50F837FB50F8CA
:1095200037FBB7F89DFBB7F89DFB0CFBF0FD0CFB80
:10953000F0FD36FC17FF36FC17FF97FE750197FE0E
:10954000750197FE750175FD4E0075FD4E00D7FD46
:10955000AB00D7FDAB0011FEDF0011FEDF0067FDA1
:109560002E0067FD2E00CDFF8C02CDFF8C025DFF2B
:1095700014025DFF14025DFF14021502C1041502FE
:10958000C104A9014B04A9014B04AF024605AF0277
:109590004605F3017D04F3017D04B0FD2D00B0FD0F
:1095A0002D00F6FA64FDF6FA64FDF6FA64FD68F93A
:1095B000C7FB68F9C7FBE2F831FBE2F831FB69F859
:1095C000A7FA69F8A7FAA1F7CCF9A1F7CCF91FF728
:1095D00037F91FF737F91FF737F931F535F731F557
:1095E00035F799F588F799F588F7E5F3BEF5E5F3D2
:1095F000BEF586F048F286F048F212F0BDF112F0A6
:10960000BDF11CEFAEF01CEFAEF01CEFAEF008F1B8
:1096100081F208F181F228EF87F028EF87F07EEEE3
:10962000C2EF7EEEC2EFF5ED1FEFF5ED1FEF59EF44
:1096300067F059EF67F086EF77F086EF77F086EF07
:1096400077F0CDF0A1F1CDF0A1F130F2E7F230F2F8
:10965000E7F2C9F362F4C9F362F43AF4B5F43AF408
:10966000B5F408F365F308F365F308F365F3A3F4C1
:10967000E1F4A3F4E1F48FF5AFF58FF5AFF50BF955
:109680000DF90BF90DF9F0F7D3F7F0F7D3F722FA4C
:10969000E8F922FAE8F9E2FA89FAE2FA89FAE2FA52
:1096A00089FA2FFBB9FA2FFBB9FAFBFD69FDFBFD27
:1096B00069FD060058FF060058FF06013C00060140
:1096C0003C00540170005401700024012600240164
:1096D000260024012600F600E0FFF600E0FFEE0180
:1096E000C100EE01C10070032E0270032E023D0581
:1096F000E7033D05E7035A04F1025A04F1025A0454
:10970000F102A4052B04A4052B04A8051F04A80539
:109710001F04A6040F03A6040F03B4031102B4032D
:1097200011029901EDFF9901EDFF080154FF0801B5
:1097300054FF080154FF9701DEFF9701DEFF470148
:1097400089FF470189FFB302F400B302F400B102BC
:10975000F200B102F2005304960253049602C505CA
:109760000C04C5050C04C5050C045706A5045706D2
:10977000A50439088F0639088F06880AE808880A80
:10978000E808310B9D09310B9D09270BA109270B17
:10979000A109270BA109930C1C0B930C1C0B720C39
:1097A0000C0B720C0C0BB10D5D0CB10D5D0CE90DC9
:1097B000A90CE90DA90C890E5E0D890E5E0D500FE6
:1097C0003B0E500F3B0E500F3B0EAA13AC12AA13C8
:1097D000AC122A1543142A154314271558142715BB
:1097E00058147013BA127013BA120A126C110A12BA
:1097F0006C114F12CB114F12CB114F12CB11C5115F
:109800005911C51159117B1228127B1228129C1173
:1098100060119C116011BC129712BC1297127A133E
:109820006C137A136C137A136C134C1353134C137D
:109830005313CB12E612CB12E612C412F212C41268
:10984000F2124B118A114B118A1107135613071389
:109850005613B4111112B4111112B41111125D107A
:10986000C6105D10C610FC0E6F0FFC0E6F0F120DB0
:109870008D0D120D8D0D0C0D8C0D0C0D8C0D850BA1
:10988000090C850B090C500AD50A500AD50A500A52
:10989000D50A2D08B1082D08B1084A05CA054A05A0
:1098A000CA05E6006101E600610161FFD3FF61FFC7
:1098B000D3FF4EFDB4FD4EFDB4FD4EFDB4FDE9FDFC
:1098C00042FEE9FD42FEB6FE00FFB6FE00FF62FF6B
:1098D0009AFF62FF9AFFBDFEE0FEBDFEE0FE78FB50
:1098E00086FB78FB86FB4AFA40FA4AFA40FA4AFAC3
:1098F00040FAE9F9C4F9E9F9C4F900FABFF900FA44
:10990000BFF9ACF94DF9ACF94DF96BF8EDF76BF81F
:10991000EDF7F6F757F7F6F757F7BFF6FEF5BFF690
:10992000FEF5BFF6FEF53AF656F53AF656F5C9F5E8
:10993000C2F4C9F5C2F4FFF4D4F3FFF4D4F3E6F5AE
:1099400096F4E6F596F4E4F56EF4E4F56EF4E4F5D9
:109950006EF40BF670F40BF670F4A5F4E4F2A5F4D3
:10996000E4F241F55AF341F55AF35BF551F35BF537
:1099700051F34CF71DF54CF71DF556F803F656F864
:1099800003F656F803F660F9EBF660F9EBF69EFA8B
:1099900007F89EFA07F8F5FA3DF8F5FA3DF802FCEB
:1099A0002BF902FC2BF916FD22FA16FD22FA910082
:1099B00081FD910081FD910081FD2402FAFE2402C7
:1099C000FAFE1204D0001204D0003E05E5013E0567
:1099D000E501A9063C03A9063C03170998051709E8
:1099E0009805170998050E0B7F070E0B7F07140CBF
:1099F0007708140C77084F0FA70B4F0FA70BAE116A
:109A0000FD0DAE11FD0D9515DE119515DE11E51656
:109A10002A13E5162A13E5162A13CA170D14CA17B6
:109A20000D14E2162513E21625139614DD10961474
:109A3000DD100C1757130C17571312166512121658
:109A4000651212166512CD172914CD1729141F1788
:109A500087131F1787137E17F4137E17F4138D18BF
:109A600012158D18121571160713711607136F153D
:109A700018126F1518126F1518120A15C8110A1549
:109A8000C8112716FC122716FC12261712142617C7
:109A900012140116061301160613F6131611F61307
:109AA0001611281363102813631028136310A014D1
:109AB000F611A014F6115A16CD135A16CD131A1713
:109AC000AA141A17AA145B1609145B1609140016B7
:109AD000CD130016CD130016CD136E1559136E1548
:109AE0005913B813C311B813C311A312CD10A31285
:109AF000CD107710BF0E7710BF0E4B12B3104B1264
:109B0000B31093111A1093111A1093111A10821096
:109B1000270F8210270F9D0F600E9D0F600EFE0D08
:109B2000DE0CFE0DDE0CC30EC10DC30EC10DBB0F4E
:109B3000D60EBB0FD60E8210B90F8210B90F82104D
:109B4000B90FDA102D10DA102D10DD114B11DD11C7
:109B50004B116411EC106411EC104A0FEB0E4A0F1C
:109B6000EB0E4E0E070E4E0E070E4E0E070E9D0DFF
:109B70006F0D9D0D6F0DA70D900DA70D900DBD0ED6
:109B8000BC0EBD0EBC0E410C570C410C570C940A78
:109B9000BF0A940ABF0A3007700730077007300702
:109BA00070076006B4066006B4067D04E4047D0414
:109BB000E40400037B0300037B03FD028B03FD022F
:109BC0008B03AA024903AA024903D0038104D003EC
:109BD0008104D003810461032404610324049403F9
:109BE00068049403680458013C0258013C02B10027
:109BF000A701B100A70139FE3FFF39FE3FFF39FE43
:109C00003FFF17FD2DFE17FD2DFEA1FAC7FBA1FAA0
:109C1000C7FBB2FAE8FBB2FAE8FB6CFCB2FD6CFCE5
:109C2000B2FD8DFBE3FC8DFBE3FC05FC6AFD05FC4E
:109C30006AFD05FC6AFD5DF9D2FA5DF9D2FA15F804
:109C400098F915F898F990F823FA90F823FA47F95B
:109C5000E9FA47F9E9FA96F848FA96F848FA33F734
:109C6000F4F833F7F4F833F7F4F845F714F945F757
:109C700014F909F6E6F709F6E6F763F44EF663F42D
:109C80004EF661F35AF561F35AF550F358F550F377
:109C900058F550F358F5F0F304F6F0F304F647F4F2
:109CA00068F647F468F6CFF4FCF6CFF4FCF643F21E
:109CB0007BF443F27BF4AAF2EDF4AAF2EDF431F373
:109CC0007FF531F37FF531F37FF581F3D8F581F33B
:109CD000D8F571F2D1F471F2D1F413F17BF313F1F1
:109CE0007BF3E2F152F4E2F152F435F0AAF235F0EE
:109CF000AAF280EFFAF180EFFAF180EFFAF160EE6C
:109D0000DFF060EEDFF0D5ED57F0D5ED57F031EE36
:109D1000B5F031EEB5F04BEED0F04BEED0F010ECEC
:109D200095EE10EC95EE10EC95EE08EB8CED08EB53
:109D30008CEDABEA2EEDABEA2EED28EBA8ED28EB8F
:109D4000A8ED80EAFCEC80EAFCEC4DEAC4EC4DEABC
:109D5000C4ECB8E92AECB8E92AECB8E92AECCDE879
:109D600038EBCDE838EB03E967EB03E967EB54E840
:109D7000AFEA54E8AFEA76E8C9EA76E8C9EA82E8E9
:109D8000CBEA82E8CBEA81E9C1EB81E9C1EB81E969
:109D9000C1EB5CE891EA5CE891EAA6E7D1E9A6E7C5
:109DA000D1E9DAE7FAE9DAE7FAE9C0E9D5EBC0E99F
:109DB000D5EB1EEB28ED1EEB28ED1EEB28ED9BED01
:109DC00099EF9BED99EFE1EDD5EFE1EDD5EF46EDA4
:109DD0002FEF46ED2FEF3DED1CEF3DED1CEF8AED33
:109DE0005EEF8AED5EEF08EED2EF08EED2EF08EEFE
:109DF000D2EF1FEDE0EE1FEDE0EE5DEF15F15DEF50
:109E000015F15DF00DF25DF00DF276F21DF476F2D3
:109E10001DF47AF319F57AF319F5ACF245F4ACF2C6
:109E200045F4ACF245F4B6F249F4B6F249F415F54E
:109E3000A3F615F5A3F6C0F549F7C0F549F73FF6C7
:109E4000C4F73FF6C4F7A4F725F9A4F725F9A4F75A
:109E500025F9CCF949FBCCF949FBCBFB46FDCBFB03
:109E600046FDADFA25FCADFA25FC37FBADFC37FB12
:109E7000ADFC5FFBD3FC5FFBD3FCFEFC70FEFEFC85
:109E800070FEFEFC70FE950005029500050237008D
:109E9000A6013700A60113FE7FFF13FE7FFF07FC1C
:109EA00071FD07FC71FDCBFA33FCCBFA33FC16FADB
:109EB0007BFB16FA7BFB16FA7BFBCFF730F9CFF76B
:109EC00030F9F1F74FF9F1F74FF99BF7F3F89BF7FA
:109ED000F3F8F2F644F8F2F644F8BFF40AF6BFF4E9
:109EE0000AF6BFF40AF610F253F310F253F349EFF7
:109EF00083F049EF83F047EF77F047EF77F000EF1B
:109F000024F000EF24F079ED90EE79ED90EE3BED4A
:109F100044EE3BED44EE3BED44EE4FEB48EC4FEBB3
:109F200048ECEBEAD3EBEBEAD3EB97E96DEA97E980
:109F30006DEAF0E9B1EAF0E9B1EA36E9E2E936E9D9
:109F4000E2E936E9E2E9B3EA48EBB3EA48EBD6EBFB
:109F500052ECD6EB52EC5AEBBDEB5AEBBDEBC1EA3F
:109F600009EBC1EA09EB30EC5CEC30EC5CEC21EF86
:109F700031EF21EF31EF21EF31EF21EF13EF21EF3F
:109F800013EF14F1E8F014F1E8F07DF332F37DF310
:109F900032F313F4A8F313F4A8F3E8F55DF5E8F54C
:109FA0005DF575F8CBF775F8CBF775F8CBF79DF93C
:109FB000D3F89DF9D3F854FC6AFB54FC6AFBA8FD66
:109FC0009EFCA8FD9EFC94006CFF94006CFF570063
:109FD00010FF570010FF570010FF6F000CFF6F00BD
:109FE0000CFFBB013B00BB013B0008026D000802F7
:109FF0006D00E6043203E60432035F0693045F0655
:10A0000093044F066C044F066C044F066C04D10594
:10A01000DA03D105DA0315060B0415060B04A304B5
:10A020008A02A3048A0253032B0153032B01BE02AD
:10A030008A00BE028A00E702AA00E702AA00E7023D
:10A04000AA0084024000840240001203C9001203E7
:10A05000C900DE039301DE0393013E04F4013E04D4
:10A06000F4018F0547038F0547038F054703460912
:10A0700004074609040757091C0757091C0721084C
:10A08000F1052108F105170AF307170AF307420B38
:10A090002E09420B2E09470D440B470D440B470D6B
:10A0A000440BB80EC70CB80EC70C4F10730E4F10F0
:10A0B000730E4810830E4810830EEE10420FEE1000
:10A0C000420F30129E1030129E101C11A50F1C1151
:10A0D000A50F1C11A50F1E11C30F1E11C30F1E13B8
:10A0E000E0111E13E0115E133E125E133E12F113D7
:10A0F000EF12F113EF123D135A123D135A123D1392
:10A100005A12F5123112F5123112D5122F12D51240
:10A110002F126A12E2116A12E2112F12C5112F12C8
:10A12000C5111D11D0101D11D010F011BF11F0116B
:10A13000BF11F011BF116C1256126C125612FD12A3
:10A140000113FD120113B312CF12B312CF12621317
:10A15000951362139513F1123813F11238131C1270
:10A1600076121C1276121C127612D3113F12D311E2
:10A170003F127612F0127612F0126711EE1167118B
:10A18000EE114A12DC124A12DC124812E112481295
:10A19000E1124812E1123F0FDE0F3F0FDE0FF00D0C
:10A1A000920EF00D920E7E0B200C7E0B200C5E0AA0
:10A1B000FF0A5E0AFF0AB0074C08B0074C084308C4
:10A1C000D9084308D9084308D9085A08E6085A08A4
:10A1D000E608C6064707C606470724089708240866
:10A1E00097084507A9074507A9070D065E060D064E
:10A1F0005E06E9062707E9062707E9062707B505EA
:10A20000DC05B505DC055E046E045E046E044F02D9
:10A2100046024F024602330110013301100183014F
:10A22000440183014401830144017C0121017C013B
:10A2300021014802CE014802CE01D6013E01D601DD
:10A240003E010D0157000D0157006D0098FF6D0094
:10A2500098FFE400F0FFE400F0FFE400F0FF5BFE95
:10A2600047FD5BFE47FDE7FEB4FDE7FEB4FD7CFE67
:10A270002AFD7CFE2AFD8BFE1BFD8BFE1BFDA5002F
:10A2800018FFA50018FFC8011F00C8011F00C80162
:10A290001F00CE020801CE020801120133FF120195
:10A2A00033FFE802EF00E802EF007203610172037E
:10A2B00061015D0237005D0237005D023700BA02BE
:10A2C0007F00BA027F004D04FF014D04FF017F05AE
:10A2D00020037F0520031A08AC051A08AC053C0AC8
:10A2E000C0073C0AC007950A0E08950A0E08950A91
:10A2F0000E08990B0809990B0809B40D1B0BB40D36
:10A300001B0BFC0E5D0CFC0E5D0C3610940D361014
:10A31000940DC811230FC811230F24127E0F24128D
:10A320007E0F24127E0F7113CD107113CD107F1389
:10A33000DE107F13DE10C1132511C1132511521435
:10A34000BC115214BC11E3145512E3145512E3145A
:10A3500055123016AB133016AB13F2157613F215F7
:10A360007613D9136811D91368115314EE115314CD
:10A37000EE111514BE111514BE110415B9120415F1
:10A38000B9120415B91299155D1399155D13971437
:10A390006A1297146A12B6139811B61398113112F3
:10A3A0002310311223100F1310110F131011B911B4
:10A3B000CA0FB911CA0FB911CA0FEE110E10EE1162
:10A3C0000E103A1369113A136911E3122211E312C4
:10A3D00022116F12BD106F12BD10AE110A10AE1116
:10A3E0000A10AE110A104110AC0E4110AC0E920EC4
:10A3F0000A0D920E0A0D2D0DB30B2D0DB30B8B0C08
:10A400001E0B8B0C1E0B8B0B2A0A8B0B2A0ABF0A06
:10A410006A09BF0A6A09BF0A6A09A0095608A009A1
:10A420005608A4096508A4096508C6099208C60962
:10A430009208020BD709020BD709700C4F0B700C56
:10A440004F0B700C4F0B140BFD09140BFD09D70AB1
:10A45000C909D70AC9091D0918081D091808D30810
:10A46000D707D308D707D407E106D407E106E208E7
:10A47000F807E208F807E208F807510971085109DE
:10A4800071082C0855072C085507560789065607EA
:10A490008906E1041F04E1041F0405024E010502C0
:10A4A0004E014E00A2FF4E00A2FF4E00A2FF9BFDF8
:10A4B000FDFC9BFDFDFC59FBC7FA59FBC7FA25FDC6
:10A4C000A1FC25FDA1FC0FFB9BFA0FFB9BFAB6FA42
:10A4D00051FAB6FA51FAB6FA51FA8FFA3BFA8FFAF4
:10A4E0003BFA5DFB1BFB5DFB1BFB41FA11FA41FADA
:10A4F00011FA94F878F894F878F852F74BF752F785
:10A500004BF7C1F4D0F4C1F4D0F4C1F4D0F41AF490
:10A510003FF41AF43FF4CAF307F4CAF307F468F4FB
:10A52000BDF468F4BDF41CF48AF41CF48AF44BF511
:10A53000D3F54BF5D3F580F523F680F523F680F5BA
:10A5400023F60DF5CBF50DF5CBF588F361F488F323
:10A5500061F4ECF3E2F4ECF3E2F4F9F40AF6F9F462
:10A560000AF62BF659F72BF659F72BF659F794F50F
:10A57000DFF694F5DFF6FEF465F6FEF465F6C0F45A
:10A5800045F6C0F445F659F4FAF559F4FAF5D5F460
:10A5900092F6D5F492F660F239F460F239F460F292
:10A5A00039F40FF204F40FF204F44AF35AF54AF3C3
:10A5B0005AF56BF396F56BF396F586F4CBF686F4C5
:10A5C000CBF631F58EF731F58EF755F2CBF455F227
:10A5D000CBF455F2CBF4DAF167F4DAF167F40FF16A
:10A5E000B1F30FF1B1F34AF001F34AF001F338F09F
:10A5F00002F338F002F34CEF29F24CEF29F24CEF62
:10A6000029F2D7EFC4F2D7EFC4F230F02BF330F0D9
:10A610002BF3FEEE08F2FEEE08F2AAEEC0F1AAEE6F
:10A62000C0F1A7EDC8F0A7EDC8F07FECA9EF7FEC73
:10A63000A9EF7FECA9EFAEEBE0EEAEEBE0EE16EBB0
:10A640004FEE16EB4FEEBFEBFEEEBFEBFEEEFFEA7A
:10A6500042EEFFEA42EE2BEC71EF2BEC71EFB3EB25
:10A66000FCEEB3EBFCEEB3EBFCEE8EEAD8ED8EEA3B
:10A67000D8ED04EA4FED04EA4FED81EACBED81EA33
:10A68000CBED61E9ABEC61E9ABECEDE835ECEDE885
:10A6900035ECEDE835EC96E6DDE996E6DDE975E5C5
:10A6A000BAE875E5BAE834E777EA34E777EA22E80A
:10A6B00063EB22E863EB7EE9BDEC7EE9BDECE4E907
:10A6C00020EDE4E920EDE4E920EDABEAE5EDABEACD
:10A6D000E5EDFBE933EDFBE933ED56EB8CEE56EBA4
:10A6E0008CEEC4E9F8ECC4E9F8ECFBE92CEDFBE9ED
:10A6F0002CEDE1EA10EEE1EA10EEE1EA10EEE1EB1A
:10A700000DEFE1EB0DEFECEB17EFECEB17EF21EDBD
:10A7100049F021ED49F069EF8FF269EF8FF2EDF02A
:10A7200010F4EDF010F4EDF010F451F271F551F277
:10A7300071F54FF26CF54FF26CF5CEF3E7F6CEF310
:10A74000E7F6ECF401F8ECF401F8AAF8BAFBAAF881
:10A75000BAFB76F981FC76F981FC76F981FC77FB0E
:10A760007CFE77FB7CFEECFBEBFEECFBEBFEEBFDFB
:10A77000E200EBFDE200AFFF9F02AFFF9F02C3FFCD
:10A78000AA02C3FFAA020402E3040402E3040402CF
:10A79000E30498026E0598026E059A0365069A0313
:10A7A00065063303F4053303F4054401F90344015A
:10A7B000F90392FE3B0192FE3B0192FE3B0124FE17
:10A7C000C00024FEC00089FE180189FE18010FFE9A
:10A7D00090000FFE900082FDF4FF82FDF4FFE4FB89
:10A7E00047FEE4FB47FE8EF9E0FB8EF9E0FB8EF9B5
:10A7F000E0FB6DF9AEFB6DF9AEFBB9F8E7FAB9F81D
:10A80000E7FAA2F8BCFAA2F8BCFAA9F6AFF8A9F6E2
:10A81000AFF83CF52BF73CF52BF778F34FF578F3D1
:10A820004FF578F34FF54CF209F44CF209F445F288
:10A83000E6F345F2E6F313F196F213F196F253F2D2
:10A84000B7F353F2B7F3C7F109F3C7F109F3C7F14F
:10A8500009F310F02EF110F02EF15FF057F15FF0D8
:10A8600057F16BF13BF26BF13BF269F110F269F1D8
:10A8700010F292F30DF492F30DF439F387F339F3F8
:10A8800087F339F387F3BEF4DFF4BEF4DFF44FF659
:10A8900040F64FF640F688F64BF688F64BF6E3F7AF
:10A8A00075F7E3F775F7BCF91FF9BCF91FF9CFFB92
:10A8B00003FBCFFB03FBCFFB03FB7EFE84FD7EFE91
:10A8C00084FDF3FFCCFEF3FFCCFE8CFF3AFE8CFF41
:10A8D0003AFEBBFF40FEBBFF40FE360093FE360053
:10A8E00093FE360093FEBC02F400BC02F400870322
:10A8F0009D0187039D01EB05E303EB05E30366067A
:10A900004204660642049B085E069B085E06360803
:10A91000E3053608E3053608E30595072F05950797
:10A920002F0583070D0583070D054908C60549084E
:10A93000C6052A099C062A099C06B3061E04B3060E
:10A940001E04B3061E048107E7048107E7042F06EF
:10A9500091032F069103F2075305F2075305C70829
:10A960002906C708290608086C0508086C05DA07D7
:10A970004205DA074205DA0742056B08D8056B087D
:10A98000D80508097B0608097B06CE0A4908CE0AC5
:10A990004908910A1608910A16087E090D077E09D2
:10A9A0000D07A50B3F09A50B3F09A50B3F09800D1E
:10A9B000280B800D280B1D0FD30C1D0FD30CE20F9D
:10A9C000A90DE20FA90DAB0E840CAB0E840C5A0E30
:10A9D000460C5A0E460C5A0E460C980F9A0D980FBC
:10A9E0009A0D4710610E4710610E2A115E0F2A1151
:10A9F0005E0F2D107C0E2D107C0E2211900F221157
:10AA0000900FA30F2F0EA30F2F0EA30F2F0E330F98
:10AA1000E10D330FE10D0F0DE10B0F0DE10BCE0A30
:10AA2000C409CE0AC409A80CC30BA80CC30B840D1F
:10AA3000C60C840DC60C590DC10C590DC10C590D15
:10AA4000C10CE80C760CE80C760C580C0D0C580C6C
:10AA50000D0CB10A8B0AB10A8B0A0C090A090C0900
:10AA60000A09CB07EB07CB07EB07CB07EB07A807D8
:10AA7000E907A807E9075F08BE085F08BE08DE0906
:10AA8000580ADE09580A2808BA082808BA08BC0774
:10AA90006408BC076408AB046505AB046505AB043A
:10AAA00065057C0343047C0343041602E802160296
:10AAB000E8023EFF16003EFF16002AFE05FF2AFEB2
:10AAC00005FF00FDDBFD00FDDBFDC4FC9BFDC4FCC0
:10AAD0009BFDC4FC9BFD37FC07FD37FC07FDDFFC3D
:10AAE000A5FDDFFCA5FDEEFCA6FDEEFCA6FD44FEEB
:10AAF000ECFE44FEECFEFBFD90FEFBFD90FEFBFD3C
:10AB000090FE9AFD1AFE9AFD1AFEC5FB2FFCC5FBAE
:10AB10002FFC24FC75FC24FC75FC70FAA7FA70FA73
:10AB2000A7FA98FBB4FB98FBB4FBBCFDBBFDBCFDD6
:10AB3000BBFDBCFDBBFD43FD24FD43FD24FD6AFEC2
:10AB40002EFE6AFE2EFE36FDDAFC36FDDAFC35FC02
:10AB5000BAFB35FCBAFB92FBF8FA92FBF8FA3CFC24
:10AB600082FB3CFC82FB3CFC82FB81FCA6FB81FC63
:10AB7000A6FB59FC5FFB59FC5FFB91FB78FA91FB4C
:10AB800078FA84FC4DFB84FC4DFB23FCCDFA23FCBE
:10AB9000CDFA23FCCDFAD5FD63FCD5FD63FC9BFE0D
:10ABA0000DFD9BFE0DFDB1FF08FEB1FF08FE91FFFC
:10ABB000CFFD91FFCFFD30FF56FD30FF56FDFE006B
:10ABC0000FFFFE000FFFFE000FFF09020500090244
:10ABD00005005E0448025E0448024A0524034A0553
:10ABE0002403F106BE04F106BE044A080A064A0818
:10ABF0000A06F50AAB08F50AAB08F50AAB08500CD3
:10AC0000FF09500CFF09C60C6F0AC60C6F0AED0F46
:10AC1000910DED0F910D2C12CF0F2C12CF0FD511DE
:10AC2000760FD511760FD511760FA8134A11A813F8
:10AC30004A116D1210106D1210106113071161137B
:10AC400007111414BD111414BD111114BD111114E8
:10AC5000BD11AB145C12AB145C12AB145C128B1400
:10AC600040128B144012F415AD13F415AD130F15EB
:10AC7000CD120F15CD12BF158113BF1581134D15C0
:10AC800014134D151413A3156F13A3156F13A315E8
:10AC90006F130513D7100513D710AF11860FAF111F
:10ACA000860F2710050E2710050E5310380E53106F
:10ACB000380E3911260F3911260F3911260FD010F1
:10ACC000C80ED010C80E7010730E7010730EF20FF5
:10ACD000020EF20F020E0F112D0F0F112D0F7B110F
:10ACE000AA0F7B11AA0FAE11F00FAE11F00FAE112B
:10ACF000F00FB5110B10B5110B103512A110351254
:10AD0000A110DB0F5F0EDB0F5F0E710F0E0E710FC8
:10AD10000E0EDF0D970CDF0D970CF40CC80BF40C26
:10AD2000C80BF40CC80BD40DC40CD40DC40C320FDA
:10AD30003E0E320F3E0E470E6E0D470E6E0DFF0F8C
:10AD4000400FFF0F400F9B10F60F9B10F60F9B104C
:10AD5000F60F4E0EBF0D4E0EBF0D720EF80D720E99
:10AD6000F80D340ECC0D340ECC0D2C0ED40D2C0E53
:10AD7000D40DD90C8E0CD90C8E0C4B0D090D4B0D2E
:10AD8000090D4B0D090DA90C6D0CA90C6D0C040BD4
:10AD9000CC0A040BCC0A8C0955098C0955093A09CF
:10ADA00001093A0901091107D4061107D40655060D
:10ADB00013065506130655061306C6047E04C6047C
:10ADC0007E046B031C036B031C03AB015601AB0138
:10ADD00056011901BF001901BF00A2024502A202DB
:10ADE0004502A20245024D01EE004D01EE00FA00BF
:10ADF0009D00FA009D0098013F0198013F01BA00B3
:10AE00006800BA0068003DFFF7FE3DFFF7FED4FD85
:10AE10009DFDD4FD9DFDD4FD9DFDEAFAC7FAEAFA39
:10AE2000C7FA86FA7AFA86FA7AFA71FA80FA71FA29
:10AE300080FAF3FB20FCF3FB20FC9CFAEAFA9CFA74
:10AE4000EAFA9CFAEAFA58FBC9FB58FBC9FB96FAE6
:10AE50002CFB96FA2CFBC8F983FAC8F983FAF7F9A8
:10AE6000D9FAF7F9D9FAB3F8BAF9B3F8BAF98AF90D
:10AE7000B7FA8AF9B7FA8AF9B7FA2BFA7BFB2BFAF9
:10AE80007BFBD5FB47FDD5FB47FDFCF98DFBFCF9B2
:10AE90008DFB62F80FFA62F80FFA9CF661F89CF6E7
:10AEA00061F86EF649F86EF649F86EF649F8F3F671
:10AEB000E0F8F3F6E0F89FF99AFB9FF99AFBAEF9F8
:10AEC000B5FBAEF9B5FBDEF9EDFBDEF9EDFB46F7C0
:10AED0005BF946F75BF946F75BF951F66AF851F60C
:10AEE0006AF8DAF6F5F8DAF6F5F802F51EF702F583
:10AEF0001EF7A7F7C3F9A7F7C3F97EF69AF87EF60F
:10AF00009AF890F7ADF990F7ADF990F7ADF957F7DA
:10AF100076F957F776F946F568F746F568F729F4B4
:10AF20004FF629F44FF64EF479F64EF479F6AFF475
:10AF3000E2F6AFF4E2F61FF35CF51FF35CF51FF3E6
:10AF40005CF5ADF1F4F3ADF1F4F370F1C4F370F12D
:10AF5000C4F3B4EF16F2B4EF16F2D2EF44F2D2EF2C
:10AF600044F294F015F394F015F394F015F382EF96
:10AF700013F282EF13F213EFB3F113EFB3F194EF87
:10AF800043F294EF43F21DEEDBF01DEEDBF001EB3C
:10AF9000CCED01EBCCED35EB0AEE35EB0AEE35EB03
:10AFA0000AEEB4EA93EDB4EA93ED22EA07ED22EA61
:10AFB00007ED90E97AEC90E97AECEDE9D9ECEDE96E
:10AFC000D9ECF1E8DCEBF1E8DCEBCEE7B6EACEE772
:10AFD000B6EACEE7B6EA71E754EA71E754EAECE97B
:10AFE000C7ECECE9C7EC52E924EC52E924ECFAE8AE
:10AFF000C0EBFAE8C0EB5DE917EC5DE917EC5DE941
:10B0000017EC88E734EA88E734EA11E8ADEA11E89A
:10B01000ADEA89E716EA89E716EAE5E762EAE5E7D5
:10B0200062EAC6E832EBC6E832EBE1E93DECE1E981
:10B030003DECE1E93DECABEAF6ECABEAF6ECF0EC2A
:10B040002BEFF0EC2BEF46ED70EF46ED70EF91EE4D
:10B05000ACF091EEACF060EE6CF060EE6CF07CF079
:10B0600078F27CF078F27CF078F2E8F1D5F3E8F150
:10B07000D5F353F232F453F232F442F313F542F3C0
:10B0800013F593F356F593F356F5F5F4ABF6F5F4A3
:10B09000ABF6F5F4ABF646F6EFF746F6EFF7F6F853
:10B0A00092FAF6F892FAE1F771F9E1F771F9AAF874
:10B0B0002FFAAAF82FFA62F7DCF862F7DCF848F802
:10B0C000B8F948F8B8F948F8B8F90DF774F80DF779
:10B0D00074F8A3F502F7A3F502F7EDF544F7EDF5E3
:10B0E00044F779F5C9F679F5C9F681F6CBF781F61B
:10B0F000CBF7B9F6FEF7B9F6FEF7B9F6FEF70EF69E
:10B100004FF70EF64FF71BF358F41BF358F42BF2DE
:10B1100064F32BF264F3EFEF25F1EFEF25F12DEF60
:10B1200060F02DEF60F02DEF60F02EEF5CF02EEF71
:10B130005CF043EF6AF043EF6AF038EF58F038EF15
:10B1400058F0A0EEB6EFA0EEB6EFBBEDC5EEBBED4E
:10B15000C5EEE9EBE3ECE9EBE3ECE9EBE3ECABEBBD
:10B1600092ECABEB92EC5BED2CEE5BED2CEEDBECC2
:10B1700092EDDBEC92ED66ED00EE66ED00EE40EF59
:10B18000B8EF40EFB8EF39F08CF039F08CF039F0CF
:10B190008CF0DDF007F1DDF007F1CCF1CAF1CCF174
:10B1A000CAF182F352F382F352F3C8F468F4C8F49C
:10B1B00068F419F788F619F788F619F788F6CBF9C5
:10B1C00007F9CBF907F941FB4CFA41FB4CFA48FB74
:10B1D00023FA48FB23FA31FDDCFB31FDDCFB54FD97
:10B1E000D4FB54FDD4FBD4FE2BFDD4FE2BFDD4FEAA
:10B1F0002BFD27005AFE27005AFE4302550043024A
:10B2000055004902400049024000F202D300F20218
:10B21000D300C7049802C7049802A0046502A004E2
:10B220006502A00465029806570498065704A20612
:10B230005F04A2065F04E306A304E306A304EC058F
:10B24000B103EC05B1032506F3032506F303250638
:10B25000F303810559038105590354053903540546
:10B260003903270518032705180322051F032205A4
:10B270001F03B804C102B804C1029707A9059707C4
:10B28000A9059707A9053B0854063B085406BE07C5
:10B29000DC05BE07DC05EA080A07EA080A07090810
:10B2A000270609082706DA0BF409DA0BF409650CFE
:10B2B000790A650C790A650C790A980EA30C980E28
:10B2C000A30C0E100E0E0E100E0EB210A80EB21021
:10B2D000A80E25120F1025120F10AB118B0FAB11FA
:10B2E0008B0FAB118B0FE810C00EE810C00ED511FC
:10B2F000A70FD511A70F2114F0112114F0114B1530
:10B300001B134B151B136B1442126B144212EE11DC
:10B31000D00FEE11D00FEE11D00F1011030F10113E
:10B32000030F980FA20D980FA20D790FA00D790FA2
:10B33000A00DBD10060FBD10060F3111A10F311168
:10B34000A10F3111A10FD710740FD710740F771000
:10B35000440F7710440F2C0F2C0E2C0F2C0E7A0E4E
:10B36000AE0D7A0EAE0D430EAE0D430EAE0D850E34
:10B37000250E850E250E850E250EB50E8A0EB50EF0
:10B380008A0E510E580E510E580EAD0CE20CAD0C3B
:10B39000E20CEA0B4A0CEA0B4A0CFE0A820BFE0A8C
:10B3A000820B3C0ADE0A3C0ADE0A3C0ADE0A290954
:10B3B000E3092909E3092207EC072207EC0737050F
:10B3C0000B0637050B06B2018802B20188020A009B
:10B3D000DC000A00DC000A00DC0047FF0D0047FF2C
:10B3E0000D0008FFBCFF08FFBCFF8FFE2CFF8FFE87
:10B3F0002CFFEB006D01EB006D01CC002E01CC00A9
:10B400002E011300520013005200130052003AFFA5
:10B4100054FF3AFF54FF0EFE01FE0EFE01FE4BFDEF
:10B4200017FD4BFD17FDAEFC53FCAEFC53FC40FE7C
:10B43000BFFD40FEBFFD94FEEDFD94FEEDFD94FECC
:10B44000EDFDFBFD32FDFBFD32FD00FD15FC00FDB9
:10B4500015FC6BFD61FC6BFD61FC9BFC74FB9BFCB4
:10B4600074FB6CFF2BFE6CFF2BFE6CFF2BFE56FF5C
:10B47000FDFD56FFFDFDAEFF40FEAEFF40FEA2FF0C
:10B480001FFEA2FF1FFE0A0075FE0A0075FEA50240
:10B49000FE00A502FE00380280003802800038025B
:10B4A0008000A803DF01A803DF01A503CC01A503E9
:10B4B000CC0128063F0428063F049F08A5069F08E4
:10B4C000A506DA09CF07DA09CF0728090B072809EB
:10B4D0000B0728090B07A2097307A2097307310C90
:10B4E000EF09310CEF09570E030C570E030C241013
:10B4F000BC0D2410BC0D0D11920E0D11920E0D11EC
:10B50000920EC8123B10C8123B102A148C112A1438
:10B510008C1122157212221572126E16AF136E164E
:10B52000AF1343177614431776140F1934160F19F7
:10B5300034160F193416791A9317791A9317E31AD8
:10B54000F317E31AF317DA1AE217DA1AE217991A5D
:10B550009C17991A9C17B41CB219B41CB219DC1CA4
:10B56000D719DC1CD719DC1CD719C41CBE19C41C84
:10B57000BE194D1D481A4D1D481A601D5D1A601DEB
:10B580005D1A741C7619741C7619CC1BD318CC1B4D
:10B59000D318CC1BD3182A1A39172A1A3917DB18D3
:10B5A000F215DB18F2159F17C0149F17C014CF16A1
:10B5B000FB13CF16FB136816A2136816A2134715C8
:10B5C000901247159012471590127B13D6107B13DB
:10B5D000D6106711D50E6711D50EC311480FC311D0
:10B5E000480FE710850EE710850EED11A50FED1140
:10B5F000A50FC311990FC311990FC311990F2E11E4
:10B60000250F2E11250F280F410D280F410DF30C8A
:10B61000320BF30C320BA00B070AA00B070A430AEC
:10B62000D208430AD208430AD2084409FE07440953
:10B63000FE07710956087109560833084407330894
:10B6400044075607920656079206D9083F08D908BC
:10B650003F0896072407960724079607240735090D
:10B66000E9083509E9080B08E2070B08E207C809F1
:10B67000BF09C809BF09BC09CD09BC09CD091E070E
:10B6800046071E07460735066F0635066F06350660
:10B690006F06E4032B04E4032B04020451040204A8
:10B6A0005104F0034204F00342043F0390033F03BC
:10B6B0009003460192014601920146019201240045
:10B6C0006800240068004CFF85FF4CFF85FF68FE82
:10B6D00095FE68FE95FE77FC96FC77FC96FC4CFB8D
:10B6E0005FFB4CFB5FFB64FB6BFB64FB6BFB64FB76
:10B6F0006BFB46FB45FB46FB45FB5BFB54FB5BFBE7
:10B7000054FB2EFB24FB2EFB24FB12F90BF912F940
:10B710000BF91EF71FF71EF71FF7B0F5BEF5B0F5D2
:10B72000BEF5B0F5BEF54FF570F54FF570F52FF598
:10B730006AF52FF56AF5F2F54BF6F2F54BF6A2F73E
:10B740001EF8A2F71EF866F70BF866F70BF866F717
:10B750000BF85FF530F65FF530F6DAF2DAF3DAF28D
:10B76000DAF393F1C3F293F1C3F2ACF10EF3ACF15F
:10B770000EF324F4B7F524F4B7F5D9F59DF7D9F510
:10B780009DF7D9F59DF7A5F697F8A5F697F8FCF57E
:10B7900018F8FCF518F85EF4A0F65EF4A0F6F2F1E5
:10B7A00055F4F2F155F403F282F403F282F480F1DD
:10B7B00015F480F115F480F115F467F20CF567F2D9
:10B7C0000CF5F4F2A3F5F4F2A3F533F2E7F433F257
:10B7D000E7F48BF23FF58BF23FF5D5F084F3D5F02B
:10B7E00084F3D5F084F389F12EF489F12EF49BF1E2
:10B7F00035F49BF135F449F2D6F449F2D6F4CBF2A4
:10B8000049F5CBF249F538F3A9F538F3A9F518F263
:10B810007DF418F27DF418F27DF4F5F150F4F5F1B1
:10B8200050F4A3F1F6F3A3F1F6F386F2D6F486F220
:10B83000D6F464F2B4F464F2B4F443F299F443F24B
:10B8400099F443F299F45FF2C0F45FF2C0F431EF7F
:10B85000A1F131EFA1F1AFF032F3AFF032F333F0F9
:10B86000CDF233F0CDF2F9EFAEF2F9EFAEF211F026
:10B87000E5F211F0E5F211F0E5F2FFEFF2F2FFEF81
:10B88000F2F20FF122F40FF122F4FCF02EF4FCF0AE
:10B890002EF42BEF7DF22BEF7DF27FEDEDF07FEDBF
:10B8A000EDF0BFED46F1BFED46F1BFED46F1BDEE67
:10B8B00059F2BDEE59F25DEE09F25DEE09F246EC89
:10B8C000FDEF46ECFDEF52EA0FEE52EA0FEED1E942
:10B8D0008CEDD1E98CEDD1E98CED42EAF6ED42EA4E
:10B8E000F6EDA2EA49EEA2EA49EE09EB9CEE09EB7D
:10B8F0009CEE9EEA19EE9EEA19EE9AEBF7EE9AEBB1
:10B90000F7EE52EB8FEE52EB8FEE52EB8FEEBBEB7E
:10B91000D4EEBBEBD4EEC3EAB4EDC3EAB4ED55EA22
:10B920001DED55EA1DED4BECEAEE4BECEAEEACEC0E
:10B9300023EFACEC23EF19EE67F019EE67F019EE88
:10B9400067F0C1EEE9F0C1EEE9F066EE6AF066EE8E
:10B950006AF04EF031F24EF031F2B5F27BF4B5F20E
:10B960007BF414F5BFF614F5BFF614F5BFF68AF6AE
:10B970001EF88AF61EF8F0F771F9F0F771F996F7EC
:10B9800008F996F708F9F9F65EF8F9F65EF8F3F7B4
:10B990004FF9F3F74FF9D4F629F8D4F629F8D4F68D
:10B9A00029F839F889F939F889F963F8B1F963F8B0
:10B9B000B1F934F980FA34F980FA50F99CFA50F967
:10B9C0009CFAFFF84AFAFFF84AFA65F8AFF965F809
:10B9D000AFF965F8AFF990F6DAF790F6DAF73AF6DC
:10B9E00082F73AF682F74CF792F84CF792F81CF887
:10B9F0005FF91CF85FF999F7D7F899F7D7F899F735
:10BA0000D7F8BCF7F5F8BCF7F5F824F556F624F5A9
:10BA100056F6FFF32AF5FFF32AF58EF0AFF18EF01C
:10BA2000AFF1D7F0EDF1D7F0EDF1DCF1E8F2DCF1B8
:10BA3000E8F2DCF1E8F22BF12AF22BF12AF2A7F37B
:10BA400099F4A7F399F43DF221F33DF221F351F07B
:10BA500025F151F025F1F3EFB6F0F3EFB6F0EAEF90
:10BA60009BF0EAEF9BF0EAEF9BF03CF0DBF03CF060
:10BA7000DBF07DF107F27DF107F20FF282F20FF2B7
:10BA800082F287F2E2F287F2E2F2FBF23DF3FBF29E
:10BA90003DF3FBF23DF30CF532F50CF532F52AF7E8
:10BAA00032F72AF732F705F8EEF705F8EEF78BF9DB
:10BAB00054F98BF954F9FAFBA1FBFAFBA1FB0DFD3C
:10BAC00091FC0DFD91FC0DFD91FCCAFD2AFDCAFD06
:10BAD0002AFDDBFD18FDDBFD18FDEDFE07FEEDFE8A
:10BAE00007FE5B0153005B015300DF02B501DF027B
:10BAF000B50176052F0476052F0476052F048F05F2
:10BB00002B048F052B044B06CE044B06CE042407D2
:10BB1000920524079205C4072106C40721067A0965
:10BB2000CA077A09CA077A09CA07AC09F407AC0937
:10BB3000F407680AAB08680AAB081D0C610A1D0C03
:10BB4000610AFD0C450BFD0C450BFF0C500BFF0C67
:10BB5000500BDD0C390BDD0C390BDD0C390BB40C43
:10BB60001D0BB40C1D0B9B0A13099B0A1309C80A71
:10BB70005109C80A5109F20A8B09F20A8B097609A0
:10BB80001F0876091F08D2098B08D2098B08D20931
:10BB90008B08EC08B207EC08B207E608B607E6081F
:10BBA000B607F708CF07F708CF07530A2F09530A3C
:10BBB0002F093F0C1B0B3F0C1B0B3F0C1B0BF20DFB
:10BBC000CC0CF20DCC0C180FEC0D180FEC0D131063
:10BBD000DF0E1310DF0E040FC40D040FC40DFB0E97
:10BBE000AF0DFB0EAF0DB60E5D0DB60E5D0DB60EB4
:10BBF0005D0D070FA10D070FA10DB7114610B7116D
:10BC00004610F2117710F21177108313021283138A
:10BC100002121811940F1811940F840F040E840F40
:10BC2000040E840F040E620FEA0D620FEA0D800EFF
:10BC3000170D800E170D200ECC0C200ECC0CF50E1F
:10BC4000BC0DF50EBC0D930E7C0D930E7C0D930E6A
:10BC50007C0DB70DC80CB70DC80CA90EE60DA90ECA
:10BC6000E60DBE0D2E0DBE0D2E0DB50D590DB50DEB
:10BC7000590D6C0D480D6C0D480D490D5E0D490DAB
:10BC80005E0D490D5E0D9A0BE80B9A0BE80B8809C7
:10BC90000D0A88090D0A2509DD092509DD09D308E2
:10BCA000BB09D308BB0967077808670778087D06D2
:10BCB000B1077D06B1077D06B10723047305230490
:10BCC0007305DF014203DF01420365FFD30065FF17
:10BCD000D3002AFD99FE2AFD99FE28FC8FFD28FC41
:10BCE0008FFD28FC8FFDD2F928FBD2F928FB6BFAD7
:10BCF000A9FB6BFAA9FB52FB70FC52FB70FC00FB2A
:10BD0000F7FB00FBF7FB2CFBF6FB2CFBF6FBB7F974
:10BD100051FAB7F951FAB7F951FAAFF715F8AFF789
:10BD200015F86BF79CF76BF79CF7CDF7C7F7CDF7D6
:10BD3000C7F7B6F87AF8B6F87AF838F9C8F838F9E3
:10BD4000C8F838F9C8F8C8F826F8C8F826F85BF635
:10BD50008AF55BF68AF5D2F6D6F5D2F6D6F5AAF6CE
:10BD600087F5AAF687F558F513F458F513F429F674
:10BD7000C6F429F6C6F429F6C6F474F6F9F474F696
:10BD8000F9F47DF7ECF57DF7ECF5ABF809F7ABF8D6
:10BD900009F7C0F90FF8C0F90FF8D5F917F8D5F978
:10BDA00017F861FA98F861FA98F861FA98F80CFCBB
:10BDB00039FA0CFC39FACEFDF1FBCEFDF1FB51FD59
:10BDC0006AFB51FD6AFBECFEF9FCECFEF9FCBFFEE0
:10BDD000BEFCBFFEBEFCBFFEBEFC580048FE5800C5
:10BDE00048FEB9029700B90297001204DB01120461
:10BDF000DB01A5075705A50757055109EA065109B3
:10BE0000EA06C00B3F09C00B3F09C00B3F09660D96
:10BE1000C80A660DC80A1C0F600C1C0F600CD20FFC
:10BE2000F90CD20FF90CB211BB0EB211BB0EBE133E
:10BE3000AB10BE13AB10D517A614D517A614D51783
:10BE4000A6149A1A52179A1A5217C11A6217C11ACF
:10BE50006217041B9217041B9217EE1B6B18EE1B44
:10BE60006B18F71D691AF71D691AF71D691AF91E73
:10BE7000631BF91E631B7D20E31C7D20E31C9D21B9
:10BE8000051E9D21051E6A21D61D6A21D61D27206B
:10BE90009C1C27209C1C591FDB1B591FDB1B591F97
:10BEA000DB1B221DB519221DB519C91C7019C91C2F
:10BEB00070190B1DC9190B1DC919E31CBB19E31C13
:10BEC000BB19F51AE917F51AE91788189A15881891
:10BED0009A1588189A15ED171F15ED171F150417D9
:10BEE0005814041758148A1601148A1601143017AE
:10BEF000CB143017CB149716571497165714971660
:10BF00005714A4148A12A4148A1236144312361435
:10BF1000431225135911251359113A11960F3A114D
:10BF2000960FF7107B0FF7107B0F5410000F541073
:10BF3000000F5410000F250EFA0C250EFA0CB70D49
:10BF4000B40CB70DB40CB00BD40AB00BD40AD009A2
:10BF50001B09D0091B09B0082108B008210857099E
:10BF6000EC085709EC085709EC08810A380A810ADD
:10BF7000380A470B1E0B470B1E0B2D0B220B2D0BEC
:10BF8000220BA609B509A609B5090008270800086B
:10BF90002708000827084907850749078507160667
:10BFA000630616066306B9031304B9031304F70204
:10BFB0005B03F7025B039400FE009400FE00C900DF
:10BFC0003601C9003601C900360157FFC5FF57FFCA
:10BFD000C5FF3AFEA6FE3AFEA6FE0DFD75FD0DFD5F
:10BFE00075FD25FC88FC25FC88FC7DFCDAFC7DFCCD
:10BFF000DAFC57FCAEFC57FCAEFC57FCAEFC91FCE7
:10C00000E3FC91FCE3FCF3FB42FCF3FB42FCB1FBE1
:10C01000FEFBB1FBFEFBE7F935FAE7F935FA31FA39
:10C0200083FA31FA83FA31FA83FAFCF955FAFCF90A
:10C0300055FAEEFA51FBEEFA51FB82FCF4FC82FC5D
:10C04000F4FC7EFD01FE7EFD01FE02FE9AFE02FE74
:10C050009AFE05FDB6FD05FDB6FD05FDB6FDA0FA8F
:10C060006CFBA0FA6CFB0BF9F4F90BF9F4F994F8FA
:10C070009BF994F89BF981F9A9FA81F9A9FAC1F918
:10C0800008FBC1F908FB7BF9E1FA7BF9E1FA7BF9DE
:10C09000E1FAC4FA48FCC4FA48FC6DFA0EFC6DFAE9
:10C0A0000EFC7DFA37FC7DFA37FCD8F9A7FBD8F9EE
:10C0B000A7FBFEF9E0FBFEF9E0FBFEF9E0FB60FA0E
:10C0C00051FC60FA51FCFDF9F8FBFDF9F8FBD1F8E1
:10C0D000D3FAD1F8D3FAFFF703FAFFF703FAB2F66F
:10C0E000B4F8B2F6B4F88AF688F88AF688F88AF6D0
:10C0F00088F80BF802FA0BF802FA3AF828FA3AF83C
:10C1000028FA2DF710F92DF710F9F4F7CBF9F4F719
:10C11000CBF9F9F7C4F9F9F7C4F944F603F844F692
:10C1200003F844F603F874F629F874F629F836F69D
:10C13000E2F736F6E2F762F509F762F509F713F46C
:10C14000B6F513F4B6F5BDF35FF5BDF35FF5BDF3DA
:10C150005FF509F3AEF409F3AEF443F3EEF443F301
:10C16000EEF404F4B8F504F4B8F5A0F360F5A0F328
:10C1700060F5E8F1B7F3E8F1B7F38AF269F48AF20F
:10C1800069F48AF269F420F112F320F112F322F03B
:10C1900027F222F027F2A2EFBAF1A2EFBAF1DFED17
:10C1A0000CF0DFED0CF0E7EE28F1E7EE28F144EEBD
:10C1B00096F044EE96F044EE96F0E2EE46F1E2EEB2
:10C1C00046F13CEDB0EF3CEDB0EFE9EB69EEE9EBA9
:10C1D00069EE50EBDBED50EBDBED4EEAE1EC4EEAC5
:10C1E000E1EC4EEAE1ECD3E86CEBD3E86CEBBCE8B5
:10C1F00058EBBCE858EB49E9E6EB49E9E6EB5DEAC8
:10C20000F8EC5DEAF8EC4FECE8EE4FECE8EEF8EB1A
:10C210008BEEF8EB8BEEF8EB8BEEB7EB44EEB7EB77
:10C2200044EED1EA57EDD1EA57EDF9EA76EDF9EAB5
:10C2300076ED7AEBEEED7AEBEEED47EBB2ED47EB18
:10C24000B2ED47EBB2ED56EBB9ED56EBB9ED40EC84
:10C2500098EE40EC98EE3BED8BEF3BED8BEF46EF2D
:10C260008CF146EF8CF178F0B6F278F0B6F262F22B
:10C2700096F462F296F462F296F4A2F3CDF5A2F38C
:10C28000CDF59CF4BDF69CF4BDF636F54DF736F5CC
:10C290004DF771F47EF671F47EF67FF381F57FF34E
:10C2A00081F55AF351F55AF351F55AF351F528F542
:10C2B00014F728F514F75AF539F75AF539F77EF5DA
:10C2C00051F77EF551F72CF4F1F52CF4F1F5BEF2AF
:10C2D00076F4BEF276F4BEF276F42CF2D6F32CF2BB
:10C2E000D6F3A2F13EF3A2F13EF32DF2BDF32DF20F
:10C2F000BDF394F318F594F318F5E8F360F5E8F35B
:10C3000060F5EEF35BF5EEF35BF5EEF35BF5F4F160
:10C3100058F3F4F158F3DCEE37F0DCEE37F0CCEB09
:10C3200021EDCCEB21ED7BEAC9EB7BEAC9EB75EBA8
:10C33000BEEC75EBBEEC90EBD4EC90EBD4EC90EB58
:10C34000D4ECCBEB0AEDCBEB0AED27EC62ED27EC5E
:10C3500062ED88EABCEB88EABCEBB5E8E2E9B5E857
:10C36000E2E930E953EA30E953EA30E953EAC5E754
:10C37000DCE8C5E7DCE833E83BE933E83BE935E7EF
:10C380002AE835E72AE814E7F2E714E7F2E79CE742
:10C390005EE89CE75EE899E83BE999E83BE999E8C3
:10C3A0003BE902EB80EB02EB80EB15EC68EC15EC63
:10C3B00068EC53EF79EF53EF79EF28F21CF228F293
:10C3C0001CF24EF40EF44EF40EF4B9F442F4B9F447
:10C3D00042F4B9F442F45CF6ADF55CF6ADF55EF707
:10C3E00076F65EF776F68BF96AF88BF96AF83FFD18
:10C3F000E7FB3FFDE7FB19FF8EFD19FF8EFD19FFDF
:10C400008EFD510096FE510096FEB701D1FFB70197
:10C41000D1FFB303A901B303A9011105EA02110574
:10C42000EA02D0049302D004930287063B048706F5
:10C430003B0487063B047608240676082406C909CF
:10C440007907C9097907BC0B7609BC0B7609720B11
:10C450003D09720B3D09860C690A860C690A1F0D9D
:10C460001F0B1F0D1F0B1F0D1F0B440D650B440DE4
:10C47000650BE90C2F0BE90C2F0B450CB20A450C90
:10C48000B20A310CC70A310CC70A330DF00B330D59
:10C49000F00B330DF00BFA0CDC0BFA0CDC0BEE0B93
:10C4A000F30AEE0BF30A6A0B8D0A6A0B8D0A2B0B4B
:10C4B000680A2B0B680A9B0CEC0B9B0CEC0B250EF3
:10C4C000850D250E850D250E850DC00F290FC00F7A
:10C4D000290FB3101F10B3101F10971001109710E1
:10C4E00001102010830F2010830F6A10C30F6A10F1
:10C4F000C30FC7101410C7101410C7101410F81170
:10C500003611F811361150128011501280112B1271
:10C510004E112B124E113D1257113D1257113A1266
:10C520004D113A124D113A124D115F1171105F11F8
:10C53000711082119910821199103B105D0F3B1000
:10C540005D0F6B0FA00E6B0FA00ED40E230ED40E3A
:10C55000230E670CD90B670CD90B670CD90B3A0D5E
:10C56000D50C3A0DD50C540D1F0D540D1F0DA40DF7
:10C57000A60DA40DA60D460D820D460D820DD60CFE
:10C58000520DD60C520D5B0C180D5B0C180D5B0C8C
:10C59000180D200B1E0C200B1E0C890AC80B890AD3
:10C5A000C80B6A0BE70C6A0BE70C6C0A220C6C0ACE
:10C5B000220CE008CA0AE008CA0AE008CA0A7007A2
:10C5C000870970078709D9031406D9031406830263
:10C5D000D9048302D9044F01B7034F01B703930075
:10C5E000020393000203A7FF1202A7FF1202A7FF94
:10C5F0001202CFFE2D01CFFE2D0115005C021500A9
:10C600005C022F0055022F00550281FE7E0081FE44
:10C610007E00E5FDB3FFE5FDB3FFCDFB66FDCDFB81
:10C6200066FDCDFB66FDCDFB2BFDCDFB2BFD97FC09
:10C63000B9FD97FCB9FDD3FBB6FCD3FBB6FC34FCCB
:10C64000D9FC34FCD9FC30FC97FC30FC97FC30FC66
:10C6500097FC12FC3EFC12FC3EFC6BFA5FFA6BFA94
:10C660005FFA18F9D7F818F9D7F8B6F845F8B6F818
:10C6700045F841F9A5F841F9A5F8DCFA19FADCFA10
:10C6800019FADCFA19FAD5FBF2FAD5FBF2FA7AFCC0
:10C6900079FB7AFC79FB1CFD02FC1CFD02FCCFFD42
:10C6A000A0FCCFFDA0FCFBFEB9FDFBFEB9FDE3FE47
:10C6B00091FDE3FE91FDE3FE91FD940032FF9400B5
:10C6C00032FF8401120084011200DC015A00DC01F7
:10C6D0005A005A02C6005A02C600D0012800D001F2
:10C6E0002800D00128003503770135037701E103E5
:10C6F0000B02E1030B0241054F0341054F035F08A5
:10C700004D065F084D061E0BEA081E0BEA087C0C5E
:10C71000240A7C0C240A7C0C240A1A0D9B0A1A0D8C
:10C720009B0A3B0D940A3B0D940A3C106B0D3C1088
:10C730006B0DAA12B00FAA12B00FFD14DA11FD147E
:10C74000DA11FD14DA11CF168313CF1683131417E1
:10C75000A1131417A113AA181415AA181415451912
:10C760008E1545198E15DB1A0717DB1A0717611D81
:10C770007519611D7519611D7519951F951B951FFB
:10C78000951BE021D11DE021D11D1023F61E1023A1
:10C79000F61E5F213F1D5F213F1DDA20B91CDA2004
:10C7A000B91C0020E21B0020E21B0020E21BC51F79
:10C7B000AE1BC51FAE1BCE20C21CCE20C21C7421D6
:10C7C000771D7421771D9021A51D9021A51DD51FD2
:10C7D000FE1BD51FFE1BD51FFE1BDA1D1A1ADA1D04
:10C7E0001A1ABE1D161ABE1D161A5C1DCE195C1D26
:10C7F000CE19EA1B7818EA1B7818311CDB18311C9B
:10C80000DB187D1A45177D1A45177D1A45177A19C9
:10C810005F167A195F1639183E1539183E15E81556
:10C820000C13E8150C13F0143512F0143512B01473
:10C830001612B01416128B1413128B1413128B14BD
:10C8400013127912231079122310A20F700DA20F68
:10C85000700DC20DB30BC20DB30BEE0C030BEE0C3F
:10C86000030BB60DF00BB60DF00BB60DF00B220E50
:10C87000810C220E810C630DE60B630DE60B6C0C34
:10C88000140B6C0C140B090CD60A090CD60ABD0A41
:10C89000AC09BD0AAC095C086E075C086E075C0851
:10C8A0006E076A079D066A079D06BE051005BE0550
:10C8B0001005CA043A04CA043A04CA025502CA025C
:10C8C000550278001D0078001D0032FEEFFD32FE9B
:10C8D000EFFD32FEEFFD13FCE4FB13FCE4FB93FAE7
:10C8E00078FA93FA78FA3EF934F93EF934F95AF8BD
:10C8F00060F85AF860F850F865F850F865F850F8A4
:10C9000065F869F88CF869F88CF895F7C4F795F72D
:10C91000C4F78AF7C6F78AF7C6F7BFF508F6BFF57A
:10C9200008F69CF4F2F49CF4F2F442F3A6F342F31A
:10C93000A6F342F3A6F3D8F24BF3D8F24BF3A9F4E3
:10C940002CF5A9F42CF5DDF571F6DDF571F6ECF5B5
:10C9500092F6ECF592F633F6EDF633F6EDF6CEF40C
:10C960009CF5CEF49CF5CEF49CF562F446F562F4A9
:10C9700046F5D1F4CBF5D1F4CBF575F385F475F329
:10C9800085F4F8F31EF5F8F31EF5ECF327F5ECF358
:10C9900027F5ECF327F5FAF449F6FAF449F6FBF536
:10C9A0005DF7FBF55DF766F6D8F766F6D8F759F848
:10C9B000D9F959F8D9F902F98EFA02F98EFA74F810
:10C9C00009FA74F809FA74F809FA2CF9C6FA2CF97C
:10C9D000C6FADBF779F9DBF779F9EAF688F8EAF6CF
:10C9E00088F8FEF69AF8FEF69AF823F7BAF823F7D5
:10C9F000BAF852F7E1F852F7E1F852F7E1F84EF6DB
:10CA0000D5F74EF6D5F752F6CFF752F6CFF732F507
:10CA1000A5F632F5A5F668F5D0F668F5D0F68EF6EF
:10CA2000EBF78EF6EBF78EF6EBF7F7F54BF7F7F53E
:10CA30004BF7F8F543F7F8F543F7C3F506F7C3F5F9
:10CA400006F788F4C5F588F4C5F52DF467F52DF4DF
:10CA500067F5AAF3E3F4AAF3E3F4AAF3E3F498F393
:10CA6000D2F498F3D2F403F340F403F340F4F0F378
:10CA700032F5F0F332F5C7F311F5C7F311F5DCF237
:10CA80002DF4DCF22DF446F3A2F446F3A2F446F3BF
:10CA9000A2F469F2CFF369F2CFF3C7F139F3C7F12A
:10CAA00039F3CCF04BF2CCF04BF24DF0D8F14DF025
:10CAB000D8F168EFFFF068EFFFF068EFFFF096EE57
:10CAC00039F096EE39F060EE0FF060EE0FF0A0ED69
:10CAD0005BEFA0ED5BEF72EB39ED72EB39ED15EB2F
:10CAE000E8EC15EBE8ECEBE8CAEAEBE8CAEAEBE8BD
:10CAF000CAEA8AE874EA8AE874EA71E968EB71E9DB
:10CB000068EB82E887EA82E887EA27E93AEB27E9D7
:10CB10003AEBE0E802EBE0E802EB70E9A3EB70E946
:10CB2000A3EB70E9A3EB69E9AEEB69E9AEEB5EE973
:10CB3000B6EB5EE9B6EB07EA73EC07EA73EC6CEA76
:10CB4000EEEC6CEAEEEC18E9B0EB18E9B0EB18E9A2
:10CB5000B0EB60E90EEC60E90EECC7E98BECC7E9DD
:10CB60008BEC5DEA36ED5DEA36ED7CEC6AEF7CEC51
:10CB70006AEF69EF6AF269EF6AF29DF2AEF59DF233
:10CB8000AEF59DF2AEF5F1F30FF7F1F30FF74AF5BD
:10CB900072F84AF572F812F640F912F640F912F5F9
:10CBA00042F812F542F813F540F813F540F885F60F
:10CBB000ABF985F6ABF985F6ABF9F8F612FAF8F6AB
:10CBC00012FAE1F6EBF9E1F6EBF9CDF5C4F8CDF5A3
:10CBD000C4F864F543F864F543F857F31DF657F3CA
:10CBE0001DF657F31DF67EF228F57EF228F588F340
:10CBF00015F688F315F64DF4BCF64DF4BCF6E3F5E6
:10CC000034F8E3F534F81FF755F91FF755F9D2F565
:10CC1000EEF7D2F5EEF7D2F5EEF7E4F3E7F5E4F34D
:10CC2000E7F5B9F2A8F4B9F2A8F41EF1FDF21EF18D
:10CC3000FDF2F8F0CAF2F8F0CAF201F2C8F301F21C
:10CC4000C8F301F2C8F369F12AF369F12AF3D5EFC9
:10CC500093F1D5EF93F1AEEF6CF1AEEF6CF19BED8C
:10CC600059EF9BED59EF01EDC0EE01EDC0EE79ED0E
:10CC70003AEF79ED3AEF79ED3AEFC6ED87EFC6ED91
:10CC800087EF6BEC2AEE6BEC2AEE09EBC1EC09EBBB
:10CC9000C1ECC2EA70ECC2EA70EC0FEAACEB0FEA4E
:10CCA000ACEB0BEA93EB0BEA93EB0BEA93EB12EC96
:10CCB0007DED12EC7DED2DEE73EF2DEE73EFA6EF13
:10CCC000C1F0A6EFC1F01FF208F31FF208F3F6F16E
:10CCD000A6F2F6F1A6F2F6F1A6F276F3E8F376F311
:10CCE000E8F3F3F421F5F3F421F5C9F6AFF6C9F64C
:10CCF000AFF677F813F877F813F8A5FAF6F9A5FA6E
:10CD0000F6F9B6FCBCFBB6FCBCFBB6FCBCFB30FECB
:10CD1000EEFC30FEEEFC8DFF06FE8DFF06FEB7003A
:10CD2000F0FEB700F0FE23022200230222003D03A2
:10CD30000B013D030B015506FA035506FA03550690
:10CD4000FA035507DA045507DA04F3086306F30813
:10CD500063066F0BD3086F0BD308F40C550AF40C61
:10CD6000550A060E6F0B060E6F0B060E6F0BF10EBB
:10CD7000690CF10E690C1C10AB0D1C10AB0D0311EE
:10CD8000AF0E0311AF0EB910870EB910870EF11157
:10CD9000E40FF111E40F7711910F7711910F7711D3
:10CDA000910F6510A60E6510A60E6710CD0E6710C8
:10CDB000CD0EFC0F860EFC0F860E5411FC0F541185
:10CDC000FC0F7A113C107A113C10C2119810C2115C
:10CDD0009810C21198102D1210112D121011E0117F
:10CDE000CA10E011CA1057124211571242116A13A9
:10CDF0004F126A134F12EB12C511EB12C511EB1251
:10CE0000C511C7139112C7139112C1147813C1141D
:10CE100078131F15C1131F15C1133415C013341512
:10CE2000C0136316D9146316D914F2155514F215EC
:10CE30005514F21555145815AB135815AB13F215BC
:10CE40003A14F2153A144113841141138411AD11AF
:10CE5000F20FAD11F20F7211C00F7211C00F02115B
:10CE6000620F0211620F0211620F4E10C70E4E10B8
:10CE7000C70EB4104F0FB4104F0F96105A0F9610E4
:10CE80005A0F420F360E420F360EE00C090CE00C22
:10CE9000090CE00C090C790CDD0B790CDD0B0B0B8C
:10CEA000AD0A0B0BAD0A3C0B1D0B3C0B1D0BD60B3F
:10CEB000F70BD60BF70BF409530AF409530A580879
:10CEC000F3085808F3085808F3080305D5050305C7
:10CED000D50559025C0359025C03ACFFDA00ACFFD4
:10CEE000DA0058FEA9FF58FEA9FF72FDDDFE72FDB3
:10CEF000DDFE9DFC1AFE9DFC1AFE9DFC1AFE32FB17
:10CF0000B8FC32FBB8FC4AFBCFFC4AFBCFFC7AFAF8
:10CF1000F7FB7AFAF7FB3EFAA9FB3EFAA9FBB6F952
:10CF200009FBB6F909FBB6F909FB89F7BEF889F7E1
:10CF3000BEF89EF7AFF89EF7AFF8CEF7B7F8CEF78A
:10CF4000B7F81AF8D9F81AF8D9F8CAF75DF8CAF795
:10CF50005DF877F7DEF777F7DEF777F7DEF7CEF7EE
:10CF600009F8CEF709F891F7A3F791F7A3F704F7BB
:10CF7000EEF604F7EEF698F75EF798F75EF706F729
:10CF8000ABF606F7ABF626F8AEF726F8AEF726F8BE
:10CF9000AEF762F9D1F862F9D1F8B2F90CF9B2F949
:10CFA0000CF9B6FAFEF9B6FAFEF947FC7EFB47FC2F
:10CFB0007EFBBCFCE6FBBCFCE6FBBCFCE6FB20FD10
:10CFC0003FFC20FD3FFC8DFEA1FD8DFEA1FD5BFF22
:10CFD00063FE5BFF63FEA6FFA3FEA6FFA3FE64FF46
:10CFE00053FE64FF53FE410021FF410021FF410039
:10CFF00021FFF401C200F401C200CB038402CB0381
:10D000008402B2055304B2055304CE075306CE077B
:10D0100053069307F9059307F9050F0953070F09FD
:10D0200053070F0953074E0A6D084E0A6D08150B7A
:10D030000E09150B0E09340D050B340D050B4110AF
:10D04000E80D4110E80DA6122310A6122310A61217
:10D0500023105B13AF105B13AF104F147B114F14F1
:10D060007B116F1575126F157512C816AB13C816A4
:10D07000AB130618CA140618CA14C1196916C119C7
:10D080006916C1196916711A0017711A0017091D5E
:10D090008419091D8419B41D201AB41D201A2B1ED1
:10D0A0008C1A2B1E8C1A8E1EE81A8E1EE81A9F1ED2
:10D0B000F61A9F1EF61A9F1EF61A041F5C1B041F09
:10D0C0005C1BF81E551BF81E551B301E941A301E93
:10D0D000941AFB1C6919FB1C69194D1CC6184D1CC0
:10D0E000C6184D1CC618F51A7B17F51A7B17941B2A
:10D0F0002818941B28187A1A1D177A1A1D17BD1A9A
:10D100006F17BD1A6F17C21A8417C21A84179F1897
:10D1100070159F1870159F187015B0179114B017DF
:10D12000911481177114811771140C170C140C17BA
:10D130000C1421173114211731142F164F132F16E9
:10D140004F132F164F132A165A132A165A1358150F
:10D150009A1258159A124E13A3104E13A310E912E7
:10D160005210E91252107D11FC0E7D11FC0E43127B
:10D17000DB0F4312DB0F4312DB0F921244109212AB
:10D180004410C911980FC911980F2D111A0F2D11A4
:10D190001A0FD10FDE0DD10FDE0DFF0D2F0CFF0D7D
:10D1A0002F0C1F0D720B1F0D720B1F0D720B580CE5
:10D1B000D10A580CD10AC50A6409C50A6409B50820
:10D1C0007B07B5087B072507120625071206AF0463
:10D1D000C203AF04C203AF04C203CB020502CB02F9
:10D1E0000502BF011E01BF011E017A00FDFF7A008A
:10D1F000FDFFBCFE60FEBCFE60FE28FDEDFC28FDD0
:10D20000EDFCFFFDE2FDFFFDE2FDFFFDE2FD8DFD1A
:10D210008CFD8DFD8CFD65FC7DFC65FC7DFC1BFBA8
:10D220004AFB1BFB4AFB38FA7CFA38FA7CFA35F9E0
:10D230008BF935F98BF939F9A1F939F9A1F939F9EE
:10D24000A1F9BCF833F9BCF833F9F1F876F9F1F843
:10D2500076F906F897F806F897F8B7F755F8B7F79C
:10D2600055F8B5F75EF8B5F75EF8B5F75EF871F604
:10D2700026F771F626F740F7FFF740F7FFF72EF68F
:10D28000F9F62EF6F9F6F0F5C6F6F0F5C6F621F544
:10D2900004F621F504F6ABF399F4ABF399F4ABF390
:10D2A00099F4F3F3EDF4F3F3EDF48FF596F68FF5CF
:10D2B00096F603F616F703F616F7B3F7D3F8B3F7B7
:10D2C000D3F883F7AFF883F7AFF81AF751F81AF7E6
:10D2D00051F81AF751F8ADF7F0F8ADF7F0F821F77B
:10D2E0006DF821F76DF81BF871F91BF871F908F862
:10D2F00065F908F865F9D7F73BF9D7F73BF9D7F7A0
:10D300003BF94FF7B8F84FF7B8F8BBF628F8BBF67B
:10D3100028F814F684F714F684F78DF5FEF68DF5EB
:10D32000FEF64BF5BCF64BF5BCF637F7A8F837F729
:10D33000A8F837F7A8F8FBF76AF9FBF76AF918F8C5
:10D3400086F918F886F958F7C5F858F7C5F8D6F5EC
:10D3500042F7D6F542F78EF5F8F68EF5F8F6B1F508
:10D360001BF7B1F51BF7B1F51BF762F6CCF762F6C8
:10D37000CCF715F680F715F680F78AF5F7F68AF5FB
:10D38000F7F6DFF450F6DFF450F681F4F8F581F4A7
:10D39000F8F581F4F8F51EF49CF51EF49CF585F380
:10D3A0000CF585F30CF5D4F265F4D4F265F497F23C
:10D3B00033F497F233F413F2BBF313F2BBF311F22D
:10D3C000C7F311F2C7F311F2C7F350F116F350F19E
:10D3D00016F3D8F0AEF2D8F0AEF2DFEEC6F0DFEE24
:10D3E000C6F0BBEDB4EFBBEDB4EFFDEC09EFFDEC27
:10D3F00009EF6EEA8DEC6EEA8DEC6EEA8DECA8E931
:10D40000DAEBA8E9DAEB82E9C7EB82E9C7EBAFE92F
:10D4100007ECAFE907EC37EAA2EC37EAA2EC52EAF4
:10D42000CFEC52EACFEC52EACFEC93E923EC93E94C
:10D4300023EC3EE9DFEB3EE9DFEB9CE84EEB9CE8BA
:10D440004EEB29E9EBEB29E9EBEB7FE750EA7FE7CD
:10D4500050EA5EE63DE95EE63DE95EE63DE95FE60F
:10D460004AE95FE64AE9C4E6BAE9C4E6BAE9B7E8D8
:10D47000B7EBB7E8B7EBA7EBAEEEA7EBAEEE0BED75
:10D4800018F00BED18F0EBEDFBF0EBEDFBF0EBED36
:10D49000FBF056EF68F256EF68F2D9EEEBF1D9EEF9
:10D4A000EBF180F08FF380F08FF3F2EFFCF2F2EF0C
:10D4B000FCF204F107F404F107F404F107F462F25A
:10D4C0005CF562F25CF52BF21BF52BF21BF5A3F178
:10D4D00087F4A3F187F422F0F8F222F0F8F289EF52
:10D4E00051F289EF51F21AEFD3F11AEFD3F11AEF9B
:10D4F000D3F11EEFC8F11EEFC8F149F0E4F249F094
:10D50000E4F292F01EF392F01EF306F184F306F1BA
:10D5100084F379F3EAF579F3EAF5E0F246F5E0F21F
:10D5200046F5E0F246F519F275F419F275F4B2F128
:10D5300005F4B2F105F438F184F338F184F338F1ED
:10D540007EF338F17EF399F0DCF299F0DCF299F099
:10D55000DCF2C5EF04F2C5EF04F269EEA5F069EE66
:10D56000A5F0F5EC2DEFF5EC2DEFDFEC13EFDFEC94
:10D5700013EF26EC55EE26EC55EE4FEC78EE4FEC23
:10D5800078EE4FEC78EEDCEBFBEDDCEBFBED6DEADF
:10D5900080EC6DEA80ECD9E9DDEBD9E9DDEB95E9CA
:10D5A00084EB95E984EBFBE9D1EBFBE9D1EB1BEADA
:10D5B000D4EB1BEAD4EB1BEAD4EB3FECD5ED3FEC0C
:10D5C000D5EDF8EC66EEF8EC66EE5FEEA0EF5FEE00
:10D5D000A0EFCEF0DDF1CEF0DDF14FF128F24FF10A
:10D5E00028F24FF128F263F202F363F202F3E6F459
:10D5F00049F5E6F449F5ADF6D1F6ADF6D1F699F96F
:10D600007EF999F97EF9B5FA5AFAB5FA5AFA37FB62
:10D610009FFA37FB9FFA37FB9FFAADFCD9FBADFCB5
:10D62000D9FB05FDF9FB05FDF9FB8DFE4EFD8DFED9
:10D630004EFDECFE7FFDECFE7FFD2C0097FE2C00E6
:10D6400097FE2C0097FE13025D0013025D00C003DD
:10D65000F101C003F101F4051204F40512040009FC
:10D660001307000913079F09AF079F09AF07FD0ABA
:10D670001109FD0A1109FD0A1109F10B0F0AF10B3D
:10D680000F0A3F0D6C0B3F0D6C0B2D0E6E0C2D0E0B
:10D690006E0C1A0D730B1A0D730B2B0E9D0C2B0EAB
:10D6A0009D0CE60D730CE60D730CE60D730CEF0E7E
:10D6B000970DEF0E970DCC0F8F0ECC0F8F0E770FAF
:10D6C000510E770F510E5F0F4D0E5F0F4D0EAD0FC8
:10D6D000AC0EAD0FAC0EAD0FAC0E0810130F081052
:10D6E000130F2210340F2210340F5E0F720E5E0FD4
:10D6F000720EED10FE0FED10FE0FF8120112F8126F
:10D700000112951392129513921295139212D81337
:10D71000C612D813C612EF13CA12EF13CA125D1540
:10D7200024145D152414DF159114DF159114761758
:10D730001316761713164118CC164118CC1641183B
:10D74000CC167717F2157717F215DD164B15DD1687
:10D750004B1524158B1324158B133613991136137F
:10D7600099115212B9105212B9105212B910D012A6
:10D770004111D0124111CC134C12CC134C12D012C7
:10D780006711D01267119B124F119B124F114D114F
:10D7900023104D112310B80FB50EB80FB50EB80FEA
:10D7A000B50EAC0FD30EAC0FD30ECF0E240ECF0E92
:10D7B000240ECD0E500ECD0E500E1E0FD20E1E0F8B
:10D7C000D20E720C550C720C550CF4080309F408B7
:10D7D0000309F408030956078F0756078F075E05EC
:10D7E000BE055E05BE052A04AA042A04AA0428026E
:10D7F000C4022802C402DE008F01DE008F01DE00B9
:10D800008F01C2FE81FFC2FE81FF1CFEE3FE1CFEF3
:10D81000E3FEC2FD8BFEC2FD8BFE52FB16FC52FBEB
:10D8200016FCB4F96EFAB4F96EFA34F9DFF934F98A
:10D83000DFF934F9DFF974F90BFA74F90BFA0DF921
:10D840008DF90DF98DF90CF972F90CF972F956F898
:10D85000A1F856F8A1F8D0F7FFF7D0F7FFF7C0F618
:10D86000D4F6C0F6D4F6C0F6D4F6B4F6AEF6B4F6F6
:10D87000AEF62EF50FF52EF50FF531F4FDF331F47C
:10D88000FDF317F5D0F417F5D0F429F5D1F429F507
:10D89000D1F429F5D1F414F7AFF614F7AFF6C9F8BF
:10D8A0005AF8C9F85AF8D1F85BF8D1F85BF817FACA
:10D8B0009BF917FA9BF9CFFB50FBCFFB50FBA7FD61
:10D8C00025FDA7FD25FDA7FD25FDBBFE37FEBBFE03
:10D8D00037FED8FD51FDD8FD51FD1DFF92FE1DFF05
:10D8E00092FE93000200930002008702EE0187027D
:10D8F000EE01E3033E03E3033E03E3033E030E05B1
:10D900005B040E055B0423075C0623075C0689089D
:10D91000AB078908AB070F0A16090F0A1609A60AF2
:10D920008F09A60A8F09A60A8F093A0B000A3A0B3B
:10D93000000A540DF50B540DF50BFB0E750DFB0E87
:10D94000750DEA0F3A0EEA0F3A0EF5101B0FF5109F
:10D950001B0F11120D1011120D1011120D10ED13DD
:10D96000C011ED13C011F2159D13F2159D13191876
:10D970009E1519189E151419761614197616CC1AB8
:10D980001018CC1A1018BF1CE919BF1CE919BF1CCC
:10D99000E919401D541A401D541AEC1DEF1AEC1DD4
:10D9A000EF1AB71EAE1BB71EAE1BBB1EAC1BBB1EB9
:10D9B000AC1BB11F9F1CB11F9F1CB11F9F1C9F2040
:10D9C000901D9F20901DFA21F11EFA21F11E602268
:10D9D000611F6022611F61216F1E61216F1E502037
:10D9E0006D1D50206D1DC91DF61AC91DF61AC91DE1
:10D9F000F61A3B1D7A1A3B1D7A1AFA1B4C19FA1BB0
:10DA00004C19F6195A17F6195A1715198A161519B5
:10DA10008A16FA188016FA1880167D1813167D18C3
:10DA200013167D1813166A180E166A180E161E178E
:10DA3000CF141E17CF141416D0131416D013331589
:10DA4000F9123315F912C3139311C3139311C313AE
:10DA500093117F1457127F1457123111110F311186
:10DA6000110F7E0F670D7E0F670DE510D70EE510C5
:10DA7000D70E51104D0E51104D0E3F10460E3F1057
:10DA8000460E3F10460EA210B60EA210B60ECF0FD5
:10DA9000F20DCF0FF20DD60E0A0DD60E0A0D170E8F
:10DAA0005F0C170E5F0C860DE40B860DE40B580C13
:10DAB000CF0A580CCF0A580CCF0ACD0A6009CD0AFC
:10DAC00060090C0ABB080C0ABB086E093D086E0908
:10DAD0003D08E708D707E708D707D906EB05D906B9
:10DAE000EB05D906EB059804CC039804CC030D0391
:10DAF00063020D03630292010B0192010B014E00C0
:10DB0000E9FF4E00E9FF54FF10FF54FF10FF6AFECB
:10DB100046FE6AFE46FE6AFE46FE67FD62FD67FD42
:10DB200062FDA0FCB6FCA0FCB6FCF7FB29FCF7FBF1
:10DB300029FCB5FAFFFAB5FAFFFA55FAB6FA55FA22
:10DB4000B6FA55FAB6FAD1F946FAD1F946FA7DF99C
:10DB500005FA7DF905FA0FF9A9F90FF9A9F997F76F
:10DB600041F897F741F83DF8F6F83DF8F6F8BAF8BD
:10DB700081F9BAF881F9BAF881F94CF821F94CF831
:10DB800021F96EF851F96EF851F947F737F847F770
:10DB900037F836F534F636F534F651F45DF551F4D0
:10DBA0005DF50CF427F50CF427F50CF427F573F567
:10DBB0009DF673F59DF654F68DF754F68DF724F720
:10DBC0006CF824F76CF8A8F7FFF8A8F7FFF824F62C
:10DBD0008AF724F68AF724F68AF769F5DEF669F5FE
:10DBE000DEF6EAF46DF6EAF46DF658F4E7F558F46B
:10DBF000E7F504F59FF604F59FF6CEF571F7CEF53F
:10DC000071F776F521F776F521F776F521F7F2F53C
:10DC1000A1F7F2F5A1F764F415F664F415F6D3F262
:10DC200084F4D3F284F42FF2DCF32FF2DCF345F228
:10DC3000ECF345F2ECF3E1F381F5E1F381F5E1F387
:10DC400081F579F20EF479F20EF41BF1A4F21BF1D6
:10DC5000A4F25DF1D7F25DF1D7F2FCF067F2FCF0CF
:10DC600067F2CFF129F3CFF129F3CFF129F38DF248
:10DC7000D7F38DF2D7F32AF265F32AF265F39BF21C
:10DC8000C7F39BF2C7F3BDF3DBF4BDF3DBF479F428
:10DC90008DF579F48DF570F27BF370F27BF370F211
:10DCA0007BF390F196F290F196F2FEF101F3FEF122
:10DCB00001F354F259F354F259F320F32BF420F307
:10DCC0002BF49CF2B0F39CF2B0F3ABF2CDF3ABF2D9
:10DCD000CDF3ABF2CDF331F264F331F264F358F1EA
:10DCE0009FF258F19FF255F0B4F155F0B4F128EEDF
:10DCF000A2EF28EEA2EF5BECF2ED5BECF2ED5BEC59
:10DD0000F2ED51EB07ED51EB07EDADEA83ECADEA37
:10DD100083EC29EA1FEC29EA1FECA7E9BDEBA7E990
:10DD2000BDEB59E98EEB59E98EEB34E987EB34E929
:10DD300087EB34E987EB03EA71EC03EA71EC26EA3E
:10DD4000ACEC26EAACEC70E90CEC70E90CEC3EE9CA
:10DD5000ECEB3EE9ECEB7AE836EB7AE836EB41E7C0
:10DD600007EA41E707EA41E707EA1FE8EBEA1FE8AD
:10DD7000EBEAB3E880EBB3E880EB3FE90AEC3FE97C
:10DD80000AEC3DEB02EE3DEB02EE5EEC19EF5EECD1
:10DD900019EF5EEC19EF8FEE3DF18FEE3DF182EF62
:10DDA00022F282EF22F25DF0ECF25DF0ECF275F11E
:10DDB000F2F375F1F2F32AF295F42AF295F4B2F245
:10DDC0000AF5B2F20AF5B2F20AF5AAF1F0F3AAF1F5
:10DDD000F0F320F055F220F055F287EFADF187EF28
:10DDE000ADF1CCEFE5F1CCEFE5F1D0EFDFF1D0EF25
:10DDF000DFF1E7EFEFF1E7EFEFF1E7EFEFF14EEFF4
:10DE000052F14EEF52F1DBEFDEF1DBEFDEF195EF99
:10DE10009BF195EF9BF100F00CF200F00CF2D0F0CA
:10DE2000E4F2D0F0E4F2D0F0E4F241EF61F141EF3E
:10DE300061F10EEF3BF10EEF3BF125EF61F125EFC4
:10DE400061F131EF7DF131EF7DF1ABEF06F2ABEF38
:10DE500006F232EF9CF132EF9CF132EF9CF1E0EEF2
:10DE600058F1E0EE58F168EEECF068EEECF0A4EE5C
:10DE700031F1A4EE31F195EE27F195EE27F147EC63
:10DE8000DAEE47ECDAEEBDEB4CEEBDEB4CEEBDEB63
:10DE90004CEE22ECA9EE22ECA9EEF2EC6AEFF2ECE9
:10DEA0006AEFE6ED49F0E6ED49F0D4EC1CEFD4EC76
:10DEB0001CEFDCEC02EFDCEC02EFDCEC02EF58EEE6
:10DEC00058F058EE58F0A3EF77F1A3EF77F15BF03D
:10DED000FDF15BF0FDF1D0F03CF2D0F03CF230F21D
:10DEE00062F330F262F3ACF3A0F4ACF3A0F4ACF361
:10DEF000A0F431F5E7F531F5E7F515F689F615F6F5
:10DF000089F6C0F7F3F7C0F7F3F775F968F975F913
:10DF100068F914FAC7F914FAC7F961FCD7FB61FC78
:10DF2000D7FB61FCD7FB45FD81FC45FD81FC87FDEE
:10DF30008EFC87FD8EFC9CFF71FE9CFF71FEEA004B
:10DF400092FFEA0092FF6F01F0FF6F01F0FF6F0197
:10DF5000F0FF4303A3014303A301A804ED02A804B7
:10DF6000ED02FD052C04FD052C0410082F061008F9
:10DF70002F068A0A9E088A0A9E08B60CC50AB60CA5
:10DF8000C50AB60CC50A680D760B680D760B220E15
:10DF9000340C220E340C5A0E710C5A0E710CC50E34
:10DFA000E50CC50EE50CD10FFC0DD10FFC0D0B10CF
:10DFB000410E0B10410E0B10410E08104A0E0810B6
:10DFC0004A0ED310200FD310200F9410EC0E941093
:10DFD000EC0E0C116E0F0C116E0FB010180FB0106C
:10DFE000180FB010180FEB0F590EEB0F590E47100A
:10DFF000B80E4710B80EBA0F2C0EBA0F2C0E041123
:10E00000750F0411750F1311810F1311810FCD0FAF
:10E01000360ECD0F360ECD0F360E1E10810E1E1091
:10E02000810E4511A00F4511A00FB2120511B212B9
:10E0300005117514C1127514C112C6150B14C6153D
:10E040000B14C6150B14AC16EC14AC16EC143A16E3
:10E0500077143A1677145615921356159213A8147E
:10E06000E612A814E6123412761034127610C81193
:10E070001310C8111310C811131044139B1144132B
:10E080009B11C0142613C01426138F1408138F1469
:10E0900008131D13AD111D13AD11B8126111B81283
:10E0A00061117B123F117B123F117B123F11FB125A
:10E0B000DE11FB12DE111E1222111E122211581146
:10E0C0007E1058117E104E10960F4E10960F930E24
:10E0D000FE0D930EFE0D930EFE0DA70D340DA70D34
:10E0E000340DB70A650AB70A650A540823085408AC
:10E0F00023080D06FB050D06FB0532043C04320423
:10E100003C04A903CE03A903CE03A903CE03C70190
:10E110000302C70103025600A6005600A6005400E1
:10E12000B6005400B600EDFE5EFFEDFE5EFF0AFD98
:10E1300087FD0AFD87FDB0FC36FDB0FC36FDB0FC66
:10E1400036FD84FB10FC84FB10FCF6F985FAF6F929
:10E1500085FA36F9C6F936F9C6F983F912FA83F960
:10E1600012FA58F9E3F958F9E3F958F9E3F940F8E4
:10E17000C6F840F8C6F83DF7BDF73DF7BDF7FFF527
:10E1800076F6FFF576F64CF5B9F54CF5B9F553F59D
:10E19000B4F553F5B4F588F4DDF488F4DDF488F4CF
:10E1A000DDF4E3F32AF4E3F32AF4F5F42CF5F5F4C3
:10E1B0002CF59EF6C4F69EF6C4F60DF920F90DF97D
:10E1C00020F961FA61FA61FA61FAE8FAD2FAE8FA3A
:10E1D000D2FAE8FAD2FA43FB17FB43FB17FB44FBE6
:10E1E00000FB44FB00FB21FDC3FC21FDC3FCEAFD59
:10E1F0006FFDEAFD6FFDD4FD3CFDD4FD3CFDD4FD7B
:10E200003CFD260070FF260070FFD401FE00D40103
:10E21000FE0034033D0234033D02FB04E203FB0431
:10E22000E203CB058F04CB058F043607D7053607ED
:10E23000D7053607D705BF083B07BF083B07EC0AE1
:10E240004409EC0A4409710BA509710BA509CF0A11
:10E25000DE08CF0ADE08F70BE309F70BE309A00E8F
:10E26000690CA00E690CA00E690C1B12C30F1B12C7
:10E27000C30FB2133A11B2133A11B3151C13B315ED
:10E280001C13F3173F15F3173F15BF19F016BF19ED
:10E29000F016BF19F016E61BFE18E61BFE18D91C77
:10E2A000DA19D91CDA19831D701A831D701A551ECC
:10E2B0002F1B551E2F1BE71FB11CE71FB11CFA2097
:10E2C000B71DFA20B71DFA20B71DF620A81DF620AD
:10E2D000A81DAB21531EAB21531E7722191F772295
:10E2E000191F7C221A1F7C221A1F4322DF1E432281
:10E2F000DF1EB1204E1DB1204E1DB1204E1DB61E99
:10E30000551BB61E551B411EE51A411EE51A421D3E
:10E31000EC19421DEC19871C3B19871C3B19521C38
:10E320001119521C1119521C1119741B4018741B1D
:10E330004018221AFD16221AFD1689197516891918
:10E340007516E219E116E219E116B318C715B318EC
:10E35000C7154617701446177014461770147815B1
:10E36000BA127815BA1220137C1020137C107C127C
:10E37000F30F7C12F30F9C1231109C123110E0103D
:10E38000920EE010920E6F0F410D6F0F410D6F0F47
:10E39000410DAE0EA00CAE0EA00CAF0DC20BAF0D1A
:10E3A000C20B110E460C110E460C4B0DA10B4B0D62
:10E3B000A10B420CBA0A420CBA0A420CBA0AC90AA8
:10E3C0006309C90A630971092C0871092C086209DB
:10E3D0003E0862093E08CF06CC05CF06CC05760480
:10E3E000930376049303EB032603EB032603EB036B
:10E3F00026036602BE016602BE01250198002501C2
:10E40000980078FF05FF78FF05FF39FEDEFD39FE35
:10E41000DEFD40FDFBFC40FDFBFCF1FCC1FCF1FC22
:10E42000C1FCF1FCC1FCE3FDC7FDE3FDC7FDD3FC6E
:10E43000C8FCD3FCC8FCBCFBC2FBBCFBC2FB38FB6A
:10E440004DFB38FB4DFB8AFBAEFB8AFBAEFB8AFB28
:10E45000AEFBE1FB13FCE1FB13FCD5FA13FBD5FA91
:10E4600013FB86FAD1FA86FAD1FAC4FA1BFBC4FA76
:10E470001BFB6AFBCEFB6AFBCEFB3DFCAEFC3DFC0E
:10E48000AEFC3DFCAEFC55FBD3FB55FBD3FB1AFAAF
:10E49000A6FA1AFAA6FA70F90BFA70F90BFA34F91F
:10E4A000DEF934F9DEF9DEF898F9DEF898F99EF82D
:10E4B00069F99EF869F99EF869F91BF9F8F91BF9F1
:10E4C000F8F9CCF8BAF9CCF8BAF900F901FA00F980
:10E4D00001FAD9F8EDF9D9F8EDF985F7ACF885F737
:10E4E000ACF885F7ACF82AF763F82AF763F816F862
:10E4F00060F916F860F922F97CFA22F97CFA63F9DE
:10E50000CCFA63F9CCFAE0F857FAE0F857FA1EF9BA
:10E51000A0FA1EF9A0FA1EF9A0FAFAF785F9FAF79F
:10E5200085F988F618F888F618F8ECF680F8ECF615
:10E5300080F8A6F63BF8A6F63BF8EDF580F7EDF58A
:10E5400080F7EDF580F7DBF469F6DBF469F683F329
:10E5500009F583F309F5CBF246F4CBF246F4A2F2C7
:10E5600010F4A2F210F49DF1FBF29DF1FBF28BF19D
:10E57000D8F28BF1D8F28BF1D8F29EF1D9F29EF15C
:10E58000D9F2EFF117F3EFF117F3F8F20BF4F8F219
:10E590000BF42AF32AF42AF32AF406F3F2F306F32F
:10E5A000F2F383F15EF283F15EF283F15EF267F1E2
:10E5B00032F267F132F2AEF26BF3AEF26BF302F1CC
:10E5C000B4F102F1B4F1CBEF74F0CBEF74F001F0E1
:10E5D000A5F001F0A5F001F0A5F00FF0B3F00FF0F9
:10E5E000B3F021F0C7F021F0C7F01AEFC6EF1AEF31
:10E5F000C6EF69EE20EF69EE20EF65EC29ED65ECE2
:10E6000029ED00ECD5EC00ECD5EC00ECD5EC3AECC7
:10E6100023ED3AEC23ED3CEA3BEB3CEA3BEBE2E852
:10E62000F9E9E2E8F9E9AAE8DAE9AAE8DAE9A1E928
:10E63000ECEAA1E9ECEA98EAFDEB98EAFDEB98EA4E
:10E64000FDEB7FEAFEEB7FEAFEEB5DEAF3EB5DEAD2
:10E65000F3EB47EAF4EB47EAF4EBCBE98CEBCBE9DD
:10E660008CEB9CE96DEB9CE96DEB9CE96DEB3AE979
:10E6700018EB3AE918EB6CE954EB6CE954EB79EAE6
:10E6800066EC79EA66ECFEEBECEDFEEBECEDF5EB1F
:10E69000E0EDF5EBE0EDA8EC8BEEA8EC8BEEA8EC52
:10E6A0008BEEB4ED8CEFB4ED8CEFEBEDB5EFEBED65
:10E6B000B5EFECEFA6F1ECEFA6F184F12AF384F1CB
:10E6C0002AF37EF111F37EF111F3C6F143F3C6F1A3
:10E6D00043F3C6F143F3ECF155F3ECF155F318F2C3
:10E6E0006DF318F26DF318F25BF318F25BF344F17B
:10E6F00078F244F178F2D9F000F2D9F000F2D9F0D2
:10E7000000F28BEEABEF8BEEABEF27EE43EF27EE95
:10E7100043EF5DEF7BF05DEF7BF079EF9DF079EFFC
:10E720009DF04FEF7FF04FEF7FF069EFABF069EFB7
:10E73000ABF069EFABF0F7EE4FF0F7EE4FF041EED4
:10E74000B4EF41EEB4EF66EEF8EF66EEF8EFD3ED1E
:10E7500087EFD3ED87EF84ED5EEF84ED5EEF41ED63
:10E7600042EF41ED42EF41ED42EFFDED27F0FDEDCF
:10E7700027F0D5ED27F0D5ED27F0D1EC49EFD1EC1E
:10E7800049EFF3EB90EEF3EB90EEFFE9BCECFFE921
:10E79000BCECFFE9BCECB5E98DECB5E98DECCFE95B
:10E7A000BEECCFE9BEECA0E89FEBA0E89FEBC4E88D
:10E7B000CCEBC4E8CCEB6DE876EB6DE876EB33E9B7
:10E7C00034EC33E934EC33E934EC66EA58ED66EACC
:10E7D00058EDE6EABFEDE6EABFEDE6EBA0EEE6EBCC
:10E7E000A0EE20ECB0EE20ECB0EE2FEE90F02FEE8D
:10E7F00090F00AF133F30AF133F30AF133F3F7F14E
:10E80000E3F3F7F1E3F387F230F487F230F4C0F486
:10E8100023F6C0F423F6FCF615F8FCF615F8E3F839
:10E82000B0F9E3F8B0F9E3F8B0F90BFA8BFA0BFAA8
:10E830008BFA76FBAAFB76FBAAFB12FDFCFC12FD11
:10E84000FCFC4EFFEFFE4EFFEFFEB5001200B500E0
:10E850001200280145002801450028014500050255
:10E86000E7000502E7002104CD022104CD021007D4
:10E870008D0510078D05FC075006FC075006080A99
:10E880003A08080A3A08380B4F09380B4F09380B79
:10E890004F09B80BB909B80BB9096F0D620B6F0DB1
:10E8A000620B4D0E370C4D0E370CBC0EA20CBC0E7D
:10E8B000A20CEE10D40EEE10D40EEE10D40E4C12AC
:10E8C00037104C123710DC12CE10DC12CE100513AC
:10E8D000031105130311E712F110E712F1109C1256
:10E8E000B3109C12B3106311890F6311890F631168
:10E8F000890F4A117E0F4A117E0F5511960F55113F
:10E90000960F30117E0F30117E0F8510DE0E8510B0
:10E91000DE0E3510990E3510990E770FE30D770F37
:10E92000E30D770FE30D1510880E1510880EF0100B
:10E93000680FF010680FA6112310A61123108C1277
:10E940000D118C120D11AD133112AD133112AD1327
:10E9500031120015861300158613FA138312FA1369
:10E9600083125C13E9115C13E9119D122E119D12A3
:10E970002E1196102E0F96102E0F2811C80F281149
:10E98000C80F2811C80F1E12C8101E12C810A310DD
:10E99000590FA310590F4110070F4110070FC60F51
:10E9A0009E0EC60F9E0E0410F00E0410F00E1510F1
:10E9B000190F1510190F1510190FC20FE10EC20F04
:10E9C000E10EB90FF40EB90FF40E420E9C0D420E7B
:10E9D0009C0D890D020D890D020D910D2C0D910DCF
:10E9E0002C0D910D2C0D170CD50B170CD50BF30915
:10E9F000D409F309D40918081C0818081C08F706DC
:10EA00001D07F7061D079F05E6059F05E605290476
:10EA10008E0429048E0429048E0418039B03180312
:10EA20009B031602B4021602B4023B02F1023B023F
:10EA3000F1020901D3010901D301C0FF9C00C0FF0D
:10EA40009C00C0FF9C0038FE23FF38FE23FF66FDBC
:10EA50005CFE66FD5CFE6DFC6AFD6DFC6AFD1EFBE6
:10EA600020FC1EFB20FC3DFA3FFB3DFA3FFB0BF96F
:10EA70000AFA0BF90AFA0BF90AFA8EF888F98EF8F5
:10EA800088F9CFF8C1F9CFF8C1F913F8FBF813F8FA
:10EA9000FBF8B0F68AF7B0F68AF74CF718F84CF79F
:10EAA00018F83AF7F6F73AF7F6F73AF7F6F7CFF736
:10EAB0007AF8CFF77AF8BCF854F9BCF854F938FA78
:10EAC000BCFA38FABCFA9AFA09FB9AFA09FBBDFAC1
:10EAD00018FBBDFA18FBBDFA18FB9EFBE3FB9EFB7F
:10EAE000E3FB63FC92FC63FC92FC97FDAFFD97FD9A
:10EAF000AFFDFEFEFFFEFEFEFFFE22000C00220028
:10EB00000C00820054008200540082005400B201C4
:10EB10006C01B2016C01D3017401D30174015C0278
:10EB2000E4015C02E401C0022E02C0022E021E04B7
:10EB300071031E047103010639050106390501063A
:10EB4000390570068C0570068C05BD07BC06BD072F
:10EB5000BC06F407D706F407D7060C07D1050C0747
:10EB6000D105D8098008D8098008D8098008710B18
:10EB7000FC09710BFC09060C740A060C740A7D0E64
:10EB8000CF0C7D0ECF0CC90FFF0DC90FFF0D4C111F
:10EB9000680F4C11680FBC12BE10BC12BE10BC1224
:10EBA000BE1078156213781562133E1712153E17C2
:10EBB00012151C18DC151C18DC15F419A217F41911
:10EBC000A217791B1619791B1619151CA419151CE7
:10EBD000A419151CA419421DC51A421DC51AA71F48
:10EBE000221DA71F221DDA214D1FDA214D1FD12121
:10EBF0003F1FD1213F1F6421D01E6421D01E6421FC
:10EC0000D01EA5200F1EA5200F1EFF1E6B1CFF1E71
:10EC10006B1CCE1E3D1CCE1E3D1CB41E271CB41EFC
:10EC2000271C071E801B071E801B3C1DBC1A3C1D99
:10EC3000BC1A3C1DBC1ADE1C671ADE1C671A381C85
:10EC4000C919381CC919661B0119661B0119211A3B
:10EC5000C817211AC8176A181D166A181D160E172C
:10EC6000CE140E17CE140E17CE14C3169014C3165E
:10EC700090146D1449126D144912A8139311A8131E
:10EC80009311CE13CB11CE13CB11131321111313E8
:10EC9000211113132111A912CB10A912CB100711A6
:10ECA0003E0F07113E0F3710840E3710840EAC0E46
:10ECB000110DAC0E110D290EA80C290EA80C4F0D2C
:10ECC000E90B4F0DE90B4F0DE90B160CCD0A160C95
:10ECD000CD0A1C0BF1091C0BF109CD0AC309CD0AA1
:10ECE000C3094A0961084A0961087908B107790826
:10ECF000B107AF070907AF070907AF070907760490
:10ED0000F2037604F2034302E2014302E20154FFFC
:10ED100015FF54FF15FF89FD6AFD89FD6AFD10FD91
:10ED200012FD10FD12FD10FD12FDB3FCD3FCB3FC6F
:10ED3000D3FC74FDB0FD74FDB0FDDAFC2FFDDAFCF0
:10ED40002FFD48FBB3FB48FBB3FBE6FB66FCE6FB91
:10ED500066FCC6FA56FBC6FA56FBC6FA56FB50F9D5
:10ED6000EEF950F9EEF90EF9B6F90EF9B6F951F9D6
:10ED700000FA51F900FA3BF9EEF93BF9EEF958F9CE
:10ED80000DFA58F90DFAF8F9ACFAF8F9ACFAF8F905
:10ED9000ACFAD9F889F9D9F889F98EF839F98EF8E9
:10EDA00039F926F9CAF926F9CAF920F9BDF920F985
:10EDB000BDF91CF9B1F91CF9B1F91CF9B1F978F9EF
:10EDC00005FA78F905FAE9F96EFAE9F96EFAA4FAA2
:10EDD00022FBA4FA22FB01FA79FA01FA79FA3EFA47
:10EDE000B3FA3EFAB3FA45FAB7FA45FAB7FA45FA72
:10EDF000B7FA5CFACFFA5CFACFFA24FB9AFB24FB51
:10EE00009AFB3DFBB8FB3DFBB8FB25FBA7FB25FBB5
:10EE1000A7FBE7FB74FCE7FB74FCF7FC91FDF7FC38
:10EE200091FDF7FC91FD0CFCB4FC0CFCB4FC47FB21
:10EE3000FFFB47FBFFFB29FBF3FB29FBF3FB7DF902
:10EE40005BFA7DF95BFA2EF820F92EF820F92EF8FE
:10EE500020F928F82FF928F82FF90BF627F70BF6E9
:10EE600027F750F581F650F581F6E0F426F6E0F448
:10EE700026F600F55AF600F55AF66FF5DDF66FF551
:10EE8000DDF66FF5DDF649F5CAF649F5CAF624F563
:10EE9000B7F624F5B7F6CAF46FF6CAF46FF68CF439
:10EEA00041F68CF441F63DF402F63DF402F6FAF335
:10EEB000CFF5FAF3CFF5FAF3CFF534F318F534F3D1
:10EEC00018F549F33DF549F33DF592F295F492F2C8
:10EED00095F4C2F2D6F4C2F2D6F4A5F1C9F3A5F1C5
:10EEE000C9F3A5F1C9F30CF042F20CF042F206EFBF
:10EEF0004FF106EF4FF102EE5FF002EE5FF0DCEC57
:10EF00004FEFDCEC4FEFABEB36EEABEB36EEF5EA6A
:10EF100098EDF5EA98EDF5EA98ED09EAC5EC09EA0D
:10EF2000C5EC73E84AEB73E84AEB7BE76DEA7BE7F5
:10EF30006DEA80E78DEA80E78DEA75E69DE975E682
:10EF40009DE975E69DE927E669E927E669E912E5A5
:10EF50006CE812E56CE80DE57EE80DE57EE87EE400
:10EF600003E87EE403E854E4EAE754E4EAE751E521
:10EF7000F3E851E5F3E851E5F3E869E513E969E5FC
:10EF800013E9ABE65AEAABE65AEABAE767EBBAE747
:10EF900067EB35E8DCEB35E8DCEB07E9A2EC07E9E9
:10EFA000A2ECE2E86CECE2E86CECE2E86CEC97EAEC
:10EFB0000BEE97EA0BEE6BEDC4F06BEDC4F038EEA0
:10EFC00071F138EE71F166EE7CF166EE7CF1CBEE1C
:10EFD000BAF1CBEEBAF1CBEEBAF13DF002F33DF06F
:10EFE00002F3EEF089F3EEF089F323F292F423F2C8
:10EFF00092F435F279F435F279F4EBF105F4EBF1B2
:10F0000005F44DF13FF34DF13FF34DF13FF384EF44
:10F0100050F184EF50F154EE00F054EE00F0A4EE05
:10F0200033F0A4EE33F05BEED3EF5BEED3EF50EFB3
:10F03000B6F050EFB6F011F06CF111F06CF111F088
:10F040006CF1ABED00EFABED00EF4DEDA3EE4DED50
:10F05000A3EEE1ED3DEFE1ED3DEF17EF7FF017EFB0
:10F060007FF078EFF0F078EFF0F078EFF0F069F003
:10F07000F6F169F0F6F18BF031F28BF031F25EEFE0
:10F080001EF15EEF1EF14CEE27F04CEE27F036ED50
:10F090002EEF36ED2EEF51EC64EE51EC64EE51ECB8
:10F0A00064EECFEBFAEDCFEBFAED10EB51ED10EB98
:10F0B00051ED59EBABED59EBABEDFDEB5BEEFDEB41
:10F0C0005BEEFBEA60EDFBEA60EDBBEA1FEDBBEA3D
:10F0D0001FEDBBEA1FED3BEA97EC3BEA97ECB0EA89
:10F0E000FDECB0EAFDEC66EB9CED66EB9CED31ECE3
:10F0F00048EE31EC48EE77ED68EF77ED68EF77EDAD
:10F1000068EF6BEF2FF16BEF2FF1CFEF60F1CFEFE7
:10F1100060F168F1C0F268F1C0F29AF2B5F39AF2C8
:10F12000B5F322F3FBF322F3FBF3DAF46FF5DAF431
:10F130006FF5DAF46FF542F692F642F692F6C8F8F9
:10F14000D0F8C8F8D0F89BF95DF99BF95DF9B2FAEF
:10F1500030FAB2FA30FA93FBCEFA93FBCEFAB5FC52
:10F16000B2FBB5FCB2FBB5FCB2FB00FFC2FD00FF79
:10F17000C2FD6501F0FF6501F0FFA8030102A803CD
:10F1800001021805450318054503A105A703A105BC
:10F19000A703A105A70356073A0556073A057C09B8
:10F1A00043077C0943079C0B4B099C0B4B09330D10
:10F1B000CF0A330DCF0AEA0F770DEA0F770DF21160
:10F1C000720FF211720FF211720F4F12C60F4F121F
:10F1D000C60F02147311021473119314FF119314C8
:10F1E000FF11FC146312FC14631205166913051653
:10F1F0006913D7153813D7153813D7153813DA1301
:10F200003711DA133711C8122110C8122110FD105E
:10F21000530EFD10530E0211530E0211530EDE1049
:10F220002B0EDE102B0EDE102B0E7F10C70D7F1065
:10F23000C70DF8103B0EF8103B0E0E124D0F0E12BC
:10F240004D0FB013EB10B013EB106F13A8106F132A
:10F25000A8102E1468112E1468112E1468113B1476
:10F2600077113B147711B313F510B313F5105B133B
:10F27000A4105B13A410A512FA0FA512FA0F3511F2
:10F280009A0E35119A0E9F11170F9F11170F9F118C
:10F29000170FD111610FD111610F0812B40F0812AD
:10F2A000B40FE211AC0FE211AC0F4611330F46114F
:10F2B000330FC810DB0EC810DB0EC810DB0E840F36
:10F2C000BF0D840FBF0D9F0E050D9F0E050D150E72
:10F2D000A80C150EA80C130DD30B130DD30B5F0C3C
:10F2E0004C0B5F0C4C0B7D0C970B7D0C970B7D0C26
:10F2F000970BBC0A030ABC0A030A8D09FF088D0993
:10F30000FF086D0708076D0708073305F404330588
:10F31000F404FF02E302FF02E3023A023E023A0271
:10F320003E023A023E02D701F901D701F901E0009D
:10F330001B01E0001B018900DB008900DB0084FF6A
:10F34000E9FF84FFE9FFBAFE2EFFBAFE2EFFBAFEE8
:10F350002EFF0BFE8CFE0BFE8CFE48FDD4FD48FDFF
:10F36000D4FDB5FC4AFDB5FC4AFDCCFB68FCCCFBEA
:10F3700068FCD0FA72FBD0FA72FB11FBB7FB11FBF1
:10F38000B7FB11FBB7FB20FBC9FB20FBC9FB7DFBD7
:10F3900029FC7DFB29FC60FA0FFB60FA0FFB8CFA5D
:10F3A0003DFB8CFA3DFBACFA5FFBACFA5FFB74FAF9
:10F3B00029FB74FA29FB74FA29FB62FB19FC62FB36
:10F3C00019FCDBFB92FCDBFB92FC21FCD8FC21FC52
:10F3D000D8FCC4FC79FDC4FC79FD4CFDFDFD4CFD61
:10F3E000FDFD4CFDFDFDF9FDA5FEF9FDA5FE2EFF81
:10F3F000D0FF2EFFD0FF1600AC001600AC00BB0102
:10F400004102BB01410291020203910202037E0309
:10F41000D6037E03D6037E03D6038103BC03810398
:10F42000BC03F0040805F004080540063006400659
:10F430003006F006B306F006B306DE076F07DE07F8
:10F440006F07DE076F077F08D9077F08D9073B08DA
:10F450005B073B085B07A8088A07A8088A07830997
:10F460002508830925083D0A9C083D0A9C087C0C58
:10F47000970A7C0C970A7C0C970A740D4B0B740D41
:10F480004B0BF90E8C0CF90E8C0C6B0FBD0C6B0F2B
:10F49000BD0C6A107B0D6A107B0DEF11C50EEF11CC
:10F4A000C50EAD134B10AD134B10AD134B109F1584
:10F4B00009129F1509122717641327176413BD1724
:10F4C000D213BD17D2134619391546193915D31A57
:10F4D000AB16D31AAB16D31AAB168D1B51178D1B57
:10F4E0005117DE1D9419DE1D9419F71FA61BF71F77
:10F4F000A61BE0208E1CE0208E1C0220B51B0220E3
:10F50000B51B0720C51B0720C51B0720C51B4A1FAD
:10F51000161B4A1F161BA31D8219A31D8219331D1A
:10F520002819331D28190A1D17190A1D17193E1C01
:10F5300066183E1C6618B81CFC18B81CFC18B81CD1
:10F54000FC18A11C0219A11C0219351CB318351C8A
:10F55000B318FE1A9917FE1A99175C1A13175C1A3A
:10F560001317B7198916B7198916B71989165518B7
:10F57000421555184215C717CE14C717CE14641676
:10F58000831364168313A316DA13A316DA134A1629
:10F5900099134A1699137515DB127515DB1275153B
:10F5A000DB12F9137611F91376111D13B1101D1327
:10F5B000B1109B1247109B124710B9117E0FB91161
:10F5C0007E0FD410B40ED410B40EB90FB50DB90F10
:10F5D000B50DB90FB50D930DAD0B930DAD0B600CC3
:10F5E0009B0A600C9B0A020C5F0A020C5F0A340B38
:10F5F000B609340BB609550AFD08550AFD08550A27
:10F60000FD08FB07CB06FB07CB06E305DD04E3059E
:10F61000DD0465038A0265038A02C4001400C40085
:10F620001400BDFF38FFBDFF38FF9FFF45FF9FFF60
:10F6300045FF9FFF45FFE8FDB8FDE8FDB8FDE1FD92
:10F64000D9FDE1FDD9FDD3FCF2FCD3FCF2FC3AFC80
:10F650007CFC3AFC7CFC2FFC90FC2FFC90FCBEFB5D
:10F660003CFCBEFB3CFCBEFB3CFC32FCC8FC32FC60
:10F67000C8FC40FBE9FB40FBE9FB71FA2AFB71FA8D
:10F680002AFB4DF910FA4DF910FA69F833F969F8C7
:10F6900033F969F833F9EFF7BBF8EFF7BBF8A2F7E6
:10F6A0006BF8A2F76BF8FEF6C2F7FEF6C2F717F892
:10F6B000D2F817F8D2F87BF829F97BF829F9DAF8AB
:10F6C0007BF9DAF87BF9DAF87BF9C1F853F9C1F87C
:10F6D00053F9A8F82AF9A8F82AF9CFF841F9CFF890
:10F6E00041F943F8A6F843F8A6F89AF8EFF89AF823
:10F6F000EFF81CF865F81CF865F81CF865F852F787
:10F7000093F752F793F76FF7A9F76FF7A9F7BDF7DC
:10F71000F4F7BDF7F4F727F860F827F860F881F9F7
:10F72000BFF981F9BFF981F9BFF9A2FAE9FAA2FAA2
:10F73000E9FA73FBC7FB73FBC7FBABFA10FBABFA31
:10F7400010FB4DFAC8FA4DFAC8FADAF86EF9DAF891
:10F750006EF91CF8CCF81CF8CCF81CF8CCF855F76E
:10F7600026F855F726F8FDF5F0F6FDF5F0F6EBF581
:10F7700002F7EBF502F7EDF52BF7EDF52BF7C2F5F8
:10F7800028F7C2F528F798F427F698F427F698F4A6
:10F7900027F6B6F46FF6B6F46FF66CF54FF76CF526
:10F7A0004FF711F51EF711F51EF7C0F4F7F6C0F488
:10F7B000F7F64DF5ACF74DF5ACF74DF5ACF723F496
:10F7C000ABF623F4ABF641F4F0F641F4F0F6F5F3C2
:10F7D000CAF6F5F3CAF6C2F2BCF5C2F2BCF5BFF147
:10F7E000DDF4BFF1DDF42BF16BF42BF16BF42BF1B5
:10F7F0006BF4D6F036F4D6F036F4C5EF45F3C5EF2A
:10F8000045F37EEE1BF27EEE1BF2A5ED5EF1A5ED5B
:10F810005EF1A7EC7BF0A7EC7BF0D2EABEEED2EA79
:10F82000BEEED2EABEEE5AEA5CEE5AEA5CEE30E98F
:10F8300046ED30E946ED35E95DED35E95DED3DE953
:10F8400074ED3DE974EDC9E80CEDC9E80CEDC9E8CB
:10F850000CEDCEE71AECCEE71AECB3E605EBB3E617
:10F8600005EBF6E54AEAF6E54AEA00E552E900E585
:10F8700052E930E47CE830E47CE88FE4D1E88FE4BE
:10F88000D1E88FE4D1E866E499E866E499E888E491
:10F89000A9E888E4A9E8D9E5E3E9D9E5E3E996E64A
:10F8A00084EA96E684EAFBE7CAEBFBE7CAEB4FE89B
:10F8B000FAEB4FE8FAEB4FE8FAEB32E9B7EC32E952
:10F8C000B7EC2FE98AEC2FE98AEC04E932EC04E981
:10F8D00032EC29E928EC29E928ECC1E991ECC1E9ED
:10F8E00091ECC1E991ECE7EA87EDE7EA87ED21EDDC
:10F8F00091EF21ED91EFB2EEF3F0B2EEF3F0D1EE35
:10F90000E4F0D1EEE4F00BEEF3EF0BEEF3EF1AEDD3
:10F91000DAEE1AEDDAEE1AEDDAEE12EDAEEE12EDE7
:10F92000AEEEC2EC3EEEC2EC3EEE80EDE0EE80EDDF
:10F93000E0EE85EDCEEE85EDCEEEF7ED2FEFF7EDB7
:10F940002FEFF7ED2FEFAFEDDBEEAFEDDBEE26EDBA
:10F950004CEE26ED4CEE6DED91EE6DED91EE6BEE15
:10F9600093EF6BEE93EF3EEF6EF03EEF6EF0B2EF83
:10F97000EEF0B2EFEEF0B2EFEEF03EF08AF13EF0D4
:10F980008AF12DF18AF22DF18AF2B0F023F2B0F073
:10F9900023F251F0D9F151F0D9F193EF30F193EF17
:10F9A00030F16AED1CEF6AED1CEF6AED1CEFA0ED83
:10F9B00065EFA0ED65EF09EEDFEF09EEDFEFEBEDB0
:10F9C000D0EFEBEDD0EF0FEDFEEE0FEDFEEE4AEDDA
:10F9D00040EF4AED40EF4AED40EF35ED2CEF35EDCD
:10F9E0002CEF3BED2DEF3BED2DEF77ED60EF77ED5D
:10F9F00060EFB0EE89F0B0EE89F08DEF51F18DEF50
:10FA000051F19FF048F29FF048F29FF048F2F8F170
:10FA100081F3F8F181F3E6F14AF3E6F14AF300F3FA
:10FA20003AF400F33AF41AF426F51AF426F5E0F560
:10FA3000BBF6E0F5BBF659F700F859F700F859F7AF
:10FA400000F8D9F849F9D9F849F9FFF938FAFFF976
:10FA500038FACDF9CEF9CDF9CEF90BFAD5F90BFA82
:10FA6000D5F948FBDBFA48FBDBFA48FBDBFAC5FBC0
:10FA700022FBC5FB22FB79FEA3FD79FEA3FD140149
:10FA80000D0014010D00BD028801BD028801CA03EA
:10FA90006B02CA036B0291040A0391040A039104E6
:10FAA0000A031E0674041E06740431076705310735
:10FAB000670573098D0773098D07780B7A09780B31
:10FAC0007A09A60C930AA60C930A790D550B790DA9
:10FAD000550B790D550B8D0F5B0D8D0F5B0D751152
:10FAE000370F7511370F4613FF104613FF104D14D3
:10FAF000FF114D14FF11A6155313A6155313A61588
:10FB000053131F15C8121F15C812F813A011F813AC
:10FB1000A0114513ED104513ED101B12C30F1B125E
:10FB2000C30F3412DD0F3412DD0F0C12B70F0C129D
:10FB3000B70F0C12B70F9312411093124110B41269
:10FB40006510B4126510E9129F10E9129F10D413CA
:10FB50008F11D4138F11F414B512F414B51250167A
:10FB600019145016191450161914A7177815A71739
:10FB70007815D716B414D716B41494167D149416A9
:10FB80007D1465155C1365155C1398149F12981409
:10FB90009F1298149F1237155113371551139E1544
:10FBA000CD139E15CD134E1594134E1594133F147B
:10FBB0009E123F149E127214EC127214EC12F01387
:10FBC0008712F0138712F013871251130812511382
:10FBD000081295126D1195126D11AE11A810AE118B
:10FBE000A81081109E0F81109E0F9010D20F9010C0
:10FBF000D20F900FF60E900FF60E900FF60EAF0D7F
:10FC00003A0DAF0D3A0D610B100B610B100B3F0954
:10FC100011093F091109C207B607C207B6071F0637
:10FC200034061F0634061F0634069504C9049504DD
:10FC3000C9041E036D031E036D03AF011802AF015B
:10FC40001802FE007E01FE007E010F00A2000F00E0
:10FC5000A2006EFD12FE6EFD12FE6EFD12FEC1FCD4
:10FC600071FDC1FC71FD3DFCF7FC3DFCF7FC7BFB2D
:10FC70003BFC7BFB3BFC9FFA61FB9FFA61FB10FAAC
:10FC8000D2FA10FAD2FACEF88CF9CEF88CF9CEF876
:10FC90008CF9C3F77BF8C3F77BF81FF7CDF71FF795
:10FCA000CDF72AF6CBF62AF6CBF698F52CF698F592
:10FCB0002CF66BF6EEF66BF6EEF66BF6EEF6B8F7A4
:10FCC00029F8B8F729F8BFF71DF8BFF71DF84EF768
:10FCD00097F74EF797F757F78AF757F78AF7D6F857
:10FCE000F3F8D6F8F3F8CAF9CFF9CAF9CFF9CAF997
:10FCF000CFF9A1FB8EFBA1FB8EFBDBFCB1FCDBFC97
:10FD0000B1FCCDFD8AFDCDFD8AFDD6FE7BFED6FE83
:10FD10007BFE7400010074000100D6014A01D60187
:10FD20004A01D6014A0115037002150370029904B5
:10FD3000DB039904DB03C305EC04C305EC042506CF
:10FD4000350525063505BE06B405BE06B405BE0656
:10FD5000B40530070B0630070B062E06EE042E0600
:10FD6000EE040207A6050207A605AF073706AF0790
:10FD700037063709A2073709A207670AB408670AD6
:10FD8000B408670AB4086F0B9E096F0B9E09F60B47
:10FD9000060AF60B060A490C390A490C390A060EFE
:10FDA000D70B060ED70BE50F970DE50F970D2A1110
:10FDB000BD0E2A11BD0E2A11BD0ED4124710D41249
:10FDC00047104114971141149711F0142A12F0149E
:10FDD0002A129B16B9139B16B91362176714621780
:10FDE000671462176714B318A015B318A015B41AD6
:10FDF0008C17B41A8C17EF1BB518EF1BB518341DF0
:10FE0000EB19341DEB19031EAE1A031EAE1A0F1D9B
:10FE1000B2190F1DB2190F1DB219371CD518371C96
:10FE2000D518AA1A4717AA1A4717721A1117721A61
:10FE30001117C3196816C3196816581807155818EA
:10FE4000071558180715C4188015C41880153219DD
:10FE5000FE153219FE153D191C163D191C16711898
:10FE6000661571186615A417B114A417B114EA1514
:10FE70001113EA151113EA151113EF143212EF14CE
:10FE80003212D6143612D61436129D131A119D133F
:10FE90001A111812B40F1812B40FCB11850FCB1111
:10FEA000850FE110B90EE110B90EE110B90E3E1048
:10FEB000340E3E10340E2A0F3C0D2A0F3C0D1E0F3F
:10FEC0004B0D1E0F4B0D780FC00D780FC00D930E0C
:10FED000F40C930EF40C930EF40C4B0DC40B4B0D61
:10FEE000C40B880B170A880B170AAD0B510AAD0B10
:10FEF000510AF50BAD0AF50BAD0A020CCC0A020C47
:10FF0000CC0A2F0B0A0A2F0B0A0A2F0B0A0ADE084B
:10FF1000CB07DE08CB07C806C605C806C6053C05E4
:10FF20004A043C054A0414033202140332026703F4
:10FF30009602670396028F02D0018F02D0018F02D2
:10FF4000D001A301F600A301F6008801EE008801AC
:10FF5000EE00DFFF59FFDFFF59FFEDFF7DFFEDFFF3
:10FF60007DFFCFFF77FFCFFF77FFCFFF77FFE4FF66
:10FF7000A4FFE4FFA4FF08FFE1FE08FFE1FEE1FDAE
:10FF8000D5FDE1FDD5FDBCFDCCFDBCFDCCFD31FDBD
:10FF90005DFD31FD5DFDE6FB30FCE6FB30FCE6FB84
:10FFA00030FC03FC6AFC03FC6AFC69FCEEFC69FCA7
:10FFB000EEFC63FC06FD63FC06FD5BFC1AFD5BFCCE
:10FFC0001AFDC8FBA3FCC8FBA3FC47FB3EFC47FB98
:10FFD0003EFC47FB3EFC89FB99FC89FB99FC57FCE6
:10FFE0007EFD57FC7EFD18FD55FE18FD55FEE9FC13
:10FFF0003AFEE9FC3AFEC0FB22FDC0FB22FDC0FB3D
:020000040801F1
:1000000022FD79FAEAFB79FAEAFB29F9A7FA29F93C
:10001000A7FA77F9FEFA77F9FEFA97F925FB97F92F
:1000200025FBD8F96CFBD8F96CFB99FA30FC99FAEE
:1000300030FC99FA30FC90FB27FD90FB27FD0AFC71
:10004000A1FD0AFCA1FDDDFB72FDDDFB72FD05FBE0
:1000500097FC05FB97FC57F9E6FA57F9E6FA13F80F
:100060009DF913F89DF913F89DF99FF725F99FF76E
:1000700025F933F6B4F733F6B4F7B0F42FF6B0F44D
:100080002FF67CF4F8F57CF4F8F545F4C0F545F46A
:10009000C0F545F4C0F535F4AFF535F4AFF5EBF345
:1000A00067F5EBF367F5ACF42BF6ACF42BF623F520
:1000B000A7F623F5A7F618F6A3F718F6A3F70BF69D
:1000C0009EF70BF69EF70BF69EF787F525F787F55B
:1000D00025F7AAF553F7AAF553F7FDF4B3F6FDF4A7
:1000E000B3F620F5E5F620F5E5F66DF540F76DF58C
:1000F00040F7ADF491F6ADF491F6ADF491F691F4CC
:1001000085F691F485F6F6F3F9F5F6F3F9F5D3F102
:10011000E7F3D3F1E7F321F145F321F145F3D1EF13
:1001200003F2D1EF03F2D1EF03F24FEF8FF14FEF74
:100130008FF1B5EE01F1B5EE01F1DEED34F0DEED5B
:1001400034F0B2ED11F0B2ED11F00DED73EF0DEDF5
:1001500073EF4BECB6EE4BECB6EE4BECB6EE05EBBC
:1001600072ED05EB72ED2EEA9BEC2EEA9BECFAE9C0
:1001700065ECFAE965ECA4E90BECA4E90BECFBE80F
:100180005CEBFBE85CEB00E958EB00E958EB00E9BD
:1001900058EB39E987EB39E987EB69EAACEC69EAB6
:1001A000ACEC39EB6EED39EB6EEDC5EAEBECC5EA84
:1001B000EBECFEEA14EDFEEA14EDFEEA14EDAAEB18
:1001C000AFEDAAEBAFED54EC47EE54EC47EE53EC39
:1001D00034EE53EC34EEC2EA90ECC2EA90EC2FEB32
:1001E000ECEC2FEBECEC36ECE0ED36ECE0ED36EC45
:1001F000E0ED66EDFFEE66EDFFEEBDEF46F1BDEF23
:1002000046F194EF0EF194EF0EF1A1EE0DF0A1EE98
:100210000DF0F5ED54EFF5ED54EFF6ED4AEFF6ED98
:100220004AEFF6ED4AEFEBED36EFEBED36EF09ED89
:100230004DEE09ED4DEED7EC17EED7EC17EE39EC9D
:1002400076ED39EC76ED57EB94EC57EB94EC57EBFD
:1002500094ECA6EBE6ECA6EBE6ECE8EA2DECE8EA9B
:100260002DEC70EABCEB70EABCEB1AEB70EC1AEB0D
:1002700070EC95ECF6ED95ECF6ED31EDA0EE31ED90
:10028000A0EE31EDA0EE10ED8EEE10ED8EEEB4EDA1
:1002900043EFB4ED43EF79ED1AEF79ED1AEFF6ED98
:1002A000A9EFF6EDA9EFCFED94EFCFED94EF62ED6E
:1002B0003AEF62ED3AEF62ED3AEF9EED87EF9EED99
:1002C00087EF7FED78EF7FED78EFC5EDCCEFC5EDF3
:1002D000CCEFC1EDD4EFC1EDD4EF02ED1DEF02ED97
:1002E0001DEF02ED1DEF14EE35F014EE35F033EE98
:1002F00055F033EE55F0A5EEC4F0A5EEC4F0AEF027
:10030000C6F2AEF0C6F233F13EF333F13EF3FEF146
:10031000F8F3FEF1F8F3FEF1F8F369F14BF369F14C
:100320004BF3ABF171F3ABF171F357F2FCF357F20E
:10033000FCF3C1F240F4C1F240F4A3F4F7F5A3F4E6
:10034000F7F5A3F4F7F578F59EF678F59EF6C3F584
:10035000B6F6C3F5B6F6D3F691F7D3F691F787F76D
:100360000EF887F70EF8ACF8FBF8ACF8FBF84FFA8C
:1003700064FA4FFA64FA4FFA64FA17FCF3FB17FCBD
:10038000F3FB2CFED0FD2CFED0FD55FEC4FD55FE2A
:10039000C4FD87FEC2FD87FEC2FD0B0016FF0B00E9
:1003A00016FF66014400660144006601440007042C
:1003B000BE020704BE024A06DD044A06DD04E30667
:1003C0005905E30659054E08AC064E08AC065F0910
:1003D000AA075F09AA075F09AA07220B6009220B77
:1003E0006009490D800B490D800B5A0E8E0C5A0E78
:1003F0008E0C600F960D600F960D0711430F0711BD
:10040000430F6912AF106912AF106912AF10881153
:10041000DA0F8811DA0F3E109F0E3E109F0EED0F7F
:100420005F0EED0F5F0EC00F430EC00F430ECB0FDC
:10043000600ECB0F600ED40F7B0ED40F7B0ED40F4B
:100440007B0EC50E7C0DC50E7C0D8F0D550C8F0DD2
:10045000550CFA0DCE0CFA0DCE0CD20FB10ED20FF8
:10046000B10E6C10540F6C10540F6C10540F091116
:10047000F70F0911F70F97118A1097118A102C1195
:1004800021102C112110C710BD0FC710BD0F6D100A
:10049000620F6D10620F0D1101100D1101100D1181
:1004A0000110FD11EF10FD11EF10ED12DC11ED1236
:1004B000DC11DD13CB12DD13CB120014EE1200148D
:1004C000EE128813771288137712541347125413BD
:1004D00047125413471292118B1092118B10A910CE
:1004E000AB0FA910AB0FD110DF0FD110DF0FA01091
:1004F000BC0FA010BC0FA710D60FA710D60FA710C7
:10050000D60FB90FFE0EB90FFE0E2C0E890D2C0E54
:10051000890D2B0CA50B2B0CA50BA90A400AA90AC7
:10052000400AF708AE08F708AE08BA069206BA06FF
:100530009206BA069206C105BB05C105BB050806B1
:10054000240608062406CE040A05CE040A056E0316
:10055000CB036E03CB037C02F7027C02F702380167
:10056000CF013801CF013801CF01640013016400CD
:100570001301F3FEB8FFF3FEB8FF0FFEE6FE0FFE19
:10058000E6FE65FD4AFE65FD4AFED0FBBFFCD0FBE2
:10059000BFFCD0FBBFFC4FFB44FC4FFB44FC4CFAC0
:1005A00042FB4CFA42FB03F9F7F903F9F7F93BF97F
:1005B00029FA3BF929FA2EF913FA2EF913FA83F9DD
:1005C0005AFA83F95AFA83F95AFAD9F8A1F9D9F8FB
:1005D000A1F9C1F777F8C1F777F825F7C8F725F73C
:1005E000C8F76FF7FCF76FF7FCF795F90CFA95F978
:1005F0000CFAD4FA35FBD4FA35FBD4FA35FB94FB6C
:10060000DDFB94FBDDFBA9FCDBFCA9FCDBFC4CFD6A
:1006100067FD4CFD67FD2BFF2FFF2BFF2FFF950084
:10062000820095008200950082000501DC00050132
:10063000DC00E801A901E801A9015E0309035E03EA
:1006400009031305A7041305A7048004FE0380040F
:10065000FE030A0471030A0471030A047103E2042D
:100660003104E20431049E05D4049E05D404D50669
:10067000F205D506F2056A086B076A086B0741099F
:10068000250841092508F309B808F309B808F30952
:10069000B8081F0BC5091F0BC509B70C3B0BB70CDE
:1006A0003B0BD70D390CD70D390C250F630D250FDA
:1006B000630DBA10D40EBA10D40EBA10D40E1311A2
:1006C000080F1311080FA5127610A51276105014FA
:1006D000FD115014FD1102168D1302168D13DF1734
:1006E0004915DF1749150F195A160F195A160F1900
:1006F0005A16B31AE317B31AE3170F1C27190F1C66
:100700002719581D5C1A581D5C1AA11D931AA11DAA
:10071000931ABB1CA119BB1CA1194C1D2B1A4C1DF3
:100720002B1A4C1D2B1A451D201A451D201A6D1C15
:100730004A196D1C4A19E11CC319E11CC3199D1CFF
:1007400089199D1C8919DE1CD819DE1CD819DE1CDC
:10075000D819181D231A181D231A391C5719391CAA
:1007600057195B1B90185B1B9018451A9317451A75
:100770009317091A7017091A7017C6194817C6195E
:100780004817C6194817EA178715EA178715B816C4
:100790006F14B8166F14D415A413D415A4137214BF
:1007A0005A1272145A126C136B116C136B111612CD
:1007B0002A1016122A1016122A10FA10210FFA10F7
:1007C000210FE30F1B0EE30F1B0E770FBE0D770FEC
:1007D000BE0D490F9D0D490F9D0DBF0D1F0CBF0D87
:1007E0001F0CBF0D1F0CCF0C390BCF0C390B8A0C13
:1007F000FE0A8A0CFE0A4D0CCA0A4D0CCA0A590C94
:10080000DE0A590CDE0AE80A7609E80A76099F082A
:1008100037079F0837079F083707AD064F05AD0616
:100820004F054E05FC034E05FC034904050349042E
:1008300005036903350269033502470225014702B2
:10084000250147022501A3019600A30196007D0121
:1008500087007D018700A700C9FFA700C9FFE8FF47
:1008600025FFE8FF25FF44FF9FFE44FF9FFE4FFF4B
:10087000C9FE4FFFC9FE4FFFC9FEA5FF3EFFA5FF02
:100880003EFF47FF02FF47FF02FF28FE05FE28FE4E
:1008900005FEC7FDC6FDC7FDC6FD43FD64FD43FD66
:1008A00064FD9EFCE2FC9EFCE2FC9EFCE2FC7EFD04
:1008B000E2FD7EFDE2FDC4FD48FEC4FD48FED0FD24
:1008C00072FED0FD72FE67FD25FE67FD25FE4EFC23
:1008D00027FD4EFC27FD4EFC27FD1DFC0FFD1DFCDA
:1008E0000FFD65FC6EFD65FC6EFD44FD61FE44FD83
:1008F00061FE7AFDA8FE7AFDA8FE5AFC99FD5AFC1D
:1009000099FD37FC84FD37FC84FD37FC84FD94FBA6
:10091000EDFC94FBEDFC70FAD4FB70FAD4FBAAFA60
:1009200017FCAAFA17FCCCFA40FCCCFA40FCC6FB38
:1009300042FDC6FB42FDE7FC68FEE7FC68FEE7FC03
:1009400068FE87FC0DFE87FC0DFE83FB0EFD83FB1E
:100950000EFD93FA22FC93FA22FC65FAF8FB65FA85
:10096000F8FBA2F938FBA2F938FBA2F938FB74F8BE
:100970000EFA74F80EFA26F8C3F926F8C3F9A3F6AE
:1009800042F8A3F642F8CFF470F6CFF470F610F404
:10099000B4F510F4B4F58DF233F48DF233F48DF236
:1009A00033F42FF1D7F22FF1D7F2FDF0A7F2FDF0DB
:1009B000A7F217F2C2F317F2C2F3E8F293F4E8F2E7
:1009C00093F49CF248F49CF248F4C3F270F4C3F23E
:1009D00070F4C3F270F43DF2EBF33DF2EBF3BAF1D5
:1009E00068F3BAF168F306F2B5F306F2B5F3DAF19B
:1009F0008BF3DAF18BF303F1B6F203F1B6F203F104
:100A0000B6F25EF014F25EF014F20FF0C9F10FF0DE
:100A1000C9F1CBEE89F0CBEE89F026EDEBEE26EDB9
:100A2000EBEEF3EBC0EDF3EBC0EDC8EB9EEDC8EBE6
:100A30009EEDC8EB9EED30EC11EE30EC11EEF6EBD6
:100A4000E4EDF6EBE4ED23EB1FED23EB1FEDB3EA52
:100A5000BEECB3EABEEC1CEA38EC1CEA38EC33EA34
:100A600062EC33EA62EC33EA62ECD3EA15EDD3EAE6
:100A700015EDEDE942ECEDE942ECB2E91AECB2E930
:100A80001AECAAE824EBAAE824EB0CE899EA0CE8B3
:100A900099EA0CE899EAB6E854EBB6E854EB77E843
:100AA00024EB77E824EB37E9F0EB37E9F0EB08EAE1
:100AB000CBEC08EACBEC51EA1BED51EA1BED96EAD0
:100AC00064ED96EA64ED96EA64EDA7EA75EDA7EAAF
:100AD00075ED40EA0BED40EA0BED31E9F3EB31E95E
:100AE000F3EBE9E8A0EBE9E8A0EBE5E98DECE5E95B
:100AF0008DECCCEA61EDCCEA61EDCCEA61ED0CEC79
:100B00008BEE0CEC8BEECFEC35EFCFEC35EF2AED26
:100B100075EF2AED75EF22EE50F022EE50F010EE58
:100B200020F010EE20F010EE20F07AED6BEF7AED71
:100B30006BEFEEECC2EEEEECC2EEB4EC6CEEB4ECAD
:100B40006CEE57EDF3EE57EDF3EE12ED95EE12ED80
:100B500095EE85ECF3ED85ECF3ED85ECF3ED64ECCF
:100B6000C0ED64ECC0EDE4EB32EDE4EB32ED07EC0C
:100B70004CED07EC4CED5BEC9BED5BEC9BED0BEC7B
:100B800049ED0BEC49EDC1EB04EDC1EB04EDC1EB1C
:100B900004ED68ECB2ED68ECB2EDFBEC50EEFBEC72
:100BA00050EEE4EC48EEE4EC48EE3AEDB0EE3AED0F
:100BB000B0EEA8ED31EFA8ED31EFA8ED31EF7CED0F
:100BC00019EF7CED19EFD8ED89EFD8ED89EF58EEEC
:100BD0001DF058EE1DF089ED60EF89ED60EFFEEB42
:100BE000E5EDFEEBE5ED09ECFCED09ECFCED09ECC7
:100BF000FCEDEAECE5EEEAECE5EE16ED12EF16EDB3
:100C000012EFC2EDBCEFC2EDBCEFAAEE9BF0AAEE74
:100C10009BF094EF75F194EF75F1C1F08CF2C1F097
:100C20008CF2C1F08CF226F2D4F326F2D4F366F201
:100C3000F0F366F2F0F348F3A8F448F3A8F468F48C
:100C400099F568F499F56CF567F66CF567F66CF54F
:100C500067F6C8F58AF6C8F58AF6ABF530F6ABF557
:100C600030F677F7BDF777F7BDF70FF913F90FF9FE
:100C700013F98FFB52FB8FFB52FBC6FD47FDC6FDF0
:100C800047FDC6FD47FD1CFF5EFE1CFF5EFEECFF40
:100C9000F1FEECFFF1FE65002FFF65002FFFC001A4
:100CA0005400C0015400F7025A01F7025A01D4045B
:100CB0000B03D4040B03D4040B0306071805060723
:100CC0001805FE07F005FE07F0052F0908072F0994
:100CD0000807880A4F08880A4F08880B4209880BC2
:100CE0004209880B4209B80D6A0BB80D6A0BEF0F69
:100CF0009F0DEF0F9F0D2D12E00F2D12E00F3C14F2
:100D0000F6113C14F6112214E5112214E5116813B2
:100D100039116813391168133911AB128910AB12EC
:100D20008910FE11EB0FFE11EB0F1E131B111E138A
:100D30001B11CE13DA11CE13DA1175138F1175133F
:100D40008F1175138F119912BF109912BF106F1167
:100D50009F0F6F119F0FCC10050FCC10050FDC10EB
:100D60001B0FDC101B0FC9100B0FC9100B0FCD1080
:100D7000110FCD10110FCD10110FA011E50FA01103
:100D8000E50FE3112610E31126106E11AF0F6E115F
:100D9000AF0F1511530F1511530F0B11470F0B11F7
:100DA000470F6911A30F6911A30F6911A30F9B12BC
:100DB000D6109B12D6105A1397115A1397117B1302
:100DC000BD117B13BD1123136D1123136D11E71298
:100DD0003D11E7123D11E7123D1102126810021297
:100DE00068102C11A60F2C11A60F7010040F701094
:100DF000040F5610060F5610060F4E111F104E11FD
:100E00001F10CF11C610CF11C610CF11C610571129
:100E1000771057117710070F530E070F530ED60C8C
:100E2000500CD60C500C0C0BB60A0C0BB60A4A0A26
:100E3000250A4A0A250AF8080409F8080409F808E6
:100E400004097A08B7087A08B708D4074008D40715
:100E500040082906C2062906C206E705AB06E705D3
:100E6000AB06BE04AA05BE04AA05BE04AA05C303B8
:100E7000D104C303D10415034204150342044A02FA
:100E800092034A0292033501910235019102E7FE75
:100E90005400E7FE5400AFFD27FFAFFD27FFAFFD75
:100EA00027FF34FDB3FE34FDB3FEC9FB49FDC9FB8A
:100EB00049FDFCFB79FDFCFB79FD72FCE7FD72FC52
:100EC000E7FDADFB17FDADFB17FDE3FA3EFCE3FAD2
:100ED0003EFCE3FA3EFC60FAA9FB60FAA9FB73FA58
:100EE000A9FB73FAA9FB01FB21FC01FB21FC1EFB02
:100EF00026FC1EFB26FCEAFBD9FCEAFBD9FCEAFB3C
:100F0000D9FC96FC6CFD96FC6CFDA8FC64FDA8FC6D
:100F100064FD7EFD1FFE7EFD1FFE57FEDCFE57FEBC
:100F2000DCFE71FFDBFF71FFDBFF090157010901E7
:100F3000570109015701A602D802A602D8021003E0
:100F400026031003260312030B0312030B033802BC
:100F50001302380213020D01CA000D01CA00D800A5
:100F60007400D8007400D8007400EA016601EA0138
:100F70006601E7024102E70241029603CE029603B0
:100F8000CE02E203F502E203F502FA03E802FA03F5
:100F9000E802FA03E802F904C103F904C1031506E3
:100FA000B6041506B6044C06C5044C06C504340642
:100FB00086043406860450077A0550077A053108FE
:100FC00035063108350631083506760955077609A4
:100FD0005507DE099807DE0998074C0BE4084C0B0F
:100FE000E4081D0E960B1D0E960B8210DE0D82106E
:100FF000DE0D8612C90F8612C90F8612C90F28147A
:1010000056112814561110152C1210152C123A16C0
:1010100048133A164813D417D914D417D914AD1756
:10102000AC14AD17AC14AD17AC14521850155218BF
:101030005015731873157318731522192A1622196F
:101040002A16751A8617751A86174F1A6E174F1AB1
:101050006E17911ABF17911ABF17911ABF17CE1AA0
:101060000D18CE1A0D18AA1AFD17AA1AFD176E1A16
:10107000D6176E1AD617A3191F17A3191F17791998
:101080000A1779190A177E1825167E1825167E1854
:101090002516EF16AA14EF16AA1479164614791617
:1010A0004614D415B313D415B3130F15FE120F1530
:1010B000FE126D146A126D146A126D146A12D7133F
:1010C000E011D713E011D612EA10D612EA10AD11D2
:1010D000CA0FAD11CA0F1A103E0E1A103E0E8D0E19
:1010E000B70C8D0EB70C450D730B450D730B450DED
:1010F000730BA30DD50BA30DD50B700EA60C700EA4
:10110000A60CEB0D240CEB0D240C600C9C0A600C5F
:101110009C0A3B0B7C093B0B7C09F0093608F00963
:101120003608F00936080A0857060A0857068A06DC
:10113000DF048A06DF0402056103020561038A03F6
:10114000F5018A03F5011E0297001E0297001E0298
:1011500097006A01F2FF6A01F2FF0E00A8FE0E007E
:10116000A8FE7CFF2BFE7CFF2BFEBBFF80FEBBFF9F
:1011700080FEAAFF86FEAAFF86FE57FF4EFE57FF9F
:101180004EFE57FF4EFEEDFEFFFDEDFEFFFDF7FCB0
:1011900025FCF7FC25FC7CFBC8FA7CFBC8FA09FBA4
:1011A00074FA09FB74FA0AFB94FA0AFB94FA02FC3B
:1011B000ABFB02FCABFB02FCABFB7CFB45FB7CFB13
:1011C00045FBAAFB93FBAAFB93FB27FC30FC27FC07
:1011D00030FC3AFC62FC3AFC62FC21FC69FC21FC1C
:1011E00069FC21FC69FC56FCBDFC56FCBDFCF8FB0F
:1011F0007EFCF8FB7EFC35FDD8FD35FDD8FDA5FE57
:1012000066FFA5FE66FF07FEE5FE07FEE5FEBCFDE8
:10121000B7FEBCFDB7FEBCFDB7FE2BFD42FE2BFDAD
:1012200042FE7CFDAFFE7CFDAFFE3CFE8AFF3CFE35
:101230008AFF74FEDCFF74FEDCFFBCFE3D00BCFEDA
:101240003D00BCFE3D00C1FE5B00C1FE5B009AFE9E
:101250004B009AFE4B0011FED8FF11FED8FFC6FCD2
:10126000A1FEC6FCA1FE3DFC2CFE3DFC2CFEBAFB03
:10127000B9FDBAFBB9FDBAFBB9FDB2FBC0FDB2FBCB
:10128000C0FD59FB74FD59FB74FD3DFA61FC3DFA4C
:1012900061FCFFF82BFBFFF82BFB73F7A3F973F747
:1012A000A3F902F634F802F634F802F634F87CF5C5
:1012B000ACF77CF5ACF765F590F765F590F758F568
:1012C0007DF758F57DF76BF585F76BF585F7C5F478
:1012D000D3F6C5F4D3F6C5F4D3F6D0F4D0F6D0F4F3
:1012E000D0F6C6F4B4F6C6F4B4F61AF5F6F61AF566
:1012F000F6F6E6F5AFF7E6F5AFF72DF6E2F72DF6E1
:10130000E2F794F536F794F536F794F536F79BF453
:1013100029F69BF429F69DF218F49DF218F4B2F028
:101320001DF2B2F01DF2ABEF06F1ABEF06F1BFEF2D
:101330000EF1BFEF0EF107F04BF107F04BF107F0A4
:101340004BF1EBEE29F0EBEE29F01AEE55EF1AEE29
:1013500055EFEBED25EFEBED25EF65EDA3EE65ED3C
:10136000A3EE27ED6BEE27ED6BEE27ED6BEEA4ED14
:10137000F2EEA4EDF2EE61ECBDED61ECBDEDCDEB76
:1013800038EDCDEB38ED04EB82EC04EB82EC44EA73
:10139000D6EB44EAD6EBB9E960EBB9E960EBB9E921
:1013A00060EB6EE92BEB6EE92BEB78EA4BEC78EA1D
:1013B0004BEC5AEB43ED5AEB43EDAEEBAAEDAEEB43
:1013C000AAED90EB9FED90EB9FEDD2EBF1EDD2EB20
:1013D000F1EDD2EBF1EDDCEA09EDDCEA09ED22EB0F
:1013E00059ED22EB59EDA6EBE4EDA6EBE4EDC5EBF0
:1013F00006EEC5EB06EE83ECC4EE83ECC4EE83ECA4
:10140000C4EE3EED7AEF3EED7AEF24EE59F024EE95
:1014100059F0C2EEECF0C2EEECF031EF4EF131EFEC
:101420004EF135EF42F135EF42F108EF04F108EFEC
:1014300004F108EF04F1A0EF89F1A0EF89F10FEFBB
:10144000E4F00FEFE4F025EEE7EF25EEE7EF14EE22
:10145000C4EF14EEC4EF8CED2BEF8CED2BEFC3ED4E
:1014600053EFC3ED53EFC3ED53EFC0ED43EFC0EDCA
:1014700043EF86ED01EF86ED01EFF3EC68EEF3EC60
:1014800068EE57ECC9ED57ECC9ED3BECAFED3BEC2A
:10149000AFED3BECAFED0BED85EE0BED85EE00ED2A
:1014A00083EE00ED83EE10ED9FEE10ED9FEE52ED1A
:1014B000F0EE52EDF0EE7FEC2FEE7FEC2FEEA1EC94
:1014C00065EEA1EC65EEA1EC65EE1DEDF5EE1DED12
:1014D000F5EE7EED6BEF7EED6BEF0DEE0EF00DEEAB
:1014E0000EF03DEE50F03DEE50F03CEE5FF03CEE85
:1014F0005FF05DEE8CF05DEE8CF05DEE8CF0A2EDB9
:10150000D9EFA2EDD9EF44ED7EEF44ED7EEFB8ECDC
:10151000F0EEB8ECF0EEC9ECF7EEC9ECF7EEB4ED96
:10152000D2EFB4EDD2EFB4EDD2EFE9EEF1F0E9EEA7
:10153000F1F015F0FEF115F0FEF15DF121F35DF132
:1015400021F394F12BF394F12BF3FCF15FF3FCF115
:101550005FF3D5F1FEF2D5F1FEF2D5F1FEF29DF08A
:1015600086F19DF086F17EF122F27EF122F2C9F23F
:1015700024F3C9F224F3FDF40CF5FDF40CF5F3F5B6
:10158000B4F5F3F5B4F532F7A4F632F7A4F632F772
:10159000A4F68EF8B1F78EF8B1F709FADEF809FA79
:1015A000DEF8CCFB55FACCFB55FA6AFDACFB6AFDC4
:1015B000ACFB23FF20FD23FF20FD23FF20FD620065
:1015C00021FE620021FE82020A0082020A00AA03B2
:1015D0000001AA030001B004DC01B004DC012D0607
:1015E00037032D063703B408A305B408A305B408D0
:1015F000A305950B7208950B7208F00DC20AF00D49
:10160000C20A4410130D4410130D2B11FF0D2B11A2
:10161000FF0D3B111A0E3B111A0E2412140F241247
:10162000140F2412140FD111D80ED111D80E461256
:10163000680F4612680FFA123B10FA123B10A11203
:101640000310A112031080120510801205108012E1
:101650000510F3119D0FF3119D0FFA10C90EFA102A
:10166000C90E0110F30D0110F30DDA0FF00DDA0FB2
:10167000F00D5C10920E5C10920E5311A80F5311D6
:10168000A80F5311A80FB910290FB910290F3D1039
:10169000C50E3D10C50E9E0F3B0E9E0F3B0E070F55
:1016A000B50D070FB50DE70FA40EE70FA40EB91087
:1016B000810FB910810FB910810FC610970FC61096
:1016C000970F9C1173109C1173108812631188126C
:1016D00063117E125D117E125D11A9118A10A9118C
:1016E0008A10A9118A106A104D0F6A104D0F3F0F12
:1016F000240E3F0F240E6F0E580D6F0E580DD20E94
:10170000C10DD20EC10D200F160E200F160ED00ED9
:10171000CF0DD00ECF0DD00ECF0D1C0E290D1C0EEF
:10172000290D710D8E0C710D8E0C7D0BAE0A7D0B8B
:10173000AE0ABB0A030ABB0A030A16097708160990
:101740007708160977085107D1065107D106BE055B
:101750005E05BE055E0567042B0467042B04950433
:101760007F0495047F049403A4039403A4032B0330
:1017700065032B0365032B0365036E02D0026E0223
:10178000D002CE015A02CE015A0266001A0166004A
:101790001A0101FFDCFF01FFDCFF43FD44FE43FDB6
:1017A00044FEBBFCDEFDBBFCDEFDBBFCDEFD12FD32
:1017B00055FE12FD55FEA3FC02FEA3FC02FE66FCD4
:1017C000DEFD66FCDEFD7CFB07FD7CFB07FD88FB88
:1017D00023FD88FB23FD88FB23FDDBFB81FDDBFB79
:1017E00081FDF3FB9FFDF3FB9FFDB0FC5DFEB0FCB4
:1017F0005DFED3FC7CFED3FC7CFED6FD77FFD6FDE0
:1018000077FFF7FE8C00F7FE8C00F7FE8C000AFED7
:101810008EFF0AFE8EFF7DFEECFF7DFEECFF84FF57
:10182000DB0084FFDB00DC001902DC001902660229
:10183000850366028503030402050304020503040D
:101840000205D504B105D504B1051405CC05140570
:10185000CC052405B6052405B6057405E005740518
:10186000E005E4052806E4052806E4052806DC056D
:10187000F805DC05F8054D0640064D064006FF0557
:10188000C905FF05C9051E06BF051E06BF05D10611
:101890004906D10649063207820632078206320718
:1018A00082063B0761063B0761066408630764081C
:1018B000630787095E0887095E08190AC908190ABB
:1018C000C908160A9F08160A9F08080A6B08080A22
:1018D0006B08080A6B08AD09EB07AD09EB07550A61
:1018E0007008550A7008050CFE09050CFE098E0DDE
:1018F000680B8E0D680B1A0FD60C1A0FD60C1A0F28
:10190000D60CA311420FA311420F9D1322119D1358
:1019100022114F14BD114F14BD1107166113071684
:10192000611343168C1343168C13051740140517C7
:10193000401405174014EC161D14EC161D14B517B1
:10194000DF14B517DF1436185E1536185E15CA1782
:10195000F314CA17F31443187015431870150119BE
:1019600036160119361601193616F4193417F419FA
:101970003417BC1A0B18BC1A0B18D71B3719D71BF6
:1019800037199A1A0E189A1A0E18E5196F17E519D1
:101990006F17E5196F172419C6162419C6169E1855
:1019A0005A169E185A166E1845166E184516A51723
:1019B0009715A5179715F117FD15F117FD15A9171F
:1019C000D015A917D015A917D0158A16CC148A16C8
:1019D000CC146715C2136715C213AA131D12AA13DC
:1019E0001D124B13D4114B13D411891226118912D5
:1019F00026118C113D108C113D108C113D10681179
:101A00002910681129108D105D0F8D105D0FD50FF5
:101A1000B20ED50FB20EF20EDA0DF20EDA0DCE0DB9
:101A2000BF0CCE0DBF0CCE0DBF0C160C100B160C40
:101A3000100B360B370A360B370A480A4E09480A8C
:101A40004E0961096D0861096D08B607C706B6073A
:101A5000C7067906900579069005790690059905DF
:101A6000B6049905B6045004730350047303F003DD
:101A70001B03F0031B03D6030803D6030803EC0281
:101A80002802EC022802B401FB00B401FB00B401FF
:101A9000FB00EF004200EF0042004700A8FF4700B4
:101AA000A8FF81FFF0FE81FFF0FE64FEE3FD64FE0F
:101AB000E3FD70FD01FD70FD01FD70FD01FD02FC07
:101AC000A5FB02FCA5FBFFFBB5FBFFFBB5FBEBFB9E
:101AD000B5FBEBFBB5FB71FB4EFB71FB4EFB2FFB2C
:101AE00020FB2FFB20FB14FC19FC14FC19FC14FC3C
:101AF00019FC22FC3BFC22FC3BFC9AFCC6FC9AFC39
:101B0000C6FC07FD45FD07FD45FD0FFC5EFC0FFC17
:101B10005EFC8DFBEEFB8DFBEEFBF3FA63FBF3FA51
:101B200063FBF3FA63FBBEFB3DFCBEFB3DFC5BFBD2
:101B3000E8FB5BFBE8FB8BFB25FC8BFB25FCC2FB7E
:101B400068FCC2FB68FC44FCF6FC44FCF6FC44FC6C
:101B5000F6FC0AFCC7FC0AFCC7FCE2FBA9FCE2FBA2
:101B6000A9FC96FB68FC96FB68FCFAF9D7FAFAF92F
:101B7000D7FA48FA2FFB48FA2FFB58FA4AFB58FAD3
:101B80004AFB58FA4AFB45FA42FB45FA42FB0AFA7D
:101B900012FB0AFA12FB5CF96FFA5CF96FFAFBF8B8
:101BA0001BFAFBF81BFAF9F725F9F9F725F91BF7EA
:101BB00054F81BF754F81BF754F845F68CF745F624
:101BC0008CF735F589F635F589F682F5E4F682F578
:101BD000E4F601F571F601F571F6A3F420F6A3F42D
:101BE00020F6A3F420F63AF4C4F53AF4C4F552F41E
:101BF000E8F552F4E8F55CF5FEF65CF5FEF6D2F594
:101C00007EF7D2F57EF7FBF4B0F6FBF4B0F6AFF357
:101C10006CF5AFF36CF5AFF36CF56BF22FF46BF280
:101C20002FF452F11BF352F11BF36AF137F36AF10F
:101C300037F305F1D4F205F1D4F2E3F0B4F2E3F0B6
:101C4000B4F2E3F0B4F2EAEFBBF1EAEFBBF160EE1D
:101C500030F060EE30F05EED2DEF5EED2DEF5EECDE
:101C60002BEE5EEC2BEEDDEBA7EDDDEBA7EDC7EC8D
:101C70008FEEC7EC8FEEC7EC8FEE34EDF9EE34ED5E
:101C8000F9EE39EDFDEE39EDFDEE25ECE7ED25EC55
:101C9000E7EDAFEA70ECAFEA70EC52E914EB52E911
:101CA00014EB5AE81DEA5AE81DEA5AE81DEAFAE878
:101CB000BFEAFAE8BFEA28E9F2EA28E9F2EA1FE90E
:101CC000EEEA1FE9EEEA11E9E5EA11E9E5EA6FE972
:101CD0004BEB6FE94BEB6FE94BEB11E9F4EA11E9E0
:101CE000F4EA74E95FEB74E95FEBF9E8EDEAF9E82F
:101CF000EDEAADE8ABEAADE8ABEAAEE8B4EAAEE8EF
:101D0000B4EA38E948EB38E948EB38E948EB45EA0A
:101D10005DEC45EA5DEC79EA99EC79EA99EC03EB44
:101D200029ED03EB29EDE6EA12EDE6EA12ED98EB78
:101D3000C9ED98EBC9ED9BEBCEED9BEBCEED9BEBAC
:101D4000CEEDFEEB34EEFEEB34EE7DEBB3ED7DEB52
:101D5000B3ED27EB5DED27EB5DED35EC6AEE35EC91
:101D60006AEE70ECA3EE70ECA3EE70ECA3EEBEECAA
:101D7000EFEEBEECEFEEC8ECF7EEC8ECF7EEB9EC28
:101D8000E5EEB9ECE5EEDEEC09EFDEEC09EFC6ECD2
:101D9000F0EEC6ECF0EEFBEC26EFFBEC26EFFBECF6
:101DA00026EFB0ECDCEEB0ECDCEE26ED56EF26EDE7
:101DB00056EF56EE8BF056EE8BF036EE72F036EEB6
:101DC00072F05BEEA0F05BEEA0F064EEB4F064EEB7
:101DD000B4F064EEB4F09AEEF7F09AEEF7F043EF59
:101DE000AEF143EFAEF118F092F218F092F290F0EB
:101DF0001BF390F01BF310F1ABF310F1ABF310F108
:101E0000ABF3B2F05FF3B2F05FF3A4F061F3A4F0D0
:101E100061F3F8F0C3F3F8F0C3F3ADF084F3ADF081
:101E200084F36FF150F46FF150F46BF253F56BF2F1
:101E300053F56BF253F503F3EDF503F3EDF5AAF368
:101E400093F6AAF393F6A7F389F6A7F389F641F37D
:101E500017F641F317F64CF310F64CF310F63EF379
:101E6000EBF53EF3EBF53EF3EBF534F4C4F634F466
:101E7000C4F6AFF41CF7AFF41CF712F556F712F5E1
:101E800056F721F537F721F537F787F56AF787F524
:101E90006AF787F56AF73CF6E8F73CF6E8F717F7D4
:101EA00088F817F788F8B6F8E8F9B6F8E8F99CFA70
:101EB0008EFB9CFA8EFB47FCF8FC47FCF8FCB9FD56
:101EC00027FEB9FD27FEB9FD27FE72FF9FFF72FFB7
:101ED0009FFF2E001A002E001A00760123017601C2
:101EE00023014802BA014802BA011B0454031B042F
:101EF000540309060E0509060E0509060E05E0073E
:101F0000B706E007B7065709040857090408F80A96
:101F10008009F80A8009290D920B290D920B5E0E9B
:101F2000AF0C5E0EAF0C5E0EAF0CF80F360EF80F56
:101F3000360E3610660E3610660EDC10040FDC10FE
:101F4000040F74119A0F74119A0FC411EB0FC4117E
:101F5000EB0F051232100512321005123210621109
:101F6000990F6211990F6411A70F6411A70F1D1229
:101F70006F101D126F109512F8109512F810501274
:101F8000C5105012C5104311CB0F4311CB0F431195
:101F9000CB0F3911D40F3911D40F52110010521137
:101FA0000010D210920FD210920FF410C40FF41040
:101FB000C40F0F11F00F0F11F00F0F11F00F501190
:101FC0003F1050113F1042123F1142123F111013A7
:101FD00018121013181201131412011314120A13F9
:101FE00026120A13261261128611611286116112DD
:101FF00086111612421116124211C811FB10C81197
:10200000FB107611B0107611B010CB110A11CB1164
:102010000A118011C6108011C6108D10D90F8D10B5
:10202000D90F8D10D90F4E10A20F4E10A20F840F92
:10203000E00E840FE00EDB0D3F0DDB0D3F0D840C39
:10204000F20B840CF20B3F0BB80A3F0BB80A3F0BA4
:10205000B80AFD098009FD09800978080808780890
:10206000080887072207870722078906310689069D
:102070003106D9058E05D9058E05C3048504C30430
:102080008504C30485045B0328035B0328038401E0
:102090005D0184015D012F0013002F00130022FF5A
:1020A00010FF22FF10FFD2FEC8FED2FEC8FE53FE74
:1020B00050FE53FE50FE53FE50FEAAFDABFDAAFD9E
:1020C000ABFD3FFD43FD3FFD43FD84FB8AFB84FBED
:1020D0008AFBCBFAD0FACBFAD0FA5CFA5FFA5CFA58
:1020E0005FFA5CFA5FFA89FA88FA89FA88FA36FAAE
:1020F0002FFA36FA2FFA68FB5AFB68FB5AFB30FCC2
:102100001AFC30FC1AFC35FC16FC35FC16FC8DFC68
:1021100065FC8DFC65FC8DFC65FCE8FBB5FBE8FB14
:10212000B5FBD9FC9BFCD9FC9BFC66FE1DFE66FE44
:102130001DFEA2004F00A2004F001002B2011002CB
:10214000B2011002B2017C0214027C0214029A0352
:1021500028039A032803B9043E04B9043E04370552
:10216000B2043705B2047A05EC047A05EC049E0546
:1021700006059E0506059E0506056406C20564065D
:10218000C205D5062806D5062806D2061A06D206A6
:102190001A062E0669052E0669058A05B7048A0502
:1021A000B704CA05E604CA05E604CA05E604D9066A
:1021B000E305D906E3053207260632072606C706D9
:1021C000A305C706A305F306B505F306B505DF06A7
:1021D0008305DF068305DF06830596071906960744
:1021E00019063E089F063E089F060E0949070E097C
:1021F0004907220A3508220A3508160B0009160B72
:102200000009C00B7F09C00B7F09C00B7F091E0DA1
:10221000B10A1E0DB10A880EF00B880EF00BB40F38
:10222000F10CB40FF10C2611380E2611380E6B127A
:10223000550F6B12550F6A132F106A132F106A1364
:102240002F102A14CD102A14CD10F8137E10F81375
:102250007E10DC12490FDC12490F7D12D60E7D1262
:10226000D60E12135D0F12135D0F12135D0FFE13C6
:102270004110FE1341102015621120156211E6165F
:102280002D13E6162D132E1780132E178013EA1622
:102290004E13EA164E138A1505128A1505128A1571
:1022A00005123515CF113515CF111215CF11121595
:1022B000CF11DB14C011DB14C011E914FA11E914B9
:1022C000FA11EB132B11EB132B118412F70F84125D
:1022D000F70F8412F70F8D10340E8D10340EB010DE
:1022E0008D0EB0108D0E5D0F700D5D0F700DF40E24
:1022F0003D0DF40E3D0D300FAE0D300FAE0D300F15
:10230000AE0D540E050D540E050DCF0DB20CCF0DB4
:10231000B20C4D0D5E0C4D0D5E0C430D7F0C430D4C
:102320007F0CBA0C1D0CBA0C1D0C1D0CA30B1D0C44
:10233000A30B1D0CA30B060CAC0B060CAC0B510B2A
:10234000120B510B120BDC09B509DC09B509420867
:102350002F0842082F08EE06EB06EE06EB06B8063D
:10236000C106B806C106B806C106E706FA06E706C2
:10237000FA061C0735071C073507EF050D06EF05A4
:102380000D06A104C104A104C1047F03A0037F03BF
:10239000A0037F03A003DA02FA02DA02FA02D301F1
:1023A000F101D301F101FE001B01FE001B01380009
:1023B0005200380052004DFF65FF4DFF65FF4BFF97
:1023C00061FF4BFF61FF4BFF61FFCCFEDFFECCFEE8
:1023D000DFFE14FE26FE14FE26FEDCFDEDFDDCFD18
:1023E000EDFD17FE29FE17FE29FEDCFDEEFDDCFDEE
:1023F000EEFD0FFE23FE0FFE23FE0FFE23FE26FE44
:102400003CFE26FE3CFE1BFE34FE1BFE34FEFAFDA7
:1024100018FEFAFD18FE22FE44FE22FE44FE21FEB6
:1024200048FE21FE48FE21FE48FE88FEB5FE88FEDD
:10243000B5FEBDFEEFFEBDFEEFFE73FEACFE73FE0D
:10244000ACFEE1FD21FEE1FD21FE88FDD0FD88FD11
:10245000D0FD0DFD5CFD0DFD5CFD0DFD5CFD06FD83
:102460005DFD06FD5DFDE1FC40FDE1FC40FD00FC85
:1024700068FC00FC68FC00FC72FC00FC72FC73FB56
:10248000EEFB73FBEEFB85FB0AFC85FB0AFC85FB80
:102490000AFC8BFA1BFB8BFA1BFB55FAEFFA55FA79
:1024A000EFFAC9F96DFAC9F96DFAA1F951FAA1F972
:1024B00051FAC6F881F9C6F881F9C6F881F99BF797
:1024C00062F89BF762F88CF75FF88CF75FF8F9F524
:1024D000D7F6F9F5D7F646F630F746F630F79FF619
:1024E00095F79FF695F781F683F781F683F781F6E6
:1024F00083F7D3F6E0F7D3F6E0F74DF766F84DF73C
:1025000066F846F76AF846F76AF81AF749F81AF7CC
:1025100049F825F75EF825F75EF87DF7C0F87DF7F6
:10252000C0F87DF7C0F832F780F832F780F831F75D
:1025300089F831F789F8C1F622F8C1F622F847F692
:10254000B3F747F6B3F7D4F54AF7D4F54AF7D4F51D
:102550004AF7D0F44FF6D0F44FF6DFF368F5DFF327
:1025600068F549F2DEF349F2DEF3CDF16CF3CDF11B
:102570006CF323F2CDF323F2CDF395F24CF495F204
:102580004CF495F24CF4FBF1BEF3FBF1BEF341F1D8
:1025900012F341F112F3E5EFC3F1E5EFC3F136EFCA
:1025A00023F136EF23F199EF94F199EF94F169EF6C
:1025B00073F169EF73F169EF73F1D8EEF1F0D8EED2
:1025C000F1F0B3EEDBF0B3EEDBF00AEE41F00AEE31
:1025D00041F084EDCAEF84EDCAEFB4ED07F0B4ED3D
:1025E00007F0B4ED07F0A3ED03F0A3ED03F042ED27
:1025F000AEEF42EDAEEF30EDA6EF30EDA6EF78EDA9
:10260000F7EF78EDF7EF2BEDB0EF2BEDB0EF6FEDCF
:10261000FAEF6FEDFAEF6FEDFAEF8CED1AF08CED4B
:102620001AF0CDED5BF0CDED5BF085ED12F085EDB0
:1026300012F069EDF3EF69EDF3EFA2EC27EFA2ECF6
:1026400027EFA2EC27EF58ECD4EE58ECD4EEF4EBE5
:1026500068EEF4EB68EEE3EB4CEEE3EB4CEEDDEB17
:102660003CEEDDEB3CEE48EC9AEE48EC9AEE55ED94
:102670009CEF55ED9CEF55ED9CEFF7EC32EFF7EC4E
:1026800032EF8DECBDEE8DECBDEE3DEB63ED3DEB41
:1026900063ED40EB5DED40EB5DED0CEA23EC0CEA05
:1026A00023EC14EA25EC14EA25EC14EA25EC66EA9E
:1026B00075EC66EA75EC49EA59EC49EA59EC97EB96
:1026C000AAED97EBAAEDECEB05EEECEB05EED4EB07
:1026D000F5EDD4EBF5EDD4EBF5ED03EC2FEE03ECDB
:1026E0002FEE8FECC8EE8FECC8EE89EDD2EF89EDBE
:1026F000D2EFD3EE2DF1D3EE2DF12CF098F22CF099
:1027000098F231F1AFF331F1AFF331F1AFF32AF1D8
:10271000B9F32AF1B9F390F130F490F130F424F1E7
:10272000D3F324F1D3F3FDF1B9F4FDF1B9F45DF382
:1027300023F65DF323F66DF438F76DF438F76DF496
:1027400038F7E7F4B3F7E7F4B3F7B3F47AF7B3F491
:102750007AF775F432F775F432F74CF4F9F64CF475
:10276000F9F61BF4B1F61BF4B1F61BF4B1F6F8F36D
:1027700071F6F8F371F646F49AF646F49AF614F404
:102780003DF614F43DF66BF462F66BF462F6D2F4A7
:1027900091F6D2F491F6FBF47CF6FBF47CF6FBF4B4
:1027A0007CF6B9F5F7F6B9F5F7F662F759F862F77E
:1027B00059F837F8E2F837F8E2F83EF99BF93EF9B4
:1027C0009BF925FA32FA25FA32FA35FBF1FA35FB94
:1027D000F1FA35FBF1FA54FCBFFB54FCBFFB84FE5D
:1027E0009EFD84FE9EFD580023FF580023FFBA0182
:1027F0003A00BA013A003C0375013C0375013C0301
:1028000075010704FD010704FD01EF04A602EF04B2
:10281000A6020206810302068103A407F104A407AD
:10282000F1048C08AD058C08AD05440A4107440A43
:102830004107440A41079E0B7D089E0B7D08F20C60
:10284000BA09F20CBA090C0DC4090C0DC409CE0D5D
:102850007D0ACE0D7D0AFF0DAB0AFF0DAB0AD80D28
:10286000880AD80D880AD80D880AB20D690AB20DF7
:10287000690ABB0D800ABB0D800A6E0E430B6E0EFB
:10288000430BB00D9A0AB00D9A0A5B0E5D0B5B0EFE
:102890005D0B5B0E5D0BA60DC10AA60DC10A3B0DBB
:1028A000720A3B0D720AE90D3C0BE90D3C0BFC0D65
:1028B0006C0BFC0D6C0B7B0D080B7B0D080B500D8E
:1028C000F90A500DF90A500DF90AB50D7B0BB50D3B
:1028D0007B0BAB0E8C0CAB0E8C0C290F240D290F2F
:1028E000240DE90FFC0DE90FFC0D25104F0E2510EE
:1028F0004F0E8910C80E8910C80E8910C80EFD1021
:10290000500FFD10500F5B10C10E5B10C10EAF10C9
:10291000260FAF10260F08118F0F08118F0F81118E
:10292000171081111710811117104D11F10F4D1152
:10293000F10FCC107D0FCC107D0F980F570E980F14
:10294000570EBB0E860DBB0E860D390D110C390DC1
:10295000110CA20B870AA20B870AA20B870A4F0A47
:1029600041094F0A41098C098B088C098B08AF0972
:10297000BC08AF09BC0853096D0853096D08BF07AF
:10298000E706BF07E706510687055106870551068A
:102990008705FF044304FF04430439038C02390311
:1029A0008C02FF016001FF016001F6006500F60086
:1029B00065004900C6FF4900C6FF4900C6FFA4FFE5
:1029C0002FFFA4FF2FFF90FF28FF90FF28FF29FE75
:1029D000CFFD29FECFFD54FD05FD54FD05FD9EFCF8
:1029E0005BFC9EFC5BFC54FC1BFC54FC1BFC54FC81
:1029F0001BFCFBFBCCFBFBFBCCFB1EFCF8FB1EFC1F
:102A0000F8FB97FB79FB97FB79FB02FBEAFA02FBE9
:102A1000EAFA7AFB68FB7AFB68FB09FCFBFB09FC22
:102A2000FBFB09FCFBFB1AFD10FD1AFD10FD53FD1D
:102A30004BFD53FD4BFD9BFE94FE9BFE94FEE5FE7D
:102A4000DFFEE5FEDFFEBEFFB6FFBEFFB6FFBEFF48
:102A5000B6FF1B0011001B00110050014301500183
:102A60004301CA01B801CA01B801EE01D701EE0164
:102A7000D70142032403420324030F03E9020F0397
:102A8000E9020F03E9024B031C034B031C03ED0394
:102A9000B303ED03B3032404DE032404DE038A043A
:102AA00036048A0436043C05D9043C05D904A4053F
:102AB0002F05A4052F05A4052F05CD054605CD0539
:102AC0004605EC055005EC055005B006FD05B006C1
:102AD000FD05C406F905C406F905CF07EB06CF07C7
:102AE000EB06CF07EB069508940795089407A9090C
:102AF0008B08A9098B08BE0A8009BE0A8009170C39
:102B0000B80A170CB80A1F0D9E0B1F0D9E0BCC0D9B
:102B1000280CCC0D280CCC0D280C8D0EC50C8D0E60
:102B2000C50C5B0F6D0D5B0F6D0D3E112C0F3E1133
:102B30002C0F80124910801249101E14C2111E144D
:102B4000C2111E14C211B2143212B214321216156E
:102B50007412161574127115AF127115AF126F152C
:102B60008D126F158D127415761274157612BD16AE
:102B7000A613BD16A613BD16A613F517C714F51791
:102B8000C7140019C0150019C0156319141663196C
:102B900014163319DA153319DA15F3189315F318D7
:102BA0009315871925168719251687192516011AD1
:102BB000A116011AA1164019E7154019E715871843
:102BC00039158718391569172B1469172B145116E5
:102BD00027135116271351162713DB14C811DB14C2
:102BE000C811F713FE10F713FE100D12330F0D125C
:102BF000330F6E11B50E6E11B50EB1101B0EB11064
:102C00001B0E4210D20D4210D20D4210D20D210FD8
:102C1000D80C210FD80C570E350C570E350C830EDF
:102C2000890C830E890C380E660C380E660C240E47
:102C30007B0C240E7B0CAB0C280BAB0C280BAB0CC9
:102C4000280B980B3B0A980B3B0A5B0922085B098F
:102C50002208E907D306E907D3061C0726061C0746
:102C60002606700698057006980570069805980661
:102C7000DC059806DC05E1063F06E1063F061A067C
:102C80008E051A068E056A05F3046A05F304950499
:102C9000310495043104C6037203C6037203C603EC
:102CA0007203B2026D02B2026D021902E101190251
:102CB000E101CA019D01CA019D011501F100150143
:102CC000F1008A0070008A0070005EFF4BFF5EFF1B
:102CD0004BFF5EFF4BFFDEFED3FEDEFED3FED6FED5
:102CE000D2FED6FED2FE77FF7AFF77FF7AFF2AFF69
:102CF00034FF2AFF34FF47FF58FF47FF58FF47FFC5
:102D000058FFD3FEECFED3FEECFECDFEEEFECDFE74
:102D1000EEFED0FEF9FED0FEF9FEC6FEF7FEC6FEC0
:102D2000F7FE58FF94FF58FF94FF65FFAAFF65FF69
:102D3000AAFF65FFAAFF55FFA5FF55FFA5FF99FF55
:102D4000F3FF99FFF3FF85FFEBFF85FFEBFF4FFFDD
:102D5000BFFF4FFFBFFF86FF020086FF02003FFF5D
:102D6000C7FF3FFFC7FF3FFFC7FFEBFE7DFFEBFE47
:102D70007DFFD3FD70FED3FD70FE08FDB0FD08FDA4
:102D8000B0FDE6FB98FCE6FB98FCDDFB9AFCDDFB66
:102D90009AFCDDFB9AFC64FB2AFC64FB2AFC20FB0A
:102DA000F0FB20FBF0FB27FBFFFB27FBFFFBEDFA13
:102DB000CEFBEDFACEFBF5F9DEFAF5F9DEFA14F901
:102DC00005FA14F905FA14F905FA8FF788F88FF760
:102DD00088F887F588F687F588F658F561F658F58E
:102DE00061F651F562F651F562F6DCF5F7F6DCF5C1
:102DF000F7F6EFF415F6EFF415F6EFF415F663F4C5
:102E000093F563F493F577F3B5F477F3B5F439F309
:102E100084F439F384F4DEF239F4DEF239F474F236
:102E2000E0F374F2E0F374F2E0F3C9F249F4C9F2AA
:102E300049F487F21DF487F21DF462F210F462F295
:102E400010F4E1F1A8F3E1F1A8F399F07CF299F024
:102E50007CF2DCEFDEF1DCEFDEF1DCEFDEF15DEFEA
:102E60007FF15DEF7FF1B4EEF8F0B4EEF8F0B6EE7E
:102E70001DF1B6EE1DF141EECEF041EECEF051EE79
:102E800005F151EE05F1D7EDB2F0D7EDB2F0D7ED87
:102E9000B2F002EE05F102EE05F105EE30F105EEBD
:102EA00030F18EEEE1F18EEEE1F1A0EE19F2A0EE3E
:102EB00019F2DCED7AF1DCED7AF1DCED7AF13BED43
:102EC000FDF03BEDFDF052ED35F152ED35F19DEDAC
:102ED0009EF19DED9EF1BEEDDAF1BEEDDAF1E7ED8A
:102EE0001AF2E7ED1AF260EDA6F160EDA6F160EDE1
:102EF000A6F1B2ED05F2B2ED05F23BED99F13BED35
:102F000099F193ECF5F093ECF5F041ECA2F041EC83
:102F1000A2F01FEC7BF01FEC7BF08FECE1F08FEC6C
:102F2000E1F08FECE1F0C3ED05F2C3ED05F2F8ED51
:102F300025F2F8ED25F24BEE60F24BEE60F235EE45
:102F40002DF235EE2DF297ED70F197ED70F197EDD2
:102F500070F13EECF4EF3EECF4EF56EBE7EE56EB9F
:102F6000E7EE4FEBBAEE4FEBBAEE01EC45EF01ECBA
:102F700045EFA5EDC2F0A5EDC2F078EE6EF178EE6A
:102F80006EF178EE6EF1D2EEA3F1D2EEA3F16DEE1A
:102F90001AF16DEE1AF1C4ED50F0C4ED50F069EC89
:102FA000D8EE69ECD8EE14EC68EE14EC68EEFEEAAC
:102FB0003DEDFEEA3DEDFEEA3DEDECEA19EDECEA11
:102FC00019ED0EEB2EED0EEB2EED42EB5AED42EB32
:102FD0005AED6EEB82ED6EEB82ED30EB45ED30EBB2
:102FE00045ED30EB45EDA6EBC0EDA6EBC0EDFDEBFE
:102FF00020EEFDEB20EE77EDA5EF77EDA5EF20EECF
:103000005DF020EE5DF0A4EEF2F0A4EEF2F0FCEE46
:103010005CF1FCEE5CF1FCEE5CF11DEF8FF11DEF5D
:103020008FF1FEEF83F2FEEF83F215F1AAF315F1B3
:10303000AAF365F10AF465F10AF4FFF1B0F4FFF1C7
:10304000B0F4FFF1B0F40DF2C7F40DF2C7F486F25C
:1030500045F586F245F5BBF27AF5BBF27AF5F1F269
:10306000AAF5F1F2AAF559F308F659F308F6A2F316
:103070003FF6A2F33FF6A2F33FF63AF4BFF63AF476
:10308000BFF664F4CBF664F4CBF69BF4DEF69BF467
:10309000DEF66CF484F66CF484F680F468F680F462
:1030A00068F645F5F7F645F5F7F645F5F7F6E8F66F
:1030B0005FF8E8F65FF89FF7D7F89FF7D7F8B7F80B
:1030C000ADF9B7F8ADF912F9C2F912F9C2F9D6F9AA
:1030D0003FFAD6F93FFAD6F93FFACDFBEDFBCDFB2F
:1030E000EDFBDBFDB2FDDBFDB2FDBCFF4CFFBCFF29
:1030F0004CFF6201AB006201AB0038023C013802B8
:103100003C010303C6010303C6010303C601900487
:103110001403900414038405CF038405CF033507FB
:103120004B0535074B053009160730091607150BF7
:10313000D108150BD108DF0B7609DF0B7609DF0B01
:103140007609610CD909610CD909CB0C2B0ACB0C7F
:103150002B0AC80D150BC80D150BE90E290CE90E2D
:10316000290C960FCF0C960FCF0C960FCF0C980F03
:10317000D00C980FD00C3710710D3710710D461010
:10318000880D4610880D3310800D3310800D04100B
:10319000600D0410600D170F850C170F850C170FAD
:1031A000850CF70E790CF70E790C930E2C0C930E00
:1031B0002C0CF30EA30CF30EA30C510E1A0C510E93
:1031C0001A0CB40D950BB40D950B0A0D040B0A0DDA
:1031D000040B0A0D040B4B0D5C0B4B0D5C0B010E2D
:1031E000290C010E290C210E5E0C210E5E0C9C0E8A
:1031F000ED0C9C0EED0C150F790D150F790D150FBB
:10320000790DB80E2C0DB80E2C0DAE0E300DAE0E85
:10321000300DC00E4F0DC00E4F0D980E320D980E92
:10322000320D530FF60D530FF60D0C10B60E0C1099
:10323000B60E0C10B60EA410540FA410540FD60FD7
:103240008B0ED60F8B0EB90E730DB90E730D2E0D9E
:10325000EC0B2E0DEC0B190CDB0A190CDB0AE60B40
:10326000AD0AE60BAD0AE60BAD0A3F0C0B0B3F0CAB
:103270000B0B440C160B440C160BBC0B970ABC0B27
:10328000970A420A2509420A25092F091D082F0914
:103290001D082F091D080108FC060108FC06B706D9
:1032A000C105B706C10525063F0525063F05C6042D
:1032B000F203C604F203A803E802A803E802AF027F
:1032C0000402AF020402AF0204025001BC0050012C
:1032D000BC00CBFF4EFFCBFF4EFF88FF22FF88FFD5
:1032E00022FF79FE2AFE79FE2AFE28FEF0FD28FE46
:1032F000F0FD01FEDFFD01FEDFFD01FEDFFD39FD1A
:103300002AFD39FD2AFDC6FCCAFCC6FCCAFC04FD28
:1033100018FD04FD18FD51FD71FD51FD71FD6EFD9F
:1033200099FD6EFD99FD6EFD99FDD1FD04FED1FD67
:1033300004FED9FD0FFED9FD0FFEF8FD2EFEF8FDAF
:103340002EFE63FE96FE63FE96FE10FF3CFF10FF0E
:103350003CFF88FFAAFF88FFAAFF88FFAAFFEB00B7
:103360000001EB00000197019D0197019D0195026D
:103370008902950289025902380259023802B701BE
:103380008001B701800198014A0198014A01980122
:103390004A01A3013C01A3013C017F02FF017F021E
:1033A000FF01F3025902F30259024E039A024E033F
:1033B0009A026F03A1026F03A1026F03A1029B0394
:1033C000B3029B03B3023C033A023C033A0281027C
:1033D000640181026401B5027F01B5027F016D03C2
:1033E0001C026D031C022904BD022904BD0229042C
:1033F000BD02B7053104B7053104E5054304E50511
:103400004304FA053C04FA053C0468068D0468068A
:103410008D048D0794058D07940584086A06840839
:103420006A0684086A06A1096707A10967077E0B77
:1034300022097E0B2209EA0C6B0AEA0C6B0A5E0E6B
:10344000BC0B5E0EBC0BDE0F180DDE0F180DDE0F71
:10345000180D29113F0E29113F0EB911AC0EB911EB
:10346000AC0E6B123C0F6B123C0FA712580FA71239
:10347000580FB5134810B5134810D2144911D2147F
:103480004911D2144911FE155E12FE155E12D116B5
:103490001D13D1161D134C1789134C1789136D1862
:1034A000A0146D18A014F3192116F3192116341A5B
:1034B0006316341A6316341A6316FC193216FC1993
:1034C00032165119931551199315A517F913A5170C
:1034D000F913A6161113A61611134216C812421696
:1034E000C8124216C812C5156B12C5156B123A15D3
:1034F00003123A15031229151812291518128013F0
:103500009610801396109E11DD0E9E11DD0EF10FA8
:10351000590DF10F590DF10F590D540FE40C540FC3
:10352000E40C0F0FC60C0F0FC60CB60F910DB60FA3
:10353000910D730F700D730F700D5E0E7A0C5E0E91
:103540007A0C5E0E7A0C870DBE0B870DBE0BD40B6A
:10355000240AD40B240A070B6B09070B6B097509A6
:10356000EA077509EA0790081307900813079207FE
:1035700020069207200692072006D2066905D20689
:1035800069057F061E057F061E05AA054F04AA05CC
:103590004F04BF046B03BF046B030604B8020604A8
:1035A000B8022104DB022104DB022104DB029103C7
:1035B0005602910356020502D7000502D7003001DA
:1035C000110030011100B3FFA7FEB3FFA7FEC5FE37
:1035D000CFFDC5FECFFDC5FECFFD4BFE70FD4BFE02
:1035E00070FD8CFDCEFC8CFDCEFC37FD9AFC37FDCA
:1035F0009AFC2BFDB2FC2BFDB2FCA8FD55FDA8FDED
:1036000055FD5CFD32FD5CFD32FD5CFD32FD76FD5D
:1036100076FD76FD76FD33FD5DFD33FD5DFD34FD0C
:1036200089FD34FD89FDCCFD4AFECCFD4AFEFFFE3E
:10363000A6FFFFFEA6FF4EFF1A004EFF1A004EFF28
:103640001A0080FF6F0080FF6F009EFFAE009EFF9C
:10365000AE0051FF7D0051FF7D00BDFF0201BDFFA7
:10366000020131008A0131008A0131008A01BC0067
:103670002502BC0025028600FD018600FD01280010
:10368000A7012800A701B5FF3901B5FF3901D7FE11
:103690005F00D7FE5F0080FD08FF80FD08FF80FD12
:1036A00008FF54FDDBFE54FDDBFE4BFDCFFE4BFD62
:1036B000CFFEECFC6DFEECFC6DFE75FCF3FD75FCC5
:1036C000F3FDD4FB4EFDD4FB4EFD4AFAC2FB4AFA91
:1036D000C2FB4AFAC2FBE3F95AFBE3F95AFB78FA58
:1036E000F0FB78FAF0FB5FFAD8FB5FFAD8FB1AFA26
:1036F00096FB1AFA96FB85F908FB85F908FB85F914
:1037000008FB66F8F0F966F8F0F9DAF66DF8DAF623
:103710006DF89FF63CF89FF63CF8AAF552F7AAF52B
:1037200052F785F53AF785F53AF7D9F59BF7D9F5CC
:103730009BF7D9F59BF73FF60EF83FF60EF842F6E9
:1037400020F842F620F824F510F724F510F712F4CB
:103750000CF612F40CF6F7F200F5F7F200F58BF226
:10376000A1F48BF2A1F48BF2A1F44CF270F44CF2C0
:1037700070F48FF1C1F38FF1C1F37DF0BCF27DF0F5
:10378000BCF2F0EF3EF2F0EF3EF265F0C0F265F011
:10379000C0F265F0C0F21EF088F21EF088F2F7EF7A
:1037A0006FF2F7EF6FF2CDF055F3CDF055F3AAF0CD
:1037B00042F3AAF042F300F1A9F300F1A9F37EF07D
:1037C00037F37EF037F37EF037F336EF01F236EF62
:1037D00001F229EE05F129EE05F19BEE89F19BEE50
:1037E00089F156EF55F256EF55F265EF74F265EF39
:1037F00074F25CEF79F25CEF79F25CEF79F2BCEE97
:10380000E7F1BCEEE7F114EE49F114EE49F1BFED3A
:10381000FCF0BFEDFCF0EAED2AF1EAED2AF124EE2E
:1038200064F124EE64F124EE64F118EF55F218EF20
:1038300055F267EF9CF267EF9CF2A8EFD0F2A8EF89
:10384000D0F2CCEFE3F2CCEFE3F2BDEFBEF2BDEF8E
:10385000BEF20EEFF5F10EEFF5F10EEFF5F140EEE1
:1038600009F140EE09F1F9EDA1F0F9EDA1F03CEE1E
:10387000C0F03CEEC0F035EE93F035EE93F077EE0D
:10388000AEF077EEAEF031EF40F131EF40F131EFD5
:1038900040F110EFF7F010EFF7F0E0EEA1F0E0EEFE
:1038A000A1F0A3EE40F0A3EE40F060EEDCEF60EE9E
:1038B000DCEFFDED5BEFFDED5BEFFDED5BEFF0EEC3
:1038C00035F0F0EE35F02FEF60F02FEF60F06BEE9B
:1038D0008DEF6BEE8DEF86ED9EEE86ED9EEE21ED8B
:1038E00034EE21ED34EEE1ECF4EDE1ECF4EDE1EC5D
:1038F000F4ED3AED54EE3AED54EE32EE56EF32EE90
:1039000056EF76EEAAEF76EEAAEF2EEF75F02EEFD9
:1039100075F028F085F128F085F14BF1C1F24BF1FB
:10392000C1F24BF1C1F225F2B5F325F2B5F3D5F2B0
:103930007FF4D5F27FF41BF3DFF41BF3DFF4B0F276
:103940008EF4B0F28EF4A2F298F4A2F298F4A2F2FD
:1039500098F4D3F2DEF4D3F2DEF48FF2ABF48FF20C
:10396000ABF46EF299F46EF299F4A8F2DEF4A8F2D8
:10397000DEF499F3D4F599F3D4F516F352F516F372
:1039800052F516F352F5B5F2EEF4B5F2EEF448F254
:1039900078F448F278F49FF1C3F39FF1C3F36DF22A
:1039A0007EF46DF27EF4F8F2F2F4F8F2F2F413F32E
:1039B000F3F413F3F3F413F3F3F4A0F261F4A0F2CD
:1039C00061F40DF3ABF40DF3ABF477F3F0F477F3AC
:1039D000F0F41BF46BF51BF46BF56BF590F66BF5DF
:1039E00090F66BF590F623F71BF823F71BF826F9F2
:1039F000F0F926F9F0F97DFB17FC7DFB17FCDEFCE6
:103A000047FDDEFC47FD95FDCDFD95FDCDFDCBFED3
:103A1000D2FECBFED2FECBFED2FE3F0017003F000F
:103A200017001802C0011802C00122049C032204DE
:103A30009C03FC054A05FC054A056E0793066E07C4
:103A400093066E0793068C088A078C088A07680914
:103A5000420868094208AA0A6209AA0A6209600BB8
:103A6000FB09600BFB09620CE30A620CE30AFE0C23
:103A7000680BFE0C680BFE0C680B630DBA0B630D34
:103A8000BA0BA70DF00BA70DF00BC20D000CC20D69
:103A9000000C760DAC0B760DAC0B810DB30B810DCC
:103AA000B30BE30E150DE30E150DE30E150DB50F5B
:103AB000E80DB50FE80DC30FF90DC30FF90D140F85
:103AC000500D140F500DE30D260CE30D260C9F0C2A
:103AD000E80A9F0CE80A9F0CE80A740CC50A740CEB
:103AE000C50A690CC00A690CC00A600CBD0A600CEA
:103AF000BD0A040D660B040D660BB90D1D0CB90D46
:103B00001D0CCF0D330CCF0D330CCF0D330C3A0DF4
:103B10009D0B3A0D9D0B850CE40A850CE40A410CC3
:103B20009A0A410C9A0A880CD90A880CD90A9F0D66
:103B3000E70B9F0DE70B240E620C240E620C240E83
:103B4000620CEE0D210CEE0D210CF20C1A0BF20C96
:103B50001A0B030C220A030C220ABB0BD209BB0B63
:103B6000D209A80AB908A80AB908A80AB908D30A44
:103B7000E108D30AE108530A6208530A620875098A
:103B80008A0775098A07FC081C07FC081C07D6076A
:103B90000406D6070406340678043406780434068E
:103BA0007804EE044B03EE044B03AB042703AB0491
:103BB00027037B041B037B041B03D903A102D90346
:103BC000A102B802AC01B802AC010D012F000D0139
:103BD0002F000D012F00ECFF3FFFECFF3FFFE2FF46
:103BE00066FFE2FF66FF71FF26FF71FF26FFE5FE1D
:103BF000CAFEE5FECAFE3BFE4EFE3BFE4EFE3BFE0F
:103C00004EFEC7FD04FEC7FD04FEA8FD0BFEA8FD89
:103C10000BFE18FE9DFE18FE9DFE7BFE1CFF7BFE2C
:103C20001CFF65FF1D0065FF1D001700DF0017006A
:103C3000DF001700DF009E0071019E007101CF00C0
:103C4000A701CF00A7012500FB002500FB00B30062
:103C50008301B30083018B0150028B0150025C028F
:103C600014035C0214035C021403EF029403EF02DA
:103C700094039203240492032404A7032404A703B7
:103C80002404B5031B04B5031B045304A304530409
:103C9000A3045304A3049D04D8049D04D8040F0571
:103CA00036050F0536057B058E057B058E055F0500
:103CB00061055F05610567055905670559058F05AC
:103CC00073058F0573058F0573051B05F1041B052F
:103CD000F1048704500487045004880444048804D1
:103CE0004404D4048304D4048304AF054F05AF0512
:103CF0004F054B06DB054B06DB054B06DB052806AF
:103D0000A5052806A505A5050C05A5050C0557055F
:103D1000A3045705A304EB051805EB051805460693
:103D20005105460651054606510529070D06290786
:103D30000D06C3077C06C3077C066909F3076909FA
:103D4000F307FB0A5409FB0A5409910BB609910BBE
:103D5000B609CE0CBF0ACE0CBF0ACE0CBF0A5B0D53
:103D6000170B5B0D170B770EFE0B770EFE0BBA0FC2
:103D70000E0DBA0F0E0D44106A0D44106A0DC610D8
:103D8000C10DC610C10D7011480E7011480E701192
:103D9000480E5E12170F5E12170FC1136410C11385
:103DA00064106715FC116715FC115317E3135317C3
:103DB000E313B7184A15B7184A15B7184A15CF199B
:103DC0006D16CF196D16FA19AC16FA19AC1618192A
:103DD000E5151819E5152718161527181615A21731
:103DE000B914A217B9146B17AE146B17AE146B1776
:103DF000AE149C170F159C170F15941738159417B0
:103E000038155D1632145D163214F614FB12F614D2
:103E1000FB122D1360112D136011CC122A11CC123C
:103E20002A11CC122A11AC122E11AC122E113412FE
:103E3000D7103412D7100C12C9100C12C9107411FB
:103E40004310741143107E105A0F7E105A0F7E10CB
:103E50005A0FDF0EC10DDF0EC10D4F0D320C4F0D8D
:103E6000320C010CDE0A010CDE0ADA0BAE0ADA0BA8
:103E7000AE0A2E0CF40A2E0CF40A8D0B430A8D0B9D
:103E8000430A8D0B430A6D0A11096D0A11095C0979
:103E9000EE075C09EE074B08CB064B08CB0679070B
:103EA000EA057907EA052F0795052F0795058A0684
:103EB000E9048A06E9048A06E904CD052904CD054A
:103EC0002904CE042D03CE042D039503FC01950394
:103ED000FC01C6023B01C6023B01A2012B00A2016C
:103EE0002B00A2012B009A003DFF9A003DFF2AFF04
:103EF000EDFD2AFFEDFD3FFE25FD3FFE25FD68FDA2
:103F000075FC68FD75FCE2FC19FCE2FC19FC90FCF8
:103F1000F4FB90FCF4FB90FCF4FB9BFB2CFB9BFB69
:103F20002CFB4BFC09FC4BFC09FCE7FCD2FCE7FC3E
:103F3000D2FC20FD37FD20FD37FD1FFD5FFD1FFD7D
:103F40005FFD1FFD5FFDAAFC11FDAAFC11FDADFC8C
:103F500037FDADFC37FDD6FC80FDD6FC80FDA2FC14
:103F600068FDA2FC68FDB8FC97FDB8FC97FD24FD38
:103F700018FE24FD18FE24FD18FEF7FDFDFEF7FDDA
:103F8000FDFE82FE97FF82FE97FFD4FDF5FED4FD75
:103F9000F5FE09FD35FE09FD35FE61FC95FD61FC70
:103FA00095FD68FCA2FD68FCA2FD68FCA2FD54FC26
:103FB00095FD54FC95FDE6FB2CFDE6FB2CFD88FBF6
:103FC000D4FC88FBD4FCC6FA18FCC6FA18FCCCF961
:103FD00023FBCCF923FBCCF923FBA3F900FBA3F9CA
:103FE00000FBC8F92BFBC8F92BFB82FAECFB82FA29
:103FF000ECFB88FBF7FC88FBF7FC4BFBC0FC4BFBA6
:10400000C0FC68FAE2FB68FAE2FB68FAE2FB8AF8B5
:1040100009FA8AF809FAB4F636F8B4F636F8D2F5A1
:1040200056F7D2F556F7C9F54DF7C9F54DF7F8F53E
:104030007AF7F8F57AF7C8F546F7C8F546F7C8F500
:1040400046F72DF5A6F62DF5A6F613F485F513F42F
:1040500085F5E6F34EF5E6F34EF5A1F4FFF5A1F490
:10406000FFF5B0F402F6B0F402F6B0F402F6DFF3B6
:1040700024F5DFF324F508F340F408F340F4EAF103
:1040800015F3EAF115F32CF14AF22CF14AF207F19B
:1040900019F207F119F296F09CF196F09CF196F066
:1040A0009CF1F6F0F3F1F6F0F3F1E5F1DBF2E5F176
:1040B000DBF2E8F2D8F3E8F2D8F305F3F2F305F314
:1040C000F2F34AF236F34AF236F331F11FF231F1EC
:1040D0001FF231F11FF20DF0FEF00DF0FEF0DBEFFC
:1040E000D1F0DBEFD1F0E7EFE5F0E7EFE5F0A7F097
:1040F000AFF1A7F0AFF134F046F134F046F134F00F
:1041000046F13BEF58F03BEF58F043EF6CF043EFD4
:104110006CF098EECEEF98EECEEF12EE53EF12EE7B
:1041200053EF2AEE78EF2AEE78EF05EE5DEF05EE1D
:104130005DEF05EE5DEF47EEA9EF47EEA9EFD0EE9C
:104140003CF0D0EE3CF083EEF7EF83EEF7EFA7ED17
:1041500021EFA7ED21EFB4EC34EEB4EC34EE98ECA3
:104160001CEE98EC1CEE98EC1CEE94EC1CEE94EC1F
:104170001CEE9CEC26EE9CEC26EEC3EC4EEEC3EC63
:104180004EEED4EC60EED4EC60EE41EDCDEE41EDC0
:10419000CDEE41EDCDEE5EEDEAEE5EEDEAEE60EDE8
:1041A000EBEE60EDEBEE94ED1EEF94ED1EEFDBED2C
:1041B00064EFDBED64EF74EEFBEF74EEFBEFC5EE46
:1041C0004BF0C5EE4BF0C5EE4BF014EE98EF14EE4D
:1041D00098EF47EECAEF47EECAEFBDEE3DF0BDEEF9
:1041E0003DF0DEEE5DF0DEEE5DF02EEFA9F02EEF9D
:1041F000A9F0B8EE31F0B8EE31F0B8EE31F061EE82
:10420000D6EF61EED6EF8FEE00F08FEE00F070EF9C
:10421000DDF070EFDDF07DF0E5F17DF0E5F1B2F17C
:1042200015F3B2F115F3B2F115F3D6F235F4D6F277
:1042300035F4D3F32CF5D3F32CF506F55BF606F540
:104240005BF6BBF50CF7BBF50CF7B5F503F7B5F569
:1042500003F769F5B5F669F5B5F669F5B5F69DF5B7
:10426000E7F69DF5E7F69BF5E5F69BF5E5F61DF619
:1042700068F71DF668F799F6E5F799F6E5F723F67E
:1042800072F723F672F768F5BAF668F5BAF668F5CC
:10429000BAF629F57FF629F57FF6BFF518F7BFF5D1
:1042A00018F7DEF53AF7DEF53AF705F663F705F6A7
:1042B00063F7B4F513F7B4F513F7B4F513F707F58F
:1042C00064F607F564F65AF4B2F55AF4B2F5B3F3AE
:1042D00004F5B3F304F5C1F306F5C1F306F5F2F303
:1042E00027F5F2F327F583F5A4F683F5A4F683F515
:1042F000A4F6D1F7D9F8D1F7D9F80BF9F6F90BF9FB
:10430000F6F9FFF9C7FAFFF9C7FABDFA5FFBBDFA84
:104310005FFB55FBCBFB55FBCBFBF0FC38FDF0FC0A
:1043200038FDF0FC38FDF6FE0DFFF6FE0DFF6800CF
:104330004B0068004B004301F2004301F200910280
:104340000B0291020B0242048A0342048A034204D4
:104350008A0364057B0464057B040607EE050607F3
:10436000EE057B0839077B0839075709F00757091D
:10437000F0079E0A18099E0A1809A70B080AA70B3E
:10438000080AA70B080A2D0C7B0A2D0C7B0A9C0C33
:10439000DF0A9C0CDF0ADD0C1C0BDD0C1C0BA10DD5
:1043A000E20BA10DE20B8F0ED80C8F0ED80C880FEC
:1043B000DF0D880FDF0D880FDF0D1511800F151130
:1043C000800F5611D80F5611D80FBB10580FBB10C5
:1043D000580FE30F9C0EE30F9C0E8F0E650D8F0E92
:1043E000650D8F0E650DAC0DA00CAC0DA00C000E74
:1043F0000F0D000E0F0DEF0E180EEF0E180EF90E2A
:10440000390EF90E390E5F0EB20D5F0EB20D630D4F
:10441000C50C630DC50C630DC50CCE0C390CCE0C50
:10442000390C4A0DBB0C4A0DBB0C770EE90D770E0B
:10443000E90D220F900E220F900E610FC90E610F31
:10444000C90E610FC90E450FA20E450FA20E900EA8
:10445000E10D900EE10D2D0E6F0D2D0E6F0DA90DBE
:10446000DD0CA90DDD0C3C0D620C3C0D620CE60C64
:10447000FF0BE60CFF0BE60CFF0BC90CD80BC90CAD
:10448000D80B500C570B500C570B200B240A200B49
:10449000240ACC09D008CC09D0081B0823071B0824
:1044A0002307C906DB05C906DB05C906DB05AD0523
:1044B000CC04AD05CC04E3041504E3041504A30304
:1044C000EB02A303EB029A01FB009A01FB00B4008C
:1044D0003000B4003000B4003000780011007800E3
:1044E0001100C0FF76FFC0FF76FFEDFEC1FEEDFEBE
:1044F000C1FEAAFD99FDAAFD99FD56FC5FFC56FC84
:104500005FFCBDFBDDFBBDFBDDFBBDFBDDFB2BFB7A
:104510005EFB2BFB5EFB88FACBFA88FACBFA67FAD4
:10452000B5FA67FAB5FAACFB00FCACFB00FC14FD75
:1045300069FD14FD69FD75FDC8FD75FDC8FD75FDBE
:10454000C8FDE3FD30FEE3FD30FED0FD14FED0FDDE
:1045500014FEF9FD30FEF9FD30FE35FF5EFF35FF3C
:104560005EFF04001D0004001D0004001D008E00FD
:1045700098008E00980050014B0150014B01F3014F
:10458000E001F301E00184026502840265029B02FE
:1045900072029B0272022303F4022303F402230338
:1045A000F4022504F2032504F203B7048304B704DC
:1045B00083047705440577054405DC05AC05DC0577
:1045C000AC050905DE040905DE040A04E5030A0456
:1045D000E5030A04E503E903C903E903C903ED039D
:1045E000D103ED03D1030B04F2030B04F2038A049D
:1045F0006F048A046F04BF049F04BF049F04BF04B8
:104600009F046D0443046D044304CE049404CE045B
:1046100094044505F5044505F504C4045704C40491
:104620005704F8046704F80467049105D50491055C
:10463000D5049105D50466067A0566067A052F0726
:104640000C062F070C06CE076F06CE076F061B0958
:104650007C071B097C07B20AD108B20AD108CE0C2C
:10466000AA0ACE0CAA0ACE0CAA0A890E200C890E20
:10467000200CB10F060DB10F060D4010550D401066
:10468000550D7A10540D7A10540DD8107C0DD81099
:104690007C0DD8107C0D6411D90D6411D90D4E1309
:1046A0009C0F4E139C0F57158611571586111F1717
:1046B00037131F17371382198D1582198D15091B92
:1046C0001117091B1117091B11172F1B3C172F1B43
:1046D0003C17351B5017351B50171E1B4D171E1B43
:1046E0004D17441B8E17441B8E17561CC218561CA0
:1046F000C2189C1C2D199C1C2D199C1C2D19801B4B
:104700003918801B3918C919AC16C919AC16A31869
:10471000B115A318B1150818401508184015401711
:10472000A0144017A0144017A01409178E140917DD
:104730008E14B2165A14B2165A148D1653148D16BE
:104740005314621642146216421438152E1338158B
:104750002E1335143C1235143C1235143C125D13E3
:1047600072115D137211CD12EC10CD12EC10031208
:104770002A1003122A10D510010FD510010F2D1089
:104780005D0E2D105D0E530F870D530F870D530FC8
:10479000870D4E0E860C4E0E860CA20DE10BA20D5F
:1047A000E10B810CC70A810CC70AA40AF608A40A07
:1047B000F6087B09DC077B09DC077B09DC076F084F
:1047C000E4066F08E406EB067705EB067705AD0512
:1047D0005604AD0556044D0417034D041703B102EA
:1047E000A101B102A1011F0139001F0139001F0100
:1047F0003900C7000F00C7000F00FEFF77FFFEFF64
:1048000077FF53FE00FE53FE00FE37FD19FD37FD16
:1048100019FD81FB9AFB81FB9AFB30FA80FA30FA92
:1048200080FA30FA80FA4DF9D4F94DF9D4F901F94A
:10483000BFF901F9BFF9F0F8E2F9F0F8E2F9AEF8E2
:10484000D3F9AEF8D3F9EBF840FAEBF840FAEBF80D
:1048500040FA32F8B5F932F8B5F952F7FEF852F7E6
:10486000FEF885F658F885F658F8E8F5DEF7E8F52D
:10487000DEF759F56EF759F56EF7A2F4D2F6A2F409
:10488000D2F6A2F4D2F66DF4B5F66DF4B5F66EF389
:10489000CBF56EF3CBF587F2F5F487F2F5F475F20C
:1048A000F0F475F2F0F441F2C6F441F2C6F488F186
:1048B00014F488F114F488F114F4AAF03AF3AAF08D
:1048C0003AF313EFA4F113EFA4F136EDC5EF36ED93
:1048D000C5EF84EC0EEF84EC0EEFD1EB52EED1EB92
:1048E00052EED1EB52EE6DEBE4ED6DEBE4EDC6EB89
:1048F0002FEEC6EB2FEEF2EC4BEFF2EC4BEF06EEA9
:104900004CF006EE4CF005EE35F005EE35F0DBED43
:10491000F3EFDBEDF3EFDBEDF3EF90ED8EEF90EDEA
:104920008EEF97EE7AF097EE7AF0FFEFC5F1FFEF9A
:10493000C5F19BF044F29BF044F22CF1B7F22CF15C
:10494000B7F22CF1B7F274F1E2F274F1E2F286F20E
:10495000D8F386F2D8F3F8F32FF5F8F32FF559F5DD
:1049600078F659F578F6B1F6BAF7B1F6BAF751F725
:1049700048F851F748F851F748F855F73DF855F71A
:104980003DF8BBF698F7BBF698F758F530F658F5B2
:1049900030F6F5F3CAF4F5F3CAF4F1F3CAF4F1F31F
:1049A000CAF47CF45CF57CF45CF57CF45CF558F5B9
:1049B00045F658F545F65AF657F75AF657F751F6B1
:1049C00062F751F662F754F57CF654F57CF652F432
:1049D00093F552F493F552F493F554F4B1F554F47D
:1049E000B1F5E0F359F5E0F359F5AAF340F5AAF370
:1049F00040F596F349F596F349F567F236F467F218
:104A000036F4DEF1C7F3DEF1C7F3DEF1C7F3FDF0F4
:104A1000FDF2FDF0FDF218F02DF218F02DF24CEF42
:104A200073F14CEF73F12CEF61F12CEF61F1CAEFF0
:104A30000AF2CAEF0AF28DEFD4F18DEFD4F18DEFC7
:104A4000D4F1A7EFF2F1A7EFF2F138EF84F138EFEC
:104A500084F183EECAF083EECAF0A6EDE8EFA6ED8E
:104A6000E8EFDAEC13EFDAEC13EFDAEC13EFA3EC88
:104A7000D2EEA3ECD2EEECEB0EEEECEB0EEEE6EBB0
:104A8000FAEDE6EBFAED49EC4EEE49EC4EEE24EC95
:104A900019EE24EC19EECEEBB2EDCEEBB2EDCEEB8F
:104AA000B2EDE1EBB4EDE1EBB4EDD2EB93EDD2EB93
:104AB00093ED22ECD2ED22ECD2ED18EDB7EE18ED2D
:104AC000B7EE30EDBDEE30EDBDEE32EDADEE32EDD8
:104AD000ADEE32EDADEEA7ED0FEFA7ED0FEFFEEE71
:104AE00053F0FEEE53F08EF0CFF18EF0CFF181F166
:104AF000AEF281F1AEF2DEF1F6F2DEF1F6F2DEF1C7
:104B0000F6F2C9F1CBF2C9F1CBF2C7F2B2F3C7F2B8
:104B1000B2F3FBF3CFF4FBF3CFF46EF52BF66EF5A7
:104B20002BF6BCF761F8BCF761F828FAB6FA28FA58
:104B3000B6FA28FAB6FA11FD89FD11FD89FDFAFED3
:104B40005DFFFAFE5DFF96FFE6FF96FFE6FF0700BA
:104B5000460007004600B500E700B500E7001B026D
:104B600042021B0242021B024202750395037503B7
:104B70009503C403E103C403E103F1020F03F1024F
:104B80000F031E0241021E02410253017E01530126
:104B90007E0153017E01CC000401CC000401B00071
:104BA000F800B000F8007B00D5007B00D5004F0076
:104BB000BC004F00BC000A008B000A008B00A5FF60
:104BC0003A00A5FF3A00A5FF3A0085FE2DFF85FEBD
:104BD0002DFFE0FD99FEE0FD99FE09FDCFFD09FDE9
:104BE000CFFD4EFC1EFD4EFC1EFDD9FCADFDD9FCDB
:104BF000ADFDF7FCCAFDF7FCCAFDF7FCCAFD6DFD73
:104C000039FE6DFD39FED1FD8EFED1FD8EFEDBFE3F
:104C100084FFDBFE84FF11009E0011009E00F40063
:104C20005E01F4005E01F4005E013F0281023F027A
:104C3000810277028B0277028B02C002A202C002BD
:104C4000A202D5028102D50281025303C802530396
:104C5000C8024F048C034F048C034F048C03E904F7
:104C6000EF03E904EF032B06FC042B06FC042207E8
:104C7000C2052207C205A3071706A30717061508D2
:104C8000630615086306380867063808670638089B
:104C90006706D307EB05D307EB05A907B305A907FB
:104CA000B305E107E405E107E40505080B0605087F
:104CB0000B069F08B0069F08B0069F08B00676094D
:104CC0009A0776099A07000A3E08000A3E08A809D2
:104CD0000708A8090708CD085107CD085107B707ED
:104CE0006406B7076406EC06C305EC06C305EC06CC
:104CF000C30517071A0617071A06AF06DD05AF0624
:104D0000DD05D8052E05D8052E05D7045204D70495
:104D10005204FE039903FE0399032004D6032004E2
:104D2000D6032004D603EC03B703EC03B703E00378
:104D3000B803E003B80350042E0450042E04F40416
:104D4000D204F404D204B6058D05B6058D05B6056A
:104D50008D054C0616064C0616069B0651069B064C
:104D600051068406230684062306FB067F06FB06FF
:104D70007F067C07E3067C07E306D2071B07D20702
:104D80001B07D2071B07C407EE06C407EE06200761
:104D90002E0620072E069306860593068605D20664
:104DA000AE05D206AE057B0744067B074406C20764
:104DB0007F06C2077F06C2077F06F607AA06F60728
:104DC000AA061107C3051107C305520609055206B5
:104DD00009059B055C049B055C04C8049803C80492
:104DE0009803C8049803C804AD03C804AD037F0446
:104DF0007C037F047C033A0455033A045503DB0229
:104E00001502DB0215024601A2004601A200AEFF18
:104E10002DFFAEFF2DFFAEFF2DFF19FEBBFD19FECE
:104E2000BBFDB9FD7FFDB9FD7FFD3FFD26FD3FFDCB
:104E300026FD90FD97FD90FD97FD05FE2AFE05FEDF
:104E40002AFE05FE2AFEFAFD3BFEFAFD3BFE3EFE73
:104E500097FE3EFE97FE4DFEBDFE4DFEBDFECAFE18
:104E60004DFFCAFE4DFF79FF0E0079FF0E0085FF52
:104E7000290085FF290085FF290053FF040053FF07
:104E8000040044FF000044FF00003FFF06003FFF16
:104E900006002DFFFDFF2DFFFDFF00FFD9FF00FFE6
:104EA000D9FF3BFF1D003BFF1D003BFF1D00FBFF2B
:104EB000E400FBFFE400A6009701A60097010301B0
:104EC000FB010301FB01A800A701A800A7017400D2
:104ED000780174007801740078017A0081017A0009
:104EE0008101D9FFE200D9FFE200AFFFB600AFFFBA
:104EF000B6001500170115001701F900F201F900BD
:104F0000F201AF019902AF019902AF01990262016A
:104F10003802620138021C01DA011C01DA01400189
:104F2000DD014001DD011D0293021D0293024003D9
:104F300088034003880319042E0419042E0419045D
:104F40002E043C0416043C0416043A04D4033A0428
:104F5000D4033B0591043B059104D806E405D8062B
:104F6000E405E308A207E308A207E308A207260B6B
:104F70009709260B9709DC0CFD0ADC0CFD0A9B0D3A
:104F80006E0B9B0D6E0B9D0E240C9D0E240CED0FD5
:104F90002B0DED0F2B0DC011BA0EC011BA0EC011A2
:104FA000BA0E4D1409114D1409111017951310174D
:104FB0009513831AD816831AD8161C1D4C191C1D5C
:104FC0004C19A01EB41AA01EB41A051F051B051FFC
:104FD000051B051F051B441F3C1B441F3C1B5C207D
:104FE000551C5C20551C4021431D4021431D20229F
:104FF000371E2022371EE021131EE021131EE02160
:10500000131E5821AE1D5821AE1D3920B81C392061
:10501000B81CC91D761AC91D761A7B1C5A197B1C2F
:105020005A19B11BC618B11BC618E31A2E18E31A79
:105030002E18E31A2E18751AF617751AF617B919DD
:105040007117B91971170019EC160019EC163E18F2
:105050005B163E185B1637178215371782150A162E
:105060007F140A167F140A167F14B6145113B6144F
:105070005113B0136D12B0136D12A3127C11A31251
:105080007C112611181026111810F40FFB0EF40FC6
:10509000FB0EF40FFB0E530F6B0E530F6B0E0E0F28
:1050A000340E0E0F340E700EA10D700EA10D2A0DD0
:1050B000640C2A0D640C130C550B130C550BD40AFD
:1050C0001D0AD40A1D0AD40A1D0A4A099B084A0966
:1050D0009B08DC073607DC0736076306C70563064F
:1050E000C705E2055105E20551058A0507058A0550
:1050F00007054504D3034504D3034504D303E6025F
:105100008702E6028702C4017B01C4017B01DA0049
:10511000AB00DA00AB00B4FFA1FFB4FFA1FF5CFE5F
:1051200068FE5CFE68FE5CFE68FE0EFD3BFD0EFD4B
:105130003BFD67FCB7FC67FCB7FC4EFCC4FC4EFCB7
:10514000C4FCDFFB7CFCDFFB7CFC3FFB03FC3FFB88
:1051500003FCD2FABFFBD2FABFFBD2FABFFB31FA93
:1051600047FB31FA47FB52F98FFA52F98FFA07F9E8
:105170006BFA07F96BFAC6F850FAC6F850FA71F8EC
:1051800020FA71F820FAEDF7BDF9EDF7BDF9EDF76A
:10519000BDF945F735F945F735F9AFF6BBF8AFF688
:1051A000BBF800F625F800F625F8A3F5DEF7A3F521
:1051B000DEF7B8F406F7B8F406F7B8F406F7DCF350
:1051C00039F6DCF339F626F38EF526F38EF518F270
:1051D00087F418F287F4E4F056F3E4F056F346EF60
:1051E000B6F146EFB6F1ECEE57F1ECEE57F1ECEE1E
:1051F00057F1EFEE51F1EFEE51F178EECCF078EEA1
:10520000CCF080EEC4F080EEC4F0F6ED25F0F6EDC3
:1052100025F0AEEDC6EFAEEDC6EF4FEE4DF04FEE22
:105220004DF04FEE4DF0C9EEAAF0C9EEAAF03AEFFC
:10523000FDF03AEFFDF0CCEF6FF1CCEF6FF12EF017
:10524000B1F12EF0B1F1C3EF26F1C3EF26F1C3EFB8
:1052500026F181EFC3F081EFC3F071F095F171F0A9
:1052600095F189F190F289F190F274F260F374F2A1
:1052700060F354F328F454F328F4BFF37EF4BFF33F
:105280007EF4BFF37EF4AFF35DF4AFF35DF435F37A
:10529000D8F335F3D8F37CF217F37CF217F323F24B
:1052A000BCF223F2BCF206F2A1F206F2A1F291F2F4
:1052B00033F391F233F391F233F363F312F463F3C4
:1052C00012F4A4F365F4A4F365F4B0F487F5B0F434
:1052D00087F57CF56DF67CF56DF63DF54DF63DF503
:1052E0004DF63DF54DF627F557F627F557F632F50D
:1052F00086F632F586F60FF588F60FF588F6C5F4D2
:1053000064F6C5F464F644F40AF644F40AF617F3B6
:1053100003F517F303F517F303F524F235F424F23C
:1053200035F4BDF1F1F3BDF1F1F33DF192F33DF14F
:1053300092F3B1F023F3B1F023F387F013F387F086
:1053400013F387F013F38DF02EF38DF02EF343F06B
:10535000F5F243F0F5F2B4EF71F2B4EF71F2C9EE89
:105360008DF1C9EE8DF147EE0DF147EE0DF109EE2D
:10537000CCF009EECCF009EECCF0C5ED80F0C5ED37
:1053800080F031EDDFEF31EDDFEF68EC04EF68EC3A
:1053900004EFFEEB84EEFEEB84EE82EBEEED82EBAF
:1053A000EEEDB3EB01EEB3EB01EEB3EB01EE33EC5C
:1053B00060EE33EC60EE86EC90EE86EC90EE67ECFF
:1053C0004BEE67EC4BEED0EB8CEDD0EB8CEDD6EBEF
:1053D00069EDD6EB69EDD6EB69EDC4EB2DEDC4EBD1
:1053E0002DED50EC8EED50EC8EEDB2EDC6EEB2ED43
:1053F000C6EE61EE4BEF61EE4BEF03EFC4EF03EF50
:10540000C4EF9BEF34F09BEF34F09BEF34F0ADEF43
:105410001FF0ADEF1FF0CCEF1AF0CCEF1AF0D2F086
:10542000FFF0D2F0FFF0E7F2F4F2E7F2F4F21CF54D
:105430000DF51CF50DF55AF732F75AF732F75AF712
:1054400032F71DF9E0F81DF9E0F8D8F989F9D8F933
:1054500089F9BDFA5FFABDFA5FFA24FCBDFB24FCB2
:10546000BDFB5FFDF1FC5FFDF1FC5FFDF1FCE7FEC4
:1054700077FEE7FE77FE4D00DEFF4D00DEFFB60053
:105480004B00B6004B00A4004100A40041002500E1
:10549000CCFF2500CCFFECFF9FFFECFF9FFFECFF54
:1054A0009FFFB6FF78FFB6FF78FF99FF6AFF99FF6D
:1054B0006AFF40002100400021002D001E002D0049
:1054C0001E007EFF7EFF7EFF7EFF27FF34FF27FF4B
:1054D00034FF27FF34FFDCFEF4FEDCFEF4FE6DFE3D
:1054E0008EFE6DFE8EFE90FEB6FE90FEB6FEA9FE0E
:1054F000CFFEA9FECFFE12FE35FE12FE35FE12FED5
:1055000035FEF0FD0AFEF0FD0AFE4AFE57FE4AFE99
:1055100057FE89FE83FE89FE83FE40FF23FF40FF86
:1055200023FFA0006700A00067004401EB004401D6
:10553000EB004401EB00B1013501B101350124025A
:105540008001240280013A026D013A026D01A2023B
:10555000AC01A202AC0164034302640343028F0462
:1055600045038F0445038F0445033E05CC033E05E8
:10557000CC03DD054604DD0546047B06C3047B063B
:10558000C304D7060205D70602055E0772055E074B
:1055900072055E0772057107750571077505690764
:1055A00063056907630544073A0544073A05E107BF
:1055B000D905E107D9051B091D071B091D0733097B
:1055C00045073309450733094507200948072009DE
:1055D000480709094C0709094C073D089F063D0883
:1055E0009F06E0076406E0076406CE077606CE074E
:1055F0007606670733066707330667073306F20642
:10560000E205F206E2054E0661054E066105470514
:10561000790447057904ED033C03ED033C031703CC
:105620007D0217037D0217037D0298021102980282
:105630001102C5014A01C5014A01B2013C01B20192
:105640003C010D0297010D0297014302C60143027E
:10565000C60115038B0215038B0215038B02CE03C3
:105660003203CE033203C9041604C90416043906F2
:105670006B0539066B0506071B0606071B06210787
:105680001706210717069E0675059E0675059E06D8
:105690007505CB068405CB068405C1075E06C107E8
:1056A0005E064408C9064408C90692080407920821
:1056B0000407F2085507F2085507F2085507B6081F
:1056C0001207B60812071A0874061A087406AB0700
:1056D0000C06AB070C06D8064805D8064805170681
:1056E0009C0417069C04F5059804F5059804F50537
:1056F0009804C5058D04C5058D047A046C037A04ED
:105700006C0379039A0279039A029102E6019102ED
:10571000E6018B0019008B00190025FFECFE25FF28
:10572000ECFE25FFECFE18FE1AFE18FE1AFE89FD9F
:10573000C5FD89FDC5FD78FDEDFD78FDEDFDB0FDF4
:105740005AFEB0FD5AFEF6FDD2FEF6FDD2FEF6FD83
:10575000D2FEDEFDE8FEDEFDE8FE5FFE92FF5FFEAC
:1057600092FF88FEDEFF88FEDEFF9DFE0F009DFE9D
:105770000F00D3FE5B00D3FE5B00F6FE8E00F6FE4C
:105780008E00F6FE8E0015FFB60015FFB60060FE17
:10579000040060FE04001DFEBFFF1DFEBFFF51FEA2
:1057A000EBFF51FEEBFFCFFD5DFFCFFD5DFF88FD01
:1057B00005FF88FD05FF88FD05FF95FDFEFE95FDB3
:1057C000FEFE99FDEBFE99FDEBFEF9FD33FFF9FDC1
:1057D00033FFA8FDC7FEA8FDC7FED2FCD5FDD2FC55
:1057E000D5FDD2FCD5FD9FFC84FD9FFC84FDE6FC2D
:1057F000ADFDE6FCADFD67FD0FFE67FD0FFE82FD12
:105800000AFE82FD0AFE92FDF9FD92FDF9FD9DFD65
:10581000E3FD9DFDE3FD9DFDE3FD81FDA4FD81FD17
:10582000A4FD17FE16FE17FE16FEAEFE87FEAEFEA8
:1058300087FE94FF45FF94FF45FFD7005E00D70029
:105840005E00D7005E002901830029018300A701C3
:10585000D300A701D300DE02D901DE02D9019404EE
:105860005B0394045B039B062E059B062E056E08C6
:10587000C9066E08C9066E08C906800AA208800A11
:10588000A208860C6F0A860C6F0AB20D620BB20D6D
:10589000620B5D0ED40B5D0ED40B730FB30C730F44
:1058A000B30C93119E0E93119E0E93119E0EF9143C
:1058B000D211F914D2111218BD141218BD14051A00
:1058C0008616051A8616671BC317671BC317A81C05
:1058D000E418A81CE418A81CE418A41DC619A41DEB
:1058E000C619E91DF719E91DF7190F1F0F1B0F1F27
:1058F0000F1BEC1FE51BEC1FE51BF41FEB1BF41F3C
:10590000EB1B10200B1C10200B1C10200B1C601F0D
:10591000641B601F641BB21EC41AB21EC41A2E1E62
:10592000521A2E1E521A001E3A1A001E3A1A2A1D28
:105930007D192A1D7D19FE1B6C18FE1B6C18FE1BA1
:105940006C18481BD317481BD317051AAE16051A37
:10595000AE1662192A1662192A161A1901161A1990
:105960000116DF18E615DF18E615DF18E6157B18B7
:10597000A2157B18A2154A1791144A1791145716AD
:10598000BE135716BE133915C1123915C112931320
:105990003B1193133B115B1224105B1224105B121A
:1059A00024101011FC0E1011FC0EAB0FBB0DAB0F31
:1059B000BB0DEB0E200DEB0E200DCB0D270CCB0DF0
:1059C000270C230CA90A230CA90A6D0A1F096D0ACA
:1059D0001F096D0A1F09DC08BB07DC08BB0761074C
:1059E000710661077106D1051305D1051305C104C0
:1059F0003604C10436048F033A038F033A038F033E
:105A00003A031D02FE011D02FE01D000E800D00095
:105A1000E800CCFE1BFFCCFE1BFF00FD84FD00FD5B
:105A200084FDEAFBA3FCEAFBA3FC00FBEBFB00FB11
:105A3000EBFB00FBEBFBB3FACEFBB3FACEFB19FAA0
:105A400060FB19FA60FB34F9A4FA34F9A4FA79F886
:105A50000DFA79F80DFADBF790F9DBF790F911F808
:105A6000E1F911F8E1F911F8E1F9A6F88BFAA6F8D5
:105A70008BFAB3F8AAFAB3F8AAFA6BF86DFA6BF8D6
:105A80006DFA10F819FA10F819FAB4F7C0F9B4F76A
:105A9000C0F9B4F7C0F9FCF707FAFCF707FA10F8F9
:105AA00016FA10F816FAAAF7A8F9AAF7A8F90DF746
:105AB000FFF80DF7FFF8C0F6A5F8C0F6A5F887F6D1
:105AC0005DF887F65DF887F65DF872F537F772F5E1
:105AD00037F7C7F47BF6C7F47BF6D4F376F5D4F347
:105AE00076F562F3F2F462F3F2F459F3D8F459F371
:105AF000D8F4C3F231F4C3F231F4C3F231F49FF2BB
:105B0000FCF39FF2FCF3A0F2EDF3A0F2EDF330F31F
:105B10006EF430F36EF448F378F448F378F4C4F399
:105B2000E7F4C4F3E7F4C4F3E7F4A0F4B7F5A0F4A2
:105B3000B7F5EAF4F6F5EAF4F6F5C3F5C6F6C3F5FB
:105B4000C6F62DF627F72DF627F73DF62EF73DF68C
:105B50002EF70DF6F6F60DF6F6F60DF6F6F6F4F56A
:105B6000D7F6F4F5D7F69EF67CF79EF67CF7C4F6EA
:105B70009FF7C4F69FF754F62CF754F62CF7C3F5AD
:105B80009AF6C3F59AF6CBF4A2F5CBF4A2F5CBF4D2
:105B9000A2F534F40DF534F40DF526F403F526F4EE
:105BA00003F5B9F39CF4B9F39CF428F312F428F349
:105BB00012F41FF314F41FF314F41FF314F488F316
:105BC00089F488F389F4BEF3CFF4BEF3CFF4D7F3AE
:105BD000F9F4D7F3F9F430F466F530F466F527F408
:105BE00074F527F474F503F468F503F468F503F429
:105BF00068F51BF49BF51BF49BF598F335F598F3CA
:105C000035F565F321F565F321F54DF329F54DF3F0
:105C100029F5D2F2CEF4D2F2CEF487F2A5F487F2CF
:105C2000A5F487F2A5F412F252F412F252F4D1F173
:105C300033F4D1F133F47CF1FEF37CF1FEF331F176
:105C4000D2F331F1D2F350F10FF450F10FF450F1DF
:105C50000FF43EF117F43EF117F450F041F350F019
:105C600041F398EF9CF298EF9CF23BEF50F23BEF40
:105C700050F2BFEEDEF1BFEEDEF1A2EEC8F1A2EE11
:105C8000C8F1A2EEC8F1E5ED0CF1E5ED0CF1FFEC89
:105C900021F0FFEC21F02AEC41EF2AEC41EF39EC46
:105CA0003EEF39EC3EEF5BEC4AEF5BEC4AEF23EC66
:105CB000F5EE23ECF5EE23ECF5EEB6EC66EFB6EC84
:105CC00066EF67ECF0EE67ECF0EE15EC73EE15ECBA
:105CD00073EE7EEBABED7EEBABED55EB4FED55EBA5
:105CE0004FED55EB4FED27ECECED27ECECED75EDC2
:105CF00003EF75ED03EFA4EFF9F0A4EFF9F0B0F0C6
:105D0000CEF1B0F0CEF129F111F229F111F2F7F054
:105D1000AAF1F7F0AAF1F7F0AAF1E6F068F1E6F0DF
:105D200068F1ECF141F2ECF141F217F344F317F3AF
:105D300044F3E4F4EFF4E4F4EFF43CF62AF63CF632
:105D40002AF63CF62AF646F71DF746F71DF762F8E5
:105D500028F862F828F8DFF89BF8DFF89BF85CF980
:105D600015F95CF915F9D8F993F9D8F993F94EFAC0
:105D700011FA4EFA11FA4EFA11FA38FB07FB38FB0A
:105D800007FB25FC06FC25FC06FC72FC66FC72FC8D
:105D900066FC48FC53FC48FC53FC4AFC6DFC4AFC86
:105DA0006DFC81FCBCFC81FCBCFC81FCBCFC58FC97
:105DB000ABFC58FCABFCD0FB38FCD0FB38FC60FBE8
:105DC000DCFB60FBDCFBD6FA62FBD6FA62FB89FAED
:105DD00021FB89FA21FB89FA21FB4FFAEEFA4FFAEF
:105DE000EEFA8FF930FA8FF930FA43F9E0F943F916
:105DF000E0F911F9A4F911F9A4F9E1F866F9E1F86B
:105E000066F902F972F902F972F902F972F935F9D3
:105E10008BF935F98BF9B0F9E8F9B0F9E8F91DFA21
:105E200032FA1DFA32FA96FA85FA96FA85FA8DFB5D
:105E300055FB8DFB55FB81FC1FFC81FC1FFC81FC8D
:105E40001FFCBAFC2DFCBAFC2DFC5AFDA2FC5AFD2D
:105E5000A2FCFDFD1CFDFDFD1CFDEDFEE4FDEDFEC7
:105E6000E4FD7F0052FF7F0052FF7F0052FFB1012F
:105E70006300B101630076020C0176020C01BB02E3
:105E80003901BB023901BD032902BD032902B10357
:105E90001202B10312025103AB015103AB015103D2
:105EA000AB01B5030F02B5030F02D9033902D903C1
:105EB00039029D0408039D040803F4047003F404EC
:105EC000700398052B0498052B040106AD04010608
:105ED000AD040106AD0494065E0594065E057607E2
:105EE0006006760760067D0788067D078806A3079B
:105EF000D106A307D1066407B4066407B406640795
:105F0000B4062E079F062E079F06970626069706BD
:105F10002606FF05A905FF05A905F105B305F1054D
:105F2000B3051105E5041105E50489046A04890433
:105F30006A0489046A048E0474048E047404880359
:105F40006F0388036F031B02FB011B02FB0114019B
:105F5000E7001401E700D0008F00D0008F008B0114
:105F600030018B0130018B013001BE024502BE02BF
:105F70004502D2033503D20335034A0486034A049B
:105F80008603AC04BE03AC04BE0319050104190565
:105F90000104190501046F052C046F052C04BE05CE
:105FA0005204BE0552045206BF045206BF04F30653
:105FB0003D05F3063D0563079105630791056507F8
:105FC0007C0565077C0565077C05B706BF04B70639
:105FD000BF044C064D044C064D040C060F040C0681
:105FE0000F0443065104430651048F06B2048F0682
:105FF000B2046A06AB046A06AB046A06AB041F0669
:1060000087041F0687043A05D1033A05D1032E04FD
:10601000FC022E04FC02BD03C902BD03C9020E032B
:106020005D020E035D020E035D02E2017901E201F1
:1060300079011C01FD001C01FD0041006D004100C3
:106040006D00FFFF7700FFFF77002500E7002500C8
:10605000E7008A0094018A0094018A009401CC0030
:106060001902CC0019020B0196020B019602C9011C
:106070008D03C9018D034901400349014003FC0020
:106080001E03FC001E03CB001003CB001003CB004B
:1060900010035C00BE025C00BE02F4FF6902F4FF64
:1060A000690243FFC50143FFC501FCFE8401FCFEFC
:1060B0008401AAFE3001AAFE3001AAFE300132FF9F
:1060C000B00132FFB00194FF030294FF03023AFFD4
:1060D00095013AFF9501D9FE1B01D9FE1B016BFE0C
:1060E0008E006BFE8E0069FE690069FE690069FE24
:1060F000690042FE1D0042FE1D0071FE220071FE7D
:106100002200E4FE6700E4FE67007FFED1FF7FFE11
:10611000D1FFB0FECEFFB0FECEFF54FF3B0054FFD8
:106120003B0054FF3B0045FFF2FF45FFF2FFAEFF8F
:106130001F00AEFF1F002D005F002D005F004B0011
:106140003B004B003B005900060059000600590077
:106150000600CE003500CE003500740195007401B4
:1061600095005E0238015E02380179040B03790460
:106170000B03D2061D05D2061D0566086B066608D0
:106180006B0666086B063E09FF063E09FF063F0ADE
:10619000BF073F0ABF07680BAB08680BAB08DF0CF3
:1061A000E909DF0CE909770E4D0B770E4D0B561000
:1061B000FF0C5610FF0C5610FF0CDA125C0FDA12AF
:1061C0005C0F5215B4115215B41108185014081868
:1061D00050141F1A56161F1A5616D81B0318D81B10
:1061E0000318D81B03189A1DC2199A1DC219711ED3
:1061F0009D1A711E9D1AE91E1E1BE91E1E1BBF1F44
:10620000021CBF1F021C3920901C3920901C9120B9
:10621000FF1C9120FF1C9120FF1C13219B1D1321AB
:106220009B1D3821DD1D3821DD1D4D21101E4D2106
:10623000101EFA20DA1DFA20DA1D6A20681D6A2075
:10624000681D6A20681D281F421C281F421C651EED
:10625000991B651E991B4D1E9A1B4D1E9A1BB91D3D
:106260001D1BB91D1D1B751DED1A751DED1ADF1CBB
:10627000681ADF1C681ADF1C681A351CCD19351C1A
:10628000CD19EE1A9418EE1A941871192217711973
:1062900022171B18D7151B18D715CF169514CF1614
:1062A00095145A162A145A162A145A162A14A51581
:1062B0008013A5158013C214A812C214A812BA1311
:1062C000AE11BA13AE115F1262105F126210C510E8
:1062D000DA0EC510DA0EC510DA0EAF0EDA0CAF0EFC
:1062E000DA0C070D490B070D490BD30B300AD30B02
:1062F000300A4E0AC9084E0AC908860922088609CA
:106300002208A6086607A6086607A6086607B90653
:10631000A005B906A005EC04FC03EC04FC03300363
:106320006B0230036B02B9012101B9012101880020
:106330001E0088001E0099FF5EFF99FF5EFF99FF17
:106340005EFF51FE45FE51FE45FEFAFC1DFDFAFCC6
:106350001DFD61FCB3FC61FCB3FCB0FB2EFCB0FB8B
:106360002EFCB6FA60FBB6FA60FBB6FA60FB1BFACD
:10637000EFFA1BFAEFFA8AF987FA8AF987FAB2F884
:10638000D4F9B2F8D4F934F878F934F878F959F73F
:10639000BDF859F7BDF899F619F899F619F899F674
:1063A00019F847F6DEF747F6DEF758F604F858F620
:1063B00004F89CF657F89CF657F8F1F5B7F7F1F5A5
:1063C000B7F72AF5F6F62AF5F6F6B5F484F6B5F43D
:1063D00084F6B5F484F60AF4D6F50AF4D6F5B7F3E4
:1063E0007CF5B7F37CF52CF4E5F52CF4E5F505F434
:1063F000AFF505F4AFF59DF334F59DF334F59DF35A
:1064000034F53DF3BEF43DF3BEF4AFF216F4AFF253
:1064100016F45BF2A8F35BF2A8F3A9F2D9F3A9F2A0
:10642000D9F365F378F465F378F4A9F39FF4A9F34D
:106430009FF4A9F39FF4D7F4B1F5D7F4B1F599F52A
:1064400058F699F558F6B3F55BF6B3F55BF6F9F542
:106450008DF6F9F58DF662F6E6F662F6E6F652F797
:10646000CAF752F7CAF752F7CAF7A3F715F8A3F716
:1064700015F8C4F735F8C4F735F821F797F721F781
:1064800097F772F6F2F672F6F2F657F6E7F657F667
:10649000E7F657F6E7F615F6BBF615F6BBF6CDF5BB
:1064A0008CF6CDF58CF631F510F631F510F6C4F416
:1064B000C6F5C4F4C6F554F47EF554F47EF5A4F3A1
:1064C000F7F4A4F3F7F4A4F3F7F4ADF32DF5ADF37B
:1064D0002DF50CF4B9F50CF4B9F52BF407F62BF403
:1064E00007F619F523F719F523F776F5AFF776F5E3
:1064F000AFF7D6F43CF7D6F43CF7D6F43CF741F4CA
:10650000D3F641F4D3F687F342F687F342F6E9F285
:10651000CCF5E9F2CCF54EF256F54EF256F5C3F154
:10652000EDF4C3F1EDF4C3F1EDF418F161F418F1F9
:1065300061F4BCF020F4BCF020F4DDF05BF4DDF09D
:106540005BF459F0EDF359F0EDF339EFDFF239EF89
:10655000DFF264EE19F264EE19F264EE19F29CEDCA
:106560005CF19CED5CF172ED3AF172ED3AF185ED82
:1065700051F185ED51F1D2EC9EF0D2EC9EF0FFEBA3
:10658000C7EFFFEBC7EF18EBD7EE18EBD7EE18EB22
:10659000D7EE65EA18EE65EA18EEB2E954EDB2E915
:1065A00054ED39E9C3EC39E9C3EC61E9D0EC61E9B8
:1065B000D0ECECE93CEDECE93CEDECE93CED40EAFB
:1065C0006BED40EA6BEDBAEABBEDBAEABBEDF7EA78
:1065D000CBEDF7EACBED53EAF6EC53EAF6EC7DEAC5
:1065E000EBEC7DEAEBEC4FEB86ED4FEB86ED4FEB02
:1065F00086ED55EC52EE55EC52EE3EED02EF3EEDDF
:1066000002EFB9EE43F0B9EE43F0B9EF09F1B9EF9B
:1066100009F15AF072F15AF072F122F204F322F207
:1066200004F322F204F349F3FAF349F3FAF3A6F47C
:1066300029F5A6F429F503F65CF603F65CF667F790
:106640009DF767F79DF792F8AAF892F8AAF892F8E2
:10665000AAF83FF940F93FF940F930FA1EFA30FA4A
:106660001EFA7EFA61FA7EFA61FA77FB54FB77FB39
:1066700054FBB8FC93FCB8FC93FC9FFD7EFD9FFD92
:106680007EFD9FFD7EFD33FE1AFE33FE1AFE62FE86
:1066900054FE62FE54FEFBFEFCFEFBFEFCFE74FF9D
:1066A00084FF74FF84FF89FFAAFF89FFAAFFC3FF4D
:1066B000F4FFC3FFF4FFC3FFF4FF61FFA2FF61FF1C
:1066C000A2FFC1FE10FFC1FE10FFF6FE51FFF6FE55
:1066D00051FF7DFEE2FE7DFEE2FE67FDD2FD67FD1D
:1066E000D2FD67FDD2FD90FCFFFC90FCFFFCCDFBD2
:1066F0003CFCCDFB3CFC2FFB9AFB2FFB9AFBB1FA39
:1067000016FBB1FA16FB39FA94FA39FA94FAA6F99B
:10671000F3F9A6F9F3F9A6F9F3F984F9C2F984F9C2
:10672000C2F9E0F90CFAE0F90CFADAF9F1F9DAF960
:10673000F1F9AEF9AFF9AEF9AFF9B6F9A0F9B6F9DA
:10674000A0F9B6F9A0F999F96AF999F96AF9E1F9A4
:1067500099F9E1F999F9F7F996F9F7F996F929FA1A
:10676000AEF929FAAEF939FBA5FA39FBA5FAC5FC51
:1067700019FCC5FC19FCC5FC19FC62FE9FFD62FEFC
:106780009FFD72FF99FE72FF99FEF3FF05FFF3FF75
:1067900005FF40003FFF40003FFFDC00CBFFDC0077
:1067A000CBFF6801490068014900680149005002B7
:1067B000240150022401FC02C801FC02C8018C0320
:1067C00052028C03520282044503820445034805A9
:1067D0000A0448050A0448050A043106F70431068C
:1067E000F7043B0707063B070706AA087F07AA0826
:1067F0007F07DD08BD07DD08BD072909170829093E
:1068000017089A0998089A0998089A099808F9089F
:106810000808F9080808D708F807D708F807C408CF
:10682000F707C408F7070C094F080C094F088F0831
:10683000E3078F08E3079F0700079F0700079F07ED
:106840000007F9056505F905650598030C0398032C
:106850000C03BE023502BE023502BE023402BE0285
:1068600034025603C8025603C8025603C8020A047B
:1068700072030A0472038904E3038904E3031A051B
:1068800063041A0563042C055F042C055F044205AC
:106890005D0442055D04C205C304C205C304C2050C
:1068A000C304FD05E304FD05E304B9068405B90648
:1068B0008405FD07AE06FD07AE06680803076808F5
:1068C00003071908A1061908A10696070F069607DF
:1068D0000F0696070F06FC066D05FC066D05BD0646
:1068E0002C05BD062C0508077C0508077C05D0068D
:1068F0005205D00652052C06C3042C06C3042C06F0
:10690000C3040506BA040506BA042306FD042306DB
:10691000FD046F0574046F05740464049C0364042F
:106920009C037803E7027803E702870232028702BA
:10693000320287023202DB01C401DB01C4019D0087
:10694000C5009D00C50055FFBCFF55FFBCFF8BFE79
:106950002FFF8BFE2FFF7CFE5AFF7CFE5AFFEDFEC1
:106960000000EDFE0000EDFE00003CFF7F003CFF5C
:106970007F004DFFB9004DFFB900A7FF3601A7FF0B
:1069800036012B00D5012B00D5011300CF011300D8
:10699000CF011300CF010C00D4010C00D401E1FFA2
:1069A000AD01E1FFAD01E5FFAC01E5FFAC01F7FF93
:1069B000B501F7FFB5013200E0013200E0013F0010
:1069C000DA013F00DA013F00DA013A00BC013A0087
:1069D000BC016000C8016000C801D8FF2401D8FFD5
:1069E000240110003D0110003D01D9FFE900D9FF4D
:1069F000E9007BFF6D007BFF6D007BFF6D005BFF9F
:106A000030005BFF300016FFCEFF16FFCEFF6AFF9F
:106A100007006AFF070058FFD9FF58FFD9FF58FF4A
:106A2000BFFF58FFBFFF58FFBFFFADFEF9FEADFE31
:106A3000F9FE70FEA0FE70FEA0FE6EFF82FF6EFFEC
:106A400082FFE9FFDFFFE9FFDFFF1E00F2FF1E000C
:106A5000F2FF1900C8FF1900C8FF1900C8FF4D0058
:106A6000D4FF4D00D4FF00015B0000015B00C901B1
:106A7000F300C901F3001D0312021D031202770483
:106A80003103770431037305F0037305F0037305D5
:106A9000F003F6063005F6063005B008A506B00886
:106AA000A506060AB307060AB307370B9B08370B80
:106AB0009B088A0CA3098A0CA3098A0CA309EC0D74
:106AC000BC0AEC0DBC0A07108E0C07108E0C9F122E
:106AD000E00E9F12E00ED014CE10D014CE10E716A8
:106AE000A712E716A7125219DA145219DA1452191A
:106AF000DA14A41BF916A41BF916E21C0C18E21CEC
:106B00000C18B21DB818B21DB818241E0D19241E79
:106B10000D19C41E9919C41E9919EF1FB81AEF1F39
:106B2000B81AEF1FB81A9A205F1B9A205F1BB32078
:106B30007D1BB3207D1BA020751BA020751BC820CA
:106B4000B11BC820B11B8B208E1B8B208E1B8B2072
:106B50008E1BC31FE61AC31FE61AFB1E451AFB1E37
:106B6000451AE81E5D1AE81E5D1AD71E7B1AD71E4D
:106B70007B1A871E5D1A871E5D1A311E3E1A311E52
:106B80003E1A311E3E1A5D1DA2195D1DA219861CFA
:106B90000519861C0519BE1B7818BE1B7818F51A36
:106BA000EA17F51AEA177719A9167719A916991885
:106BB000061699180616991806161118B715111801
:106BC000B7150717E6140717E61400161614001673
:106BD000161440148A1240148A12C6124211C612A8
:106BE0004211C61242110F11BB0F0F11BB0FE70F5D
:106BF000C00EE70FC00E510F550E510F550E030E6C
:106C00002D0D030E2D0D890CD80B890CD80B620AA3
:106C1000D209620AD209620AD2097D080B087D08EE
:106C20000B082707D2062707D2062406E805240604
:106C3000E8058E056A058E056A055804490458045E
:106C4000490458044904F802FD02F802FD02F0016B
:106C50000602F0010602C400EC00C400EC00BCFF18
:106C6000F3FFBCFFF3FF95FEDCFE95FEDCFEAAFD04
:106C700000FEAAFD00FEAAFD00FE42FDA6FD42FDAB
:106C8000A6FD7FFCF2FC7FFCF2FC40FBC2FB40FB5C
:106C9000C2FBE9F979FAE9F979FAD5F874F9D5F886
:106CA00074F91FF8CDF81FF8CDF81FF8CDF8E0F70C
:106CB0009DF8E0F79DF863F72FF863F72FF861F67A
:106CC0003CF761F63CF723F50CF623F50CF669F476
:106CD00061F569F461F569F461F527F42CF527F4A1
:106CE0002CF5CCF3DEF4CCF3DEF4BAF3D7F4BAF33C
:106CF000D7F479F3A0F479F3A0F44DF37EF44DF3D7
:106D00007EF404F33DF404F33DF404F33DF446F261
:106D100086F346F286F35AF1A0F25AF1A0F2DBF0C4
:106D200025F2DBF025F2FDF04BF2FDF04BF266F1BF
:106D3000B7F266F1B7F201F255F301F255F301F241
:106D400055F380F2D5F380F2D5F310F367F410F326
:106D500067F48CF3E5F48CF3E5F46CF4C7F56CF4AC
:106D6000C7F55CF5B9F65CF5B9F65CF5B9F64CF625
:106D7000ABF74CF6ABF74EF7B1F84EF7B1F821F898
:106D800087F921F887F948F8B2F948F8B2F982F79B
:106D9000F2F882F7F2F869F7DFF869F7DFF869F7D8
:106DA000DFF811F78CF811F78CF8A9F62CF8A9F692
:106DB0002CF85FF6EAF75FF6EAF7A9F53CF7A9F5D4
:106DC0003CF725F5C1F625F5C1F699F43FF699F49F
:106DD0003FF699F43FF627F5D7F627F5D7F6C5F530
:106DE00080F7C5F580F7F3F5BAF7F3F5BAF767F66C
:106DF0003BF867F63BF833F614F833F614F833F63D
:106E000014F8C8F5B9F7C8F5B9F780F581F780F53A
:106E100081F74EF562F74EF562F700F527F700F5BA
:106E200027F74BF488F64BF488F646F49AF646F4C6
:106E30009AF646F49AF639F4A5F639F4A5F63FF336
:106E4000C6F53FF3C6F56FF212F56FF212F591F148
:106E500051F491F151F4AEF08CF3AEF08CF362F09A
:106E60005EF362F05EF362F05EF38BF0A5F38BF0FD
:106E7000A5F345F07CF345F07CF34AEF9DF24AEF31
:106E80009DF215EE82F115EE82F118ED9AF018EDF3
:106E90009AF018ED9AF02AECBFEF2AECBFEFF0EA77
:106EA00093EEF0EA93EEC9E975EDC9E975EDDEE818
:106EB0008DECDEE88DECCBE876ECCBE876EC0CE9FB
:106EC000AEEC0CE9AEEC0CE9AEECEAE87BECEAE8FF
:106ED0007BEC7BE8F4EB7BE8F4EB43E89DEB43E8E9
:106EE0009DEB6DE8A1EB6DE8A1EB81E889EB81E812
:106EF00089EB74E849EB74E849EB74E849EB32E854
:106F0000D0EA32E8D0EA84E8E7EA84E8E7EA74E91C
:106F100097EB74E997EBE3EAC4ECE3EAC4EC56ECD4
:106F2000F5ED56ECF5ED56ECF5EDF6ED52EFF6ED30
:106F300052EFE8EF01F1E8EF01F17FF157F27FF155
:106F400057F2E0F27AF3E0F27AF3F8F358F4F8F358
:106F500058F487F5B2F587F5B2F587F5B2F515F770
:106F600010F715F710F7C1F892F8C1F892F817FA70
:106F7000C4F917FAC4F9CCFA5CFACCFA5CFAB3FBA0
:106F80002CFBB3FB2CFB57FCC0FB57FCC0FB57FC96
:106F9000C0FB82FDE3FC82FDE3FCA5FE05FEA5FE31
:106FA00005FEAAFF0EFFAAFF0EFF7900E7FF79009A
:106FB000E7FFD8005500D8005500D80055008401DF
:106FC00016018401160161010A0161010A01F5003F
:106FD000BA00F500BA0092007400920074008AFFB3
:106FE0008BFF8AFF8BFFE0FE02FFE0FE02FFE0FE68
:106FF00002FF36FE77FE36FE77FE5EFDBFFD5EFDCC
:10700000BFFDBEFC3DFDBEFC3DFD1BFCB5FC1BFCFD
:10701000B5FC2AFCDDFC2AFCDDFCEBFBB3FCEBFB46
:10702000B3FCEBFBB3FC4BFB24FC4BFB24FC26FB2F
:107030000AFC26FB0AFCC4FAAFFBC4FAAFFB60FAF9
:107040004CFB60FA4CFB76FA5EFB76FA5EFB76FA56
:107050005EFB83FA60FB83FA60FBD1F99DFAD1F9FC
:107060009DFA5BF911FA5BF911FAD7F970FAD7F9C1
:1070700070FAA3FA1BFBA3FA1BFB66FBB7FB66FBCC
:10708000B7FB66FBB7FB47FC6EFC47FC6EFCCCFC19
:10709000C4FCCCFCC4FC2DFDF6FC2DFDF6FC34FE3E
:1070A000CBFD34FECBFD24FF87FE24FF87FE95FF3A
:1070B000C7FE95FFC7FE95FFC7FEB4FFB5FEB4FF40
:1070C000B5FE630037FF630037FF5B0105005B011E
:1070D000050007028D0007028D00AE021501AE0209
:1070E0001501AE0215017B03C9017B03C901970499
:1070F000D3029704D302F8052904F80529041607DA
:107100004505160745051D0750051D0750053307A2
:10711000710533077105330771056F07BE056F07EA
:10712000BE05CB073206CB0732063508B90635084F
:10713000B9062508C9062508C906A8077006A807C4
:107140007006A80770067E066B057E066B058A052D
:107150009C048A059C0433046B0333046B032C03E7
:1071600085022C038502EC026502EC02650216031F
:10717000AA021603AA021603AA02C2036D03C203DF
:107180006D03D3038E03D3038E031704DC031704AC
:10719000DC033E0408043E04080468043004680468
:1071A0003004530515055305150553051505D6057A
:1071B0008B05D6058B054606EA054606EA059F06B9
:1071C0002E069F062E06AC062406AC0624060007F3
:1071D0005F0600075F0600075F060D0752060D07F2
:1071E00052061D074A061D074A06300748063007A3
:1071F000480629072E0629072E0674076906740714
:1072000069064D0738064D0738064D073806F10662
:10721000D605F106D60588066E0588066E052B068E
:1072200018052B06180516060F0516060F05FD0591
:107230000905FD0509057E05A1047E05A1047E055D
:10724000A1045E049E035E049E034A03AA024A034D
:10725000AA026002E5016002E5014E01F9004E015B
:10726000F900850058008500580085005800380056
:1072700033003800330081FFA5FF81FFA5FF4EFFDB
:1072800099FF4EFF99FFF1FF6200F1FF6200EEFFF0
:107290008200EEFF82007BFF2F007BFF2F007BFF31
:1072A0002F006AFF3B006AFF3B00B9FFA300B9FF54
:1072B000A300EBFFEA00EBFFEA00E2FFF200E2FFCF
:1072C000F20059FF780059FF7800BEFEE8FFBEFECD
:1072D000E8FFBEFEE8FF51FE82FF51FE82FF6FFE17
:1072E000A3FF6FFEA3FF5FFE94FF5FFE94FF89FD87
:1072F000BCFE89FDBCFE66FD95FE66FD95FE66FD45
:1073000095FE8CFDB4FE8CFDB4FE8DFDABFE8DFDB7
:10731000ABFE72FD85FE72FD85FEBEFDC2FEBEFDAA
:10732000C2FE13FE06FF13FE06FF8FFE6EFF8FFEEA
:107330006EFF8FFE6EFF82FF4A0082FF4A00B6FF9B
:107340006400B6FF64001E00AF001E00AF006A00BC
:10735000D9006A00D900A400EE00A400EE00630189
:10736000830163018301630183012E0220022E0247
:1073700020021D03DE021D03DE027203FC02720303
:10738000FC02D5032603D5032603BA04CE03BA04B0
:10739000CE03BA04CE03CF05A204CF05A204600732
:1073A000F1056007F105CA081707CA081707130A8D
:1073B0001B08130A1B08450B0809450B0809710C2B
:1073C000F009710CF009710CF0092E0E6A0B2E0EEB
:1073D0006A0BCA0FC70CCA0FC70CFC11BC0EFC11FC
:1073E000BC0EEC147411EC1474113A178E133A1786
:1073F0008E130F1935150F1935150F193515831AF9
:107400008016831A8016C61BA217C61BA2171E1D44
:10741000DE181E1DDE18781E241A781E241AE41F9A
:10742000811BE41F811BE41F811B1921AF1C192143
:10743000AF1CBA214F1DBA214F1D1622B01D1622B6
:10744000B01DEF21951DEF21951D65211B1D6521A7
:107450001B1DFA20C41CFA20C41CFA20C41C5F2087
:10746000431C5F20431C5020511C5020511C7D2088
:107470009D1C7D209D1CEB1F2E1CEB1F2E1C141F22
:107480007C1B141F7C1B801E0F1B801E0F1B801E6D
:107490000F1BD21D891AD21D891A1D1DFD191D1D14
:1074A000FD19741C7C19741C7C19231B5618231B92
:1074B00056187219CE167219CE167219CE163B18BE
:1074C000C0153B18C0157E172D157E172D150316F8
:1074D000DB130316DB133814381238143812BB12BE
:1074E000E410BB12E4109E11EF0F9E11EF0F9E11DE
:1074F000EF0FB5102E0FB5102E0F960F360E960FFC
:10750000360E7A0E410D7A0E410D910C800B910CC6
:10751000800B190B300A190B300A160A5409160A87
:107520005409160A54095408BA075408BA07F00651
:107530007E06F0067E062306D9052306D9058D05AD
:107540006D058D056D059804A1049804A1049804A7
:10755000A104D8030A04D8030A0412036E03120319
:107560006E03C4014902C40149021601C401160197
:10757000C401700048017000480181FF810081FF53
:10758000810081FF810082FEAAFF82FEAAFFFAFC31
:1075900049FEFAFC49FE92FB05FD92FB05FD49FA06
:1075A000DEFB49FADEFB9CF952FB9CF952FBA6F983
:1075B00078FBA6F978FBA6F978FBDBF8C7FADBF8CD
:1075C000C7FAE5F7E7F9E5F7E7F91EF732F91EF72D
:1075D00032F916F638F816F638F84BF575F74BF51C
:1075E00075F74BF575F79AF4C9F69AF4C9F6FCF3FA
:1075F0002AF6FCF32AF6CCF3F5F5CCF3F5F5DEF339
:10760000FEF5DEF3FEF5B3F3C5F5B3F3C5F51AF3F6
:107610001BF51AF31BF51AF31BF587F273F487F2C7
:1076200073F45DF232F45DF232F4C2F17EF3C2F132
:107630007EF3FEF0A0F2FEF0A0F27BF001F27BF010
:1076400001F27BF001F203F06EF103F06EF102F053
:1076500052F102F052F16CF0A4F16CF0A4F10DF1D2
:107660002EF20DF12EF2A3F1AFF2A3F1AFF290F2F0
:107670008AF390F28AF390F28AF3C4F3B1F4C4F37C
:10768000B1F4B8F499F5B8F499F520F5FBF520F5C7
:10769000FBF51AF5F2F51AF5F2F5E3F4BCF5E3F4AF
:1076A000BCF5FEF4DAF5FEF4DAF5FEF4DAF50DF5E4
:1076B000F2F50DF5F2F561F450F561F450F5F1F3E2
:1076C000EDF4F1F3EDF47DF388F47DF388F467F3E2
:1076D00083F467F383F467F383F4A3F3D1F4A3F3A0
:1076E000D1F4C6F308F5C6F308F5F0F346F5F0F368
:1076F00046F5EFF359F5EFF359F5A5F424F6A5F4A3
:1077000024F6FEF492F6FEF492F6FEF492F6C8F435
:1077100070F6C8F470F69CF457F69CF457F6BFF474
:107720008DF6BFF48DF621F502F721F502F744F549
:1077300037F744F537F7CBF5D1F7CBF5D1F7CBF5E4
:10774000D1F75FF577F75FF577F732F45AF632F451
:107750005AF6C0F3F9F5C0F3F9F50FF35AF50FF344
:107760005AF53BF296F43BF296F43BF296F4D4F1E0
:107770003DF4D4F13DF442F1B9F342F1B9F39FF095
:1077800023F39FF023F3D5EF64F2D5EF64F235EFE6
:10779000CEF135EFCEF1E0EE7FF1E0EE7FF1E0EEFD
:1077A0007FF1EFED91F0EFED91F017EDBBEF17EDFD
:1077B000BBEF8AEC2BEF8AEC2BEFA2EB3CEEA2EBBB
:1077C0003CEEBDEA4CEDBDEA4CEDEDE96DECEDE9CA
:1077D0006DECEDE96DEC5DE9CAEB5DE9CAEB49E9F9
:1077E000A0EB49E9A0EB8BE9C7EB8BE9C7EB10EA0B
:1077F0002EEC10EA2EECD7E9D4EBD7E9D4EBD7E99D
:10780000D4EB44E91DEB44E91DEBE4E897EAE4E836
:1078100097EA60E8EDE960E8EDE9B5E81AEAB5E86D
:107820001AEA40E97EEA40E97EEA15EA2DEB15EA1C
:107830002DEB15EA2DEBBBEBADECBBEBADECACED02
:107840007DEEACED7DEE75EF25F075EF25F0B3F034
:1078500046F1B3F046F146F2C1F246F2C1F259F4F4
:10786000BFF459F4BFF459F4BFF4E1F535F6E1F58E
:1078700035F6A3F6E9F6A3F6E9F665F7A1F765F79D
:10788000A1F7B0F7E7F7B0F7E7F748F87CF848F862
:107890007CF848F87CF861F995F961F995F947FAAF
:1078A0007EFA47FA7EFA72FBAEFB72FBAEFBA6FCD9
:1078B000EAFCA6FCEAFC3CFE88FE3CFE88FE00FFDB
:1078C00056FF00FF56FF00FF56FF3FFFA0FF3FFFA0
:1078D000A0FF8CFFF8FF8CFFF8FFD7FF4D00D7FF0C
:1078E0004D0085000601850006015900E40059009D
:1078F000E4001000A5001000A5001000A500A8FFDE
:107900004600A8FF460051FFF7FF51FFF7FF32FF87
:10791000E0FF32FFE0FFF7FEABFFF7FEABFF50FFEB
:10792000090050FF090050FF090016FFD2FF16FFA3
:10793000D2FFC1FE80FFC1FE80FFECFEABFFECFE7C
:10794000ABFF89FE47FF89FE47FFEBFDA4FEEBFD81
:10795000A4FE16FDC8FD16FDC8FD16FDC8FDDFFB23
:1079600088FCDFFB88FC1EFBBBFB1EFBBBFB2EFB6E
:10797000BBFB2EFBBBFBB8FB32FCB8FB32FC5BFC59
:10798000BEFC5BFCBEFC13FD5DFD13FD5DFD13FD48
:107990005DFDE5FD13FEE5FD13FE6BFE7BFE6BFE5C
:1079A0007BFEDAFEC9FEDAFEC9FE34FF01FF34FFBA
:1079B00001FF48FFF1FE48FFF1FE48FFF1FEA5FF81
:1079C0002CFFA5FF2CFF0B0070FF0B0070FF900039
:1079D000D4FF9000D4FF6A0190006A019000DF019B
:1079E000EB00DF01EB00E502DB01E502DB01E50274
:1079F000DB010F04F5020F04F502B7049203B7048C
:107A000092035E0534045E05340446051C044605F5
:107A10001C041105EF031105EF035B0546045B052C
:107A200046045B05460430062E0530062E05F0069A
:107A30000406F00604061307420613074206CE06A4
:107A40001C06CE061C0632069F0532069F0532062E
:107A50009F054605D1044605D104EA039503EA03D0
:107A60009503A9026F02A9026F029E017C019E018B
:107A70007C01750166017501660181018101810149
:107A80008101810181011E0125011E012501E800FE
:107A9000EE00E800EE002701260127012601C201C1
:107AA000B301C201B301D001AC01D001AC01470266
:107AB000080247020802470208028A022C028A02D0
:107AC0002C020B0388020B0388026104B9036104D2
:107AD000B903D8040804D804080450055A04500512
:107AE0005A0450055A04DC05C104DC05C104BB0678
:107AF0008005BB06800579072306790723068107E1
:107B0000160681071606CA075206CA0752069A07C2
:107B10001C069A071C069A071C063F07C5053F0767
:107B2000C5051607A8051607A805CD067305CD06D9
:107B300073059406580594065805500638055006F6
:107B400038055006380526063A0526063A05C905C1
:107B50000D05C9050D052905A1042905A1048C04FD
:107B60003B048C043B04D203B803D203B8032203C2
:107B70003F0322033F0322033F038402D602840211
:107B8000D602C9014C02C9014C024001F00140017A
:107B9000F0019E0075019E007501C4FFBD00C4FF89
:107BA000BD001500290115002901150029019A00C1
:107BB000C2019A00C201EB002102EB0021025E012A
:107BC0009D025E019D02EE002F02EE002F029C003E
:107BD000DB019C00DB019C00DB01E3FF1B01E3FFF9
:107BE0001B0100FF300000FF300073FE97FF73FEA3
:107BF00097FF5CFD73FE5CFD73FE69FC73FD69FC21
:107C000073FD12FC0FFD12FC0FFD12FC0FFD1FFC9B
:107C100011FD1FFC11FDEFFBD6FCEFFBD6FCEAFBD0
:107C2000C8FCEAFBC8FC16FCEBFC16FCEBFC88FC71
:107C300057FD88FC57FDB3FC7BFDB3FC7BFDB3FC1B
:107C40007BFD72FC33FD72FC33FD32FCEDFC32FC3B
:107C5000EDFCF1FBA3FCF1FBA3FC76FC1EFD76FC26
:107C60001EFDF7FC91FDF7FC91FDF7FC91FDC8FDB1
:107C700050FEC8FD50FE73FEE5FE73FEE5FEF0FE0D
:107C800047FFF0FE47FF82FFB9FF82FFB9FFC0FF49
:107C9000D0FFC0FFD0FFC900AE00C900AE00C900D0
:107CA000AE00A4015701A40157014303BF024303DF
:107CB000BF028A05CC048A05CC04FD06FF05FD063B
:107CC000FF055C081C075C081C07260AA108260A99
:107CD000A108260AA1089A0CD00A9A0CD00ABB0E59
:107CE000AD0CBB0EAD0C62110F0F62110F0F6814BB
:107CF000D3116814D3114E1679134E1679134E16FC
:107D0000791336182515361825151C1AD5161C1A80
:107D1000D5168D1B14188D1B1418C31C1E19C31CDB
