:020000040800F2
:10000000680C0020095E0008595600085B5600087D
:100010005D5600085F5600086156000800000000A9
:10002000000000000000000000000000635600080F
:100030006556000800000000675600086956000871
:100040004D5F0008515F0008555F0008595F0008C8
:100050005D5F0008615F000819580008695F0008CB
:100060006D5F0008715F0008755F0008072A0008CF
:100070007D5F0008815F0008855F0008895F0008D8
:100080008D5F0008915F0008955F0008995F000888
:100090009D5F0008A15F0008A55F0008A95F000838
:1000A000AD5F0008B15F0008B55F0008B95F0008E8
:1000B000BD5F0008C15F0008C55F0008C95F000898
:1000C000CD5F0008D15F0008D55F0008D95F000848
:1000D000DD5F0008E15F0008E55F0008E95F0008F8
:1000E000ED5F0008F15F000829580008F95F00087B
:1000F000FD5F00080160000805600008FF29000896
:100100000D60000811600008156000080F2A000843
:100110001D600008216000082560000829600008B3
:100120002D60000831600008356000083960000863
:100130003D60000841600008456000084960000813
:100140004D600008516000085560000853580008D1
:100150005D60000861600008656000086960000873
:100160006D60000871600008756000087960000823
:100170007D600008816000088560000889600008D3
:100180008D6000089160000800221100C2685FF0D5
:10019000FF335360C2685FF0FF33536151F0004199
:1001A00051F40061C2689161704770B582B004007B
:1001B0000025002600200090032000F072FEE06879
:1001C00000690090761CDFF89803864201D3002076
:1001D0001DE000980028EFD500200600009850F0A0
:1001E00001000090E06800990161E06800690090FA
:1001F000761CDB48864205D2009810F00100C0B2A0
:100200000028F2D1032000F04CFE2800C0B276BDD9
:10021000F0B504000020E578002D1BD10025002654
:100220009BB213F1030C5FF0040E9CFBFEFC6546D1
:10023000D2B214EB820CDCF8D0C067465FF0000C41
:100240006646AE4206D2D1F800C0C7F800C0761CA0
:10025000091DF6E7C0B2F0BD70B40300080000212C
:1002600092B2D41C042594FBF5F4D3F8D0500026A8
:100270003100A14204D22E680660491C001DF8E737
:1002800070BC704770B40200002400200025D570B7
:100290000125957040259580C9B201290ED15FF0E6
:1002A000A0452C000125D572082515700425557030
:1002B0004FF4A075D580022515720DE0C9B2002952
:1002C0000AD1A84D2C000025D5720C2515700625E5
:1002D00055704FF4A065D580D46014F500651561A4
:1002E00000252B005578AB420FD212EB830514EB9F
:1002F000431616F51066AE6112EB830514EB431638
:1003000016F530666E655B1CECE714F5806555618B
:1003100014F58865C2F8CC5000252B001578AB4247
:1003200009D212EB830514EB431616F5A066C5F847
:1003300090605B1CF2E700252B001578AB420BD2D6
:1003400012EB83054FF4805606FB034616F58056E4
:10035000C5F8D0605B1CF0E714F56065C2F80C517D
:10036000C0B270BC70472DE9F8430400002500209E
:1003700006000020070000208146207A01282FD1A6
:10038000E068806B070037F48037607A002801D07E
:1003900057F48017E068876300200600E068C068B3
:1003A000060036F0400636F4800656F0100636F0A9
:1003B000080636F0800636F4003636F40026E0688B
:1003C000C6602000FFF7F1FEE078012853D1052038
:1003D00060F3440959F02009E068C0F808904AE049
:1003E000E068C068060056F04006E068C66020007D
:1003F000FFF7DBFE0020070057F48037207A032840
:1004000001D157F4003757F4802757F4002757F4E9
:100410000017607A002801D057F48017E0688763DE
:10042000142000F04AFDE068C0680600207A032826
:1004300001D156F48036E068C660207A03281AD1CC
:10044000E068006B8046012060F39B6838F4000888
:1004500058F080582D2060F31648E068C0F83080CE
:10046000C82000F02AFD58F40008E068C0F8308089
:10047000C82000F022FDE07801280AD1E0688068F9
:100480008146052060F3440959F02009E068C0F86E
:1004900008902800C0B2BDE8F28310B4010000202B
:1004A00000231A0052F00102CB689B681343CC680A
:1004B000A360C0B210BC704710B40100002000233C
:1004C0001A0052F00102CB689B689343CC68A3608A
:1004D000C0B210BC7047F8B504000D00002600271C
:1004E00000200090009850F020000090009865F3E4
:1004F0008A100090E06800990161E068006900904E
:100500007F1C1748874204D20098C0F34010C007F0
:10051000F3D4032000F0C5FC3000C0B2F2BD70B5CA
:1005200082B004000025002600200090009850F0C2
:1005300010000090E06800990161E0680069009097
:10054000761C0748864204D20098C0F30010C0070A
:10055000F3D4032000F0A5FC2800C0B276BD000053
:10056000410D030000000440F8B504000D00002612
:10057000E068C068070037F0005737F08047EDB2F9
:10058000012D02D157F0005704E0EDB2002D01D14A
:1005900057F08047E068C760322000F08EFC3000E2
:1005A000C0B2F2BDC068406910F00100704710B5DC
:1005B00004002000FFF7F6FF012801D0012000E031
:1005C0000020C0B210BD01000020CA6852691000AE
:1005D000CA6892691040704703691B681A00C9B263
:1005E00061F3010203691A6070472DE9F84F0400B6
:1005F00000208DF800000020824600200700002027
:1006000080460020814600200500D4F80C0100211E
:10061000016020690068070037F4C057206907604F
:10062000E07A01282BD103212000FFF7D5FFE068F5
:1006300080214162402060F31F48802060F30F0852
:10064000E068C0F8288018EB184060F30F0980209C
:1006500060F31F49E068C0F8049119EB194060F39A
:100660000F091FFA89F9E068C0F8089119EB1940E1
:1006700060F30F091FFA89F9E068C0F80C911021A6
:100680002000FFF728FF2000FFF749FF2069002125
:10069000016120690021416120695FF0FF318161C2
:1006A00020690021C161002083466078834522D201
:1006B00014EB8B00806900688246BAF1000F06D502
:1006C000002082465AF0804A5AF0006A01E0002079
:1006D000824614EB8B008069C0F800A014EB8B00FD
:1006E00080690021016114EB8B008069FF2181602A
:1006F0001BF1010BD9E7002083466078834520D2A7
:1007000014EB8B01496D09680800002806D500210B
:10071000080050F0804050F0006001E00021080027
:1007200014EB8B01496D086014EB8B01496D0022BD
:100730000A6114EB8B01496DFF228A601BF1010BEA
:10074000DBE7002005004FF4807005432069006955
:10075000A843284321690861E07801280FD10020CF
:10076000060056F0010656F00206402060F38A06A5
:1007700056F48036402060F3594620690663200015
:1007800000F004F89DF80000BDE8F28F70B5040099
:10079000002500200600E06800218161E0685FF02C
:1007A000FF3141612000FFF7EFFCE078002801D124
:1007B00056F0100656F4006656F4805656F400566D
:1007C00056F4802656F4002656F0080656F4801695
:1007D00056F40016E0688069B0433043E1688861F0
:1007E0002800C0B270BD010000200B699B681A0090
:1007F000530813F00303002B05D0022B09D005D3B7
:10080000032B03D007E00323180004E002231800A1
:1008100001E001231800C0B2704770B4010000204D
:1008200000252C000D69AD682A008D692D682B000C
:10083000550815F00305002D04D0022D05D001D375
:10084000032D05D1DB0ADB0202E0032565F30A0371
:100850008D692B604FF480752C430D696D68A5433D
:1008600025430E697560C0B270BC7047F0B40200D9
:10087000002000263300002634004E78012E0BD1D4
:100880000E7812EB8606B6693500012691F90070E4
:10089000BE4066F30F040AE00E7812EB8606766D12
:1008A0003500012691F90070BE4066F31F442E68A2
:1008B0003300C3F3C036F6070DD48E6866F30A031F
:1008C000CE7866F39343CE8866F3995353F0805302
:1008D00053F400432B601669F66926431769FE61DD
:1008E000C0B2F0BC7047F0B4020000200026330014
:1008F000002634004E78012E0BD10E7812EB8606BE
:10090000B6693500012691F90070BE4066F30F0408
:100910000AE00E7812EB8606766D3500012691F915
:100920000070BE4066F31F4433F400432B60166929
:10093000F669A6431769FE61C0B2F0BC70472DE9A5
:10094000F04704000D0000265FF0000A00200700B9
:1009500000208046687801286BD1287814EB80004D
:10096000806900680700287814EB800080690069BE
:1009700080466869002807D15FEAD8485FEAC8481E
:10098000012060F3DC4811E0686960F312086869CF
:10099000A9680818401EA968B0FBF1F060F3DC48B4
:1009A000E878012802D1012060F35E78287814EB02
:1009B00080008069C0F81080E078012806D128788E
:1009C00014EB800080692969416110E0E878012812
:1009D0000DD0686900280AD0012095F900108840E0
:1009E00082462069406B5AEA000021694863E87832
:1009F00001280AD12069806881465FEAC95002D483
:100A000057F0005701E057F0805757F0806757F0D4
:100A10000047287814EB800080690760E878012897
:100A20004FD16B699BB22A78E9682000FFF7F0FB91
:100A300047E0287814EB8000406D006807002878B4
:100A400014EB8000406D006980466869002806D17B
:100A5000A86860F31208012060F3DC480EE06869C2
:100A6000A9680818401EA968B0FBF1F060F3DC48E3
:100A7000C8F3C940A968484360F31208287814EB0A
:100A80008000406DC0F81080E078012805D12878FA
:100A900014EB8000406D29694161E878012807D195
:100AA0006879002802D057F0005701E057F08057CE
:100AB00057F0806757F00047287814EB8000406DAE
:100AC00007603000C0B2BDE8F087FCB4020000202F
:100AD000002500263300002600964E78012E49D1CD
:100AE0009669340026683300266900964E69002E08
:100AF00009D1009EF609F60100960126009F66F3D3
:100B0000D447009715E08E684F69BE4207D28E68C1
:100B10004E618E68009F66F30607009704E04E69F9
:100B2000009F66F3060700970126009F66F3D447EF
:100B30000097009E2661D678012E05D10E7812EB23
:100B40008606B6690F69776153F0806353F00043FE
:100B50002360D678002E4BD14E69002E48D0012656
:100B600091F90070BE4035431669766B2E431769C4
:100B70007E633DE00E7812EB8606766D36683300B4
:100B80000E7812EB8606766D366900964E69002E59
:100B90000AD18E68009F66F3060700970126009F22
:100BA00066F3D44700970BE08E684E618E68009F15
:100BB00066F3060700970126009F66F3D447009767
:100BC0000E7812EB8606766D009F3761D678012E7F
:100BD00005D10E7812EB8606766D0F69776153F0BA
:100BE000806353F000430E7812EB8606766D336017
:100BF000C0B2F6BC704730B40200002000252C00C3
:100C00004D78012D0ED10D7812EB8505AD692B00C5
:100C10001D682C00002C01D554F0804454F40014BD
:100C20001C6009E00D7812EB85056D6D2B001D68C9
:100C30002C0054F400141C60C0B230BC704730B4B7
:100C40000200002000252C004D78012D05D10D78E3
:100C500012EB8505AD692B0004E00D7812EB8505DC
:100C60006D6D2B001D682C0034F40014CD78032D1D
:100C700002D0CD78022D01D154F080541C60C0B256
:100C800030BC704701000A69926910000A69D26994
:100C90001040000C70470200C9B212EB81035B6D7B
:100CA0009B68180013695B691840704701000A6966
:100CB000926910000A69D269104080B2704782B010
:100CC00000210091009951F0404100910121009ACA
:100CD00061F3D44200921821009A61F30602009257
:100CE000416D009A0A61C17801290FD100221100DB
:100CF000426D00F2C8535361426D1268110051F009
:100D000000415FF080221100426D116002B0704717
:100D1000817A002911D003699B68190011F0010341
:100D2000DBB2002B09D0D0F80C311A0032F00202ED
:100D300052085200D0F80C311A60704738B50400E0
:100D4000012084F8120100200500607885420BD252
:100D500014EB85008069FF21816014EB8500406DF4
:100D6000FF2181606D1CF0E720690021016120698D
:100D70000021416120690021C16120695FF0FF31DC
:100D800081612000FFF7CBFB10212000FFF7A3FBC0
:100D900031BD10B450F8041B81B102681218001D57
:100DA00050F8043BDC0744BFA9F10104E31852F8F2
:100DB000044B43F8044B091FF9D1EBE710BC704713
:100DC0001CB504000121012000F000F94FF4D850B7
:100DD000009003208DF8050002208DF8040000200B
:100DE0008DF8060000208DF8070000A9204800F0CB
:100DF0005DF90A2208211E4800F0C5F90A220921DE
:100E00001B4800F0C0F90A220B21194800F0BBF979
:100E10000A220C21164800F0B6F94FF480600090C9
:100E200001208DF8060001208DF8070003208DF8C1
:100E3000050000A90E4800F039F90A220A210C48E1
:100E400000F0A1F901214FF4804000F0ECF80121FD
:100E5000802000F0CAF801215FF0805000F0F2F825
:100E60000121002000F002FA012000F0B8FA13BDC1
:100E70000000024010B582B004004FF4C06000F0E2
:100E8000BDFA43208DF8000001208DF801000320F9
:100E90008DF8020001208DF8030000A800F0B3FADD
:100EA00013BD0021782202FB00F20723B2FBF3F20C
:100EB000491C8A4200D3FBE7704710B504004FF489
:100EC0007A7000FB04F0FFF7ECFF10BDF0B40021D6
:100ED00000220023022400250226DFF8A4713F68C7
:100EE00017F00C0739000F00002F04D0042F06D094
:100EF000082F08D03CE0DFF8907107603BE0DFF896
:100F00008C71076037E0DFF87C713F68C7F380576A
:100F10003D00DFF870713F6817F03F073E00002D7D
:100F20000DD0DFF86871B7FBF6F7DFF858C1DCF8D1
:100F300000C0CCF3881C0CFB07F73B000CE0DFF88B
:100F40004871B7FBF6F7DFF83CC1DCF800C0CCF322
:100F5000881C0CFB07F73B00DFF828713F68C7F3DC
:100F600001477F1C7F003C00B3FBF4F7076002E001
:100F7000DFF814710760DFF808713F6817F0F007B9
:100F800039000909DFF80871CF5D3A000768D740DA
:100F90004760DFF8EC703F6817F4E0573900890AC2
:100FA000DFF8EC70CF5D3A004768D7408760344F78
:100FB0003F6817F460473900490BDFF8D470CF5D04
:100FC0003A004768D740C760F0BC7047C9B20029F3
:100FD00005D0304A126802432E4B1A6004E02D4AB5
:100FE000126882432B4B1A607047C9B2002905D0A2
:100FF000294A12680243284B1A6004E0264A126804
:101000008243254B1A607047C9B2002905D0234A94
:1010100012680243214B1A6004E0204A126882439E
:101020001E4B1A607047C9B2002905D01C4A1268CD
:1010300002431B4B1A6004E0194A12688243184BA2
:101040001A607047C9B2002905D0164A12680243D7
:10105000144B1A6004E0134A12688243114B1A6061
:101060007047C9B2002905D00F4A126802430E4BDF
:101070001A6004E00C4A126882430B4B1A607047F6
:1010800008380240043802400024F40000127A00BC
:1010900024010020303802403438024040380240F9
:1010A000443802402038024024380240F0B4002284
:1010B0000023002400252A00102A4AD20125954049
:1010C0002B000D681D402C009C4240D10568032672
:1010D0001700FFB27F00BE40B543056005680E797A
:1010E0001700FFB27F00BE40354305600D79012D2A
:1010F00002D00D79022D1AD1856803261700FFB2A0
:101100007F00BE40B543856085684E791700FFB209
:101110007F00BE4035438560456801269640B54353
:10112000456045688E799640B6B235434560C568DE
:1011300003261700FFB27F00BE40B543C560C568F7
:10114000CE791700FFB27F00BE403543C560521C08
:10115000B2E7F0BC70470200002013699BB20B425B
:1011600002D00123180001E000231800C0B270472C
:101170000183704741837047D2B2002A01D00183B6
:1011800000E041837047F0B400230024D2B211F094
:101190000705EDB2AD0012FA05F52B0089B2CD10AE
:1011A00010EB850589B2CE1010EB8606366A0F2744
:1011B00011F0070C5FFA8CFC5FEA8C0C17FA0CF745
:1011C000BE432E6289B2CD1010EB85052D6A1D43FA
:1011D0002C0089B2CD1010EB85052C62F0BC704755
:1011E0001CB504000121E4B24F4850F82400FFF779
:1011F000EDFEE4B24D4830F81400009001208DF867
:10120000040000208DF8060001208DF80700022060
:101210008DF8050000A9E4B2454850F82400FFF716
:1012200045FF13BDC0B2424951F82010C0B23F4A39
:1012300032F810200A837047C0B23D4951F820109F
:10124000C0B23A4A32F810204A837047C0B23849D7
:1012500051F820104969C0B2344A32F81020514088
:10126000C0B2334A52F820205161704730B585B082
:1012700004000D000121E4B22E4850F82400FFF7CD
:10128000A5FE01214FF48040FFF7CDFE00208DF830
:10129000100000208DF81300E4B2274830F8140045
:1012A000039003A9E4B2254850F82400FFF7FEFE9E
:1012B000EDB2012D29D1E4B22148215CE4B22148EC
:1012C000205C00F0DFF8E4B21F4830F81400019011
:1012D00000208DF8080008208DF8090001208DF805
:1012E0000A0001A800F034F8E4B21848205C8DF838
:1012F00000000F208DF801000F208DF80200012062
:101300008DF8030000A800F07EF805B030BD10B5E0
:101310000400E4B2084830F81410E4B2074850F86A
:101320002400FFF718FF10BDC45E00081C5F000812
:1013300014010020245F0008BA34000834010020A2
:10134000874F0008864F00080A48000856560008D4
:101350000021254A11008279002A38D0224A1268D9
:1013600003689A43204B1A60204A126803689A4324
:101370001E4B1A60027951FA82F10A6803681A4317
:101380000A601B4A126803689A43194B1A60194A8B
:10139000126803689A43174B1A604279102A0CD1DD
:1013A000134A126803681A43114B1A60114A1268F3
:1013B00003681A430F4B1A6010E00B4A1100427980
:1013C00051FA82F10A6803681A430A6006E002795A
:1013D00051FA82F10A6803689A430A607047064925
:1013E0000860704700000000003C0140043C0140E0
:1013F000083C01400C3C0140143C01401C490143A5
:101400001C4A11607047F0B4002300210F22C478F9
:10141000002C21D0174C246814F4E064D4F5E06467
:10142000240A2300D3F104042100D2B21A414478E3
:101430008C4023008478144023431B0104780E4D14
:101440006355047864110D4D0126077817F01F07C6
:10145000BE4045F8246009E004786411084D012677
:10146000077817F01F07BE4045F82460F0BC7047AE
:101470000000FA050CED00E000E400E000E100E00F
:1014800080E100E030B400220F2311F00304E4B245
:10149000A400A3401A00C9B28B100E4C54F823309C
:1014A0009343C9B28C100B4D45F82430C9B28B1050
:1014B000084C54F82330C0B211F00304E4B2A40085
:1014C00010FA04F42343C9B28C10024D45F82430BD
:1014D00030BC70470838014070B582B00024002647
:1014E000DFF8B80A40210170DFF8B00A002141702E
:1014F000DFF8A80A03218170DFF8A00A0021C1707B
:10150000DFF8980A00210171DFF8900A00F084FDED
:10151000DFF88C0A20210170DFF8840A0121417074
:10152000DFF87C0A0C218170DFF8740A00F08DFD71
:101530001E2001F0F4F801220F2100A800F0C5FDE3
:101540009DF800003B2801D001F0FDF8DFF8540AB7
:101550004FF4FA710160E4B2002C35D1DFF8440A8F
:101560000068002830D004222921DFF83C0A00F06E
:10157000ACFDDFF8340A90F9000040B2002806D52F
:10158000DFF8240A90F9000040B2454202E0DFF89B
:10159000180A0578DFF8100A90F9020040B2002816
:1015A00006D5DFF8040A90F9020040B2464202E094
:1015B000DFF8F4098678EDB2102D02D2F6B2102EC3
:1015C000C9D301200400C6E7E4B2002C10D00020EB
:1015D000FFF728FE0020FFF79AFE0028FAD000202F
:1015E000FFF795FE0128FAD00020FFF725FE01E065
:1015F00001F0A9F873BD00B583B001210D20FFF7FC
:10160000E5FC2020009001208DF8040000208DF8DA
:10161000060000208DF8070002208DF8050000A9C3
:10162000DFF88809FFF742FD2021DFF88009FFF786
:10163000A1FD0120009001208DF8040000208DF80C
:10164000060000208DF8070002208DF8050000A993
:10165000DFF85C09FFF72AFD4FF4007000900020CE
:101660008DF8040000208DF8060000208DF807009A
:1016700002208DF8050000A9DFF83809FFF716FDF4
:101680000121DFF82C09FFF775FD012001F047F873
:101690004FF40071DFF81C09FFF75DFD002801D150
:1016A00001F051F84FF48060009000208DF80400A4
:1016B00000208DF8060001208DF8070002208DF82B
:1016C000050000A9DFF8EC08FFF7F0FC012001F0AD
:1016D00026F84FF48061DFF8DC08FFF73CFD0028B6
:1016E00001D101F030F80121DFF8C408FFF740FD17
:1016F0004FF4C050009000208DF8040000208DF8B9
:10170000060001208DF8070002208DF8050000A9D1
:10171000DFF8A008FFF7CAFC4FF40070009001202A
:101720008DF8040000208DF8060001208DF80700D8
:1017300002208DF8050000A9DFF87808FFF7B6FC55
:101740004FF40071DFF86C08FFF714FD012000F082
:10175000E6FF4FF40061DFF85C08FFF7FCFC0028AF
:1017600007D04FF48051DFF84C08FFF7F4FC002855
:1017700001D100F0E8FF4FF48050009000208DF878
:10178000040000208DF8060001208DF807000220DB
:101790008DF8050000A9DFF81C08FFF787FC4FF45F
:1017A0000060009001208DF8040000208DF80600F4
:1017B00001208DF8070002208DF8050000A9DFF850
:1017C000F407FFF773FC4FF40061DFF8E807FFF759
:1017D000D1FC012000F0A3FF4FF48051DFF8D407C3
:1017E000FFF7B9FC002801D100F0ADFF4FF4006015
:1017F000009000208DF8040000208DF806000120E4
:101800008DF8070002208DF8050000A9DFF8A40775
:10181000FFF74CFC4FF48050009001208DF804003D
:1018200000208DF8060001208DF8070002208DF8B9
:10183000050000A9DFF87C07FFF738FC4FF4805162
:10184000DFF87007FFF796FC012000F068FF4FF407
:101850000061DFF86007FFF77EFC002801D100F08F
:1018600072FF4FF40070009001208DF804000020FA
:101870008DF8060000208DF8070002208DF8050085
:1018800000A9DFF83007FFF711FC4FF40071DFF813
:101890002407FFF76DFC0020FFF7C4FC0020FFF7D2
:1018A00036FD0028FAD00020FFF731FD0028FAD1DC
:1018B0000020FFF7C1FC4FF40071DFF8F806FFF7D6
:1018C00059FC2021DFF8E406FFF752FC4FF4806159
:1018D000DFF8E006FFF73FFC002801D000F033FFFF
:1018E0004FF4C050009000208DF8040000208DF8C7
:1018F000060002208DF8070002208DF8050000A9DF
:10190000DFF8B006FFF7D2FB4FF400700090012023
:101910008DF8040000208DF8060001208DF80700E6
:1019200002208DF8050000A9DFF88806FFF7BEFB4E
:101930004FF40071DFF87C06FFF71AFC012000F07D
:10194000EEFE4FF40061DFF86C06FFF704FC0028A0
:1019500007D04FF48051DFF85C06FFF7FCFB00284E
:1019600001D100F0F0FE4FF49050009000208DF86F
:10197000040000208DF8060002208DF807000220E8
:101980008DF8050000A9DFF82C06FFF78FFB4FF458
:101990000060009001208DF8040000208DF8060002
:1019A00001208DF8070002208DF8050000A9DFF85E
:1019B0000406FFF77BFB4FF40061DFF8F805FFF743
:1019C000D7FB012000F0ABFE4FF40071DFF8E40517
:1019D000FFF7C1FB002807D04FF48051DFF8D40592
:1019E000FFF7B9FB002801D100F0ADFE4FF42060F5
:1019F000009000208DF8040000208DF806000220E1
:101A00008DF8070002208DF8050000A9DFF8A40575
:101A1000FFF74CFB4FF48050009001208DF804003C
:101A200000208DF8060001208DF8070002208DF8B7
:101A3000050000A9DFF87C05FFF738FB4FF4805163
:101A4000DFF87005FFF794FB012000F068FE4FF40B
:101A50000071DFF86005FFF77EFB002807D04FF428
:101A60000061DFF85005FFF776FB002801D100F098
:101A70006AFE4FF4C050009000208DF80400002052
:101A80008DF8060002208DF8070002208DF8050071
:101A900000A9DFF82005FFF709FB4FF40070009064
:101AA00001208DF8040000208DF8060001208DF83B
:101AB000070002208DF8050000A9DFF8F804FFF701
:101AC000F5FA4FF40071DFF8EC04FFF753FB07BDA4
:101AD0001CB5002401214FF48070FFF7A4FA012106
:101AE0004FF40070FFF79FFA012000F079FE4BF6EB
:101AF00080325721022000F0DFFE002801D000F0E4
:101B000022FEDFF8B40400210170DFF8B0040021E8
:101B10000160DFF8A8045FF440314160DFF89C0405
:101B200000218160DFF894044FF47061C160DFF838
:101B30008C0401F010FCDFF8880401F0FDFBDFF8F5
:101B400080045FF000710160DFF87404002101710E
:101B5000DFF86C0400214171DFF86404002181602A
:101B6000DFF85C0400210161DFF8540401210175F4
:101B7000DFF84C14DFF84C0401F0B6FBDFF840143A
:101B8000DFF8440401F0B0FB0420009002208DF83F
:101B9000050003208DF8040000208DF8070000A93F
:101BA000DFF81004FFF782FA0820009000A9DFF8A0
:101BB0000404FFF77BFADFF8140400210180DFF84A
:101BC00010040021018000200400032301220221CF
:101BD000DFF8F00301F0DDFB032301220321DFF82E
:101BE000E80301F0D6FB0121DFF8D80301F0C4FBC4
:101BF0000121DFF8D40301F0BFFBDFF8A8034FF4A5
:101C0000FA710160E4B2002C66D1DFF89803006835
:101C1000002861D0DFF8AC0301F032FC0221DFF8CC
:101C2000A40301F03DFC0028F8D0DFF8980301F090
:101C30002CFCDFF8A0130880DFF88C0301F020FCF7
:101C40000221DFF8840301F02BFC0028F8D0DFF834
:101C5000780301F01AFCDFF880130880DFF87403C2
:101C60000088972812D3DFF8700300880A280DD265
:101C7000DFF8580300884FF4FA71884206D0DFF885
:101C80004C030088401CDFF844130880DFF844034D
:101C900000880A2811D2DFF84003008897280CD367
:101CA000DFF82C0300884FF4FA71884205D0DFF882
:101CB00020030088401CC6490880C44800884FF4AF
:101CC000FA7188429ED1C24800884FF4FA71884266
:101CD00098D10120040095E70021BA4801F04CFB9F
:101CE0000021B94801F048FBE4B2002C01D100F01A
:101CF0002AFD00F0FFFD022000F072FD4BF680325D
:101D00006421022000F0D8FD002801D000F01BFD66
:101D1000A94801210170AD4800210180AC48002193
:101D20000180002004000121A64801F025FB0121CB
:101D3000A54801F021FB9B484FF4FA710160E4B221
:101D4000002C54D197480068002850D09D4801F0DD
:101D500097FB02219B4801F0A3FB0028F9D099488A
:101D600001F093FB9B490880974801F089FB022111
:101D7000954801F095FB0028F9D0934801F085FBC8
:101D80009549088093480088AB280ED39248008874
:101D9000AB280AD38D4800884FF4FA71884204D0EA
:101DA0008A480088401C894908808A4800880A2897
:101DB0000ED2894800880A280AD2854800884FF444
:101DC000FA71884204D082480088401C804908800B
:101DD0007E4800884FF4FA718842B0D17C48008870
:101DE0004FF4FA718842AAD101200400A7E7E4B2B7
:101DF000002C01D100F0A7FC0020FFF713FA00200F
:101E0000FFF785FA0028FAD00020FFF715FA13BD76
:101E100030B587B00024002501214FF48040FFF742
:101E2000F3F801210620FFF7D1F802208DF8040015
:101E300000208DF8060001208DF8070001208DF8A4
:101E400005004FF48060009000A96448FFF72EF968
:101E500005220A216148FFF796F90820009000A9A1
:101E60005348FFF723F9052203215148FFF78BF967
:101E70005B4801F023FB4FF47A4004901020ADF84A
:101E80000A000020ADF80C000020ADF814004FF45B
:101E90004070ADF808000020ADF80E0002A95048CF
:101EA00001F058FB01214E4801F03CFC0A2000F0F3
:101EB00036FC3C484FF4FA710160EDB21E2D18D289
:101EC00038480068002814D00121454801F052FC30
:101ED000002803D1334800680028F5D1404801F0BC
:101EE0002FFC04004FF6FF70A4B28442E5D16D1CB4
:101EF000E3E7EDB21E2D01D000F025FC07B030BDA8
:101F0000704700202C49097800292FD135490988CC
:101F1000002915D134490988344A32F811100800D3
:101F200031490988491C304A11802F4909883029D4
:101F300002D12D4900220A802A4901220A8029E083
:101F40002B490988294A32F81110080028490988C4
:101F5000491C274A118026490988302902D1244981
:101F600000220A801F4900220A8013E01E490988C6
:101F70001E4A32F91110B1F5004108001A490988CA
:101F8000491C194A118018490988302902D116497B
:101F900000220A8080B27047000000001008002074
:101FA000240800202008002018080020000C02400F
:101FB00000080240000002405F08002000080020E6
:101FC000E8070020002001400021014054080020C3
:101FD000520800204E080020500800200004024053
:101FE000003800405808002056080020585D0008BE
:101FF00078010020FEE750F8041B61B150F8042B73
:10200000D30744BFA9F101039A18002342F8043B07
:10201000091FFAD1EFE7704710B582B00400002025
:102020008DF8000000F074F8607821780843E178BA
:10203000084321790843A17808438DF80000012264
:10204000202100A800F022F813BD10B582B00400D2
:1020500000208DF800000122212100A800F035F8B1
:102060009DF8000010F0D0008DF800009DF80000F1
:10207000217862781143A278114308438DF800005B
:102080000122212100A800F001F813BD70B5040061
:102090000D001600B6B2022E01D355F040050821FE
:1020A0008448FFF767F82800C0B200F0CAF8B6B25B
:1020B000012E05D3207800F0C4F8761E641CF6E7E4
:1020C00008217C48FFF754F870BD70B504000D007E
:1020D0001600B6B2022E02D355F0C00501E055F04D
:1020E000800508217348FFF745F82800C0B200F0CA
:1020F000A8F8B6B2012E06D3002000F0A2F8207096
:10210000761E641CF5E708216A48FFF731F870BDB8
:1021100000B587B001214FF48050FEF784FF012104
:102120000120FEF753FF01211020FEF74FFF012190
:102130001020FEF74BFF01211020FEF747FF05227C
:1021400005215D48FFF71FF8052206215A48FFF7D1
:102150001AF8052207215848FFF715F802208DF8D4
:10216000040000208DF8060002208DF807000220F0
:102170008DF805002020009000A94F48FEF796FF3B
:102180008020009000A94C48FEF790FF402000906E
:1021900000A94948FEF78AFF484801F08FF900205E
:1021A000ADF808000020ADF80C000020ADF80E00DE
:1021B0000020ADF810004FF40070ADF812000820B8
:1021C000ADF814000020ADF816000720ADF8180097
:1021D0004FF48270ADF80A0002A9384801F09AF96C
:1021E0000121364801F090FA0820009001208DF876
:1021F000040000208DF8060002208DF8050000A9DB
:102200002C48FEF753FF08212A48FEF7B1FF0120B2
:10221000009000208DF8040000208DF806000220B8
:102220008DF8050000208DF8070000A92148FEF771
:102230003DFF0220009000A91E48FEF737FF07B0BF
:1022400000BD10B504001E484FF48051016002210A
:102250001A4801F08FFA00280AD119480068411E77
:10226000174A11600028F2D100F07EFAC0B21EE0D9
:10227000E4B2210089B2114801F064FA10484FF429
:102280008051016001210D4801F074FA00280AD143
:102290000B480068411E0A4A11600028F2D100F084
:1022A00063FAC0B203E0054801F04AFAC0B210BDBB
:1022B0000000000000100240000002400030014019
:1022C0006801002040B2002809D540B210F00F028A
:1022D000DFF8AC34D2180B0102F8043C04E040B241
:1022E000DFF8A0240B018354704710B50400B4F14B
:1022F000807F01D3012013E02002000A401EDFF896
:10230000881408600F215FF0FF30FFF7DBFFDFF874
:102310007C0400210160DFF87804072101600020BF
:1023200010BD00B585B001210020FEF79FFF002001
:10233000FEF756FF0120FEF753FF0220FEF750FF85
:102340000320FEF74DFF00A8FEF7C0FD01986421B1
:10235000B0FBF1F0FFF7C9FF0020FEF7D8FF01281E
:1023600067D10020FEF75EFF0120FEF75BFF022031
:10237000FEF758FF0320FEF755FFDFF8180400684A
:1023800000280FD1DFF810044FF49671016000208F
:10239000FEF7BDFF01281DD1DFF8FC03006800280F
:1023A000F5D117E0DFF8F0034FF4967101600020DB
:1023B000FEF7ADFF012804D1DFF8DC030068002838
:1023C000F5D10020FEF7A3FF002803D1DFF8C803F2
:1023D00000210160DFF8C0030068002826D100203A
:1023E000FEF72AFF0120FEF727FF0220FEF724FF59
:1023F0000320FEF721FF0020FEF789FF0128FAD015
:1024000001F0C4F9FFF768F8FFF7F5F8FFF760FB94
:10241000FFF7FEFC0021DFF87C0301F027FA002023
:10242000FEF714FF0A2000F07AF9F8E700F006F84A
:1024300001E000F003F8002005B000BD1FB5002446
:10244000DFF8580300210170DFF854030021017008
:102450000020FEF7C5FE0120FEF7C2FE0220FEF7B7
:10246000BFFE0320FEF7BCFE00A8FEF72FFD01987B
:102470006421B0FBF1F0FFF738FF0020FEF7DCFE2F
:102480000120FEF7D9FE0220FEF7D6FE0320FEF75C
:10249000D3FEC3480078002834D10020FEF7D6FED2
:1024A0000A2000F03CF90120FEF7D0FE0A2000F0DF
:1024B00036F90220FEF7CAFE0A2000F030F90320A8
:1024C000FEF7C4FE0A2000F02AF9641CE4B2102CC6
:1024D000DFD100200400E4B2102C10D20020FEF75F
:1024E000B5FE0120FEF7B2FE0220FEF7AFFE03208C
:1024F000FEF7ACFE0A2000F012F9641CEBE70020A6
:102500000400C6E70020FEF702FF0128FAD0A44825
:102510000021017000F06DF800220021A14801F0B7
:102520009FFB002204219F4801F09AFB0022082112
:102530009C4801F095FB00220C219A4801F090FB89
:102540009948402101709848002141709648072120
:10255000817095480021C170934800210171924813
:10256000FFF75AFD1E2000F0DAF88C4801210170B7
:102570008E48202101708D48012141708B480C212B
:1025800081708A48FFF761FD062229218848FFF7FC
:102590009CFD8848864991F900100170844890F9A3
:1025A000020085490870824890F904008349087048
:1025B00000F014F87A4800780028FBD00020FEF7DD
:1025C000A6FE0128FAD000217D4801F09DF87D4843
:1025D00001F0DBFC7B48FEF7B1FB31E780B57A48C0
:1025E00000907A4B7A4A0121764801F0DBFC00200A
:1025F00002BD00B58BB001210420FEF705FD0121CD
:102600000820FEF7E3FC4FF47040009002208DF8A4
:10261000040000208DF8060000208DF8070003203C
:102620008DF8050000A96B48FEF740FD02220C2141
:102630006848FEF7A8FD02220D216648FEF7A3FDBB
:1026400002220E216348FEF79EFD02220F216148FF
:10265000FEF799FD6048006840084FF4FA61B0FB4E
:10266000F1F0401E5D49088040F2CF7003905B4856
:102670000088ADF808000020ADF810000020ADF88B
:102680000A0002A9474801F05DF90121454801F01F
:1026900090F96020ADF814000120ADF816004FF459
:1026A0007A7007900020ADF8200005A93D4801F0A0
:1026B0009CF9002200213B4801F0D2FA0821394858
:1026C00001F0A8FA05A9374801F0CEF9002204214B
:1026D000344801F0C5FA0821324801F0A4FA05A9EE
:1026E000304801F007FA002208212E4801F0B8FA1C
:1026F00008212C4801F0A1FA05A92A4801F03FFA67
:1027000000220C21274801F0ABFA0821254801F0EE
:102710009DFA0121234801F05AF90BB000BD01B424
:102720001D48009901601C4800680028FBD101B0D9
:10273000704719480068002804D017480068401EF8
:1027400015490860704780B50221582001F02EF825
:102750005FF055310F4801F089F80220FEF776FD51
:102760000520FFF7DCFFF8E780B50C48007800286B
:1027700003D1FFF7E8FF002000E0FEE702BD000004
:1027800018ED00E000E400E014E000E018E000E0F4
:1027900010E000E0FCFF0F08200800205A0800208D
:1027A0005B080020000800401008002024080020DA
:1027B000180800205C0800205D0800205E0800204A
:1027C000003001407C010020E4000020780000205F
:1027D000C8000020000C02406C0100204C080020C2
:1027E000DFF85C1A0860DFF8581A0968012930D14F
:1027F000DFF8501A5FF400120A60DFF8501ADFF8B1
:10280000482A0A60DFF8481ADFF8482A0A60DFF829
:10281000481A00220A60DFF8441A2F220A60DFF803
:10282000401A5FF020520A60DFF8381A5FF0105249
:102830000A60DFF8381A5FF001520A60DFF8301AD8
:102840005FF008520A60DFF8201A5FF004520A6055
:1028500031E002282FD1DFF8EC195FF400120A6092
:10286000DFF8E819DFF80C2A0A60DFF8E419DFF86E
:10287000082A0A60DFF8E01900220A60DFF8DC1994
:102880000B220A60DFF8D819DFF8F0290A60DFF8B8
:10289000D419DFF8EC290A60DFF8D019DFF8E42951
:1028A0000A60DFF8CC19DFF8E0290A60DFF8B81910
:1028B000DFF8D8290A60704770B504000D001600D3
:1028C000EDB2652D01D3642106E0EDB2FF2000FBDF
:1028D00005F0642190FBF1F13200C9B2200080B212
:1028E00000F0B2F8002801D0012002E000F071FCF5
:1028F000002070BD80B500F086FC00F027F90020B4
:1029000002BD80B5DFF858090168DFF840090068AA
:1029100001F092FD002871D0DFF8740900680028EA
:1029200058D0DFF82809006801F07AFD0028F8D1B6
:10293000DFF82C090168DFF81409006801F09BFD3D
:10294000DFF85409DFF84C1909688160DFF84009A5
:102950000068B0F5803F03D2DFF83409006801E079
:102960004FF6FF70DFF830190861DFF82C19DFF837
:10297000DC08006801F01BFD0121DFF8D0080068C9
:1029800001F041FDDFF808090068B0F5803F03D28F
:10299000DFF8FC08006801E04FF6FF70DFF8F4187C
:1029A000096811EB4000DFF8EC180860DFF8E00878
:1029B0000068B0F5803F03D2DFF8D408006801E07A
:1029C0004FF6FF70DFF8C8180968081ADFF8C0185A
:1029D000086013E00021DFF87408006801F013FDBF
:1029E000DFF87C080168DFF86408006801F043FD47
:1029F0000021DFF8A0080068FFF782FA01BD80B56A
:102A0000FFF77FFF01BD80B5FFF77BFF01BD80B5FC
:102A10000221DFF8880800F0ADFE002813D0DFF8AF
:102A200020080068022806D1FFF76BFA010089B27E
:102A3000042001F095FDFFF764FA010089B2DFF888
:102A40005C0800F07FFE01BDF8B504000D00160023
:102A5000002700F0EEFA00F0B4F800F070FA01215F
:102A6000022000F0C0F8C0190700AF21042000F0D8
:102A7000BAF8C0190700DFF82808AF2101708121DA
:102A8000052000F0B0F8C01907000421062000F06E
:102A9000AAF8C01907002800C0B200F069F8DFF8F2
:102AA0000408006802281DD10121082000F09BF8CD
:102AB000C01907000121092000F095F8C01907008E
:102AC000C0210E2000F08FF8C0190700002114204B
:102AD00000F089F8C01907000021152000F083F8E4
:102AE000C01907009E21022000F07DF8C0190700E0
:102AF00000210A2000F077F8C0190700DFF8A407CA
:102B00000068022805D004210E2000F06CF8C019DE
:102B100007000021272000F066F8C01907000F21E8
:102B20001F2000F060F8C01907000A211A2000F0E9
:102B30005AF8C01907000A211B2000F054F8C019E8
:102B40000700300000F028FA3800F2BD10B500246C
:102B500000F037F80121022000F045F800190400C8
:102B600000F0F7FA00F017FA00F053FA200010BD59
:102B700038B504000025E4B2E72C10D314F1190194
:102B8000C9B2202000F02FF84019050014F11901F6
:102B9000C9B2212000F027F8401905000FE014F118
:102BA0001901C9B2202000F01EF84019050014F1E7
:102BB0001901C9B2212000F016F8401905002800BB
:102BC00032BD80B500221021DFF8DC06FEF7D4FA12
:102BD00044F6FF7000F0F3FA01221021DFF8C80676
:102BE000FEF7CAFA01BD70B504000D000026DFF83B
:102BF000BC065FF4961101605FF40031DFF8B006A7
:102C000001F0D9FD00280BD0DFF8A0060068411EB6
:102C1000DFF8982611600028EED1FFF7EBF98AE083
:102C20000121DFF88C0601F06DFDDFF880064FF41E
:102C300080510160DFF87C16DFF8740601F09FFD1B
:102C400000280BD1DFF864060068411EDFF85C261F
:102C500011600028EED1FFF7CDF96CE0002294213D
:102C6000DFF84C0601F06CFDDFF840064FF48051B0
:102C70000160DFF84416DFF8380601F080FD002817
:102C80000BD1DFF828060068411EDFF8202611600E
:102C90000028EED1FFF7AEF94DE02100C9B2DFF810
:102CA000100601F066FDDFF804064FF48051016064
:102CB000DFF80816DFF8F80501F061FD00280BD1F8
:102CC000DFF8E8050068411EDFF8E0251160002804
:102CD000EED1FFF78FF92EE02900C9B2DFF8D00559
:102CE00001F047FDDFF8C4055FF496110160DFF8DD
:102CF000D015DFF8BC0501F05EFD00280BD1DFF830
:102D0000AC050068411EDFF8A42511600028EED153
:102D1000FFF770F9EBE70121DFF8940501F001FD01
:102D20002000C0B200F008F8EDB2A84201D10026A0
:102D300000E00126300070BD70B504000025DFF80A
:102D40006C055FF4961101605FF40031DFF86005F7
:102D500001F031FD00280BD0DFF850050068411E5E
:102D6000DFF8482511600028EED1FFF743F9E5E0D0
:102D70000121DFF83C0501F0C5FCDFF830054FF418
:102D800080510160DFF82C15DFF8240501F0F7FC15
:102D900000280BD1DFF814050068411EDFF80C2570
:102DA00011600028EED1FFF725F9C7E00022942139
:102DB000DFF8FC0401F0C4FCDFF8F0044FF48051AC
:102DC0000160DFF8F414DFF8E80401F0D8FC002813
:102DD0000BD1DFF8D8040068411EDFF8D024116061
:102DE0000028EED1FFF706F9A8E02100C9B2DFF80C
:102DF000C00401F0BEFCDFF8B4044FF48051016060
:102E0000DFF8BC14DFF8A80401F0D5FC00280BD1D2
:102E1000DFF898040068411EDFF890241160002854
:102E2000EED1FFF7E7F889E00121DFF8840401F033
:102E300069FCDFF878044FF480510160DFF8741406
:102E4000DFF86C0401F09BFC00280BD1DFF85C0478
:102E50000068411EDFF8542411600028EED1FFF70E
:102E6000C9F86BE001229421DFF8440401F068FC0A
:102E7000DFF838044FF480510160DFF84814DFF8C0
:102E8000300401F098FC00280BD1DFF82004006822
:102E9000411EDFF8182411600028EED1FFF7AAF8D0
:102EA0004CE00021DFF8080401F055FCDFF81804BD
:102EB00006880121DFF8F80301F033FCDFF8EC03AA
:102EC0004FF480510160DFF80414DFF8E40301F0EF
:102ED00072FC00280BD1DFF8D4030068411EDFF834
:102EE000CC2311600028EED1FFF784F826E0DFF84C
:102EF000C00301F041FC0500DFF8B0034FF480513E
:102F00000160DFF8AC03008880050BD5DFF89C0377
:102F10000068411EDFF8942311600028F1D1FFF70B
:102F200069F80BE00121DFF8880301F014FCDFF8F9
:102F3000A013DFF87C0301F061FC280070BD00B530
:102F400085B001215FF40010FEF75EF8DFF8600342
:102F500001F018FB0020ADF804004BF6FF70ADF84F
:102F600006003320ADF808004FF48060ADF80A0089
:102F70004FF48040ADF80C00DFF8580300900121B9
:102F8000DFF82C0301F0B0FB00A9DFF8240301F007
:102F900025FB05B000BD704710B588B004000121C5
:102FA0004FF40040FEF730F8DFF8F00200F086FA48
:102FB00002940020ADF802000020ADF804000020CB
:102FC000ADF80C004FF40070ADF800004FF4007045
:102FD000ADF8060000A9DFF8C40200F0BBFADFF884
:102FE000C4020068022812D101215FF00050FEF7F0
:102FF0000BF800200490002005900020079004A901
:10300000002001F081FA0121002001F096FA08B0B9
:1030100010BD80B50021DFF8840200F083FBDFF8EB
:103020007C0200F04BFA00214FF40040FDF7ECFF6A
:1030300001BD00B583B001210820FDF7C7FF1020B6
:10304000009001208DF8040002208DF8050000207A
:103050008DF8060000208DF8070000A9DFF848026F
:10306000FEF724F801210720FDF7B0FF4FF41070A0
:10307000009002208DF8040002208DF80500012048
:103080008DF8060000208DF8070000A9DFF848023F
:10309000FEF70CF8042206218F48FEF774F804228C
:1030A00009218D48FEF76FF84FF4A05000900220E0
:1030B0008DF8040002208DF8050000208DF8060030
:1030C00000208DF8070000A98448FDF7EFFF0622D5
:1030D00004218348FEF757F806220A217F48FEF7AD
:1030E00052F85748006802280BD01020009000A921
:1030F0007B48FDF7DBFF06220C217848FEF743F8FA
:103100000FE001210120FDF761FF10200090032056
:103110008DF8040000208DF8070000A97048FDF725
:10312000C5FF8020009002208DF8040002208DF859
:10313000050000208DF8060000208DF8070000A98A
:103140006648FDF7B3FF062207216448FEF71BF827
:1031500007BD00B583B04FF4A050009000208DF85B
:10316000040000208DF8050000208DF806000020E6
:103170008DF8070000A95948FDF798FF102000902E
:1031800000A95748FDF792FF002204215448FDF79B
:10319000FAFF00220A215148FDF7F5FF00220C2119
:1031A0004E48FDF7F0FF8020009000A94B48FDF746
:1031B0007DFF062207214948FDF7E5FF07BD01B461
:1031C0000098002803D00098401E0090F8E701B056
:1031D000704780B533208DF8000000208DF8010085
:1031E00000208DF8020001208DF8030000A8FEF7F2
:1031F0000AF901227121294800F0A6FA0121274885
:1032000000F090FA01BD80B5144800688DF8000008
:1032100000208DF8010000208DF8020000208DF8BC
:10322000030000A8FEF7EFF800212E48006801F027
:10323000EAF82C48006801F019F801BD0000000010
:103240004001002044010020B860024048010020F5
:103250004C0100200C3C00402C08002050010020B4
:103260005401002058010020640100205C0100206E
:1032700060010020106002400C740040200000102B
:1032800010000010010080100800001004008010E1
:103290003801002028080020AC070020003C004036
:1032A0006008002040010020000C02403C0100208A
:1032B0000054004001000300820007008000070066
:1032C00004000010020000101854004040000010DC
:1032D00000040010A0860100000402400008024023
:1032E000000002404801002030B40023002244685E
:1032F0002300674C23400C790D6855EA04242343CE
:10330000436084682300634C23400C69CD682C43E0
:103310008D682C434D7954EA450423438360C46A85
:10332000230033F470030C7D641E2243D2B253EAAF
:103330000253C36230BC704700210160002101715B
:1033400000214171002181600021C16000210161E3
:1033500001210175704700214F4A126811004F4A40
:103360001140026843681A4383681A43C3681A43CA
:103370001143494A11607047C9B2002904D08268DC
:1033800052F00102826003E08268520852008260BB
:103390007047F0B400250024C9B20A2916D3C668C4
:1033A00035000726B1F10A075FF0030C0CFB07F7A5
:1033B000BE403400A543DBB2B1F10A0603277E43C9
:1033C00013FA06F634002543C56011E0066935009E
:1033D0000726032707FB01F7BE403400A543DBB2F5
:1033E000032606FB01F613FA06F6340025430561B1
:1033F000D2B2072A14D2466B35001F26571E5FF043
:10340000050C0CFB07F7BE403400A543C9B2561E9D
:1034100005277E4311FA06F63400254345632DE067
:10342000D2B20D2A14D2066B35001F26D71F5FF0CB
:10343000050C0CFB07F7BE403400A543C9B2D61FEC
:1034400005277E4311FA06F634002543056315E08F
:10345000C66A35001F26B2F10D075FF0050C0CFBA4
:1034600007F7BE403400A543C9B2B2F10D060527E7
:103470007E4311FA06F634002543C562F0BC70475E
:10348000816851F0804181607047C06C80B27047A4
:10349000FFFEFFFCFDF7FFC004230140E030FCFF0E
:1034A000020000201368DBB20B4202D00123180097
:1034B00001E000231800C0B27047010010B50400FD
:1034C0008A4884420AD101214FF48050FDF7C9FD9A
:1034D00000214FF48050FDF7C4FD1AE08448844277
:1034E0000AD101214FF48040FDF7ACFD00214FF4DB
:1034F0008040FDF7A7FD0CE07E48844209D1012100
:103500004FF40040FDF79EFD00214FF40040FDF711
:1035100099FD10BD10B4002203881A0012F4415224
:103520000B884C8823438C882343CC8823430C8905
:1035300023434C8923438C892343CC8923431A4357
:103540000280838B4FF2FF74234083830B8A0382B4
:1035500010BC70472DE9F84F5FF0000802225FF0C1
:10356000000E01235FF0000C002400250026002738
:10357000B0F81C904FF2400A1AEA0909A0F81C9012
:103580005FF00209A0F82090B0F81C90C846D1F86E
:103590000890B9F1020F06D15FF00009CE465FF046
:1035A00002094A4672E0B1F80490B9F1000F03D164
:1035B0005FF001094B4602E05FF002094B46DFF87D
:1035C0003891D9F800905FEA092909D5DFF82891E8
:1035D000D9F8009039F40009DFF81CA1CAF800906E
:1035E000DFF81891D9F80090C9F388194E46DFF832
:1035F0000C91D9F80090C9F302794F46DFF8009199
:10360000D9F8009019F03F094D46DFF8F890B9FB62
:10361000F5F906FB09F9B9FBF7F94C46B1F8069044
:103620004FF4007AD1450FD15FEA14295FF00A0AFE
:103630000AFB09F9D1F808A0B9FBFAF919F1050953
:103640001FFA89F9CC4611E09BB25FEA4319B4FB3B
:10365000F9F95FF00A0A0AFB09F9D1F808A0B9FBE9
:10366000FAF919F105091FFA89F9CC465FF00A0940
:10367000BCFBF9FC1CF00109CE461FFA8EFEBCEB28
:103680000E095FEA59094A465FEA0E2E92B2022AF3
:1036900004D34FF4807992B24A4505D35FF0020912
:1036A0004A465FF00009CE46B1F8069059EA0E0985
:1036B00059EA0209A0F82090CDF80080B1F8008006
:1036C000B1F80290B1F804B0B1F80CA05AEA0B0AB4
:1036D0005AEA090959EA080858F40069DDF8008037
:1036E00059EA0808A0F81C80BDE8F18F00300140BD
:1036F00000380040003C0040083802408438024056
:103700000438024000127A00C9B2002904D00288AD
:1037100052F04002028004E002884FF6BF731A4064
:1037200002807047C9B2002904D0828B52F48062B3
:10373000828304E0828B4FF6FF331A408283704706
:10374000808970478181704730B400230024C9B25A
:103750000D09EDB22B0001259D402C00D2B2002AAC
:1037600003D085882543858002E08588A543858030
:1037700030BC70470200002013890B4202D00123A5
:10378000180001E000231800C0B27047DFF878018C
:103790000068002809D5DFF87401DFF874110160B2
:1037A000DFF86801DFF86C1101607047F8B50400BC
:1037B0000D0000260827EDB2002D02D100200600E2
:1037C00010E0EDB2012D03D14FF48070060009E046
:1037D000EDB2022D03D14FF40070060002E04FF469
:1037E0004070060000F09AF80700FFB2082F3AD1A7
:1037F000DFF81401006830F44070DFF80C11086045
:10380000DFF8040100683043DFF8FC100860DFF8DF
:10381000F800006830F0F800DFF8EC100860DFF81E
:10382000E800006854F002010843DFF8DC1008608B
:10383000DFF8D400006850F48030DFF8CC10086066
:1038400000F06CF80700DFF8C000006830F00200FC
:10385000DFF8B4100860DFF8B000006830F0F8005E
:10386000DFF8A41008603800C0B2F2BD70B50400E3
:103870000D00082600F052F80600F6B2082E1CD102
:103880002148006830F440701F4908601E480068F5
:103890004FF4007108431C4908601B48006850F051
:1038A000010019490860256000F038F80600164844
:1038B000006840084000144908603000C0B270BD84
:1038C000082015490968C90302D50121080018E03C
:1038D00011490968C90602D50521080011E00E4901
:1038E000096811F0EF01002902D00621080008E064
:1038F00009490968890702D50721080001E0082164
:103900000800C0B270470000103C0240043C024076
:1039100023016745AB89EFCD0C3C024080B5082000
:103920008DF80000FFF7CCFF8DF800009DF8000037
:10393000012804D1FFF7C4FF8DF80000F6E79DF8D9
:10394000000002BD002203881A00A74B98420ED047
:10395000AB4B98420BD0B0F1804F08D0A34B9842AC
:1039600005D0A34B984202D0A24B984204D14FF607
:103970008F731A404B881A439F4B984207D09F4B36
:10398000984204D04FF6FF431A400B891A43028035
:103990004B68C3620B880385934B984202D0984BC7
:1039A000984201D18B7A0386012383827047C162DA
:1039B0007047C9B2002904D0028852F08002028008
:1039C00004E002884FF67F731A4002807047C9B244
:1039D000002904D0028852F00102028004E002882B
:1039E0004FF6FE731A400280704770B40023002423
:1039F0000022058C4FF6FE7635400584058C2C00A0
:103A000085882A00058B2B004FF68F752B404FF6CB
:103A1000FC752B400D882B434FF6FD752C408D898E
:103A20002C434D882C43704DA84202D0744DA842BF
:103A300013D14FF6F7752C40CD892C434FF6FB750B
:103A40002C408D882C434FF6FF652A404FF6FF55DA
:103A50002A400D8A2A434D8A2A43828003838D6837
:103A60004563048470BC704770B4002300240022B6
:103A7000058C4FF6EF7635400584058C2C00858843
:103A80002A00058B2B0048F6FF752B404FF6FF45AB
:103A90002B400D8853EA05234FF6DF752C408D89A6
:103AA00054EA05144D8854EA05144F4DA84202D03B
:103AB000534DA84217D14FF67F752C40CD8954EA5B
:103AC00005144FF6BF752C408D8854EA05144FF647
:103AD000FF352A404FF2FF752A400D8A52EA8502CF
:103AE0004D8A52EA8502828003838D68856304844F
:103AF00070BC704770B4002300240022058C4FF680
:103B0000FF6635400584058C2C0085882A00858B4E
:103B10002B004FF68F752B404FF6FC752B400D8810
:103B20002B434FF6FF552C408D8954EA05244D88D0
:103B300054EA05242C4DA84202D0314DA84217D199
:103B40004FF2FF752C40CD8954EA05244FF6FF351E
:103B50002C408D8854EA05244EF6FF752A404DF618
:103B6000FF752A400D8A52EA05124D8A52EA051263
:103B7000828083838D68C563048470BC704770B491
:103B8000002300240022058C4EF6FF763540058484
:103B9000058C2C0085882A00858B2B0048F6FF7544
:103BA0002B404FF6FF452B400D8853EA05234DF679
:103BB000FF752C408D8954EA05344D8854EA05344C
:103BC000094DA84202D00E4DA84205D14BF6FF7513
:103BD0002A400D8A52EA8512828083838D680564AB
:103BE000048470BC704700000000014000040040E5
:103BF00000080040000C004000100040001400408D
:103C0000000401404163704781637047C16370479E
:103C1000016470470022038B1A004FF6F7731A40B5
:103C20000A43028370470022038B1A004FF2FF738E
:103C30001A4052EA0122028370470022838B1A0045
:103C40004FF6F7731A400A43828370470022838B32
:103C50001A004FF2FF731A4052EA01228283704722
:103C600030B4002301248C402300048C9C43048442
:103C7000048C92B212FA01F52C43048430BC7047D4
:103C8000F8B504000D002900C9B22000FCF7FAFACB
:103C9000012084F81201002084F81301002006009E
:103CA0006078864213D2282000FB064000F21810EC
:103CB0000700012078703E70FE800020F8704020E0
:103CC000B8600020F86000207861761CE8E70020EA
:103CD00006006078864213D2282000FB064000F2DE
:103CE00070300700002078703E70FE800020F87071
:103CF0004020B8600020F86000207861761CE8E77A
:103D00002000FCF7D9FB2000FCF72DFB0021200050
:103D1000FCF72AFC2000FCF768FC2000FCF7BDFB48
:103D2000F1BD2DE9F04104000D0016001F00EDB2B9
:103D3000280609D5EDB215F07F00282101FB0040CF
:103D400000F21810804608E0EDB215F07F0028213F
:103D500001FB004000F27030804615F07F0088F8CB
:103D60000000C5F3C01088F80100B6B2C8F80860BA
:103D700088F8037098F80100002803D098F8000034
:103D8000A8F80600FFB2022F02D1002088F8040034
:103D900041462000FCF76AFD0020BDE8F08170B5C7
:103DA00004000D00EDB2280609D5EDB215F07F0034
:103DB000282101FB004000F21810060008E0EDB2D7
:103DC00015F07F00282101FB004000F27030060052
:103DD00015F07F003070C5F3C01070703100200006
:103DE000FCF781FD002070BD2DE9F04104000D00BD
:103DF00016001F00EDB215F07F00282101FB0040E6
:103E000000F270308046C8F80C60BFB2C8F8147079
:103E10000020C8F81800002088F8010015F07F0085
:103E200088F80000E078012801D1C8F8106098F8FF
:103E30000000002804D141462000FCF746FE03E0C4
:103E400041462000FCF77BFD0020BDE8F0812DE914
:103E5000F04104000D0016001F00EDB215F07F00C8
:103E6000282101FB004000F218108046012088F84C
:103E7000010015F07F0088F80000C8F80C60C8F851
:103E800010600020C8F81800C8F8147098F80000F6
:103E9000002804D141462000FCF717FE03E041460C
:103EA0002000FCF74CFD0020BDE8F08170B5040057
:103EB0000D00EDB2280609D5EDB215F07F002821DE
:103EC00001FB004000F21810060006E0EDB22820C9
:103ED00000FB054000F2703006000120B07015F0C4
:103EE0007F003070C5F3C010C0B210F001007070D8
:103EF00031002000FCF77FFE002070BD70B504008B
:103F00000D00EDB2280609D5EDB215F07F0028218D
:103F100001FB004000F21810060006E0EDB2282078
:103F200000FB054000F2703006000020B07015F074
:103F30007F003070C5F3C010C0B210F00100707087
:103F400031002000FCF77BFE002070BD38B5040076
:103F50000D00EDB2280606D5EDB215F07F01200068
:103F6000FCF7B9FA02E02000FCF7D9FA002032BDD4
:103F700010B400231A00C9B261F30A1203691B6866
:103F800013430469236010BC704738B504002069EE
:103F90004068050055F00205206945600320FCF7E4
:103FA0008CFF31BD2DE9F04104000D0016001F000B
:103FB000DDF818802000FCF703FF200000F014F863
:103FC000C4F8E075C4F8E485C4F8E8652900C9B20E
:103FD0002000FFF755FED4F8E40500688047200074
:103FE000FCF748FFBDE8F0810100002070471CB5D8
:103FF000040000A9200000F0FFFE9DF8000010F072
:104000001F00C0B2002803D002280BD005D30EE059
:1040100000A9200000F0FAFB10E000A9200000F049
:1040200033FC0BE000A9200000F056FC06E09DF8F0
:10403000000010F080012000FFF738FF002016BDBF
:1040400070B504000D00EDB2002D34D104F27030D3
:10405000060094F8110103283DD1B068F169884247
:1040600017D2F069B168401AF061E078012803D1F5
:10407000B068F1684018F060F069B168884201D218
:10408000F26900E0B26892B2F168200000F048FFE7
:1040900021E0D4F8E0050069002808D094F8120166
:1040A000032804D12000D4F8E015096988472000CE
:1040B00000F045FF0FE0D4F8E005806900280AD041
:1040C00094F81201032806D12900C9B22000D4F8BF
:1040D000E02592699047002070BD70B504000D0086
:1040E000EDB2002D46D104F21810060094F811012B
:1040F00002284FD1B068F169884211D2F069B168E5
:10410000401AF061E078012803D1B068F1684018E6
:10411000F060F26992B2F168200000F0F2FE39E03E
:10412000306AB168B0FBF1F201FB120000280FD138
:10413000306AB16888420BD3306A716A884207D20C
:1041400000220021200000F0DCFE0020706221E04F
:10415000D4F8E005C068002808D094F812010328BC
:1041600004D12000D4F8E015C9688847200000F089
:10417000F8FE0FE0D4F8E005406900280AD094F872
:104180001201032806D12900C9B22000D4F8E02585
:1041900052699047002070BD10B5040000234022F2
:1041A00000212000FFF7BDFD0023402280212000D8
:1041B000FFF7B7FD012084F81201A078D4F8E415C8
:1041C00049688847002010BD10B50400D4F8E40504
:1041D00000698047032084F81201002010BD10B54B
:1041E0000400042084F81201D4F8E405C068804774
:1041F000002010BD10B50400D4F8E005C069002807
:1042000004D02000D4F8E015C9698847002010BD0B
:1042100038B504000D002900C9B22000D4F8E0250B
:1042200012689047D4F8E40580688047002032BDCA
:1042300038B504000D002900C9B22000D4F8E025EB
:1042400052689047002032BD10B504002000D4F819
:10425000E015096A8847002010BD10B50400200051
:10426000D4F8E015496A8847002010BD0168490864
:10427000490001600021016000214160002181604E
:104280000021C1600021016121214161DFF80C1290
:10429000884204D1DFF808123D220A6086E0DFF888
:1042A0000412884205D1DFF8F8114FF474620A60F5
:1042B0007CE0DFF8F411884205D1DFF8E4115FF407
:1042C00074120A6072E0DFF8E411884205D1DFF869
:1042D000D0115FF074620A6068E0DFF8D4118842A0
:1042E00005D1DFF8D011DFF8D0210A605EE0DFF8F9
:1042F000CC11884205D1DFF8BC11DFF8C4210A6077
:1043000054E0DFF8C011884205D1DFF8A811DFF8CA
:10431000B8210A604AE0DFF8B411884205D1DFF81D
:1043200094115FF03D520A6040E0DFF8A41188422A
:1043300004D1DFF8A0113D220A6037E0DFF89811C0
:10434000884205D1DFF88C114FF474620A602DE0C9
:10435000DFF88811884205D1DFF878115FF4741214
:104360000A6023E05E49884204D15A495FF07462D2
:104370000A601BE05B49884203D15B494E4A0A60F0
:1043800014E05A49884203D157494D4A0A600DE06A
:104390005749884203D154494B4A0A6006E05549BF
:1043A000884203D150495FF03D520A60704710B413
:1043B000002203681A00504B1A400B68CC68234354
:1043C0004C6923438C692343CC6923430C6A234300
:1043D0004C6A23438C6A23434C6B23438C6B2343EB
:1043E0001A43026043691A00D208D200CB6A0C6BF0
:1043F00023431A4342610B6943604B6883608B68B7
:10440000C36010BC7047C9B2002904D0026852F0E2
:104410000102026003E00268520852000260704725
:10442000010000200A68D20702D50122100001E035
:1044300000221000C0B2704730B4020000200024F7
:10444000234DAA4202D22D4D2B0001E02C4D2B0012
:104450008D0002D55D682C0001E01D682C00294DFF
:104460002C400C4202D00125280001E00025280044
:10447000C0B230BC7047164B984202D21F4B1A0094
:1044800001E01F4B1A008B0003D51E4B0B40D3607D
:1044900002E01C4B0B40936070470000106002402C
:1044A00008600240286002404060024058600240BC
:1044B000706002400C6002403D00002088600240B5
:1044C000400F0020A060024000003D20B860024084
:1044D00010640240086402402864024040640240C4
:1044E00058640240706402400C64024088640240D8
:1044F000A0640240B86402403F801CF000600240AB
:10450000006402407D0F7D0F30B4002300221C4C5C
:104510002468230040F6FE748440A3430C684D6871
:104520002C438D682C43CD682C43220012FA00F4F2
:104530002343134C236030BC7047C9B2002907D015
:104540000F4A1268012383401A430D4B1A6006E09C
:104550000B4A1268012383409A43094B1A60704743
:1045600081B000220092064A0092009A10F10803DE
:104570009A180092009A89B2116001B07047000049
:104580000074004010B50400514884420AD1012152
:104590005FF40010FCF756FD00215FF40010FCF7FB
:1045A00051FD1AE04B4884420AD101215FF480009A
:1045B000FCF748FD00215FF48000FCF743FD0CE0B0
:1045C0004548844209D101215FF40000FCF73AFD1F
:1045D00000215FF40000FCF735FD10BD2DE9F0432C
:1045E00085B004000D005FF0000900260427DFF805
:1045F000EC80A08881464FF6C07010EA090900A837
:10460000FCF764FC029880463548B8FBF0F00600E1
:1046100056EA0909A4F8049020884FF6FE71084074
:1046200020800020814628682E4988420ED22868C2
:104630004000B8FBF0F00700BFB2042F01D2042005
:10464000070057EA0909701C208426E0E8884BF629
:10465000FF71884206D1286803214843B8FBF0F077
:10466000070007E0286819214843B8FBF0F007006D
:1046700057F48047380501D157F0010757F400403F
:1046800050EA0909B6B24FF4967000FB06F04FF4F9
:104690007A7190FBF1F0401C2084A4F81C902088D3
:1046A00050F001002080208881464FF6F53010EA56
:1046B0000909A8886989084350EA0909A4F8009003
:1046C000A88929890843208105B0BDE8F08300004E
:1046D0000054004000580040005C004000127A0086
:1046E00040420F00A1860100C9B2002904D002880F
:1046F00052F00102028004E002884FF6FE731A4075
:1047000002807047C9B2002905D002884FF4807337
:104710001A43028004E002884FF6FF631A400280C9
:104720007047C9B2002905D002884FF400731A43BC
:10473000028004E002884FF6FF531A40028070475F
:10474000D2B2002A02D051F0010101E011F0FE01C5
:10475000C9B201827047C9B2002904D0028852F45C
:104760008062028004E002884FF6FF331A40028024
:104770007047C9B201827047008AC0B2704770B4F6
:1047800002000023002400250020968A3400168BA6
:1047900035002D0455EA04063602360A330011EAC4
:1047A00003068E4202D10126300001E000263000CF
:1047B000C0B270BC704782B0020000200023019399
:1047C0000023009300920B0F01930902090A019B39
:1047D000002B03D0009B1433009303E0090C009BD3
:1047E00018330093009B1B680B4202D00123180072
:1047F00001E000231800C0B202B0704700220B0293
:104800001B0A1A00D34383827047010070B504006D
:104810000D0000266878002820D0012828D0032821
:1048200021D005280BD0062804D0082811D009284B
:104830000AD022E02900200000F003F921E029003D
:10484000200000F099F91CE02900200000F0C4F9D4
:1048500017E02900200000F022FA12E029002000D1
:1048600000F041FA0DE02900200000F063FA08E0B2
:104870002900200000F0A3FA03E02900200000F046
:10488000E0FA3000C0B270BD70B504000D00002623
:1048900094F81201032818D1A888C0B202280FD2B8
:1048A00029002000D4F8E02592689047E888002885
:1048B0000AD1F6B2002E07D1200000F040FB03E041
:1048C0002900200000F0BDFA03E02900200000F0DC
:1048D000B8FA3000C0B270BDF8B504000D00002772
:1048E000A88806006878002864D0012832D0032800
:1048F00040F0A48094F81201022802D003280CD0C2
:1049000023E0F6B2002E07D0F6B2802E04D031009C
:10491000C9B22000FFF7CAFA1BE0688800280AD154
:10492000F6B2002E07D0F6B2802E04D03100C9B204
:104930002000FFF7BBFA29002000D4F8E025926898
:104940009047200000F0FBFA03E02900200000F06F
:1049500078FA73E094F81201022802D003280CD0F0
:1049600023E0F6B2002E07D0F6B2802E04D031003C
:10497000C9B22000FFF79AFA1BE06888002813D11B
:10498000F6B2002E0DD0F6B2802E0AD03100C9B298
:104990002000FFF7B3FA29002000D4F8E025926840
:1049A0009047200000F0CBFA03E02900200000F03F
:1049B00048FA43E094F81201022802D003280CD0F0
:1049C00037E0F6B2002E07D0F6B2802E04D03100C8
:1049D000C9B22000FFF76AFA2FE0F6B2300611D50F
:1049E000F6B216F07F00282101FB004090F81A0172
:1049F000002803D0CB480121016014E0C948002100
:104A0000016010E030060ED4F6B2282000FB06400C
:104A100090F87203002803D0C2480121016002E02F
:104A2000C048002101600222BE49200000F051FA76
:104A300003E02900200000F004FAFFE73800C0B2CC
:104A4000F2BD70B582B004000D00688880B2000A23
:104A5000C0B2012808D0022818D0032822D0062886
:104A600062D0072865D069E000A9A078D4F8E825CD
:104A7000126890470600E888402803D094F8120195
:104A8000012802D10820ADF800005CE000A9A07860
:104A9000D4F8E025926A9047060002207070C4F8AE
:104AA000EC6550E0A878002808D0022816D00DD375
:104AB000042823D01AD3052828D02FE000A9A078F5
:104AC000D4F8E8255268904706002CE000A9A078A9
:104AD000D4F8E82592689047060024E000A9A07861
:104AE000D4F8E825D268904706001CE000A9A07819
:104AF000D4F8E82512699047060014E000A9A078D0
:104B0000D4F8E8255269904706000CE000A9A07887
:104B1000D4F8E82592699047060004E029002000B7
:104B200000F08FF927E00EE02900200000F089F95D
:104B300021E02900200000F084F91CE02900200079
:104B400000F07FF917E0BDF80000002813D0E888D6
:104B5000002810D0BDF80000E988884202D2BDF8D4
:104B6000000000E0E888ADF80000BDF8002031004A
:104B7000200000F0AEF973BD70B504000D00A888E8
:104B8000002824D1E888002821D1A87810F07F00DF
:104B9000060094F81201032804D12900200000F037
:104BA00050F918E084F813613100C9B22000FFF712
:104BB000DFF9200000F0C3F9F6B2002E03D0022086
:104BC00084F8120107E0012084F8120103E02900B3
:104BD000200000F036F970BD38B504000D0068887B
:104BE0005149087050480078022804D32900200059
:104BF00000F027F952E094F81201022802D00328AD
:104C000018D047E04848007800280FD04648007880
:104C100084F81001032084F8120143480178200031
:104C2000FFF7F6FA200000F08AF902E0200000F019
:104C300086F933E03C48007800280FD1022084F840
:104C400012013948007884F81001374801782000B3
:104C5000FFF7EEFA200000F072F91AE0324800780F
:104C600094F81011884211D094F810112000FFF729
:104C7000DFFA2D48007884F810012B4801782000D5
:104C8000FFF7C6FA200000F05AF902E0200000F019
:104C900056F903E02900200000F0D3F831BD38B503
:104CA00004000D00E888012804D02900200000F04D
:104CB000C8F817E094F81201022802D0032806D0A1
:104CC0000CE001221949200000F003F90AE001225A
:104CD00004F21011200000F0FCF803E0290020008D
:104CE00000F0AFF831BD38B504000D0094F81201A2
:104CF000801E012810D8D4F81401002803D00C48D5
:104D00000321016002E00A480121016001220849F3
:104D1000200000F0DEF803E02900200000F091F808
:104D200031BD000040080020630800204408002036
:104D300048080020F8B504000D0000276888012805
:104D40000CD10120C4F8140129002000D4F8E0257A
:104D500092689047200000F0F2F82FE0688802285F
:104D60002CD12879000629D1206940680600A8883E
:104D700080B2000A0700FFB2012F07D019D3032F1A
:104D80000CD007D3052F11D00CD312E0012060F313
:104D900006160EE0022060F306160AE0032060F318
:104DA000061606E0042060F3061602E0052060F314
:104DB000061620694660200000F0C1F8F1BD38B544
:104DC00004000D0094F81201801E01280FD8688895
:104DD00001280BD10020C4F8140129002000D4F8C8
:104DE000E02592689047200000F0A9F803E0290030
:104DF000200000F026F831BD90F8C8250A7090F820
:104E0000C9254A7090F8CA2590F8CB351B0253FA91
:104E100082F24A8090F8CC2590F8CD351B0253FAE7
:104E200082F28A8090F8CE2590F8CF351B0253FA93
:104E300082F2CA80CA88C0F83C21012280F8112180
:104E4000704738B504000D002878000604D580218D
:104E50002000FFF72BF80BE0E888002804D1802120
:104E60002000FFF723F803E000212000FFF71EF8E1
:104E70002000FBF724FF31BDF8B504000D0016003B
:104E80000027002C1AD0200000F019F84000801CE8
:104E90003080FFB2308878557F1CFFB203207855F0
:104EA0007F1C2078002809D0FFB220787855641C38
:104EB0007F1CFFB2002078557F1CF2E7F1BD010096
:104EC00000200A78002A02D0401C491CF9E7C0B231
:104ED0007047F8B504000D0016000027B6B2C4F8FC
:104EE0003861B6B2C4F83461022084F81101B6B258
:104EF00033002A0000212000FEF7A9FF3800C0B2CD
:104F0000F2BDF8B504000D0016000027B6B233005C
:104F10002A0000212000FEF79AFF3800C0B2F2BD3F
:104F2000F8B504000D001600002733009BB22A00DC
:104F300000212000FEF758FF3800C0B2F2BD38B59E
:104F400004000025042084F8110100230022002120
:104F50002000FEF77CFF2000FBF7B1FE2800C0B266
:104F600032BD38B504000025052084F81101002366
:104F7000002200212000FEF737FF2000FBF79FFEF4
:104F80002800C0B232BD000070B504000026200029
:104F9000FBF70DFB002869D02000FBF714FB050090
:104FA000002D01D1002062E0C5F3C040C00704D548
:104FB000200000F059F930430600C5F38040C007D7
:104FC00004D5200000F0B1F830430600C5F34000DE
:104FD000C00705D50021080050F00200E1684861D3
:104FE000002D04D5200000F043F830430600C5F33F
:104FF000C020C00704D5200000F060F83043060050
:10500000C5F3C000C00704D5200000F0A9F9304363
:105010000600C5F30010C00704D5200000F0AFF96A
:1050200030430600C5F30030C00704D5200000F06F
:1050300048FA30430600C5F34030C00704D52000CD
:1050400000F0A8FA30430600C5F30050C00704D5AD
:10505000200000F0C6FA30430600C5F34050C007F8
:1050600004D5200000F0CCFA30430600300070BDBB
:10507000F8B50400A07A002809D0D4F80C01060085
:1050800036F0020676087600D4F80C01066000209F
:10509000070057F0010720694068B843216948605C
:1050A0002000DFF87C150968896988470020050021
:1050B00055F00045E06845610120F2BDF8B50400F7
:1050C0002000DFF85C150968496988472069806815
:1050D00007000020050055F40065E0684561A07AEE
:1050E000002820D017F00100C0B200281BD00020FB
:1050F000060056F00106D4F80C0100683043D4F8DD
:105100000C11086056F00206D4F80C010068304318
:10511000D4F80C110860DFF80C05006850F00600A8
:10512000DFF8001508600120F2BD2DE9F041040010
:105130000027002005002000FBF7B8FD0600002E28
:1051400000F08F803000C00740F188803900C9B27C
:10515000200000F069FA050015F00100C0B2002837
:1051600024D00120B84080462069406B30EA080016
:10517000216948630020050055F0010514EB870004
:10518000806985603900C9B22000DFF89424126874
:1051900052689047E078012808D1002F06D194F892
:1051A0001101042802D12000FBF789FDC5F380001E
:1051B000C00707D50020050055F0040514EB870053
:1051C00080698560C5F3C000C00707D500200500D1
:1051D00055F0080514EB870080698560C5F3001061
:1051E000C00707D50020050055F0100514EB870017
:1051F00080698560C5F34010C00707D50020050011
:1052000055F0200514EB870080698560C5F3801098
:10521000C00707D50020050055F0400514EB8700B6
:1052200080698560C5F34000C00707D500200500F0
:1052300055F0020514EB870080698560C5F3C01046
:10524000C0070BD53900200000F0EBF80020050066
:1052500055F0800514EB8700806985607F1C760817
:105260006DE70120BDE8F0812DE9F04104005FF019
:105270000008002006002000FBF704FD0500002DBB
:105280006BD02800C00764D54146C9B22000FBF7A7
:1052900002FD060016F00100C0B2002830D0002048
:1052A000060056F0010614EB8800406D8660E07839
:1052B000012811D114EB8800406D006907002820F7
:1052C00000FB0840D0F878037903490B401A2821E5
:1052D00001FB0841C1F888034146C9B22000D04A09
:1052E000126812689047E078012809D1B8F1000FE0
:1052F00006D194F81101052802D12000FBF7DFFC4C
:10530000C6F34000C00707D50020060056F002068D
:1053100014EB8800406D8660C6F38000C00707D597
:105320000020060056F0040614EB8800406D8660ED
:10533000C6F3C000C0070CD52000B94909688968C8
:1053400088470020060056F0080614EB8800406DE0
:10535000866018F101086D0891E70120BDE8F08131
:1053600038B504002000AE490968C96888470020A4
:10537000050055F00805E0684561012032BDF8B52B
:1053800004000020070057F01007E0688069B84368
:10539000E1688861E068006A050015F00F002821C7
:1053A00001FB004000F270300600680C10F00F00A6
:1053B000012808D0022807D003281DD004281CD0BB
:1053C00006281BD026E025E028094005400D80B2C4
:1053D000002810D0C5F30A1292B2F1682000FAF743
:1053E0003BFFC5F30A10F1684018F060B069C5F3DF
:1053F0000A110818B0610DE00CE00BE0082214F56A
:10540000B9612000FAF728FFB069C5F30A1108183E
:10541000B061FFE7E06880693843E1688861012096
:10542000F2BD2DE9F84304000D005FF000080020F4
:105430000600282000FB054000F2181007007869DC
:10544000B969401A8046B868404501D2B8688046BC
:1054500018F103008008814614EB8500806980699B
:105460000600B0B2814529D2B8697969884225D24F
:105470007869002822D07869B969401A8046B868EE
:10548000404501D2B868804618F103008008814683
:1054900043469BB22A00D2B2F9682000FAF7B8FE60
:1054A000F86818EB0000F860B86918EB0000B86104
:1054B00014EB8500806980690600D2E70120BDE811
:1054C000F2832DE9F84F04000020814600200500FA
:1054D00000200600002007000020804600208246B1
:1054E00059F001092069406830EA090021694860E3
:1054F00000212000FAF7EFFF002083466078834503
:105500000CD214EB8B008069FF21816014EB8B00BF
:10551000406DFF2181601BF1010BEFE720695FF017
:10552000FF318161012060F30F05012060F31F4509
:105530002069C56156F0080656F0010656F00406CB
:1055400056F002062069466157F0010757F0080738
:1055500057F0020757F0040757F02007206907614A
:1055600020690068804638F4FE682069C0F8008031
:105570002000FBF7A4FB002082465AF4805AE06822
:10558000C0F814A02000264909680969884701204D
:10559000BDE8F28F70B504002000FBF73EF9E0682B
:1055A000C06806002000FBF71EF9032808D1002080
:1055B000A0704FF40070A080092060F38D2606E0F3
:1055C0000120A0704020A080052060F38D26E068B7
:1055D000C6600020050055F40055E06845610120D3
:1055E00070BD38B504000020050020000C49096892
:1055F000C969884755F48015E0684561012032BDCE
:1056000038B5040000200500200005490968096A32
:10561000884755F40015E0684561012032BD00005F
:105620007001002010ED00E030B4020015692D6912
:105630002C0015696D6B2B0033FA01F515F001058F
:1056400054EAC514C9B212EB8105AD69AD682540B5
:10565000280030BC704706007047FEE7FEE7FEE713
:10566000FEE770477047704770B50026964800788F
:10567000002802D1FDF75DF8CDE000F0EFF804005E
:105680006078002802D1A078002804D004222100EC
:105690008E4800F0B8F98E480078401C8C4908709C
:1056A0008B4800780A2840F0B6808A4800210170B3
:1056B000884800218170002200218748FEF7D0FA37
:1056C000002204218448FEF7CBFA002208218248F8
:1056D000FEF7C6FA00220C217F48FEF7C1FA062227
:1056E00029217C48FCF7F1FC7A4800787B4991F944
:1056F0000010401A7749087076488078784991F907
:105700000010401A73498870724890F9000040B246
:10571000002805D56F4890F9000040B2454201E0ED
:105720006C4805786B4890F9020040B2002805D516
:10573000684890F9020040B2464201E06548867828
:10574000EDB2F6B2B54201D2300000E02800654962
:1057500008706448007800285AD05E4890F900002C
:1057600040B210F1020F0DDA01220C215A48FEF767
:1057700077FA4FF47A705B49097890FBF1F156485B
:10578000FEF746FA534890F9000040B203280DDBBB
:10579000012204215048FEF763FA4FF47A70514910
:1057A000097890FBF1F14C48FEF72EFA494890F940
:1057B000020040B203280DDB012200214648FEF71B
:1057C0004FFA4FF47A704749097890FBF1F142485B
:1057D000FEF718FA3F4890F9020040B210F1020FAC
:1057E0000DDA012208213C48FEF73AFA4FF47A70AC
:1057F0003C49097890FBF1F13748FEF707FA40F28F
:10580000CF703849097890FBF1F13348FEF7CFF8B3
:105810002F480021017070BD80B53348012101700F
:105820000120FBF7DCFD01BD80B52848807A002807
:105830000AD02E48006830F006002C49086000F0BD
:105840000FF92248FBF764FA5FF48020FBF7C7FDED
:1058500001BD80B51D48FFF797FB01BD244800211D
:1058600041702348002181701A4890F9020040B22B
:1058700010F1020F04DA1E484078C01D1C49487020
:10588000144890F9020040B2032804DB184840781D
:10589000C01F174948700F4890F9000040B210F13E
:1058A000020F04DA12488078C01D11498870094837
:1058B00090F9000040B2032804DB0D488078C01F37
:1058C0000B4988700A4870475A0800207C01002064
:1058D0006108002018080020000800405C08002033
:1058E0005D080020620800205B08002010ED00E049
:1058F0003008002038B504000D0003230422812164
:105900002000FEF70EFA0323042201212000FEF7F7
:1059100008FA002032BD38B504000D0081212000B6
:10592000FEF73DFA01212000FEF739FA002032BDD2
:10593000F8B504000D0000260027287810F060005C
:10594000C0B2002828D020285BD16878022816D061
:10595000032807D00A280BD00B2816D1A878354980
:10596000086018E0012233492000FFF7B2FA12E084
:10597000688880B2000AC0B22F4908600BE001229B
:105980002D492000FFF7A5FA05E029002000FFF7C8
:1059900058FA022036E034E06878062804D00A2855
:1059A00026D00B282AD02CE0688880B2000AC0B22A
:1059B000222808D1E8884B2801D34A2600E0EE8847
:1059C0001E4807000DE0688880B2000AC0B2212896
:1059D00007D11B480700E8880A2801D3092600E000
:1059E000EE88320092B239002000FFF772FA08E028
:1059F000012214492000FFF76CFA02E0A87811494F
:105A000008600020F2BD70B504000D00160094F887
:105A10001201032806D1B6B233002A0081212000EA
:105A2000FEF715FA002070BD02002220088006480B
:105A300070470000380800203C08002000000020CB
:105A4000B600002034080020A400002038B504006F
:105A50000D0081212000FEF779FA002032BD000000
:105A600080B54E48006850F001004C4908604C4831
:105A700000210160494800684A49084047490860D8
:105A800049484A4901604548006830F4802043494C
:105A9000086047480021016000F005F845485FF0C4
:105AA0000061016001BD82B00020019000200090E3
:105AB0003A48006850F48030384908603748006838
:105AC00010F4003000900198401C019000980028CC
:105AD00003D10198B0F5A06FF0D130480068800381
:105AE00002D50120009001E00020009000980128DC
:105AF0003ED13148006850F080502F4908602F484F
:105B0000006850F480402D49086025482449096800
:105B100001602348006850F4004021490860204893
:105B2000006850F4A0501E4908601F4824490160D5
:105B30001A48006850F080701849086017480068DB
:105B40008001FBD51F4840F20561016014480068E0
:105B500080088000124908601148006850F0020077
:105B60000F4908600E48006810F00C000828F9D1B1
:105B70000B48006830F400000949086012481349D6
:105B800001600648006850F08060044908600348DE
:105B900000680001FBD502B07047000000380240E9
:105BA00008380240FFFFF6FE04380240103000249F
:105BB0000C38024008ED00E0403802400070004020
:105BC00008544007003C0240843802400030005036
:105BD0000200122008802E4870470200042008802E
:105BE0002C48704738B504000D00E4B2002C05D1F4
:105BF0002A0029492948FFF73FF904E02A002649ED
:105C00002748FFF739F9244832BD38B504000D00A4
:105C10002A0021492348FFF72FF91F4832BD38B524
:105C200004000D00E4B2002C05D12A001A491E48D8
:105C3000FFF722F904E02A0017491C48FFF71CF976
:105C4000154832BD38B504000D00E4B2002C05D172
:105C50002A0011491648FFF70FF904E02A000E49FF
:105C60001348FFF709F90C4832BD38B504000D00A0
:105C7000E4B2002C05D12A0007490E48FFF7FCF8D2
:105C800004E02A0004490B48FFF7F6F8024832BD49
:105C900000010020740100206C070020885E0008CD
:105CA0009C5E0008B05E0008D45E0008E45E000858
:105CB000045F0008F45E000840B2002808D540B236
:105CC00010F00F02174BD2180B0102F8043C03E04E
:105CD00040B2154A0B018354704710B50400B4F16B
:105CE000807F01D3012010E02002000A401E0F49EE
:105CF00008600F215FF0FF30FFF7DEFF0C48002146
:105D000001600C4807210160002010BD80B50A48E1
:105D100000681821B0FBF1F0FFF7DFFF002800D08A
:105D2000FEE701BD18ED00E000E400E014E000E053
:105D300018E000E010E000E06C010020C0B2002894
:105D400002D0012801D001E000E0FFE77047704772
:105D500070477047704770470000B4102021FB3037
:105D6000FF3FEB4D815A8B65D96E4076A27BE67E74
:105D7000FF7FE67EA27B4076D96E8B65815AEB4D24
:105D8000FF3FFB302021B41000004CEFE0DE05CFD8
:105D900001C015B27FA5759A2791C0895E841A81CA
:105DA00001801A815E84C0892791759A7FA515B2FA
:105DB00001C005CFE0DE4CEF10B5084979441C3135
:105DC000074C7C441A34A14206D0081D0A685118B9
:105DD00088470146A142F8D110BD00BF080000006D
:105DE0002800000013C2FFFFE80600007C0100202D
:105DF000000000009FAFFFFF7C0100009802000040
:105E000000000020000000000448016841F4700117
:105E100001600348804703480047000088ED00E028
:105E2000615A0008115F00084EF68851CEF2000159
:105E3000086840F4700008604FF00070E1EE100A4E
:105E40007047000000F009F8002801D0FFF7B4FF08
:105E50000020FCF766FA00F002F80120704780B5D8
:105E600000F002F800BF00000746384600F002F8D4
:105E7000FBE7000080B5C046C046024A110018206A
:105E8000ABBEFBE7260002004A6F79737469636B4F
:105E900020696E204853206D6F6465004A6F7973E6
:105EA0007469636B20696E204653204D6F646500F2
:105EB00053544D6963726F656C656374726F6E697C
:105EC00063730000080000000800000008000000E4
:105ED0000800000030303030303030303031314266
:105EE000000000003030303030303030303131435D
:105EF0000000000048494420496E74657266616381
:105F00006500000048494420436F6E6669670000E1
:105F1000C046C046FFF788FFFFF794FF001000203F
:105F20000040008001000000FFF796BBFFF795BB23
:105F3000FFF794BBFFF793BBFFF792BBFFF791BB53
:105F4000FFF790BBFFF78FBBFFF78EBBFFF7FEBFDE
:105F5000FFF7FEBFFFF7FEBFFFF7FEBFFFF7FEBF75
:105F6000FFF7FEBFFFF758BCFFF7FEBFFFF7FEBF0E
:105F7000FFF7FEBFFFF7FEBFFCF745BDFFF7FEBF13
:105F8000FFF7FEBFFFF7FEBFFFF7FEBFFFF7FEBF45
:105F9000FFF7FEBFFFF7FEBFFFF7FEBFFFF7FEBF35
:105FA000FFF7FEBFFFF7FEBFFFF7FEBFFFF7FEBF25
:105FB000FFF7FEBFFFF7FEBFFFF7FEBFFFF7FEBF15
:105FC000FFF7FEBFFFF7FEBFFFF7FEBFFFF7FEBF05
:105FD000FFF7FEBFFFF7FEBFFFF7FEBFFFF7FEBFF5
:105FE000FFF7FEBFFFF7FEBFFFF7FEBFFFF7FEBFE5
:105FF000FFF7FEBFFFF718BCFFF7FEBFFFF7FEBFBE
:10600000FFF7FEBFFFF7FEBFFCF7F9BCFFF7FEBFCF
:10601000FFF7FEBFFFF7FEBFFCF7F9BCFFF7FEBFBF
:10602000FFF7FEBFFFF7FEBFFFF7FEBFFFF7FEBFA4
:10603000FFF7FEBFFFF7FEBFFFF7FEBFFFF7FEBF94
:10604000FFF7FEBFFFF7FEBFFFF7FEBFFFF7FEBF84
:10605000FFF7FEBFFFF7FEBFFFF7FBBBFFF7FEBF7B
:10606000FFF7FEBFFFF7FEBFFFF7FEBFFFF7FEBF64
:10607000FFF7FEBFFFF7FEBFFFF7FEBFFFF7FEBF54
:10608000FFF7FEBFFFF7FEBFFFF7FEBFFFF7FEBF44
:10609000FFF7FEBF05010902A1010901A1000509E1
:1060A0001901290315002501950375018102950148
:1060B0007505810105010930093109381581257FF0
:1060C000750895038106C0093C05FF0901150025E7
:1060D0000175019502B12275069501B101C000005C
:1060E00041400008DB400008EF3F0008F541000890
:1060F00099410008DF410008C941000849420008F1
:106100005B4200080000000000000000F558000895
:106110001759000831590008000000000000000075
:106120004D5A0008000000000000000000000000C0
:1061300000000000295A000809022200010100E0C5
:1061400032090400000103010200092111010001CC
:10615000224A000705810304000A0000D15B000801
:10616000DB5B00080B5C0008E55B00081F5C0008B7
:10617000455C00086B5C00080D5D00083D5D000893
:106180004F5D0008555D0008575D0008515D00082F
:10619000535D000812010002000000408304105704
:1061A0000002010203010000000C0240000C02404A
:1061B000000C0240000C0240000000000102030439
:1061C000010203040607080900000240FFFF000067
:1061D00000C012000100000000002000B860024072
:1061E0000C3C00402F0000000000002800000024AC
:1061F00000004020000000220000002100100000EC
:10620000007A030A4C00002004030904180000006F
:0400000508005F117F
:00000001FF
